{
  "_format": "hh-sol-artifact-1",
  "contractName": "GalaxyToken",
  "sourceName": "contracts/GalaxyToken.sol",
  "abi": [
    {
      "inputs": [],
      "stateMutability": "nonpayable",
      "type": "constructor"
    },
    {
      "anonymous": false,
      "inputs": [
        {
          "indexed": true,
          "internalType": "address",
          "name": "account",
          "type": "address"
        },
        {
          "indexed": true,
          "internalType": "address",
          "name": "operator",
          "type": "address"
        },
        {
          "indexed": false,
          "internalType": "bool",
          "name": "approved",
          "type": "bool"
        }
      ],
      "name": "ApprovalForAll",
      "type": "event"
    },
    {
      "anonymous": false,
      "inputs": [
        {
          "indexed": true,
          "internalType": "address",
          "name": "",
          "type": "address"
        },
        {
          "indexed": true,
          "internalType": "uint256",
          "name": "",
          "type": "uint256"
        }
      ],
      "name": "NfTokenMint",
      "type": "event"
    },
    {
      "anonymous": false,
      "inputs": [
        {
          "indexed": true,
          "internalType": "uint256",
          "name": "",
          "type": "uint256"
        },
        {
          "indexed": true,
          "internalType": "address",
          "name": "",
          "type": "address"
        },
        {
          "indexed": false,
          "internalType": "uint256",
          "name": "",
          "type": "uint256"
        }
      ],
      "name": "OwnerCredited",
      "type": "event"
    },
    {
      "anonymous": false,
      "inputs": [
        {
          "indexed": true,
          "internalType": "address",
          "name": "previousOwner",
          "type": "address"
        },
        {
          "indexed": true,
          "internalType": "address",
          "name": "newOwner",
          "type": "address"
        }
      ],
      "name": "OwnershipTransferred",
      "type": "event"
    },
    {
      "anonymous": false,
      "inputs": [
        {
          "indexed": true,
          "internalType": "address",
          "name": "",
          "type": "address"
        },
        {
          "indexed": false,
          "internalType": "uint256",
          "name": "",
          "type": "uint256"
        }
      ],
      "name": "TokenCreation",
      "type": "event"
    },
    {
      "anonymous": false,
      "inputs": [
        {
          "indexed": true,
          "internalType": "address",
          "name": "operator",
          "type": "address"
        },
        {
          "indexed": true,
          "internalType": "address",
          "name": "from",
          "type": "address"
        },
        {
          "indexed": true,
          "internalType": "address",
          "name": "to",
          "type": "address"
        },
        {
          "indexed": false,
          "internalType": "uint256[]",
          "name": "ids",
          "type": "uint256[]"
        },
        {
          "indexed": false,
          "internalType": "uint256[]",
          "name": "values",
          "type": "uint256[]"
        }
      ],
      "name": "TransferBatch",
      "type": "event"
    },
    {
      "anonymous": false,
      "inputs": [
        {
          "indexed": true,
          "internalType": "address",
          "name": "operator",
          "type": "address"
        },
        {
          "indexed": true,
          "internalType": "address",
          "name": "from",
          "type": "address"
        },
        {
          "indexed": true,
          "internalType": "address",
          "name": "to",
          "type": "address"
        },
        {
          "indexed": false,
          "internalType": "uint256",
          "name": "id",
          "type": "uint256"
        },
        {
          "indexed": false,
          "internalType": "uint256",
          "name": "value",
          "type": "uint256"
        }
      ],
      "name": "TransferSingle",
      "type": "event"
    },
    {
      "anonymous": false,
      "inputs": [
        {
          "indexed": false,
          "internalType": "string",
          "name": "value",
          "type": "string"
        },
        {
          "indexed": true,
          "internalType": "uint256",
          "name": "id",
          "type": "uint256"
        }
      ],
      "name": "URI",
      "type": "event"
    },
    {
      "inputs": [],
      "name": "ERC1155_BATCH_RECEIVED",
      "outputs": [
        {
          "internalType": "bytes4",
          "name": "",
          "type": "bytes4"
        }
      ],
      "stateMutability": "view",
      "type": "function"
    },
    {
      "inputs": [],
      "name": "ERC1155_RECEIVED",
      "outputs": [
        {
          "internalType": "bytes4",
          "name": "",
          "type": "bytes4"
        }
      ],
      "stateMutability": "view",
      "type": "function"
    },
    {
      "inputs": [
        {
          "internalType": "address",
          "name": "account",
          "type": "address"
        },
        {
          "internalType": "uint256",
          "name": "_type",
          "type": "uint256"
        }
      ],
      "name": "addOperator",
      "outputs": [
        {
          "internalType": "bool",
          "name": "",
          "type": "bool"
        }
      ],
      "stateMutability": "nonpayable",
      "type": "function"
    },
    {
      "inputs": [
        {
          "internalType": "address",
          "name": "account",
          "type": "address"
        },
        {
          "internalType": "uint256",
          "name": "id",
          "type": "uint256"
        }
      ],
      "name": "balanceOf",
      "outputs": [
        {
          "internalType": "uint256",
          "name": "",
          "type": "uint256"
        }
      ],
      "stateMutability": "view",
      "type": "function"
    },
    {
      "inputs": [
        {
          "internalType": "address[]",
          "name": "accounts",
          "type": "address[]"
        },
        {
          "internalType": "uint256[]",
          "name": "ids",
          "type": "uint256[]"
        }
      ],
      "name": "balanceOfBatch",
      "outputs": [
        {
          "internalType": "uint256[]",
          "name": "",
          "type": "uint256[]"
        }
      ],
      "stateMutability": "view",
      "type": "function"
    },
    {
      "inputs": [
        {
          "internalType": "address",
          "name": "",
          "type": "address"
        },
        {
          "internalType": "uint256",
          "name": "",
          "type": "uint256"
        }
      ],
      "name": "claimableAmount",
      "outputs": [
        {
          "internalType": "uint256",
          "name": "",
          "type": "uint256"
        }
      ],
      "stateMutability": "view",
      "type": "function"
    },
    {
      "inputs": [
        {
          "internalType": "bool",
          "name": "isNF",
          "type": "bool"
        }
      ],
      "name": "createTokenType",
      "outputs": [
        {
          "internalType": "uint256",
          "name": "_type",
          "type": "uint256"
        }
      ],
      "stateMutability": "nonpayable",
      "type": "function"
    },
    {
      "inputs": [
        {
          "internalType": "uint256",
          "name": "_type",
          "type": "uint256"
        },
        {
          "internalType": "address",
          "name": "account",
          "type": "address"
        }
      ],
      "name": "dividendClaim",
      "outputs": [
        {
          "internalType": "uint256",
          "name": "_amount",
          "type": "uint256"
        }
      ],
      "stateMutability": "nonpayable",
      "type": "function"
    },
    {
      "inputs": [
        {
          "internalType": "address",
          "name": "account",
          "type": "address"
        },
        {
          "internalType": "uint256",
          "name": "_type",
          "type": "uint256"
        },
        {
          "internalType": "uint256",
          "name": "amount",
          "type": "uint256"
        }
      ],
      "name": "fungibleBurn",
      "outputs": [
        {
          "internalType": "bool",
          "name": "",
          "type": "bool"
        }
      ],
      "stateMutability": "nonpayable",
      "type": "function"
    },
    {
      "inputs": [
        {
          "internalType": "address",
          "name": "account",
          "type": "address"
        },
        {
          "internalType": "uint256",
          "name": "_type",
          "type": "uint256"
        },
        {
          "internalType": "uint256",
          "name": "amount",
          "type": "uint256"
        },
        {
          "internalType": "bytes",
          "name": "data",
          "type": "bytes"
        }
      ],
      "name": "fungibleMint",
      "outputs": [
        {
          "internalType": "bool",
          "name": "",
          "type": "bool"
        }
      ],
      "stateMutability": "nonpayable",
      "type": "function"
    },
    {
      "inputs": [
        {
          "internalType": "uint256",
          "name": "id",
          "type": "uint256"
        }
      ],
      "name": "getNfOwner",
      "outputs": [
        {
          "internalType": "address",
          "name": "",
          "type": "address"
        }
      ],
      "stateMutability": "view",
      "type": "function"
    },
    {
      "inputs": [
        {
          "internalType": "uint256",
          "name": "id",
          "type": "uint256"
        }
      ],
      "name": "getNonFungibleIndex",
      "outputs": [
        {
          "internalType": "uint256",
          "name": "",
          "type": "uint256"
        }
      ],
      "stateMutability": "pure",
      "type": "function"
    },
    {
      "inputs": [
        {
          "internalType": "uint256",
          "name": "id",
          "type": "uint256"
        }
      ],
      "name": "getNonFungibleTokenType",
      "outputs": [
        {
          "internalType": "uint256",
          "name": "",
          "type": "uint256"
        }
      ],
      "stateMutability": "pure",
      "type": "function"
    },
    {
      "inputs": [
        {
          "internalType": "address",
          "name": "",
          "type": "address"
        },
        {
          "internalType": "uint256",
          "name": "",
          "type": "uint256"
        }
      ],
      "name": "holderAmount",
      "outputs": [
        {
          "internalType": "uint256",
          "name": "",
          "type": "uint256"
        }
      ],
      "stateMutability": "view",
      "type": "function"
    },
    {
      "inputs": [
        {
          "internalType": "address",
          "name": "account",
          "type": "address"
        },
        {
          "internalType": "address",
          "name": "operator",
          "type": "address"
        }
      ],
      "name": "isApprovedForAll",
      "outputs": [
        {
          "internalType": "bool",
          "name": "",
          "type": "bool"
        }
      ],
      "stateMutability": "view",
      "type": "function"
    },
    {
      "inputs": [
        {
          "internalType": "uint256",
          "name": "id",
          "type": "uint256"
        }
      ],
      "name": "isFungible",
      "outputs": [
        {
          "internalType": "bool",
          "name": "",
          "type": "bool"
        }
      ],
      "stateMutability": "pure",
      "type": "function"
    },
    {
      "inputs": [
        {
          "internalType": "uint256",
          "name": "id",
          "type": "uint256"
        }
      ],
      "name": "isNonFungible",
      "outputs": [
        {
          "internalType": "bool",
          "name": "",
          "type": "bool"
        }
      ],
      "stateMutability": "pure",
      "type": "function"
    },
    {
      "inputs": [
        {
          "internalType": "address",
          "name": "account",
          "type": "address"
        },
        {
          "internalType": "uint256",
          "name": "_type",
          "type": "uint256"
        },
        {
          "internalType": "string",
          "name": "tokenURI",
          "type": "string"
        }
      ],
      "name": "nonFungibleMint",
      "outputs": [
        {
          "internalType": "uint256",
          "name": "id",
          "type": "uint256"
        }
      ],
      "stateMutability": "nonpayable",
      "type": "function"
    },
    {
      "inputs": [
        {
          "internalType": "address",
          "name": "operator",
          "type": "address"
        },
        {
          "internalType": "address",
          "name": "from",
          "type": "address"
        },
        {
          "internalType": "uint256[]",
          "name": "ids",
          "type": "uint256[]"
        },
        {
          "internalType": "uint256[]",
          "name": "values",
          "type": "uint256[]"
        },
        {
          "internalType": "bytes",
          "name": "data",
          "type": "bytes"
        }
      ],
      "name": "onERC1155BatchReceived",
      "outputs": [
        {
          "internalType": "bytes4",
          "name": "",
          "type": "bytes4"
        }
      ],
      "stateMutability": "nonpayable",
      "type": "function"
    },
    {
      "inputs": [
        {
          "internalType": "address",
          "name": "operator",
          "type": "address"
        },
        {
          "internalType": "address",
          "name": "from",
          "type": "address"
        },
        {
          "internalType": "uint256",
          "name": "id",
          "type": "uint256"
        },
        {
          "internalType": "uint256",
          "name": "value",
          "type": "uint256"
        },
        {
          "internalType": "bytes",
          "name": "data",
          "type": "bytes"
        }
      ],
      "name": "onERC1155Received",
      "outputs": [
        {
          "internalType": "bytes4",
          "name": "",
          "type": "bytes4"
        }
      ],
      "stateMutability": "nonpayable",
      "type": "function"
    },
    {
      "inputs": [
        {
          "internalType": "uint256",
          "name": "",
          "type": "uint256"
        },
        {
          "internalType": "address",
          "name": "",
          "type": "address"
        }
      ],
      "name": "operators",
      "outputs": [
        {
          "internalType": "bool",
          "name": "",
          "type": "bool"
        }
      ],
      "stateMutability": "view",
      "type": "function"
    },
    {
      "inputs": [],
      "name": "owner",
      "outputs": [
        {
          "internalType": "address",
          "name": "",
          "type": "address"
        }
      ],
      "stateMutability": "view",
      "type": "function"
    },
    {
      "inputs": [
        {
          "internalType": "uint256",
          "name": "_type",
          "type": "uint256"
        },
        {
          "internalType": "address",
          "name": "account",
          "type": "address"
        },
        {
          "internalType": "uint256",
          "name": "amount",
          "type": "uint256"
        }
      ],
      "name": "provideDividend",
      "outputs": [],
      "stateMutability": "nonpayable",
      "type": "function"
    },
    {
      "inputs": [
        {
          "internalType": "address",
          "name": "account",
          "type": "address"
        },
        {
          "internalType": "uint256",
          "name": "_type",
          "type": "uint256"
        }
      ],
      "name": "removeOperator",
      "outputs": [
        {
          "internalType": "bool",
          "name": "",
          "type": "bool"
        }
      ],
      "stateMutability": "nonpayable",
      "type": "function"
    },
    {
      "inputs": [],
      "name": "renounceOwnership",
      "outputs": [],
      "stateMutability": "nonpayable",
      "type": "function"
    },
    {
      "inputs": [
        {
          "internalType": "address",
          "name": "from",
          "type": "address"
        },
        {
          "internalType": "address",
          "name": "to",
          "type": "address"
        },
        {
          "internalType": "uint256[]",
          "name": "ids",
          "type": "uint256[]"
        },
        {
          "internalType": "uint256[]",
          "name": "amounts",
          "type": "uint256[]"
        },
        {
          "internalType": "bytes",
          "name": "data",
          "type": "bytes"
        }
      ],
      "name": "safeBatchTransferFrom",
      "outputs": [],
      "stateMutability": "nonpayable",
      "type": "function"
    },
    {
      "inputs": [
        {
          "internalType": "address",
          "name": "from",
          "type": "address"
        },
        {
          "internalType": "address",
          "name": "to",
          "type": "address"
        },
        {
          "internalType": "uint256",
          "name": "id",
          "type": "uint256"
        },
        {
          "internalType": "uint256",
          "name": "amount",
          "type": "uint256"
        },
        {
          "internalType": "bytes",
          "name": "data",
          "type": "bytes"
        }
      ],
      "name": "safeTransferFrom",
      "outputs": [],
      "stateMutability": "nonpayable",
      "type": "function"
    },
    {
      "inputs": [
        {
          "internalType": "address",
          "name": "operator",
          "type": "address"
        },
        {
          "internalType": "bool",
          "name": "approved",
          "type": "bool"
        }
      ],
      "name": "setApprovalForAll",
      "outputs": [],
      "stateMutability": "nonpayable",
      "type": "function"
    },
    {
      "inputs": [
        {
          "internalType": "bytes4",
          "name": "interfaceId",
          "type": "bytes4"
        }
      ],
      "name": "supportsInterface",
      "outputs": [
        {
          "internalType": "bool",
          "name": "",
          "type": "bool"
        }
      ],
      "stateMutability": "view",
      "type": "function"
    },
    {
      "inputs": [
        {
          "internalType": "uint256",
          "name": "",
          "type": "uint256"
        }
      ],
      "name": "tokenMetadata",
      "outputs": [
        {
          "internalType": "string",
          "name": "",
          "type": "string"
        }
      ],
      "stateMutability": "view",
      "type": "function"
    },
    {
      "inputs": [
        {
          "internalType": "uint256",
          "name": "",
          "type": "uint256"
        }
      ],
      "name": "totalSupply",
      "outputs": [
        {
          "internalType": "uint256",
          "name": "",
          "type": "uint256"
        }
      ],
      "stateMutability": "view",
      "type": "function"
    },
    {
      "inputs": [
        {
          "internalType": "address",
          "name": "newOwner",
          "type": "address"
        }
      ],
      "name": "transferOwnership",
      "outputs": [],
      "stateMutability": "nonpayable",
      "type": "function"
    },
    {
      "inputs": [
        {
          "internalType": "uint256",
          "name": "",
          "type": "uint256"
        }
      ],
      "name": "uri",
      "outputs": [
        {
          "internalType": "string",
          "name": "",
          "type": "string"
        }
      ],
      "stateMutability": "view",
      "type": "function"
    }
  ],
  "bytecode": "0x60806040523480156200001157600080fd5b506040518060400160405280600b81526020017f47616c617879546f6b656e00000000000000000000000000000000000000000081525062000059816200008060201b60201c565b506200007a6200006e6200009c60201b60201c565b620000a460201b60201c565b6200027f565b8060029080519060200190620000989291906200016a565b5050565b600033905090565b6000600360009054906101000a900473ffffffffffffffffffffffffffffffffffffffff16905081600360006101000a81548173ffffffffffffffffffffffffffffffffffffffff021916908373ffffffffffffffffffffffffffffffffffffffff1602179055508173ffffffffffffffffffffffffffffffffffffffff168173ffffffffffffffffffffffffffffffffffffffff167f8be0079c531659141344cd1fd0a4f28419497f9722a3daafe3b4186f6b6457e060405160405180910390a35050565b82805462000178906200021a565b90600052602060002090601f0160209004810192826200019c5760008555620001e8565b82601f10620001b757805160ff1916838001178555620001e8565b82800160010185558215620001e8579182015b82811115620001e7578251825591602001919060010190620001ca565b5b509050620001f79190620001fb565b5090565b5b8082111562000216576000816000905550600101620001fc565b5090565b600060028204905060018216806200023357607f821691505b602082108114156200024a576200024962000250565b5b50919050565b7f4e487b7100000000000000000000000000000000000000000000000000000000600052602260045260246000fd5b614e97806200028f6000396000f3fe608060405234801561001057600080fd5b50600436106101f95760003560e01c80638da5cb5b1161011a578063d533da2a116100ad578063e985e9c51161007c578063e985e9c5146106b8578063f23a6e61146106e8578063f242432a14610718578063f2fde38b14610734578063fc67bf1c14610750576101f9565b8063d533da2a1461060a578063e0a5c9491461063a578063e44591f014610658578063e4b5b61a14610688576101f9565b8063a22cb465116100e9578063a22cb4651461055e578063adebf6f21461057a578063bc197c81146105aa578063bd85b039146105da576101f9565b80638da5cb5b146104c457806398b4ad6f146104e25780639cca1c6414610512578063a1eb700114610542576101f9565b80633b0e4d3411610192578063715018a611610161578063715018a61461042a578063717b7f361461043457806379b8d938146104645780637a01562714610494576101f9565b80633b0e4d341461036a5780633fa9f7f31461039a5780634e1273f4146103ca5780636914db60146103fa576101f9565b80630e89341c116101ce5780630e89341c146102be5780630f7fa72f146102ee5780632eb2c2d61461031e5780633979aba71461033a576101f9565b8062fdd58e146101fe578062ffc1351461022e57806301ffc9a71461025e57806305caa0ff1461028e575b600080fd5b610218600480360381019061021391906137f7565b61076e565b604051610225919061433f565b60405180910390f35b61024860048036038101906102439190613a74565b610837565b604051610255919061433f565b60405180910390f35b610278600480360381019061027391906139f9565b61094c565b6040516102859190614047565b60405180910390f35b6102a860048036038101906102a391906139d0565b610a2e565b6040516102b5919061433f565b60405180910390f35b6102d860048036038101906102d39190613a4b565b610af8565b6040516102e5919061407d565b60405180910390f35b610308600480360381019061030391906137f7565b610b8c565b6040516103159190614047565b60405180910390f35b610338600480360381019061033391906135db565b610cd9565b005b610354600480360381019061034f91906137f7565b610d7a565b6040516103619190614047565b60405180910390f35b610384600480360381019061037f9190613a74565b610ec8565b6040516103919190614047565b60405180910390f35b6103b460048036038101906103af9190613a4b565b610ef7565b6040516103c19190613f11565b60405180910390f35b6103e460048036038101906103df9190613964565b610f34565b6040516103f19190613fee565b60405180910390f35b610414600480360381019061040f9190613a4b565b6110e5565b604051610421919061407d565b60405180910390f35b610432611185565b005b61044e6004803603810190610449919061389a565b61120d565b60405161045b9190614047565b60405180910390f35b61047e600480360381019061047991906137f7565b611425565b60405161048b919061433f565b60405180910390f35b6104ae60048036038101906104a991906137f7565b61144a565b6040516104bb919061433f565b60405180910390f35b6104cc61146f565b6040516104d99190613f11565b60405180910390f35b6104fc60048036038101906104f79190613833565b611499565b604051610509919061433f565b60405180910390f35b61052c60048036038101906105279190613a4b565b611590565b604051610539919061433f565b60405180910390f35b61055c60048036038101906105579190613ab0565b6115ae565b005b610578600480360381019061057391906137bb565b61172d565b005b610594600480360381019061058f9190613a4b565b6118ae565b6040516105a19190614047565b60405180910390f35b6105c460048036038101906105bf919061350f565b6118dc565b6040516105d19190614062565b60405180910390f35b6105f460048036038101906105ef9190613a4b565b6118f4565b604051610601919061433f565b60405180910390f35b610624600480360381019061061f91906138e9565b61190c565b6040516106319190614047565b60405180910390f35b610642611b26565b60405161064f9190614062565b60405180910390f35b610672600480360381019061066d9190613a4b565b611b31565b60405161067f9190614047565b60405180910390f35b6106a2600480360381019061069d9190613a4b565b611b5f565b6040516106af919061433f565b60405180910390f35b6106d260048036038101906106cd91906134d3565b611b81565b6040516106df9190614047565b60405180910390f35b61070260048036038101906106fd919061369a565b611bd2565b60405161070f9190614062565b60405180910390f35b610732600480360381019061072d919061372c565b611be8565b005b61074e600480360381019061074991906134aa565b611e7e565b005b610758611f76565b6040516107659190614062565b60405180910390f35b60008073ffffffffffffffffffffffffffffffffffffffff168373ffffffffffffffffffffffffffffffffffffffff1614156107df576040517f08c379a00000000000000000000000000000000000000000000000000000000081526004016107d6906140ff565b60405180910390fd5b60008083815260200190815260200160002060008473ffffffffffffffffffffffffffffffffffffffff1673ffffffffffffffffffffffffffffffffffffffff16815260200190815260200160002054905092915050565b6000610842836118ae565b610881576040517f08c379a00000000000000000000000000000000000000000000000000000000081526004016108789061417f565b60405180910390fd5b600860008373ffffffffffffffffffffffffffffffffffffffff1673ffffffffffffffffffffffffffffffffffffffff16815260200190815260200160002060008481526020019081526020016000205490506108ef8284836040518060200160405280600081525061190c565b506000600860008473ffffffffffffffffffffffffffffffffffffffff1673ffffffffffffffffffffffffffffffffffffffff16815260200190815260200160002060008581526020019081526020016000208190555092915050565b60007fd9b67a26000000000000000000000000000000000000000000000000000000007bffffffffffffffffffffffffffffffffffffffffffffffffffffffff1916827bffffffffffffffffffffffffffffffffffffffffffffffffffffffff19161480610a1757507f0e89341c000000000000000000000000000000000000000000000000000000007bffffffffffffffffffffffffffffffffffffffffffffffffffffffff1916827bffffffffffffffffffffffffffffffffffffffffffffffffffffffff1916145b80610a275750610a2682611f81565b5b9050919050565b6000610a38611feb565b73ffffffffffffffffffffffffffffffffffffffff16610a5661146f565b73ffffffffffffffffffffffffffffffffffffffff1614610aac576040517f08c379a0000000000000000000000000000000000000000000000000000000008152600401610aa39061423f565b60405180910390fd5b6080600460008154610abd90614676565b919050819055901b90508115610af3577f8000000000000000000000000000000000000000000000000000000000000000811790505b919050565b606060028054610b0790614613565b80601f0160208091040260200160405190810160405280929190818152602001828054610b3390614613565b8015610b805780601f10610b5557610100808354040283529160200191610b80565b820191906000526020600020905b815481529060010190602001808311610b6357829003601f168201915b50505050509050919050565b6000610b96611feb565b73ffffffffffffffffffffffffffffffffffffffff16610bb461146f565b73ffffffffffffffffffffffffffffffffffffffff1614610c0a576040517f08c379a0000000000000000000000000000000000000000000000000000000008152600401610c019061423f565b60405180910390fd5b60016006600084815260200190815260200160002060008573ffffffffffffffffffffffffffffffffffffffff1673ffffffffffffffffffffffffffffffffffffffff16815260200190815260200160002060006101000a81548160ff0219169083151502179055506006600083815260200190815260200160002060008473ffffffffffffffffffffffffffffffffffffffff1673ffffffffffffffffffffffffffffffffffffffff16815260200190815260200160002060009054906101000a900460ff16905092915050565b610ce1611feb565b73ffffffffffffffffffffffffffffffffffffffff168573ffffffffffffffffffffffffffffffffffffffff161480610d275750610d2685610d21611feb565b611b81565b5b610d66576040517f08c379a0000000000000000000000000000000000000000000000000000000008152600401610d5d906141df565b60405180910390fd5b610d738585858585611ff3565b5050505050565b6000610d84611feb565b73ffffffffffffffffffffffffffffffffffffffff16610da261146f565b73ffffffffffffffffffffffffffffffffffffffff1614610df8576040517f08c379a0000000000000000000000000000000000000000000000000000000008152600401610def9061423f565b60405180910390fd5b60006006600084815260200190815260200160002060008573ffffffffffffffffffffffffffffffffffffffff1673ffffffffffffffffffffffffffffffffffffffff16815260200190815260200160002060006101000a81548160ff0219169083151502179055506006600083815260200190815260200160002060008473ffffffffffffffffffffffffffffffffffffffff1673ffffffffffffffffffffffffffffffffffffffff16815260200190815260200160002060009054906101000a900460ff1615905092915050565b60066020528160005260406000206020528060005260406000206000915091509054906101000a900460ff1681565b60006005600083815260200190815260200160002060009054906101000a900473ffffffffffffffffffffffffffffffffffffffff169050919050565b60608151835114610f7a576040517f08c379a0000000000000000000000000000000000000000000000000000000008152600401610f71906142df565b60405180910390fd5b6000835167ffffffffffffffff811115610fbd577f4e487b7100000000000000000000000000000000000000000000000000000000600052604160045260246000fd5b604051908082528060200260200182016040528015610feb5781602001602082028036833780820191505090505b50905060005b84518110156110da57611084858281518110611036577f4e487b7100000000000000000000000000000000000000000000000000000000600052603260045260246000fd5b6020026020010151858381518110611077577f4e487b7100000000000000000000000000000000000000000000000000000000600052603260045260246000fd5b602002602001015161076e565b8282815181106110bd577f4e487b7100000000000000000000000000000000000000000000000000000000600052603260045260246000fd5b602002602001018181525050806110d390614676565b9050610ff1565b508091505092915050565b600a602052806000526040600020600091509050805461110490614613565b80601f016020809104026020016040519081016040528092919081815260200182805461113090614613565b801561117d5780601f106111525761010080835404028352916020019161117d565b820191906000526020600020905b81548152906001019060200180831161116057829003601f168201915b505050505081565b61118d611feb565b73ffffffffffffffffffffffffffffffffffffffff166111ab61146f565b73ffffffffffffffffffffffffffffffffffffffff1614611201576040517f08c379a00000000000000000000000000000000000000000000000000000000081526004016111f89061423f565b60405180910390fd5b61120b6000612353565b565b600082600061121b82611b5f565b90503373ffffffffffffffffffffffffffffffffffffffff1661123c61146f565b73ffffffffffffffffffffffffffffffffffffffff1614806112bf5750600115156006600083815260200190815260200160002060003373ffffffffffffffffffffffffffffffffffffffff1673ffffffffffffffffffffffffffffffffffffffff16815260200190815260200160002060009054906101000a900460ff161515145b806112f557503373ffffffffffffffffffffffffffffffffffffffff163073ffffffffffffffffffffffffffffffffffffffff16145b611334576040517f08c379a000000000000000000000000000000000000000000000000000000000815260040161132b906140df565b60405180910390fd5b61133d856118ae565b61137c576040517f08c379a00000000000000000000000000000000000000000000000000000000081526004016113739061417f565b60405180910390fd5b611387868686612419565b83600b600087815260200190815260200160002060008282546113aa9190614529565b9250508190555083600760008873ffffffffffffffffffffffffffffffffffffffff1673ffffffffffffffffffffffffffffffffffffffff168152602001908152602001600020600087815260200190815260200160002060008282546114119190614529565b925050819055506001925050509392505050565b6008602052816000526040600020602052806000526040600020600091509150505481565b6007602052816000526040600020602052806000526040600020600091509150505481565b6000600360009054906101000a900473ffffffffffffffffffffffffffffffffffffffff16905090565b60006114a483611b31565b6114e3576040517f08c379a00000000000000000000000000000000000000000000000000000000081526004016114da9061427f565b60405180910390fd5b6000600b60008581526020019081526020016000206000815461150590614676565b9190508190559050808417915061151c8286612636565b82600a6000848152602001908152602001600020908051906020019061154392919061310e565b50818573ffffffffffffffffffffffffffffffffffffffff167fd2c38398cb1d153f906fd8dafa23f3c242c8503cfb2b362fd96f90b3763007ce60405160405180910390a3509392505050565b60006fffffffffffffffffffffffffffffffff801682169050919050565b6115b6611feb565b73ffffffffffffffffffffffffffffffffffffffff166115d461146f565b73ffffffffffffffffffffffffffffffffffffffff161461162a576040517f08c379a00000000000000000000000000000000000000000000000000000000081526004016116219061423f565b60405180910390fd5b611633836118ae565b611672576040517f08c379a00000000000000000000000000000000000000000000000000000000081526004016116699061419f565b60405180910390fd5b80600860008473ffffffffffffffffffffffffffffffffffffffff1673ffffffffffffffffffffffffffffffffffffffff168152602001908152602001600020600085815260200190815260200160002060008282546116d291906144d3565b925050819055508173ffffffffffffffffffffffffffffffffffffffff16837f8aa1d0d8a065e76aa87e2a407f14dfb1c36840a8496ef169409f73a1fbac176683604051611720919061433f565b60405180910390a3505050565b8173ffffffffffffffffffffffffffffffffffffffff1661174c611feb565b73ffffffffffffffffffffffffffffffffffffffff1614156117a3576040517f08c379a000000000000000000000000000000000000000000000000000000000815260040161179a906142bf565b60405180910390fd5b80600160006117b0611feb565b73ffffffffffffffffffffffffffffffffffffffff1673ffffffffffffffffffffffffffffffffffffffff16815260200190815260200160002060008473ffffffffffffffffffffffffffffffffffffffff1673ffffffffffffffffffffffffffffffffffffffff16815260200190815260200160002060006101000a81548160ff0219169083151502179055508173ffffffffffffffffffffffffffffffffffffffff1661185d611feb565b73ffffffffffffffffffffffffffffffffffffffff167f17307eab39ab6107e8899845ad3d59bd9653f200f220920489ca2b5937696c31836040516118a29190614047565b60405180910390a35050565b6000807f80000000000000000000000000000000000000000000000000000000000000008316149050919050565b600063bc197c8160e01b905098975050505050505050565b600b6020528060005260406000206000915090505481565b600083600061191a82611b5f565b90503373ffffffffffffffffffffffffffffffffffffffff1661193b61146f565b73ffffffffffffffffffffffffffffffffffffffff1614806119be5750600115156006600083815260200190815260200160002060003373ffffffffffffffffffffffffffffffffffffffff1673ffffffffffffffffffffffffffffffffffffffff16815260200190815260200160002060009054906101000a900460ff161515145b806119f457503373ffffffffffffffffffffffffffffffffffffffff163073ffffffffffffffffffffffffffffffffffffffff16145b611a33576040517f08c379a0000000000000000000000000000000000000000000000000000000008152600401611a2a906140df565b60405180910390fd5b611a3c866118ae565b611a7b576040517f08c379a0000000000000000000000000000000000000000000000000000000008152600401611a729061427f565b60405180910390fd5b611a87878787876127b3565b84600b60008881526020019081526020016000206000828254611aaa91906144d3565b9250508190555084600760008973ffffffffffffffffffffffffffffffffffffffff1673ffffffffffffffffffffffffffffffffffffffff16815260200190815260200160002060008881526020019081526020016000206000828254611b1191906144d3565b92505081905550600192505050949350505050565b63f23a6e6160e01b81565b60007f8000000000000000000000000000000000000000000000000000000000000000808316149050919050565b600060806fffffffffffffffffffffffffffffffff8016901b82169050919050565b6000611b8d8383612949565b80611bca5750611b9b61146f565b73ffffffffffffffffffffffffffffffffffffffff163373ffffffffffffffffffffffffffffffffffffffff16145b905092915050565b600063f23a6e6160e01b90509695505050505050565b611bf0611feb565b73ffffffffffffffffffffffffffffffffffffffff168573ffffffffffffffffffffffffffffffffffffffff161480611c365750611c3585611c30611feb565b611b81565b5b611c75576040517f08c379a0000000000000000000000000000000000000000000000000000000008152600401611c6c9061415f565b60405180910390fd5b611c7e836118ae565b15611df65781600760008773ffffffffffffffffffffffffffffffffffffffff1673ffffffffffffffffffffffffffffffffffffffff1681526020019081526020016000206000858152602001908152602001600020541015611d16576040517f08c379a0000000000000000000000000000000000000000000000000000000008152600401611d0d9061429f565b60405180910390fd5b611d2385858585856129dd565b81600760008773ffffffffffffffffffffffffffffffffffffffff1673ffffffffffffffffffffffffffffffffffffffff16815260200190815260200160002060008581526020019081526020016000206000828254611d839190614529565b9250508190555081600760008673ffffffffffffffffffffffffffffffffffffffff1673ffffffffffffffffffffffffffffffffffffffff16815260200190815260200160002060008581526020019081526020016000206000828254611dea91906144d3565b92505081905550611e77565b8473ffffffffffffffffffffffffffffffffffffffff16611e1684610ef7565b73ffffffffffffffffffffffffffffffffffffffff1614611e6c576040517f08c379a0000000000000000000000000000000000000000000000000000000008152600401611e639061425f565b60405180910390fd5b611e768385612636565b5b5050505050565b611e86611feb565b73ffffffffffffffffffffffffffffffffffffffff16611ea461146f565b73ffffffffffffffffffffffffffffffffffffffff1614611efa576040517f08c379a0000000000000000000000000000000000000000000000000000000008152600401611ef19061423f565b60405180910390fd5b600073ffffffffffffffffffffffffffffffffffffffff168173ffffffffffffffffffffffffffffffffffffffff161415611f6a576040517f08c379a0000000000000000000000000000000000000000000000000000000008152600401611f619061411f565b60405180910390fd5b611f7381612353565b50565b63bc197c8160e01b81565b60007f01ffc9a7000000000000000000000000000000000000000000000000000000007bffffffffffffffffffffffffffffffffffffffffffffffffffffffff1916827bffffffffffffffffffffffffffffffffffffffffffffffffffffffff1916149050919050565b600033905090565b8151835114612037576040517f08c379a000000000000000000000000000000000000000000000000000000000815260040161202e906142ff565b60405180910390fd5b600073ffffffffffffffffffffffffffffffffffffffff168473ffffffffffffffffffffffffffffffffffffffff1614156120a7576040517f08c379a000000000000000000000000000000000000000000000000000000000815260040161209e906141bf565b60405180910390fd5b60006120b1611feb565b90506120c1818787878787612c5f565b60005b84518110156122be576000858281518110612108577f4e487b7100000000000000000000000000000000000000000000000000000000600052603260045260246000fd5b60200260200101519050600085838151811061214d577f4e487b7100000000000000000000000000000000000000000000000000000000600052603260045260246000fd5b60200260200101519050600080600084815260200190815260200160002060008b73ffffffffffffffffffffffffffffffffffffffff1673ffffffffffffffffffffffffffffffffffffffff168152602001908152602001600020549050818110156121ee576040517f08c379a00000000000000000000000000000000000000000000000000000000081526004016121e59061421f565b60405180910390fd5b81810360008085815260200190815260200160002060008c73ffffffffffffffffffffffffffffffffffffffff1673ffffffffffffffffffffffffffffffffffffffff168152602001908152602001600020819055508160008085815260200190815260200160002060008b73ffffffffffffffffffffffffffffffffffffffff1673ffffffffffffffffffffffffffffffffffffffff16815260200190815260200160002060008282546122a391906144d3565b92505081905550505050806122b790614676565b90506120c4565b508473ffffffffffffffffffffffffffffffffffffffff168673ffffffffffffffffffffffffffffffffffffffff168273ffffffffffffffffffffffffffffffffffffffff167f4a39dc06d4c0dbc64b70af90fd698a233a518aa5d07e595d983b8c0526c8f7fb8787604051612335929190614010565b60405180910390a461234b818787878787612c67565b505050505050565b6000600360009054906101000a900473ffffffffffffffffffffffffffffffffffffffff16905081600360006101000a81548173ffffffffffffffffffffffffffffffffffffffff021916908373ffffffffffffffffffffffffffffffffffffffff1602179055508173ffffffffffffffffffffffffffffffffffffffff168173ffffffffffffffffffffffffffffffffffffffff167f8be0079c531659141344cd1fd0a4f28419497f9722a3daafe3b4186f6b6457e060405160405180910390a35050565b600073ffffffffffffffffffffffffffffffffffffffff168373ffffffffffffffffffffffffffffffffffffffff161415612489576040517f08c379a0000000000000000000000000000000000000000000000000000000008152600401612480906141ff565b60405180910390fd5b6000612493611feb565b90506124c3818560006124a587612e4e565b6124ae87612e4e565b60405180602001604052806000815250612c5f565b600080600085815260200190815260200160002060008673ffffffffffffffffffffffffffffffffffffffff1673ffffffffffffffffffffffffffffffffffffffff1681526020019081526020016000205490508281101561255a576040517f08c379a00000000000000000000000000000000000000000000000000000000081526004016125519061413f565b60405180910390fd5b82810360008086815260200190815260200160002060008773ffffffffffffffffffffffffffffffffffffffff1673ffffffffffffffffffffffffffffffffffffffff16815260200190815260200160002081905550600073ffffffffffffffffffffffffffffffffffffffff168573ffffffffffffffffffffffffffffffffffffffff168373ffffffffffffffffffffffffffffffffffffffff167fc3d58168c5ae7397731d063d5bbf3d657854427343f4c083240f7aacaa2d0f62878760405161262792919061435a565b60405180910390a45050505050565b81600061264282611b5f565b90503373ffffffffffffffffffffffffffffffffffffffff1661266361146f565b73ffffffffffffffffffffffffffffffffffffffff1614806126e65750600115156006600083815260200190815260200160002060003373ffffffffffffffffffffffffffffffffffffffff1673ffffffffffffffffffffffffffffffffffffffff16815260200190815260200160002060009054906101000a900460ff161515145b8061271c57503373ffffffffffffffffffffffffffffffffffffffff163073ffffffffffffffffffffffffffffffffffffffff16145b61275b576040517f08c379a0000000000000000000000000000000000000000000000000000000008152600401612752906140df565b60405180910390fd5b826005600086815260200190815260200160002060006101000a81548173ffffffffffffffffffffffffffffffffffffffff021916908373ffffffffffffffffffffffffffffffffffffffff16021790555050505050565b600073ffffffffffffffffffffffffffffffffffffffff168473ffffffffffffffffffffffffffffffffffffffff161415612823576040517f08c379a000000000000000000000000000000000000000000000000000000000815260040161281a9061431f565b60405180910390fd5b600061282d611feb565b905061284e8160008761283f88612e4e565b61284888612e4e565b87612c5f565b8260008086815260200190815260200160002060008773ffffffffffffffffffffffffffffffffffffffff1673ffffffffffffffffffffffffffffffffffffffff16815260200190815260200160002060008282546128ad91906144d3565b925050819055508473ffffffffffffffffffffffffffffffffffffffff16600073ffffffffffffffffffffffffffffffffffffffff168273ffffffffffffffffffffffffffffffffffffffff167fc3d58168c5ae7397731d063d5bbf3d657854427343f4c083240f7aacaa2d0f62878760405161292b92919061435a565b60405180910390a461294281600087878787612f14565b5050505050565b6000600160008473ffffffffffffffffffffffffffffffffffffffff1673ffffffffffffffffffffffffffffffffffffffff16815260200190815260200160002060008373ffffffffffffffffffffffffffffffffffffffff1673ffffffffffffffffffffffffffffffffffffffff16815260200190815260200160002060009054906101000a900460ff16905092915050565b600073ffffffffffffffffffffffffffffffffffffffff168473ffffffffffffffffffffffffffffffffffffffff161415612a4d576040517f08c379a0000000000000000000000000000000000000000000000000000000008152600401612a44906141bf565b60405180910390fd5b6000612a57611feb565b9050612a77818787612a6888612e4e565b612a7188612e4e565b87612c5f565b600080600086815260200190815260200160002060008873ffffffffffffffffffffffffffffffffffffffff1673ffffffffffffffffffffffffffffffffffffffff16815260200190815260200160002054905083811015612b0e576040517f08c379a0000000000000000000000000000000000000000000000000000000008152600401612b059061421f565b60405180910390fd5b83810360008087815260200190815260200160002060008973ffffffffffffffffffffffffffffffffffffffff1673ffffffffffffffffffffffffffffffffffffffff168152602001908152602001600020819055508360008087815260200190815260200160002060008873ffffffffffffffffffffffffffffffffffffffff1673ffffffffffffffffffffffffffffffffffffffff1681526020019081526020016000206000828254612bc391906144d3565b925050819055508573ffffffffffffffffffffffffffffffffffffffff168773ffffffffffffffffffffffffffffffffffffffff168373ffffffffffffffffffffffffffffffffffffffff167fc3d58168c5ae7397731d063d5bbf3d657854427343f4c083240f7aacaa2d0f628888604051612c4092919061435a565b60405180910390a4612c56828888888888612f14565b50505050505050565b505050505050565b612c868473ffffffffffffffffffffffffffffffffffffffff166130fb565b15612e46578373ffffffffffffffffffffffffffffffffffffffff1663bc197c8187878686866040518663ffffffff1660e01b8152600401612ccc959493929190613f2c565b602060405180830381600087803b158015612ce657600080fd5b505af1925050508015612d1757506040513d601f19601f82011682018060405250810190612d149190613a22565b60015b612dbd57612d2361474c565b806308c379a01415612d805750612d38614d6f565b80612d435750612d82565b806040517f08c379a0000000000000000000000000000000000000000000000000000000008152600401612d77919061407d565b60405180910390fd5b505b6040517f08c379a0000000000000000000000000000000000000000000000000000000008152600401612db49061409f565b60405180910390fd5b63bc197c8160e01b7bffffffffffffffffffffffffffffffffffffffffffffffffffffffff1916817bffffffffffffffffffffffffffffffffffffffffffffffffffffffff191614612e44576040517f08c379a0000000000000000000000000000000000000000000000000000000008152600401612e3b906140bf565b60405180910390fd5b505b505050505050565b60606000600167ffffffffffffffff811115612e93577f4e487b7100000000000000000000000000000000000000000000000000000000600052604160045260246000fd5b604051908082528060200260200182016040528015612ec15781602001602082028036833780820191505090505b5090508281600081518110612eff577f4e487b7100000000000000000000000000000000000000000000000000000000600052603260045260246000fd5b60200260200101818152505080915050919050565b612f338473ffffffffffffffffffffffffffffffffffffffff166130fb565b156130f3578373ffffffffffffffffffffffffffffffffffffffff1663f23a6e6187878686866040518663ffffffff1660e01b8152600401612f79959493929190613f94565b602060405180830381600087803b158015612f9357600080fd5b505af1925050508015612fc457506040513d601f19601f82011682018060405250810190612fc19190613a22565b60015b61306a57612fd061474c565b806308c379a0141561302d5750612fe5614d6f565b80612ff0575061302f565b806040517f08c379a0000000000000000000000000000000000000000000000000000000008152600401613024919061407d565b60405180910390fd5b505b6040517f08c379a00000000000000000000000000000000000000000000000000000000081526004016130619061409f565b60405180910390fd5b63f23a6e6160e01b7bffffffffffffffffffffffffffffffffffffffffffffffffffffffff1916817bffffffffffffffffffffffffffffffffffffffffffffffffffffffff1916146130f1576040517f08c379a00000000000000000000000000000000000000000000000000000000081526004016130e8906140bf565b60405180910390fd5b505b505050505050565b600080823b905060008111915050919050565b82805461311a90614613565b90600052602060002090601f01602090048101928261313c5760008555613183565b82601f1061315557805160ff1916838001178555613183565b82800160010185558215613183579182015b82811115613182578251825591602001919060010190613167565b5b5090506131909190613194565b5090565b5b808211156131ad576000816000905550600101613195565b5090565b60006131c46131bf846143a8565b614383565b905080838252602082019050828560208602820111156131e357600080fd5b60005b8581101561321357816131f98882613305565b8452602084019350602083019250506001810190506131e6565b5050509392505050565b600061323061322b846143d4565b614383565b9050808382526020820190508285602086028201111561324f57600080fd5b60005b8581101561327f57816132658882613495565b845260208401935060208301925050600181019050613252565b5050509392505050565b600061329c61329784614400565b614383565b9050828152602081018484840111156132b457600080fd5b6132bf8482856145d1565b509392505050565b60006132da6132d584614431565b614383565b9050828152602081018484840111156132f257600080fd5b6132fd8482856145d1565b509392505050565b60008135905061331481614e05565b92915050565b600082601f83011261332b57600080fd5b813561333b8482602086016131b1565b91505092915050565b60008083601f84011261335657600080fd5b8235905067ffffffffffffffff81111561336f57600080fd5b60208301915083602082028301111561338757600080fd5b9250929050565b600082601f83011261339f57600080fd5b81356133af84826020860161321d565b91505092915050565b6000813590506133c781614e1c565b92915050565b6000813590506133dc81614e33565b92915050565b6000815190506133f181614e33565b92915050565b60008083601f84011261340957600080fd5b8235905067ffffffffffffffff81111561342257600080fd5b60208301915083600182028301111561343a57600080fd5b9250929050565b600082601f83011261345257600080fd5b8135613462848260208601613289565b91505092915050565b600082601f83011261347c57600080fd5b813561348c8482602086016132c7565b91505092915050565b6000813590506134a481614e4a565b92915050565b6000602082840312156134bc57600080fd5b60006134ca84828501613305565b91505092915050565b600080604083850312156134e657600080fd5b60006134f485828601613305565b925050602061350585828601613305565b9150509250929050565b60008060008060008060008060a0898b03121561352b57600080fd5b60006135398b828c01613305565b985050602061354a8b828c01613305565b975050604089013567ffffffffffffffff81111561356757600080fd5b6135738b828c01613344565b9650965050606089013567ffffffffffffffff81111561359257600080fd5b61359e8b828c01613344565b9450945050608089013567ffffffffffffffff8111156135bd57600080fd5b6135c98b828c016133f7565b92509250509295985092959890939650565b600080600080600060a086880312156135f357600080fd5b600061360188828901613305565b955050602061361288828901613305565b945050604086013567ffffffffffffffff81111561362f57600080fd5b61363b8882890161338e565b935050606086013567ffffffffffffffff81111561365857600080fd5b6136648882890161338e565b925050608086013567ffffffffffffffff81111561368157600080fd5b61368d88828901613441565b9150509295509295909350565b60008060008060008060a087890312156136b357600080fd5b60006136c189828a01613305565b96505060206136d289828a01613305565b95505060406136e389828a01613495565b94505060606136f489828a01613495565b935050608087013567ffffffffffffffff81111561371157600080fd5b61371d89828a016133f7565b92509250509295509295509295565b600080600080600060a0868803121561374457600080fd5b600061375288828901613305565b955050602061376388828901613305565b945050604061377488828901613495565b935050606061378588828901613495565b925050608086013567ffffffffffffffff8111156137a257600080fd5b6137ae88828901613441565b9150509295509295909350565b600080604083850312156137ce57600080fd5b60006137dc85828601613305565b92505060206137ed858286016133b8565b9150509250929050565b6000806040838503121561380a57600080fd5b600061381885828601613305565b925050602061382985828601613495565b9150509250929050565b60008060006060848603121561384857600080fd5b600061385686828701613305565b935050602061386786828701613495565b925050604084013567ffffffffffffffff81111561388457600080fd5b6138908682870161346b565b9150509250925092565b6000806000606084860312156138af57600080fd5b60006138bd86828701613305565b93505060206138ce86828701613495565b92505060406138df86828701613495565b9150509250925092565b600080600080608085870312156138ff57600080fd5b600061390d87828801613305565b945050602061391e87828801613495565b935050604061392f87828801613495565b925050606085013567ffffffffffffffff81111561394c57600080fd5b61395887828801613441565b91505092959194509250565b6000806040838503121561397757600080fd5b600083013567ffffffffffffffff81111561399157600080fd5b61399d8582860161331a565b925050602083013567ffffffffffffffff8111156139ba57600080fd5b6139c68582860161338e565b9150509250929050565b6000602082840312156139e257600080fd5b60006139f0848285016133b8565b91505092915050565b600060208284031215613a0b57600080fd5b6000613a19848285016133cd565b91505092915050565b600060208284031215613a3457600080fd5b6000613a42848285016133e2565b91505092915050565b600060208284031215613a5d57600080fd5b6000613a6b84828501613495565b91505092915050565b60008060408385031215613a8757600080fd5b6000613a9585828601613495565b9250506020613aa685828601613305565b9150509250929050565b600080600060608486031215613ac557600080fd5b6000613ad386828701613495565b9350506020613ae486828701613305565b9250506040613af586828701613495565b9150509250925092565b6000613b0b8383613ef3565b60208301905092915050565b613b208161455d565b82525050565b6000613b3182614472565b613b3b81856144a0565b9350613b4683614462565b8060005b83811015613b77578151613b5e8882613aff565b9750613b6983614493565b925050600181019050613b4a565b5085935050505092915050565b613b8d8161456f565b82525050565b613b9c8161457b565b82525050565b6000613bad8261447d565b613bb781856144b1565b9350613bc78185602086016145e0565b613bd08161476e565b840191505092915050565b6000613be682614488565b613bf081856144c2565b9350613c008185602086016145e0565b613c098161476e565b840191505092915050565b6000613c216034836144c2565b9150613c2c8261478c565b604082019050919050565b6000613c446028836144c2565b9150613c4f826147db565b604082019050919050565b6000613c67601f836144c2565b9150613c728261482a565b602082019050919050565b6000613c8a602b836144c2565b9150613c9582614853565b604082019050919050565b6000613cad6026836144c2565b9150613cb8826148a2565b604082019050919050565b6000613cd06024836144c2565b9150613cdb826148f1565b604082019050919050565b6000613cf36029836144c2565b9150613cfe82614940565b604082019050919050565b6000613d16602d836144c2565b9150613d218261498f565b604082019050919050565b6000613d39602e836144c2565b9150613d44826149de565b604082019050919050565b6000613d5c6025836144c2565b9150613d6782614a2d565b604082019050919050565b6000613d7f6032836144c2565b9150613d8a82614a7c565b604082019050919050565b6000613da26023836144c2565b9150613dad82614acb565b604082019050919050565b6000613dc5602a836144c2565b9150613dd082614b1a565b604082019050919050565b6000613de86020836144c2565b9150613df382614b69565b602082019050919050565b6000613e0b600f836144c2565b9150613e1682614b92565b602082019050919050565b6000613e2e602d836144c2565b9150613e3982614bbb565b604082019050919050565b6000613e516012836144c2565b9150613e5c82614c0a565b602082019050919050565b6000613e746029836144c2565b9150613e7f82614c33565b604082019050919050565b6000613e976029836144c2565b9150613ea282614c82565b604082019050919050565b6000613eba6028836144c2565b9150613ec582614cd1565b604082019050919050565b6000613edd6021836144c2565b9150613ee882614d20565b604082019050919050565b613efc816145c7565b82525050565b613f0b816145c7565b82525050565b6000602082019050613f266000830184613b17565b92915050565b600060a082019050613f416000830188613b17565b613f4e6020830187613b17565b8181036040830152613f608186613b26565b90508181036060830152613f748185613b26565b90508181036080830152613f888184613ba2565b90509695505050505050565b600060a082019050613fa96000830188613b17565b613fb66020830187613b17565b613fc36040830186613f02565b613fd06060830185613f02565b8181036080830152613fe28184613ba2565b90509695505050505050565b600060208201905081810360008301526140088184613b26565b905092915050565b6000604082019050818103600083015261402a8185613b26565b9050818103602083015261403e8184613b26565b90509392505050565b600060208201905061405c6000830184613b84565b92915050565b60006020820190506140776000830184613b93565b92915050565b600060208201905081810360008301526140978184613bdb565b905092915050565b600060208201905081810360008301526140b881613c14565b9050919050565b600060208201905081810360008301526140d881613c37565b9050919050565b600060208201905081810360008301526140f881613c5a565b9050919050565b6000602082019050818103600083015261411881613c7d565b9050919050565b6000602082019050818103600083015261413881613ca0565b9050919050565b6000602082019050818103600083015261415881613cc3565b9050919050565b6000602082019050818103600083015261417881613ce6565b9050919050565b6000602082019050818103600083015261419881613d09565b9050919050565b600060208201905081810360008301526141b881613d2c565b9050919050565b600060208201905081810360008301526141d881613d4f565b9050919050565b600060208201905081810360008301526141f881613d72565b9050919050565b6000602082019050818103600083015261421881613d95565b9050919050565b6000602082019050818103600083015261423881613db8565b9050919050565b6000602082019050818103600083015261425881613ddb565b9050919050565b6000602082019050818103600083015261427881613dfe565b9050919050565b6000602082019050818103600083015261429881613e21565b9050919050565b600060208201905081810360008301526142b881613e44565b9050919050565b600060208201905081810360008301526142d881613e67565b9050919050565b600060208201905081810360008301526142f881613e8a565b9050919050565b6000602082019050818103600083015261431881613ead565b9050919050565b6000602082019050818103600083015261433881613ed0565b9050919050565b60006020820190506143546000830184613f02565b92915050565b600060408201905061436f6000830185613f02565b61437c6020830184613f02565b9392505050565b600061438d61439e565b90506143998282614645565b919050565b6000604051905090565b600067ffffffffffffffff8211156143c3576143c261471d565b5b602082029050602081019050919050565b600067ffffffffffffffff8211156143ef576143ee61471d565b5b602082029050602081019050919050565b600067ffffffffffffffff82111561441b5761441a61471d565b5b6144248261476e565b9050602081019050919050565b600067ffffffffffffffff82111561444c5761444b61471d565b5b6144558261476e565b9050602081019050919050565b6000819050602082019050919050565b600081519050919050565b600081519050919050565b600081519050919050565b6000602082019050919050565b600082825260208201905092915050565b600082825260208201905092915050565b600082825260208201905092915050565b60006144de826145c7565b91506144e9836145c7565b9250827fffffffffffffffffffffffffffffffffffffffffffffffffffffffffffffffff0382111561451e5761451d6146bf565b5b828201905092915050565b6000614534826145c7565b915061453f836145c7565b925082821015614552576145516146bf565b5b828203905092915050565b6000614568826145a7565b9050919050565b60008115159050919050565b60007fffffffff0000000000000000000000000000000000000000000000000000000082169050919050565b600073ffffffffffffffffffffffffffffffffffffffff82169050919050565b6000819050919050565b82818337600083830152505050565b60005b838110156145fe5780820151818401526020810190506145e3565b8381111561460d576000848401525b50505050565b6000600282049050600182168061462b57607f821691505b6020821081141561463f5761463e6146ee565b5b50919050565b61464e8261476e565b810181811067ffffffffffffffff8211171561466d5761466c61471d565b5b80604052505050565b6000614681826145c7565b91507fffffffffffffffffffffffffffffffffffffffffffffffffffffffffffffffff8214156146b4576146b36146bf565b5b600182019050919050565b7f4e487b7100000000000000000000000000000000000000000000000000000000600052601160045260246000fd5b7f4e487b7100000000000000000000000000000000000000000000000000000000600052602260045260246000fd5b7f4e487b7100000000000000000000000000000000000000000000000000000000600052604160045260246000fd5b600060033d111561476b5760046000803e61476860005161477f565b90505b90565b6000601f19601f8301169050919050565b60008160e01c9050919050565b7f455243313135353a207472616e7366657220746f206e6f6e204552433131353560008201527f526563656976657220696d706c656d656e746572000000000000000000000000602082015250565b7f455243313135353a204552433131353552656365697665722072656a6563746560008201527f6420746f6b656e73000000000000000000000000000000000000000000000000602082015250565b7f596f752063616e6e6f7420706572666f726d207468697320616374696f6e2e00600082015250565b7f455243313135353a2062616c616e636520717565727920666f7220746865207a60008201527f65726f2061646472657373000000000000000000000000000000000000000000602082015250565b7f4f776e61626c653a206e6577206f776e657220697320746865207a65726f206160008201527f6464726573730000000000000000000000000000000000000000000000000000602082015250565b7f455243313135353a206275726e20616d6f756e7420657863656564732062616c60008201527f616e636500000000000000000000000000000000000000000000000000000000602082015250565b7f455243313135353a2063616c6c6572206973206e6f74206f776e6572206e6f7260008201527f20617070726f7665640000000000000000000000000000000000000000000000602082015250565b7f54524945445f544f5f4255524e5f46554e4749424c455f464f525f4e4f4e5f4660008201527f554e4749424c455f544f4b454e00000000000000000000000000000000000000602082015250565b7f54524945445f544f5f5354414b455f46554e4749424c455f464f525f4e4f4e5f60008201527f46554e4749424c455f544f4b454e000000000000000000000000000000000000602082015250565b7f455243313135353a207472616e7366657220746f20746865207a65726f20616460008201527f6472657373000000000000000000000000000000000000000000000000000000602082015250565b7f455243313135353a207472616e736665722063616c6c6572206973206e6f742060008201527f6f776e6572206e6f7220617070726f7665640000000000000000000000000000602082015250565b7f455243313135353a206275726e2066726f6d20746865207a65726f206164647260008201527f6573730000000000000000000000000000000000000000000000000000000000602082015250565b7f455243313135353a20696e73756666696369656e742062616c616e636520666f60008201527f72207472616e7366657200000000000000000000000000000000000000000000602082015250565b7f4f776e61626c653a2063616c6c6572206973206e6f7420746865206f776e6572600082015250565b7f57726f6e67204e4654206f776e65720000000000000000000000000000000000600082015250565b7f54524945445f544f5f4d494e545f46554e4749424c455f464f525f4e4f4e5f4660008201527f554e4749424c455f544f4b454e00000000000000000000000000000000000000602082015250565b7f696e73756666696369656e742066756e64730000000000000000000000000000600082015250565b7f455243313135353a2073657474696e6720617070726f76616c2073746174757360008201527f20666f722073656c660000000000000000000000000000000000000000000000602082015250565b7f455243313135353a206163636f756e747320616e6420696473206c656e67746860008201527f206d69736d617463680000000000000000000000000000000000000000000000602082015250565b7f455243313135353a2069647320616e6420616d6f756e7473206c656e6774682060008201527f6d69736d61746368000000000000000000000000000000000000000000000000602082015250565b7f455243313135353a206d696e7420746f20746865207a65726f2061646472657360008201527f7300000000000000000000000000000000000000000000000000000000000000602082015250565b600060443d1015614d7f57614e02565b614d8761439e565b60043d036004823e80513d602482011167ffffffffffffffff82111715614daf575050614e02565b808201805167ffffffffffffffff811115614dcd5750505050614e02565b80602083010160043d038501811115614dea575050505050614e02565b614df982602001850186614645565b82955050505050505b90565b614e0e8161455d565b8114614e1957600080fd5b50565b614e258161456f565b8114614e3057600080fd5b50565b614e3c8161457b565b8114614e4757600080fd5b50565b614e53816145c7565b8114614e5e57600080fd5b5056fea26469706673582212205d37435cc06f2ef3eb8b2e87b5ab5ed53d8f343d9b34f41498b2fe88e057e78f64736f6c63430008040033",
  "linkReferences": {},
  "deployedLinkReferences": {}
}