{
  "_format": "hh-sol-artifact-1",
  "contractName": "GalaxyToken",
  "sourceName": "contracts/GalaxyToken.sol",
  "abi": [
    {
      "inputs": [],
      "stateMutability": "nonpayable",
      "type": "constructor"
    },
    {
      "anonymous": false,
      "inputs": [
        {
          "indexed": true,
          "internalType": "address",
          "name": "account",
          "type": "address"
        },
        {
          "indexed": true,
          "internalType": "address",
          "name": "operator",
          "type": "address"
        },
        {
          "indexed": false,
          "internalType": "bool",
          "name": "approved",
          "type": "bool"
        }
      ],
      "name": "ApprovalForAll",
      "type": "event"
    },
    {
      "anonymous": false,
      "inputs": [
        {
          "indexed": true,
          "internalType": "address",
          "name": "",
          "type": "address"
        },
        {
          "indexed": true,
          "internalType": "uint256",
          "name": "",
          "type": "uint256"
        }
      ],
      "name": "NfTokenMint",
      "type": "event"
    },
    {
      "anonymous": false,
      "inputs": [
        {
          "indexed": true,
          "internalType": "uint256",
          "name": "",
          "type": "uint256"
        },
        {
          "indexed": true,
          "internalType": "address",
          "name": "",
          "type": "address"
        },
        {
          "indexed": false,
          "internalType": "uint256",
          "name": "",
          "type": "uint256"
        }
      ],
      "name": "OwnerCredited",
      "type": "event"
    },
    {
      "anonymous": false,
      "inputs": [
        {
          "indexed": true,
          "internalType": "address",
          "name": "",
          "type": "address"
        },
        {
          "indexed": false,
          "internalType": "uint256",
          "name": "",
          "type": "uint256"
        }
      ],
      "name": "TokenCreation",
      "type": "event"
    },
    {
      "anonymous": false,
      "inputs": [
        {
          "indexed": true,
          "internalType": "address",
          "name": "operator",
          "type": "address"
        },
        {
          "indexed": true,
          "internalType": "address",
          "name": "from",
          "type": "address"
        },
        {
          "indexed": true,
          "internalType": "address",
          "name": "to",
          "type": "address"
        },
        {
          "indexed": false,
          "internalType": "uint256[]",
          "name": "ids",
          "type": "uint256[]"
        },
        {
          "indexed": false,
          "internalType": "uint256[]",
          "name": "values",
          "type": "uint256[]"
        }
      ],
      "name": "TransferBatch",
      "type": "event"
    },
    {
      "anonymous": false,
      "inputs": [
        {
          "indexed": true,
          "internalType": "address",
          "name": "operator",
          "type": "address"
        },
        {
          "indexed": true,
          "internalType": "address",
          "name": "from",
          "type": "address"
        },
        {
          "indexed": true,
          "internalType": "address",
          "name": "to",
          "type": "address"
        },
        {
          "indexed": false,
          "internalType": "uint256",
          "name": "id",
          "type": "uint256"
        },
        {
          "indexed": false,
          "internalType": "uint256",
          "name": "value",
          "type": "uint256"
        }
      ],
      "name": "TransferSingle",
      "type": "event"
    },
    {
      "anonymous": false,
      "inputs": [
        {
          "indexed": false,
          "internalType": "string",
          "name": "value",
          "type": "string"
        },
        {
          "indexed": true,
          "internalType": "uint256",
          "name": "id",
          "type": "uint256"
        }
      ],
      "name": "URI",
      "type": "event"
    },
    {
      "inputs": [],
      "name": "Owner",
      "outputs": [
        {
          "internalType": "address",
          "name": "",
          "type": "address"
        }
      ],
      "stateMutability": "view",
      "type": "function"
    },
    {
      "inputs": [
        {
          "internalType": "uint256",
          "name": "",
          "type": "uint256"
        }
      ],
      "name": "_totalSupply",
      "outputs": [
        {
          "internalType": "uint256",
          "name": "",
          "type": "uint256"
        }
      ],
      "stateMutability": "view",
      "type": "function"
    },
    {
      "inputs": [
        {
          "internalType": "address",
          "name": "account",
          "type": "address"
        },
        {
          "internalType": "uint256",
          "name": "_type",
          "type": "uint256"
        }
      ],
      "name": "addOperator",
      "outputs": [
        {
          "internalType": "bool",
          "name": "",
          "type": "bool"
        }
      ],
      "stateMutability": "nonpayable",
      "type": "function"
    },
    {
      "inputs": [
        {
          "internalType": "address",
          "name": "account",
          "type": "address"
        },
        {
          "internalType": "uint256",
          "name": "id",
          "type": "uint256"
        }
      ],
      "name": "balanceOf",
      "outputs": [
        {
          "internalType": "uint256",
          "name": "",
          "type": "uint256"
        }
      ],
      "stateMutability": "view",
      "type": "function"
    },
    {
      "inputs": [
        {
          "internalType": "address[]",
          "name": "accounts",
          "type": "address[]"
        },
        {
          "internalType": "uint256[]",
          "name": "ids",
          "type": "uint256[]"
        }
      ],
      "name": "balanceOfBatch",
      "outputs": [
        {
          "internalType": "uint256[]",
          "name": "",
          "type": "uint256[]"
        }
      ],
      "stateMutability": "view",
      "type": "function"
    },
    {
      "inputs": [
        {
          "internalType": "address",
          "name": "",
          "type": "address"
        },
        {
          "internalType": "uint256",
          "name": "",
          "type": "uint256"
        }
      ],
      "name": "claimableAmount",
      "outputs": [
        {
          "internalType": "uint256",
          "name": "",
          "type": "uint256"
        }
      ],
      "stateMutability": "view",
      "type": "function"
    },
    {
      "inputs": [
        {
          "internalType": "bool",
          "name": "isNF",
          "type": "bool"
        }
      ],
      "name": "createTokenType",
      "outputs": [
        {
          "internalType": "uint256",
          "name": "_type",
          "type": "uint256"
        }
      ],
      "stateMutability": "nonpayable",
      "type": "function"
    },
    {
      "inputs": [
        {
          "internalType": "uint256",
          "name": "_type",
          "type": "uint256"
        },
        {
          "internalType": "address",
          "name": "account",
          "type": "address"
        }
      ],
      "name": "dividendClaim",
      "outputs": [
        {
          "internalType": "uint256",
          "name": "_amount",
          "type": "uint256"
        }
      ],
      "stateMutability": "nonpayable",
      "type": "function"
    },
    {
      "inputs": [
        {
          "internalType": "address",
          "name": "account",
          "type": "address"
        },
        {
          "internalType": "uint256",
          "name": "_type",
          "type": "uint256"
        },
        {
          "internalType": "uint256",
          "name": "amount",
          "type": "uint256"
        }
      ],
      "name": "fungibleBurn",
      "outputs": [
        {
          "internalType": "bool",
          "name": "",
          "type": "bool"
        }
      ],
      "stateMutability": "nonpayable",
      "type": "function"
    },
    {
      "inputs": [
        {
          "internalType": "address",
          "name": "account",
          "type": "address"
        },
        {
          "internalType": "uint256",
          "name": "_type",
          "type": "uint256"
        },
        {
          "internalType": "uint256",
          "name": "amount",
          "type": "uint256"
        },
        {
          "internalType": "bytes",
          "name": "data",
          "type": "bytes"
        }
      ],
      "name": "fungibleMint",
      "outputs": [
        {
          "internalType": "bool",
          "name": "",
          "type": "bool"
        }
      ],
      "stateMutability": "nonpayable",
      "type": "function"
    },
    {
      "inputs": [
        {
          "internalType": "uint256",
          "name": "id",
          "type": "uint256"
        }
      ],
      "name": "getNfOwner",
      "outputs": [
        {
          "internalType": "address",
          "name": "",
          "type": "address"
        }
      ],
      "stateMutability": "view",
      "type": "function"
    },
    {
      "inputs": [
        {
          "internalType": "uint256",
          "name": "id",
          "type": "uint256"
        }
      ],
      "name": "getNonFungibleIndex",
      "outputs": [
        {
          "internalType": "uint256",
          "name": "",
          "type": "uint256"
        }
      ],
      "stateMutability": "pure",
      "type": "function"
    },
    {
      "inputs": [
        {
          "internalType": "uint256",
          "name": "id",
          "type": "uint256"
        }
      ],
      "name": "getNonFungibleTokenType",
      "outputs": [
        {
          "internalType": "uint256",
          "name": "",
          "type": "uint256"
        }
      ],
      "stateMutability": "pure",
      "type": "function"
    },
    {
      "inputs": [
        {
          "internalType": "address",
          "name": "",
          "type": "address"
        },
        {
          "internalType": "uint256",
          "name": "",
          "type": "uint256"
        }
      ],
      "name": "holderAmount",
      "outputs": [
        {
          "internalType": "uint256",
          "name": "",
          "type": "uint256"
        }
      ],
      "stateMutability": "view",
      "type": "function"
    },
    {
      "inputs": [
        {
          "internalType": "address",
          "name": "account",
          "type": "address"
        },
        {
          "internalType": "address",
          "name": "operator",
          "type": "address"
        }
      ],
      "name": "isApprovedForAll",
      "outputs": [
        {
          "internalType": "bool",
          "name": "",
          "type": "bool"
        }
      ],
      "stateMutability": "view",
      "type": "function"
    },
    {
      "inputs": [
        {
          "internalType": "uint256",
          "name": "id",
          "type": "uint256"
        }
      ],
      "name": "isFungible",
      "outputs": [
        {
          "internalType": "bool",
          "name": "",
          "type": "bool"
        }
      ],
      "stateMutability": "pure",
      "type": "function"
    },
    {
      "inputs": [
        {
          "internalType": "uint256",
          "name": "id",
          "type": "uint256"
        }
      ],
      "name": "isNonFungible",
      "outputs": [
        {
          "internalType": "bool",
          "name": "",
          "type": "bool"
        }
      ],
      "stateMutability": "pure",
      "type": "function"
    },
    {
      "inputs": [
        {
          "internalType": "address",
          "name": "account",
          "type": "address"
        },
        {
          "internalType": "uint256",
          "name": "_type",
          "type": "uint256"
        },
        {
          "internalType": "string",
          "name": "tokenURI",
          "type": "string"
        }
      ],
      "name": "nonFungibleMint",
      "outputs": [
        {
          "internalType": "uint256",
          "name": "id",
          "type": "uint256"
        }
      ],
      "stateMutability": "nonpayable",
      "type": "function"
    },
    {
      "inputs": [
        {
          "internalType": "uint256",
          "name": "",
          "type": "uint256"
        },
        {
          "internalType": "address",
          "name": "",
          "type": "address"
        }
      ],
      "name": "operators",
      "outputs": [
        {
          "internalType": "bool",
          "name": "",
          "type": "bool"
        }
      ],
      "stateMutability": "view",
      "type": "function"
    },
    {
      "inputs": [
        {
          "internalType": "uint256",
          "name": "_type",
          "type": "uint256"
        },
        {
          "internalType": "address",
          "name": "account",
          "type": "address"
        },
        {
          "internalType": "uint256",
          "name": "amount",
          "type": "uint256"
        }
      ],
      "name": "provideDividend",
      "outputs": [],
      "stateMutability": "nonpayable",
      "type": "function"
    },
    {
      "inputs": [
        {
          "internalType": "address",
          "name": "account",
          "type": "address"
        },
        {
          "internalType": "uint256",
          "name": "_type",
          "type": "uint256"
        }
      ],
      "name": "removeOperator",
      "outputs": [
        {
          "internalType": "bool",
          "name": "",
          "type": "bool"
        }
      ],
      "stateMutability": "nonpayable",
      "type": "function"
    },
    {
      "inputs": [
        {
          "internalType": "address",
          "name": "from",
          "type": "address"
        },
        {
          "internalType": "address",
          "name": "to",
          "type": "address"
        },
        {
          "internalType": "uint256[]",
          "name": "ids",
          "type": "uint256[]"
        },
        {
          "internalType": "uint256[]",
          "name": "amounts",
          "type": "uint256[]"
        },
        {
          "internalType": "bytes",
          "name": "data",
          "type": "bytes"
        }
      ],
      "name": "safeBatchTransferFrom",
      "outputs": [],
      "stateMutability": "nonpayable",
      "type": "function"
    },
    {
      "inputs": [
        {
          "internalType": "address",
          "name": "from",
          "type": "address"
        },
        {
          "internalType": "address",
          "name": "to",
          "type": "address"
        },
        {
          "internalType": "uint256",
          "name": "id",
          "type": "uint256"
        },
        {
          "internalType": "uint256",
          "name": "amount",
          "type": "uint256"
        },
        {
          "internalType": "bytes",
          "name": "data",
          "type": "bytes"
        }
      ],
      "name": "safeTransferFrom",
      "outputs": [],
      "stateMutability": "nonpayable",
      "type": "function"
    },
    {
      "inputs": [
        {
          "internalType": "address",
          "name": "operator",
          "type": "address"
        },
        {
          "internalType": "bool",
          "name": "approved",
          "type": "bool"
        }
      ],
      "name": "setApprovalForAll",
      "outputs": [],
      "stateMutability": "nonpayable",
      "type": "function"
    },
    {
      "inputs": [
        {
          "internalType": "bytes4",
          "name": "interfaceId",
          "type": "bytes4"
        }
      ],
      "name": "supportsInterface",
      "outputs": [
        {
          "internalType": "bool",
          "name": "",
          "type": "bool"
        }
      ],
      "stateMutability": "view",
      "type": "function"
    },
    {
      "inputs": [
        {
          "internalType": "uint256",
          "name": "",
          "type": "uint256"
        }
      ],
      "name": "uri",
      "outputs": [
        {
          "internalType": "string",
          "name": "",
          "type": "string"
        }
      ],
      "stateMutability": "view",
      "type": "function"
    }
  ],
  "bytecode": "0x60806040523480156200001157600080fd5b506040518060400160405280600b81526020017f47616c617879546f6b656e0000000000000000000000000000000000000000008152506200005981620000a160201b60201c565b5033600360006101000a81548173ffffffffffffffffffffffffffffffffffffffff021916908373ffffffffffffffffffffffffffffffffffffffff160217905550620001d2565b8060029080519060200190620000b9929190620000bd565b5050565b828054620000cb906200016d565b90600052602060002090601f016020900481019282620000ef57600085556200013b565b82601f106200010a57805160ff19168380011785556200013b565b828001600101855582156200013b579182015b828111156200013a5782518255916020019190600101906200011d565b5b5090506200014a91906200014e565b5090565b5b80821115620001695760008160009055506001016200014f565b5090565b600060028204905060018216806200018657607f821691505b602082108114156200019d576200019c620001a3565b5b50919050565b7f4e487b7100000000000000000000000000000000000000000000000000000000600052602260045260246000fd5b61471b80620001e26000396000f3fe608060405234801561001057600080fd5b506004361061018c5760003560e01c806379b8d938116100de578063adebf6f211610097578063e44591f011610071578063e44591f014610563578063e4b5b61a14610593578063e985e9c5146105c3578063f242432a146105f35761018c565b8063adebf6f2146104e5578063b4a99a4e14610515578063d533da2a146105335761018c565b806379b8d938146103ed5780637a0156271461041d57806398b4ad6f1461044d5780639cca1c641461047d578063a1eb7001146104ad578063a22cb465146104c95761018c565b80632eb2c2d61161014b5780633fa9f7f3116101255780633fa9f7f31461032d5780634e1273f41461035d5780635977e82a1461038d578063717b7f36146103bd5761018c565b80632eb2c2d6146102b15780633979aba7146102cd5780633b0e4d34146102fd5761018c565b8062fdd58e14610191578062ffc135146101c157806301ffc9a7146101f157806305caa0ff146102215780630e89341c146102515780630f7fa72f14610281575b600080fd5b6101ab60048036038101906101a691906131a3565b61060f565b6040516101b89190613c3b565b60405180910390f35b6101db60048036038101906101d69190613420565b6106d8565b6040516101e89190613c3b565b60405180910390f35b61020b600480360381019061020691906133a5565b6107ed565b604051610218919061399e565b60405180910390f35b61023b6004803603810190610236919061337c565b6108cf565b6040516102489190613c3b565b60405180910390f35b61026b600480360381019061026691906133f7565b6109ad565b60405161027891906139b9565b60405180910390f35b61029b600480360381019061029691906131a3565b610a41565b6040516102a8919061399e565b60405180910390f35b6102cb60048036038101906102c69190613019565b610ba2565b005b6102e760048036038101906102e291906131a3565b610c43565b6040516102f4919061399e565b60405180910390f35b61031760048036038101906103129190613420565b610da5565b604051610324919061399e565b60405180910390f35b610347600480360381019061034291906133f7565b610dd4565b6040516103549190613868565b60405180910390f35b61037760048036038101906103729190613310565b610e11565b6040516103849190613945565b60405180910390f35b6103a760048036038101906103a291906133f7565b610fc2565b6040516103b49190613c3b565b60405180910390f35b6103d760048036038101906103d29190613246565b610fda565b6040516103e4919061399e565b60405180910390f35b610407600480360381019061040291906131a3565b61120d565b6040516104149190613c3b565b60405180910390f35b610437600480360381019061043291906131a3565b611232565b6040516104449190613c3b565b60405180910390f35b610467600480360381019061046291906131df565b611257565b6040516104749190613c3b565b60405180910390f35b610497600480360381019061049291906133f7565b61134e565b6040516104a49190613c3b565b60405180910390f35b6104c760048036038101906104c2919061345c565b61136c565b005b6104e360048036038101906104de9190613167565b6114ff565b005b6104ff60048036038101906104fa91906133f7565b611680565b60405161050c919061399e565b60405180910390f35b61051d6116ae565b60405161052a9190613868565b60405180910390f35b61054d60048036038101906105489190613295565b6116d8565b60405161055a919061399e565b60405180910390f35b61057d600480360381019061057891906133f7565b61190d565b60405161058a919061399e565b60405180910390f35b6105ad60048036038101906105a891906133f7565b61193b565b6040516105ba9190613c3b565b60405180910390f35b6105dd60048036038101906105d89190612fdd565b61195d565b6040516105ea919061399e565b60405180910390f35b61060d600480360381019061060891906130d8565b6119f1565b005b60008073ffffffffffffffffffffffffffffffffffffffff168373ffffffffffffffffffffffffffffffffffffffff161415610680576040517f08c379a000000000000000000000000000000000000000000000000000000000815260040161067790613a3b565b60405180910390fd5b60008083815260200190815260200160002060008473ffffffffffffffffffffffffffffffffffffffff1673ffffffffffffffffffffffffffffffffffffffff16815260200190815260200160002054905092915050565b60006106e383611680565b610722576040517f08c379a000000000000000000000000000000000000000000000000000000000815260040161071990613a9b565b60405180910390fd5b600860008373ffffffffffffffffffffffffffffffffffffffff1673ffffffffffffffffffffffffffffffffffffffff1681526020019081526020016000206000848152602001908152602001600020549050610790828483604051806020016040528060008152506116d8565b506000600860008473ffffffffffffffffffffffffffffffffffffffff1673ffffffffffffffffffffffffffffffffffffffff16815260200190815260200160002060008581526020019081526020016000208190555092915050565b60007fd9b67a26000000000000000000000000000000000000000000000000000000007bffffffffffffffffffffffffffffffffffffffffffffffffffffffff1916827bffffffffffffffffffffffffffffffffffffffffffffffffffffffff191614806108b857507f0e89341c000000000000000000000000000000000000000000000000000000007bffffffffffffffffffffffffffffffffffffffffffffffffffffffff1916827bffffffffffffffffffffffffffffffffffffffffffffffffffffffff1916145b806108c857506108c782611c87565b5b9050919050565b60003373ffffffffffffffffffffffffffffffffffffffff16600360009054906101000a900473ffffffffffffffffffffffffffffffffffffffff1673ffffffffffffffffffffffffffffffffffffffff1614610961576040517f08c379a000000000000000000000000000000000000000000000000000000000815260040161095890613a1b565b60405180910390fd5b608060046000815461097290613f72565b919050819055901b905081156109a8577f8000000000000000000000000000000000000000000000000000000000000000811790505b919050565b6060600280546109bc90613f0f565b80601f01602080910402602001604051908101604052809291908181526020018280546109e890613f0f565b8015610a355780601f10610a0a57610100808354040283529160200191610a35565b820191906000526020600020905b815481529060010190602001808311610a1857829003601f168201915b50505050509050919050565b60003373ffffffffffffffffffffffffffffffffffffffff16600360009054906101000a900473ffffffffffffffffffffffffffffffffffffffff1673ffffffffffffffffffffffffffffffffffffffff1614610ad3576040517f08c379a0000000000000000000000000000000000000000000000000000000008152600401610aca90613a1b565b60405180910390fd5b60016006600084815260200190815260200160002060008573ffffffffffffffffffffffffffffffffffffffff1673ffffffffffffffffffffffffffffffffffffffff16815260200190815260200160002060006101000a81548160ff0219169083151502179055506006600083815260200190815260200160002060008473ffffffffffffffffffffffffffffffffffffffff1673ffffffffffffffffffffffffffffffffffffffff16815260200190815260200160002060009054906101000a900460ff16905092915050565b610baa611cf1565b73ffffffffffffffffffffffffffffffffffffffff168573ffffffffffffffffffffffffffffffffffffffff161480610bf05750610bef85610bea611cf1565b61195d565b5b610c2f576040517f08c379a0000000000000000000000000000000000000000000000000000000008152600401610c2690613afb565b60405180910390fd5b610c3c8585858585611cf9565b5050505050565b60003373ffffffffffffffffffffffffffffffffffffffff16600360009054906101000a900473ffffffffffffffffffffffffffffffffffffffff1673ffffffffffffffffffffffffffffffffffffffff1614610cd5576040517f08c379a0000000000000000000000000000000000000000000000000000000008152600401610ccc90613a1b565b60405180910390fd5b60006006600084815260200190815260200160002060008573ffffffffffffffffffffffffffffffffffffffff1673ffffffffffffffffffffffffffffffffffffffff16815260200190815260200160002060006101000a81548160ff0219169083151502179055506006600083815260200190815260200160002060008473ffffffffffffffffffffffffffffffffffffffff1673ffffffffffffffffffffffffffffffffffffffff16815260200190815260200160002060009054906101000a900460ff1615905092915050565b60066020528160005260406000206020528060005260406000206000915091509054906101000a900460ff1681565b60006005600083815260200190815260200160002060009054906101000a900473ffffffffffffffffffffffffffffffffffffffff169050919050565b60608151835114610e57576040517f08c379a0000000000000000000000000000000000000000000000000000000008152600401610e4e90613bdb565b60405180910390fd5b6000835167ffffffffffffffff811115610e9a577f4e487b7100000000000000000000000000000000000000000000000000000000600052604160045260246000fd5b604051908082528060200260200182016040528015610ec85781602001602082028036833780820191505090505b50905060005b8451811015610fb757610f61858281518110610f13577f4e487b7100000000000000000000000000000000000000000000000000000000600052603260045260246000fd5b6020026020010151858381518110610f54577f4e487b7100000000000000000000000000000000000000000000000000000000600052603260045260246000fd5b602002602001015161060f565b828281518110610f9a577f4e487b7100000000000000000000000000000000000000000000000000000000600052603260045260246000fd5b60200260200101818152505080610fb090613f72565b9050610ece565b508091505092915050565b600b6020528060005260406000206000915090505481565b6000826000610fe88261193b565b90503373ffffffffffffffffffffffffffffffffffffffff16600360009054906101000a900473ffffffffffffffffffffffffffffffffffffffff1673ffffffffffffffffffffffffffffffffffffffff1614806110a75750600115156006600083815260200190815260200160002060003373ffffffffffffffffffffffffffffffffffffffff1673ffffffffffffffffffffffffffffffffffffffff16815260200190815260200160002060009054906101000a900460ff161515145b806110dd57503373ffffffffffffffffffffffffffffffffffffffff163073ffffffffffffffffffffffffffffffffffffffff16145b61111c576040517f08c379a000000000000000000000000000000000000000000000000000000000815260040161111390613a1b565b60405180910390fd5b61112585611680565b611164576040517f08c379a000000000000000000000000000000000000000000000000000000000815260040161115b90613a9b565b60405180910390fd5b61116f868686612059565b83600b600087815260200190815260200160002060008282546111929190613e25565b9250508190555083600760008873ffffffffffffffffffffffffffffffffffffffff1673ffffffffffffffffffffffffffffffffffffffff168152602001908152602001600020600087815260200190815260200160002060008282546111f99190613e25565b925050819055506001925050509392505050565b6008602052816000526040600020602052806000526040600020600091509150505481565b6007602052816000526040600020602052806000526040600020600091509150505481565b60006112628361190d565b6112a1576040517f08c379a000000000000000000000000000000000000000000000000000000000815260040161129890613b7b565b60405180910390fd5b6000600b6000858152602001908152602001600020600081546112c390613f72565b919050819055905080841791506112da8286612276565b82600a60008481526020019081526020016000209080519060200190611301929190612cd5565b50818573ffffffffffffffffffffffffffffffffffffffff167fd2c38398cb1d153f906fd8dafa23f3c242c8503cfb2b362fd96f90b3763007ce60405160405180910390a3509392505050565b60006fffffffffffffffffffffffffffffffff801682169050919050565b3373ffffffffffffffffffffffffffffffffffffffff16600360009054906101000a900473ffffffffffffffffffffffffffffffffffffffff1673ffffffffffffffffffffffffffffffffffffffff16146113fc576040517f08c379a00000000000000000000000000000000000000000000000000000000081526004016113f390613a1b565b60405180910390fd5b61140583611680565b611444576040517f08c379a000000000000000000000000000000000000000000000000000000000815260040161143b90613abb565b60405180910390fd5b80600860008473ffffffffffffffffffffffffffffffffffffffff1673ffffffffffffffffffffffffffffffffffffffff168152602001908152602001600020600085815260200190815260200160002060008282546114a49190613dcf565b925050819055508173ffffffffffffffffffffffffffffffffffffffff16837f8aa1d0d8a065e76aa87e2a407f14dfb1c36840a8496ef169409f73a1fbac1766836040516114f29190613c3b565b60405180910390a3505050565b8173ffffffffffffffffffffffffffffffffffffffff1661151e611cf1565b73ffffffffffffffffffffffffffffffffffffffff161415611575576040517f08c379a000000000000000000000000000000000000000000000000000000000815260040161156c90613bbb565b60405180910390fd5b8060016000611582611cf1565b73ffffffffffffffffffffffffffffffffffffffff1673ffffffffffffffffffffffffffffffffffffffff16815260200190815260200160002060008473ffffffffffffffffffffffffffffffffffffffff1673ffffffffffffffffffffffffffffffffffffffff16815260200190815260200160002060006101000a81548160ff0219169083151502179055508173ffffffffffffffffffffffffffffffffffffffff1661162f611cf1565b73ffffffffffffffffffffffffffffffffffffffff167f17307eab39ab6107e8899845ad3d59bd9653f200f220920489ca2b5937696c3183604051611674919061399e565b60405180910390a35050565b6000807f80000000000000000000000000000000000000000000000000000000000000008316149050919050565b6000600360009054906101000a900473ffffffffffffffffffffffffffffffffffffffff16905090565b60008360006116e68261193b565b90503373ffffffffffffffffffffffffffffffffffffffff16600360009054906101000a900473ffffffffffffffffffffffffffffffffffffffff1673ffffffffffffffffffffffffffffffffffffffff1614806117a55750600115156006600083815260200190815260200160002060003373ffffffffffffffffffffffffffffffffffffffff1673ffffffffffffffffffffffffffffffffffffffff16815260200190815260200160002060009054906101000a900460ff161515145b806117db57503373ffffffffffffffffffffffffffffffffffffffff163073ffffffffffffffffffffffffffffffffffffffff16145b61181a576040517f08c379a000000000000000000000000000000000000000000000000000000000815260040161181190613a1b565b60405180910390fd5b61182386611680565b611862576040517f08c379a000000000000000000000000000000000000000000000000000000000815260040161185990613b7b565b60405180910390fd5b61186e8787878761240e565b84600b600088815260200190815260200160002060008282546118919190613dcf565b9250508190555084600760008973ffffffffffffffffffffffffffffffffffffffff1673ffffffffffffffffffffffffffffffffffffffff168152602001908152602001600020600088815260200190815260200160002060008282546118f89190613dcf565b92505081905550600192505050949350505050565b60007f8000000000000000000000000000000000000000000000000000000000000000808316149050919050565b600060806fffffffffffffffffffffffffffffffff8016901b82169050919050565b6000600160008473ffffffffffffffffffffffffffffffffffffffff1673ffffffffffffffffffffffffffffffffffffffff16815260200190815260200160002060008373ffffffffffffffffffffffffffffffffffffffff1673ffffffffffffffffffffffffffffffffffffffff16815260200190815260200160002060009054906101000a900460ff16905092915050565b6119f9611cf1565b73ffffffffffffffffffffffffffffffffffffffff168573ffffffffffffffffffffffffffffffffffffffff161480611a3f5750611a3e85611a39611cf1565b61195d565b5b611a7e576040517f08c379a0000000000000000000000000000000000000000000000000000000008152600401611a7590613a7b565b60405180910390fd5b611a8783611680565b15611bff5781600760008773ffffffffffffffffffffffffffffffffffffffff1673ffffffffffffffffffffffffffffffffffffffff1681526020019081526020016000206000858152602001908152602001600020541015611b1f576040517f08c379a0000000000000000000000000000000000000000000000000000000008152600401611b1690613b9b565b60405180910390fd5b611b2c85858585856125a4565b81600760008773ffffffffffffffffffffffffffffffffffffffff1673ffffffffffffffffffffffffffffffffffffffff16815260200190815260200160002060008581526020019081526020016000206000828254611b8c9190613e25565b9250508190555081600760008673ffffffffffffffffffffffffffffffffffffffff1673ffffffffffffffffffffffffffffffffffffffff16815260200190815260200160002060008581526020019081526020016000206000828254611bf39190613dcf565b92505081905550611c80565b8473ffffffffffffffffffffffffffffffffffffffff16611c1f84610dd4565b73ffffffffffffffffffffffffffffffffffffffff1614611c75576040517f08c379a0000000000000000000000000000000000000000000000000000000008152600401611c6c90613b5b565b60405180910390fd5b611c7f8385612276565b5b5050505050565b60007f01ffc9a7000000000000000000000000000000000000000000000000000000007bffffffffffffffffffffffffffffffffffffffffffffffffffffffff1916827bffffffffffffffffffffffffffffffffffffffffffffffffffffffff1916149050919050565b600033905090565b8151835114611d3d576040517f08c379a0000000000000000000000000000000000000000000000000000000008152600401611d3490613bfb565b60405180910390fd5b600073ffffffffffffffffffffffffffffffffffffffff168473ffffffffffffffffffffffffffffffffffffffff161415611dad576040517f08c379a0000000000000000000000000000000000000000000000000000000008152600401611da490613adb565b60405180910390fd5b6000611db7611cf1565b9050611dc7818787878787612826565b60005b8451811015611fc4576000858281518110611e0e577f4e487b7100000000000000000000000000000000000000000000000000000000600052603260045260246000fd5b602002602001015190506000858381518110611e53577f4e487b7100000000000000000000000000000000000000000000000000000000600052603260045260246000fd5b60200260200101519050600080600084815260200190815260200160002060008b73ffffffffffffffffffffffffffffffffffffffff1673ffffffffffffffffffffffffffffffffffffffff16815260200190815260200160002054905081811015611ef4576040517f08c379a0000000000000000000000000000000000000000000000000000000008152600401611eeb90613b3b565b60405180910390fd5b81810360008085815260200190815260200160002060008c73ffffffffffffffffffffffffffffffffffffffff1673ffffffffffffffffffffffffffffffffffffffff168152602001908152602001600020819055508160008085815260200190815260200160002060008b73ffffffffffffffffffffffffffffffffffffffff1673ffffffffffffffffffffffffffffffffffffffff1681526020019081526020016000206000828254611fa99190613dcf565b9250508190555050505080611fbd90613f72565b9050611dca565b508473ffffffffffffffffffffffffffffffffffffffff168673ffffffffffffffffffffffffffffffffffffffff168273ffffffffffffffffffffffffffffffffffffffff167f4a39dc06d4c0dbc64b70af90fd698a233a518aa5d07e595d983b8c0526c8f7fb878760405161203b929190613967565b60405180910390a461205181878787878761282e565b505050505050565b600073ffffffffffffffffffffffffffffffffffffffff168373ffffffffffffffffffffffffffffffffffffffff1614156120c9576040517f08c379a00000000000000000000000000000000000000000000000000000000081526004016120c090613b1b565b60405180910390fd5b60006120d3611cf1565b9050612103818560006120e587612a15565b6120ee87612a15565b60405180602001604052806000815250612826565b600080600085815260200190815260200160002060008673ffffffffffffffffffffffffffffffffffffffff1673ffffffffffffffffffffffffffffffffffffffff1681526020019081526020016000205490508281101561219a576040517f08c379a000000000000000000000000000000000000000000000000000000000815260040161219190613a5b565b60405180910390fd5b82810360008086815260200190815260200160002060008773ffffffffffffffffffffffffffffffffffffffff1673ffffffffffffffffffffffffffffffffffffffff16815260200190815260200160002081905550600073ffffffffffffffffffffffffffffffffffffffff168573ffffffffffffffffffffffffffffffffffffffff168373ffffffffffffffffffffffffffffffffffffffff167fc3d58168c5ae7397731d063d5bbf3d657854427343f4c083240f7aacaa2d0f628787604051612267929190613c56565b60405180910390a45050505050565b8160006122828261193b565b90503373ffffffffffffffffffffffffffffffffffffffff16600360009054906101000a900473ffffffffffffffffffffffffffffffffffffffff1673ffffffffffffffffffffffffffffffffffffffff1614806123415750600115156006600083815260200190815260200160002060003373ffffffffffffffffffffffffffffffffffffffff1673ffffffffffffffffffffffffffffffffffffffff16815260200190815260200160002060009054906101000a900460ff161515145b8061237757503373ffffffffffffffffffffffffffffffffffffffff163073ffffffffffffffffffffffffffffffffffffffff16145b6123b6576040517f08c379a00000000000000000000000000000000000000000000000000000000081526004016123ad90613a1b565b60405180910390fd5b826005600086815260200190815260200160002060006101000a81548173ffffffffffffffffffffffffffffffffffffffff021916908373ffffffffffffffffffffffffffffffffffffffff16021790555050505050565b600073ffffffffffffffffffffffffffffffffffffffff168473ffffffffffffffffffffffffffffffffffffffff16141561247e576040517f08c379a000000000000000000000000000000000000000000000000000000000815260040161247590613c1b565b60405180910390fd5b6000612488611cf1565b90506124a98160008761249a88612a15565b6124a388612a15565b87612826565b8260008086815260200190815260200160002060008773ffffffffffffffffffffffffffffffffffffffff1673ffffffffffffffffffffffffffffffffffffffff16815260200190815260200160002060008282546125089190613dcf565b925050819055508473ffffffffffffffffffffffffffffffffffffffff16600073ffffffffffffffffffffffffffffffffffffffff168273ffffffffffffffffffffffffffffffffffffffff167fc3d58168c5ae7397731d063d5bbf3d657854427343f4c083240f7aacaa2d0f628787604051612586929190613c56565b60405180910390a461259d81600087878787612adb565b5050505050565b600073ffffffffffffffffffffffffffffffffffffffff168473ffffffffffffffffffffffffffffffffffffffff161415612614576040517f08c379a000000000000000000000000000000000000000000000000000000000815260040161260b90613adb565b60405180910390fd5b600061261e611cf1565b905061263e81878761262f88612a15565b61263888612a15565b87612826565b600080600086815260200190815260200160002060008873ffffffffffffffffffffffffffffffffffffffff1673ffffffffffffffffffffffffffffffffffffffff168152602001908152602001600020549050838110156126d5576040517f08c379a00000000000000000000000000000000000000000000000000000000081526004016126cc90613b3b565b60405180910390fd5b83810360008087815260200190815260200160002060008973ffffffffffffffffffffffffffffffffffffffff1673ffffffffffffffffffffffffffffffffffffffff168152602001908152602001600020819055508360008087815260200190815260200160002060008873ffffffffffffffffffffffffffffffffffffffff1673ffffffffffffffffffffffffffffffffffffffff168152602001908152602001600020600082825461278a9190613dcf565b925050819055508573ffffffffffffffffffffffffffffffffffffffff168773ffffffffffffffffffffffffffffffffffffffff168373ffffffffffffffffffffffffffffffffffffffff167fc3d58168c5ae7397731d063d5bbf3d657854427343f4c083240f7aacaa2d0f628888604051612807929190613c56565b60405180910390a461281d828888888888612adb565b50505050505050565b505050505050565b61284d8473ffffffffffffffffffffffffffffffffffffffff16612cc2565b15612a0d578373ffffffffffffffffffffffffffffffffffffffff1663bc197c8187878686866040518663ffffffff1660e01b8152600401612893959493929190613883565b602060405180830381600087803b1580156128ad57600080fd5b505af19250505080156128de57506040513d601f19601f820116820180604052508101906128db91906133ce565b60015b612984576128ea614048565b806308c379a0141561294757506128ff6145f3565b8061290a5750612949565b806040517f08c379a000000000000000000000000000000000000000000000000000000000815260040161293e91906139b9565b60405180910390fd5b505b6040517f08c379a000000000000000000000000000000000000000000000000000000000815260040161297b906139db565b60405180910390fd5b63bc197c8160e01b7bffffffffffffffffffffffffffffffffffffffffffffffffffffffff1916817bffffffffffffffffffffffffffffffffffffffffffffffffffffffff191614612a0b576040517f08c379a0000000000000000000000000000000000000000000000000000000008152600401612a02906139fb565b60405180910390fd5b505b505050505050565b60606000600167ffffffffffffffff811115612a5a577f4e487b7100000000000000000000000000000000000000000000000000000000600052604160045260246000fd5b604051908082528060200260200182016040528015612a885781602001602082028036833780820191505090505b5090508281600081518110612ac6577f4e487b7100000000000000000000000000000000000000000000000000000000600052603260045260246000fd5b60200260200101818152505080915050919050565b612afa8473ffffffffffffffffffffffffffffffffffffffff16612cc2565b15612cba578373ffffffffffffffffffffffffffffffffffffffff1663f23a6e6187878686866040518663ffffffff1660e01b8152600401612b409594939291906138eb565b602060405180830381600087803b158015612b5a57600080fd5b505af1925050508015612b8b57506040513d601f19601f82011682018060405250810190612b8891906133ce565b60015b612c3157612b97614048565b806308c379a01415612bf45750612bac6145f3565b80612bb75750612bf6565b806040517f08c379a0000000000000000000000000000000000000000000000000000000008152600401612beb91906139b9565b60405180910390fd5b505b6040517f08c379a0000000000000000000000000000000000000000000000000000000008152600401612c28906139db565b60405180910390fd5b63f23a6e6160e01b7bffffffffffffffffffffffffffffffffffffffffffffffffffffffff1916817bffffffffffffffffffffffffffffffffffffffffffffffffffffffff191614612cb8576040517f08c379a0000000000000000000000000000000000000000000000000000000008152600401612caf906139fb565b60405180910390fd5b505b505050505050565b600080823b905060008111915050919050565b828054612ce190613f0f565b90600052602060002090601f016020900481019282612d035760008555612d4a565b82601f10612d1c57805160ff1916838001178555612d4a565b82800160010185558215612d4a579182015b82811115612d49578251825591602001919060010190612d2e565b5b509050612d579190612d5b565b5090565b5b80821115612d74576000816000905550600101612d5c565b5090565b6000612d8b612d8684613ca4565b613c7f565b90508083825260208201905082856020860282011115612daa57600080fd5b60005b85811015612dda5781612dc08882612ecc565b845260208401935060208301925050600181019050612dad565b5050509392505050565b6000612df7612df284613cd0565b613c7f565b90508083825260208201905082856020860282011115612e1657600080fd5b60005b85811015612e465781612e2c8882612fc8565b845260208401935060208301925050600181019050612e19565b5050509392505050565b6000612e63612e5e84613cfc565b613c7f565b905082815260208101848484011115612e7b57600080fd5b612e86848285613ecd565b509392505050565b6000612ea1612e9c84613d2d565b613c7f565b905082815260208101848484011115612eb957600080fd5b612ec4848285613ecd565b509392505050565b600081359050612edb81614689565b92915050565b600082601f830112612ef257600080fd5b8135612f02848260208601612d78565b91505092915050565b600082601f830112612f1c57600080fd5b8135612f2c848260208601612de4565b91505092915050565b600081359050612f44816146a0565b92915050565b600081359050612f59816146b7565b92915050565b600081519050612f6e816146b7565b92915050565b600082601f830112612f8557600080fd5b8135612f95848260208601612e50565b91505092915050565b600082601f830112612faf57600080fd5b8135612fbf848260208601612e8e565b91505092915050565b600081359050612fd7816146ce565b92915050565b60008060408385031215612ff057600080fd5b6000612ffe85828601612ecc565b925050602061300f85828601612ecc565b9150509250929050565b600080600080600060a0868803121561303157600080fd5b600061303f88828901612ecc565b955050602061305088828901612ecc565b945050604086013567ffffffffffffffff81111561306d57600080fd5b61307988828901612f0b565b935050606086013567ffffffffffffffff81111561309657600080fd5b6130a288828901612f0b565b925050608086013567ffffffffffffffff8111156130bf57600080fd5b6130cb88828901612f74565b9150509295509295909350565b600080600080600060a086880312156130f057600080fd5b60006130fe88828901612ecc565b955050602061310f88828901612ecc565b945050604061312088828901612fc8565b935050606061313188828901612fc8565b925050608086013567ffffffffffffffff81111561314e57600080fd5b61315a88828901612f74565b9150509295509295909350565b6000806040838503121561317a57600080fd5b600061318885828601612ecc565b925050602061319985828601612f35565b9150509250929050565b600080604083850312156131b657600080fd5b60006131c485828601612ecc565b92505060206131d585828601612fc8565b9150509250929050565b6000806000606084860312156131f457600080fd5b600061320286828701612ecc565b935050602061321386828701612fc8565b925050604084013567ffffffffffffffff81111561323057600080fd5b61323c86828701612f9e565b9150509250925092565b60008060006060848603121561325b57600080fd5b600061326986828701612ecc565b935050602061327a86828701612fc8565b925050604061328b86828701612fc8565b9150509250925092565b600080600080608085870312156132ab57600080fd5b60006132b987828801612ecc565b94505060206132ca87828801612fc8565b93505060406132db87828801612fc8565b925050606085013567ffffffffffffffff8111156132f857600080fd5b61330487828801612f74565b91505092959194509250565b6000806040838503121561332357600080fd5b600083013567ffffffffffffffff81111561333d57600080fd5b61334985828601612ee1565b925050602083013567ffffffffffffffff81111561336657600080fd5b61337285828601612f0b565b9150509250929050565b60006020828403121561338e57600080fd5b600061339c84828501612f35565b91505092915050565b6000602082840312156133b757600080fd5b60006133c584828501612f4a565b91505092915050565b6000602082840312156133e057600080fd5b60006133ee84828501612f5f565b91505092915050565b60006020828403121561340957600080fd5b600061341784828501612fc8565b91505092915050565b6000806040838503121561343357600080fd5b600061344185828601612fc8565b925050602061345285828601612ecc565b9150509250929050565b60008060006060848603121561347157600080fd5b600061347f86828701612fc8565b935050602061349086828701612ecc565b92505060406134a186828701612fc8565b9150509250925092565b60006134b7838361384a565b60208301905092915050565b6134cc81613e59565b82525050565b60006134dd82613d6e565b6134e78185613d9c565b93506134f283613d5e565b8060005b8381101561352357815161350a88826134ab565b975061351583613d8f565b9250506001810190506134f6565b5085935050505092915050565b61353981613e6b565b82525050565b600061354a82613d79565b6135548185613dad565b9350613564818560208601613edc565b61356d8161406a565b840191505092915050565b600061358382613d84565b61358d8185613dbe565b935061359d818560208601613edc565b6135a68161406a565b840191505092915050565b60006135be603483613dbe565b91506135c982614088565b604082019050919050565b60006135e1602883613dbe565b91506135ec826140d7565b604082019050919050565b6000613604601f83613dbe565b915061360f82614126565b602082019050919050565b6000613627602b83613dbe565b91506136328261414f565b604082019050919050565b600061364a602483613dbe565b91506136558261419e565b604082019050919050565b600061366d602983613dbe565b9150613678826141ed565b604082019050919050565b6000613690602d83613dbe565b915061369b8261423c565b604082019050919050565b60006136b3602e83613dbe565b91506136be8261428b565b604082019050919050565b60006136d6602583613dbe565b91506136e1826142da565b604082019050919050565b60006136f9603283613dbe565b915061370482614329565b604082019050919050565b600061371c602383613dbe565b915061372782614378565b604082019050919050565b600061373f602a83613dbe565b915061374a826143c7565b604082019050919050565b6000613762600f83613dbe565b915061376d82614416565b602082019050919050565b6000613785602d83613dbe565b91506137908261443f565b604082019050919050565b60006137a8601283613dbe565b91506137b38261448e565b602082019050919050565b60006137cb602983613dbe565b91506137d6826144b7565b604082019050919050565b60006137ee602983613dbe565b91506137f982614506565b604082019050919050565b6000613811602883613dbe565b915061381c82614555565b604082019050919050565b6000613834602183613dbe565b915061383f826145a4565b604082019050919050565b61385381613ec3565b82525050565b61386281613ec3565b82525050565b600060208201905061387d60008301846134c3565b92915050565b600060a08201905061389860008301886134c3565b6138a560208301876134c3565b81810360408301526138b781866134d2565b905081810360608301526138cb81856134d2565b905081810360808301526138df818461353f565b90509695505050505050565b600060a08201905061390060008301886134c3565b61390d60208301876134c3565b61391a6040830186613859565b6139276060830185613859565b8181036080830152613939818461353f565b90509695505050505050565b6000602082019050818103600083015261395f81846134d2565b905092915050565b6000604082019050818103600083015261398181856134d2565b9050818103602083015261399581846134d2565b90509392505050565b60006020820190506139b36000830184613530565b92915050565b600060208201905081810360008301526139d38184613578565b905092915050565b600060208201905081810360008301526139f4816135b1565b9050919050565b60006020820190508181036000830152613a14816135d4565b9050919050565b60006020820190508181036000830152613a34816135f7565b9050919050565b60006020820190508181036000830152613a548161361a565b9050919050565b60006020820190508181036000830152613a748161363d565b9050919050565b60006020820190508181036000830152613a9481613660565b9050919050565b60006020820190508181036000830152613ab481613683565b9050919050565b60006020820190508181036000830152613ad4816136a6565b9050919050565b60006020820190508181036000830152613af4816136c9565b9050919050565b60006020820190508181036000830152613b14816136ec565b9050919050565b60006020820190508181036000830152613b348161370f565b9050919050565b60006020820190508181036000830152613b5481613732565b9050919050565b60006020820190508181036000830152613b7481613755565b9050919050565b60006020820190508181036000830152613b9481613778565b9050919050565b60006020820190508181036000830152613bb48161379b565b9050919050565b60006020820190508181036000830152613bd4816137be565b9050919050565b60006020820190508181036000830152613bf4816137e1565b9050919050565b60006020820190508181036000830152613c1481613804565b9050919050565b60006020820190508181036000830152613c3481613827565b9050919050565b6000602082019050613c506000830184613859565b92915050565b6000604082019050613c6b6000830185613859565b613c786020830184613859565b9392505050565b6000613c89613c9a565b9050613c958282613f41565b919050565b6000604051905090565b600067ffffffffffffffff821115613cbf57613cbe614019565b5b602082029050602081019050919050565b600067ffffffffffffffff821115613ceb57613cea614019565b5b602082029050602081019050919050565b600067ffffffffffffffff821115613d1757613d16614019565b5b613d208261406a565b9050602081019050919050565b600067ffffffffffffffff821115613d4857613d47614019565b5b613d518261406a565b9050602081019050919050565b6000819050602082019050919050565b600081519050919050565b600081519050919050565b600081519050919050565b6000602082019050919050565b600082825260208201905092915050565b600082825260208201905092915050565b600082825260208201905092915050565b6000613dda82613ec3565b9150613de583613ec3565b9250827fffffffffffffffffffffffffffffffffffffffffffffffffffffffffffffffff03821115613e1a57613e19613fbb565b5b828201905092915050565b6000613e3082613ec3565b9150613e3b83613ec3565b925082821015613e4e57613e4d613fbb565b5b828203905092915050565b6000613e6482613ea3565b9050919050565b60008115159050919050565b60007fffffffff0000000000000000000000000000000000000000000000000000000082169050919050565b600073ffffffffffffffffffffffffffffffffffffffff82169050919050565b6000819050919050565b82818337600083830152505050565b60005b83811015613efa578082015181840152602081019050613edf565b83811115613f09576000848401525b50505050565b60006002820490506001821680613f2757607f821691505b60208210811415613f3b57613f3a613fea565b5b50919050565b613f4a8261406a565b810181811067ffffffffffffffff82111715613f6957613f68614019565b5b80604052505050565b6000613f7d82613ec3565b91507fffffffffffffffffffffffffffffffffffffffffffffffffffffffffffffffff821415613fb057613faf613fbb565b5b600182019050919050565b7f4e487b7100000000000000000000000000000000000000000000000000000000600052601160045260246000fd5b7f4e487b7100000000000000000000000000000000000000000000000000000000600052602260045260246000fd5b7f4e487b7100000000000000000000000000000000000000000000000000000000600052604160045260246000fd5b600060033d11156140675760046000803e61406460005161407b565b90505b90565b6000601f19601f8301169050919050565b60008160e01c9050919050565b7f455243313135353a207472616e7366657220746f206e6f6e204552433131353560008201527f526563656976657220696d706c656d656e746572000000000000000000000000602082015250565b7f455243313135353a204552433131353552656365697665722072656a6563746560008201527f6420746f6b656e73000000000000000000000000000000000000000000000000602082015250565b7f596f752063616e6e6f7420706572666f726d207468697320616374696f6e2e00600082015250565b7f455243313135353a2062616c616e636520717565727920666f7220746865207a60008201527f65726f2061646472657373000000000000000000000000000000000000000000602082015250565b7f455243313135353a206275726e20616d6f756e7420657863656564732062616c60008201527f616e636500000000000000000000000000000000000000000000000000000000602082015250565b7f455243313135353a2063616c6c6572206973206e6f74206f776e6572206e6f7260008201527f20617070726f7665640000000000000000000000000000000000000000000000602082015250565b7f54524945445f544f5f4255524e5f46554e4749424c455f464f525f4e4f4e5f4660008201527f554e4749424c455f544f4b454e00000000000000000000000000000000000000602082015250565b7f54524945445f544f5f5354414b455f46554e4749424c455f464f525f4e4f4e5f60008201527f46554e4749424c455f544f4b454e000000000000000000000000000000000000602082015250565b7f455243313135353a207472616e7366657220746f20746865207a65726f20616460008201527f6472657373000000000000000000000000000000000000000000000000000000602082015250565b7f455243313135353a207472616e736665722063616c6c6572206973206e6f742060008201527f6f776e6572206e6f7220617070726f7665640000000000000000000000000000602082015250565b7f455243313135353a206275726e2066726f6d20746865207a65726f206164647260008201527f6573730000000000000000000000000000000000000000000000000000000000602082015250565b7f455243313135353a20696e73756666696369656e742062616c616e636520666f60008201527f72207472616e7366657200000000000000000000000000000000000000000000602082015250565b7f57726f6e67204e4654206f776e65720000000000000000000000000000000000600082015250565b7f54524945445f544f5f4d494e545f46554e4749424c455f464f525f4e4f4e5f4660008201527f554e4749424c455f544f4b454e00000000000000000000000000000000000000602082015250565b7f696e73756666696369656e742066756e64730000000000000000000000000000600082015250565b7f455243313135353a2073657474696e6720617070726f76616c2073746174757360008201527f20666f722073656c660000000000000000000000000000000000000000000000602082015250565b7f455243313135353a206163636f756e747320616e6420696473206c656e67746860008201527f206d69736d617463680000000000000000000000000000000000000000000000602082015250565b7f455243313135353a2069647320616e6420616d6f756e7473206c656e6774682060008201527f6d69736d61746368000000000000000000000000000000000000000000000000602082015250565b7f455243313135353a206d696e7420746f20746865207a65726f2061646472657360008201527f7300000000000000000000000000000000000000000000000000000000000000602082015250565b600060443d101561460357614686565b61460b613c9a565b60043d036004823e80513d602482011167ffffffffffffffff82111715614633575050614686565b808201805167ffffffffffffffff8111156146515750505050614686565b80602083010160043d03850181111561466e575050505050614686565b61467d82602001850186613f41565b82955050505050505b90565b61469281613e59565b811461469d57600080fd5b50565b6146a981613e6b565b81146146b457600080fd5b50565b6146c081613e77565b81146146cb57600080fd5b50565b6146d781613ec3565b81146146e257600080fd5b5056fea2646970667358221220b5e93d7998ab0f31305090bce258a010ee2cd9ff5f12092afd68d00b791c348d64736f6c63430008040033",
  "linkReferences": {},
  "deployedLinkReferences": {}
}