{
  "_format": "hh-sol-artifact-1",
  "contractName": "GalaxyToken",
  "sourceName": "contracts/GalaxyToken.sol",
  "abi": [
    {
      "inputs": [],
      "stateMutability": "nonpayable",
      "type": "constructor"
    },
    {
      "anonymous": false,
      "inputs": [
        {
          "indexed": true,
          "internalType": "address",
          "name": "account",
          "type": "address"
        },
        {
          "indexed": true,
          "internalType": "address",
          "name": "operator",
          "type": "address"
        },
        {
          "indexed": false,
          "internalType": "bool",
          "name": "approved",
          "type": "bool"
        }
      ],
      "name": "ApprovalForAll",
      "type": "event"
    },
    {
      "anonymous": false,
      "inputs": [
        {
          "indexed": true,
          "internalType": "address",
          "name": "",
          "type": "address"
        },
        {
          "indexed": true,
          "internalType": "uint256",
          "name": "",
          "type": "uint256"
        }
      ],
      "name": "NfTokenMint",
      "type": "event"
    },
    {
      "anonymous": false,
      "inputs": [
        {
          "indexed": true,
          "internalType": "uint256",
          "name": "",
          "type": "uint256"
        },
        {
          "indexed": true,
          "internalType": "address",
          "name": "",
          "type": "address"
        },
        {
          "indexed": false,
          "internalType": "uint256",
          "name": "",
          "type": "uint256"
        }
      ],
      "name": "OwnerCredited",
      "type": "event"
    },
    {
      "anonymous": false,
      "inputs": [
        {
          "indexed": true,
          "internalType": "address",
          "name": "previousOwner",
          "type": "address"
        },
        {
          "indexed": true,
          "internalType": "address",
          "name": "newOwner",
          "type": "address"
        }
      ],
      "name": "OwnershipTransferred",
      "type": "event"
    },
    {
      "anonymous": false,
      "inputs": [
        {
          "indexed": true,
          "internalType": "address",
          "name": "",
          "type": "address"
        },
        {
          "indexed": false,
          "internalType": "uint256",
          "name": "",
          "type": "uint256"
        }
      ],
      "name": "TokenCreation",
      "type": "event"
    },
    {
      "anonymous": false,
      "inputs": [
        {
          "indexed": true,
          "internalType": "address",
          "name": "operator",
          "type": "address"
        },
        {
          "indexed": true,
          "internalType": "address",
          "name": "from",
          "type": "address"
        },
        {
          "indexed": true,
          "internalType": "address",
          "name": "to",
          "type": "address"
        },
        {
          "indexed": false,
          "internalType": "uint256[]",
          "name": "ids",
          "type": "uint256[]"
        },
        {
          "indexed": false,
          "internalType": "uint256[]",
          "name": "values",
          "type": "uint256[]"
        }
      ],
      "name": "TransferBatch",
      "type": "event"
    },
    {
      "anonymous": false,
      "inputs": [
        {
          "indexed": true,
          "internalType": "address",
          "name": "operator",
          "type": "address"
        },
        {
          "indexed": true,
          "internalType": "address",
          "name": "from",
          "type": "address"
        },
        {
          "indexed": true,
          "internalType": "address",
          "name": "to",
          "type": "address"
        },
        {
          "indexed": false,
          "internalType": "uint256",
          "name": "id",
          "type": "uint256"
        },
        {
          "indexed": false,
          "internalType": "uint256",
          "name": "value",
          "type": "uint256"
        }
      ],
      "name": "TransferSingle",
      "type": "event"
    },
    {
      "anonymous": false,
      "inputs": [
        {
          "indexed": false,
          "internalType": "string",
          "name": "value",
          "type": "string"
        },
        {
          "indexed": true,
          "internalType": "uint256",
          "name": "id",
          "type": "uint256"
        }
      ],
      "name": "URI",
      "type": "event"
    },
    {
      "inputs": [],
      "name": "ERC1155_BATCH_RECEIVED",
      "outputs": [
        {
          "internalType": "bytes4",
          "name": "",
          "type": "bytes4"
        }
      ],
      "stateMutability": "view",
      "type": "function"
    },
    {
      "inputs": [],
      "name": "ERC1155_RECEIVED",
      "outputs": [
        {
          "internalType": "bytes4",
          "name": "",
          "type": "bytes4"
        }
      ],
      "stateMutability": "view",
      "type": "function"
    },
    {
      "inputs": [
        {
          "internalType": "address",
          "name": "account",
          "type": "address"
        },
        {
          "internalType": "uint256",
          "name": "_type",
          "type": "uint256"
        }
      ],
      "name": "addOperator",
      "outputs": [
        {
          "internalType": "bool",
          "name": "",
          "type": "bool"
        }
      ],
      "stateMutability": "nonpayable",
      "type": "function"
    },
    {
      "inputs": [
        {
          "internalType": "address",
          "name": "account",
          "type": "address"
        },
        {
          "internalType": "uint256",
          "name": "id",
          "type": "uint256"
        }
      ],
      "name": "balanceOf",
      "outputs": [
        {
          "internalType": "uint256",
          "name": "",
          "type": "uint256"
        }
      ],
      "stateMutability": "view",
      "type": "function"
    },
    {
      "inputs": [
        {
          "internalType": "address[]",
          "name": "accounts",
          "type": "address[]"
        },
        {
          "internalType": "uint256[]",
          "name": "ids",
          "type": "uint256[]"
        }
      ],
      "name": "balanceOfBatch",
      "outputs": [
        {
          "internalType": "uint256[]",
          "name": "",
          "type": "uint256[]"
        }
      ],
      "stateMutability": "view",
      "type": "function"
    },
    {
      "inputs": [
        {
          "internalType": "address",
          "name": "",
          "type": "address"
        },
        {
          "internalType": "uint256",
          "name": "",
          "type": "uint256"
        }
      ],
      "name": "claimableAmount",
      "outputs": [
        {
          "internalType": "uint256",
          "name": "",
          "type": "uint256"
        }
      ],
      "stateMutability": "view",
      "type": "function"
    },
    {
      "inputs": [
        {
          "internalType": "bool",
          "name": "isNF",
          "type": "bool"
        }
      ],
      "name": "createTokenType",
      "outputs": [
        {
          "internalType": "uint256",
          "name": "_type",
          "type": "uint256"
        }
      ],
      "stateMutability": "nonpayable",
      "type": "function"
    },
    {
      "inputs": [
        {
          "internalType": "uint256",
          "name": "_type",
          "type": "uint256"
        },
        {
          "internalType": "address",
          "name": "account",
          "type": "address"
        }
      ],
      "name": "dividendClaim",
      "outputs": [
        {
          "internalType": "uint256",
          "name": "_amount",
          "type": "uint256"
        }
      ],
      "stateMutability": "nonpayable",
      "type": "function"
    },
    {
      "inputs": [
        {
          "internalType": "address",
          "name": "account",
          "type": "address"
        },
        {
          "internalType": "uint256",
          "name": "_type",
          "type": "uint256"
        },
        {
          "internalType": "uint256",
          "name": "amount",
          "type": "uint256"
        }
      ],
      "name": "fungibleBurn",
      "outputs": [
        {
          "internalType": "bool",
          "name": "",
          "type": "bool"
        }
      ],
      "stateMutability": "nonpayable",
      "type": "function"
    },
    {
      "inputs": [
        {
          "internalType": "address",
          "name": "account",
          "type": "address"
        },
        {
          "internalType": "uint256",
          "name": "_type",
          "type": "uint256"
        },
        {
          "internalType": "uint256",
          "name": "amount",
          "type": "uint256"
        },
        {
          "internalType": "bytes",
          "name": "data",
          "type": "bytes"
        }
      ],
      "name": "fungibleMint",
      "outputs": [
        {
          "internalType": "bool",
          "name": "",
          "type": "bool"
        }
      ],
      "stateMutability": "nonpayable",
      "type": "function"
    },
    {
      "inputs": [
        {
          "internalType": "uint256",
          "name": "id",
          "type": "uint256"
        }
      ],
      "name": "getNfOwner",
      "outputs": [
        {
          "internalType": "address",
          "name": "",
          "type": "address"
        }
      ],
      "stateMutability": "view",
      "type": "function"
    },
    {
      "inputs": [
        {
          "internalType": "uint256",
          "name": "id",
          "type": "uint256"
        }
      ],
      "name": "getNonFungibleIndex",
      "outputs": [
        {
          "internalType": "uint256",
          "name": "",
          "type": "uint256"
        }
      ],
      "stateMutability": "pure",
      "type": "function"
    },
    {
      "inputs": [
        {
          "internalType": "uint256",
          "name": "id",
          "type": "uint256"
        }
      ],
      "name": "getNonFungibleTokenType",
      "outputs": [
        {
          "internalType": "uint256",
          "name": "",
          "type": "uint256"
        }
      ],
      "stateMutability": "pure",
      "type": "function"
    },
    {
      "inputs": [
        {
          "internalType": "address",
          "name": "",
          "type": "address"
        },
        {
          "internalType": "uint256",
          "name": "",
          "type": "uint256"
        }
      ],
      "name": "holderAmount",
      "outputs": [
        {
          "internalType": "uint256",
          "name": "",
          "type": "uint256"
        }
      ],
      "stateMutability": "view",
      "type": "function"
    },
    {
      "inputs": [
        {
          "internalType": "address",
          "name": "account",
          "type": "address"
        },
        {
          "internalType": "address",
          "name": "operator",
          "type": "address"
        }
      ],
      "name": "isApprovedForAll",
      "outputs": [
        {
          "internalType": "bool",
          "name": "",
          "type": "bool"
        }
      ],
      "stateMutability": "view",
      "type": "function"
    },
    {
      "inputs": [
        {
          "internalType": "uint256",
          "name": "id",
          "type": "uint256"
        }
      ],
      "name": "isFungible",
      "outputs": [
        {
          "internalType": "bool",
          "name": "",
          "type": "bool"
        }
      ],
      "stateMutability": "pure",
      "type": "function"
    },
    {
      "inputs": [
        {
          "internalType": "uint256",
          "name": "id",
          "type": "uint256"
        }
      ],
      "name": "isNonFungible",
      "outputs": [
        {
          "internalType": "bool",
          "name": "",
          "type": "bool"
        }
      ],
      "stateMutability": "pure",
      "type": "function"
    },
    {
      "inputs": [
        {
          "internalType": "address",
          "name": "account",
          "type": "address"
        },
        {
          "internalType": "uint256",
          "name": "_type",
          "type": "uint256"
        },
        {
          "internalType": "string",
          "name": "tokenURI",
          "type": "string"
        }
      ],
      "name": "nonFungibleMint",
      "outputs": [
        {
          "internalType": "uint256",
          "name": "id",
          "type": "uint256"
        }
      ],
      "stateMutability": "nonpayable",
      "type": "function"
    },
    {
      "inputs": [
        {
          "internalType": "address",
          "name": "operator",
          "type": "address"
        },
        {
          "internalType": "address",
          "name": "from",
          "type": "address"
        },
        {
          "internalType": "uint256[]",
          "name": "ids",
          "type": "uint256[]"
        },
        {
          "internalType": "uint256[]",
          "name": "values",
          "type": "uint256[]"
        },
        {
          "internalType": "bytes",
          "name": "data",
          "type": "bytes"
        }
      ],
      "name": "onERC1155BatchReceived",
      "outputs": [
        {
          "internalType": "bytes4",
          "name": "",
          "type": "bytes4"
        }
      ],
      "stateMutability": "pure",
      "type": "function"
    },
    {
      "inputs": [
        {
          "internalType": "address",
          "name": "operator",
          "type": "address"
        },
        {
          "internalType": "address",
          "name": "from",
          "type": "address"
        },
        {
          "internalType": "uint256",
          "name": "id",
          "type": "uint256"
        },
        {
          "internalType": "uint256",
          "name": "value",
          "type": "uint256"
        },
        {
          "internalType": "bytes",
          "name": "data",
          "type": "bytes"
        }
      ],
      "name": "onERC1155Received",
      "outputs": [
        {
          "internalType": "bytes4",
          "name": "",
          "type": "bytes4"
        }
      ],
      "stateMutability": "pure",
      "type": "function"
    },
    {
      "inputs": [
        {
          "internalType": "uint256",
          "name": "",
          "type": "uint256"
        },
        {
          "internalType": "address",
          "name": "",
          "type": "address"
        }
      ],
      "name": "operators",
      "outputs": [
        {
          "internalType": "bool",
          "name": "",
          "type": "bool"
        }
      ],
      "stateMutability": "view",
      "type": "function"
    },
    {
      "inputs": [],
      "name": "owner",
      "outputs": [
        {
          "internalType": "address",
          "name": "",
          "type": "address"
        }
      ],
      "stateMutability": "view",
      "type": "function"
    },
    {
      "inputs": [
        {
          "internalType": "uint256",
          "name": "_type",
          "type": "uint256"
        },
        {
          "internalType": "address",
          "name": "account",
          "type": "address"
        },
        {
          "internalType": "uint256",
          "name": "amount",
          "type": "uint256"
        }
      ],
      "name": "provideDividend",
      "outputs": [],
      "stateMutability": "nonpayable",
      "type": "function"
    },
    {
      "inputs": [
        {
          "internalType": "address",
          "name": "account",
          "type": "address"
        },
        {
          "internalType": "uint256",
          "name": "_type",
          "type": "uint256"
        }
      ],
      "name": "removeOperator",
      "outputs": [
        {
          "internalType": "bool",
          "name": "",
          "type": "bool"
        }
      ],
      "stateMutability": "nonpayable",
      "type": "function"
    },
    {
      "inputs": [],
      "name": "renounceOwnership",
      "outputs": [],
      "stateMutability": "nonpayable",
      "type": "function"
    },
    {
      "inputs": [
        {
          "internalType": "address",
          "name": "from",
          "type": "address"
        },
        {
          "internalType": "address",
          "name": "to",
          "type": "address"
        },
        {
          "internalType": "uint256[]",
          "name": "ids",
          "type": "uint256[]"
        },
        {
          "internalType": "uint256[]",
          "name": "amounts",
          "type": "uint256[]"
        },
        {
          "internalType": "bytes",
          "name": "data",
          "type": "bytes"
        }
      ],
      "name": "safeBatchTransferFrom",
      "outputs": [],
      "stateMutability": "nonpayable",
      "type": "function"
    },
    {
      "inputs": [
        {
          "internalType": "address",
          "name": "from",
          "type": "address"
        },
        {
          "internalType": "address",
          "name": "to",
          "type": "address"
        },
        {
          "internalType": "uint256",
          "name": "id",
          "type": "uint256"
        },
        {
          "internalType": "uint256",
          "name": "amount",
          "type": "uint256"
        },
        {
          "internalType": "bytes",
          "name": "data",
          "type": "bytes"
        }
      ],
      "name": "safeTransferFrom",
      "outputs": [],
      "stateMutability": "nonpayable",
      "type": "function"
    },
    {
      "inputs": [
        {
          "internalType": "address",
          "name": "operator",
          "type": "address"
        },
        {
          "internalType": "bool",
          "name": "approved",
          "type": "bool"
        }
      ],
      "name": "setApprovalForAll",
      "outputs": [],
      "stateMutability": "nonpayable",
      "type": "function"
    },
    {
      "inputs": [
        {
          "internalType": "bytes4",
          "name": "interfaceId",
          "type": "bytes4"
        }
      ],
      "name": "supportsInterface",
      "outputs": [
        {
          "internalType": "bool",
          "name": "",
          "type": "bool"
        }
      ],
      "stateMutability": "view",
      "type": "function"
    },
    {
      "inputs": [
        {
          "internalType": "uint256",
          "name": "",
          "type": "uint256"
        }
      ],
      "name": "tokenMetadata",
      "outputs": [
        {
          "internalType": "string",
          "name": "",
          "type": "string"
        }
      ],
      "stateMutability": "view",
      "type": "function"
    },
    {
      "inputs": [
        {
          "internalType": "uint256",
          "name": "",
          "type": "uint256"
        }
      ],
      "name": "totalSupply",
      "outputs": [
        {
          "internalType": "uint256",
          "name": "",
          "type": "uint256"
        }
      ],
      "stateMutability": "view",
      "type": "function"
    },
    {
      "inputs": [
        {
          "internalType": "address",
          "name": "newOwner",
          "type": "address"
        }
      ],
      "name": "transferOwnership",
      "outputs": [],
      "stateMutability": "nonpayable",
      "type": "function"
    },
    {
      "inputs": [
        {
          "internalType": "uint256",
          "name": "",
          "type": "uint256"
        }
      ],
      "name": "uri",
      "outputs": [
        {
          "internalType": "string",
          "name": "",
          "type": "string"
        }
      ],
      "stateMutability": "view",
      "type": "function"
    }
  ],
  "bytecode": "0x60806040523480156200001157600080fd5b506040518060400160405280600b81526020017f47616c617879546f6b656e00000000000000000000000000000000000000000081525062000059816200008060201b60201c565b506200007a6200006e6200009c60201b60201c565b620000a460201b60201c565b6200027f565b8060029080519060200190620000989291906200016a565b5050565b600033905090565b6000600360009054906101000a900473ffffffffffffffffffffffffffffffffffffffff16905081600360006101000a81548173ffffffffffffffffffffffffffffffffffffffff021916908373ffffffffffffffffffffffffffffffffffffffff1602179055508173ffffffffffffffffffffffffffffffffffffffff168173ffffffffffffffffffffffffffffffffffffffff167f8be0079c531659141344cd1fd0a4f28419497f9722a3daafe3b4186f6b6457e060405160405180910390a35050565b82805462000178906200021a565b90600052602060002090601f0160209004810192826200019c5760008555620001e8565b82601f10620001b757805160ff1916838001178555620001e8565b82800160010185558215620001e8579182015b82811115620001e7578251825591602001919060010190620001ca565b5b509050620001f79190620001fb565b5090565b5b8082111562000216576000816000905550600101620001fc565b5090565b600060028204905060018216806200023357607f821691505b602082108114156200024a576200024962000250565b5b50919050565b7f4e487b7100000000000000000000000000000000000000000000000000000000600052602260045260246000fd5b615040806200028f6000396000f3fe608060405234801561001057600080fd5b50600436106101f95760003560e01c80638da5cb5b1161011a578063d533da2a116100ad578063e985e9c51161007c578063e985e9c5146106b8578063f23a6e61146106e8578063f242432a14610718578063f2fde38b14610734578063fc67bf1c14610750576101f9565b8063d533da2a1461060a578063e0a5c9491461063a578063e44591f014610658578063e4b5b61a14610688576101f9565b8063a22cb465116100e9578063a22cb4651461055e578063adebf6f21461057a578063bc197c81146105aa578063bd85b039146105da576101f9565b80638da5cb5b146104c457806398b4ad6f146104e25780639cca1c6414610512578063a1eb700114610542576101f9565b80633b0e4d3411610192578063715018a611610161578063715018a61461042a578063717b7f361461043457806379b8d938146104645780637a01562714610494576101f9565b80633b0e4d341461036a5780633fa9f7f31461039a5780634e1273f4146103ca5780636914db60146103fa576101f9565b80630e89341c116101ce5780630e89341c146102be5780630f7fa72f146102ee5780632eb2c2d61461031e5780633979aba71461033a576101f9565b8062fdd58e146101fe578062ffc1351461022e57806301ffc9a71461025e57806305caa0ff1461028e575b600080fd5b61021860048036038101906102139190613851565b61076e565b60405161022591906144e8565b60405180910390f35b61024860048036038101906102439190613ace565b610837565b60405161025591906144e8565b60405180910390f35b61027860048036038101906102739190613a53565b61094c565b60405161028591906141f0565b60405180910390f35b6102a860048036038101906102a39190613a2a565b610a2e565b6040516102b591906144e8565b60405180910390f35b6102d860048036038101906102d39190613aa5565b610af8565b6040516102e59190614226565b60405180910390f35b61030860048036038101906103039190613851565b610b8c565b60405161031591906141f0565b60405180910390f35b61033860048036038101906103339190613635565b610cd9565b005b610354600480360381019061034f9190613851565b610d7a565b60405161036191906141f0565b60405180910390f35b610384600480360381019061037f9190613ace565b610ec8565b60405161039191906141f0565b60405180910390f35b6103b460048036038101906103af9190613aa5565b610ef7565b6040516103c19190613ff0565b60405180910390f35b6103e460048036038101906103df91906139be565b610f34565b6040516103f19190614197565b60405180910390f35b610414600480360381019061040f9190613aa5565b6110e5565b6040516104219190614226565b60405180910390f35b610432611185565b005b61044e600480360381019061044991906138f4565b61120d565b60405161045b91906141f0565b60405180910390f35b61047e60048036038101906104799190613851565b611425565b60405161048b91906144e8565b60405180910390f35b6104ae60048036038101906104a99190613851565b61144a565b6040516104bb91906144e8565b60405180910390f35b6104cc61146f565b6040516104d99190613ff0565b60405180910390f35b6104fc60048036038101906104f7919061388d565b611499565b60405161050991906144e8565b60405180910390f35b61052c60048036038101906105279190613aa5565b611590565b60405161053991906144e8565b60405180910390f35b61055c60048036038101906105579190613b0a565b6115ae565b005b61057860048036038101906105739190613815565b61172d565b005b610594600480360381019061058f9190613aa5565b6118ae565b6040516105a191906141f0565b60405180910390f35b6105c460048036038101906105bf9190613569565b6118dc565b6040516105d1919061420b565b60405180910390f35b6105f460048036038101906105ef9190613aa5565b611923565b60405161060191906144e8565b60405180910390f35b610624600480360381019061061f9190613943565b61193b565b60405161063191906141f0565b60405180910390f35b610642611b55565b60405161064f919061420b565b60405180910390f35b610672600480360381019061066d9190613aa5565b611b60565b60405161067f91906141f0565b60405180910390f35b6106a2600480360381019061069d9190613aa5565b611b8e565b6040516106af91906144e8565b60405180910390f35b6106d260048036038101906106cd919061352d565b611bb0565b6040516106df91906141f0565b60405180910390f35b61070260048036038101906106fd91906136f4565b611c01565b60405161070f919061420b565b60405180910390f35b610732600480360381019061072d9190613786565b611c42565b005b61074e60048036038101906107499190613504565b611ed8565b005b610758611fd0565b604051610765919061420b565b60405180910390f35b60008073ffffffffffffffffffffffffffffffffffffffff168373ffffffffffffffffffffffffffffffffffffffff1614156107df576040517f08c379a00000000000000000000000000000000000000000000000000000000081526004016107d6906142a8565b60405180910390fd5b60008083815260200190815260200160002060008473ffffffffffffffffffffffffffffffffffffffff1673ffffffffffffffffffffffffffffffffffffffff16815260200190815260200160002054905092915050565b6000610842836118ae565b610881576040517f08c379a000000000000000000000000000000000000000000000000000000000815260040161087890614328565b60405180910390fd5b600860008373ffffffffffffffffffffffffffffffffffffffff1673ffffffffffffffffffffffffffffffffffffffff16815260200190815260200160002060008481526020019081526020016000205490506108ef8284836040518060200160405280600081525061193b565b506000600860008473ffffffffffffffffffffffffffffffffffffffff1673ffffffffffffffffffffffffffffffffffffffff16815260200190815260200160002060008581526020019081526020016000208190555092915050565b60007fd9b67a26000000000000000000000000000000000000000000000000000000007bffffffffffffffffffffffffffffffffffffffffffffffffffffffff1916827bffffffffffffffffffffffffffffffffffffffffffffffffffffffff19161480610a1757507f0e89341c000000000000000000000000000000000000000000000000000000007bffffffffffffffffffffffffffffffffffffffffffffffffffffffff1916827bffffffffffffffffffffffffffffffffffffffffffffffffffffffff1916145b80610a275750610a2682611fdb565b5b9050919050565b6000610a38612045565b73ffffffffffffffffffffffffffffffffffffffff16610a5661146f565b73ffffffffffffffffffffffffffffffffffffffff1614610aac576040517f08c379a0000000000000000000000000000000000000000000000000000000008152600401610aa3906143e8565b60405180910390fd5b6080600460008154610abd9061481f565b919050819055901b90508115610af3577f8000000000000000000000000000000000000000000000000000000000000000811790505b919050565b606060028054610b07906147bc565b80601f0160208091040260200160405190810160405280929190818152602001828054610b33906147bc565b8015610b805780601f10610b5557610100808354040283529160200191610b80565b820191906000526020600020905b815481529060010190602001808311610b6357829003601f168201915b50505050509050919050565b6000610b96612045565b73ffffffffffffffffffffffffffffffffffffffff16610bb461146f565b73ffffffffffffffffffffffffffffffffffffffff1614610c0a576040517f08c379a0000000000000000000000000000000000000000000000000000000008152600401610c01906143e8565b60405180910390fd5b60016006600084815260200190815260200160002060008573ffffffffffffffffffffffffffffffffffffffff1673ffffffffffffffffffffffffffffffffffffffff16815260200190815260200160002060006101000a81548160ff0219169083151502179055506006600083815260200190815260200160002060008473ffffffffffffffffffffffffffffffffffffffff1673ffffffffffffffffffffffffffffffffffffffff16815260200190815260200160002060009054906101000a900460ff16905092915050565b610ce1612045565b73ffffffffffffffffffffffffffffffffffffffff168573ffffffffffffffffffffffffffffffffffffffff161480610d275750610d2685610d21612045565b611bb0565b5b610d66576040517f08c379a0000000000000000000000000000000000000000000000000000000008152600401610d5d90614388565b60405180910390fd5b610d73858585858561204d565b5050505050565b6000610d84612045565b73ffffffffffffffffffffffffffffffffffffffff16610da261146f565b73ffffffffffffffffffffffffffffffffffffffff1614610df8576040517f08c379a0000000000000000000000000000000000000000000000000000000008152600401610def906143e8565b60405180910390fd5b60006006600084815260200190815260200160002060008573ffffffffffffffffffffffffffffffffffffffff1673ffffffffffffffffffffffffffffffffffffffff16815260200190815260200160002060006101000a81548160ff0219169083151502179055506006600083815260200190815260200160002060008473ffffffffffffffffffffffffffffffffffffffff1673ffffffffffffffffffffffffffffffffffffffff16815260200190815260200160002060009054906101000a900460ff1615905092915050565b60066020528160005260406000206020528060005260406000206000915091509054906101000a900460ff1681565b60006005600083815260200190815260200160002060009054906101000a900473ffffffffffffffffffffffffffffffffffffffff169050919050565b60608151835114610f7a576040517f08c379a0000000000000000000000000000000000000000000000000000000008152600401610f7190614488565b60405180910390fd5b6000835167ffffffffffffffff811115610fbd577f4e487b7100000000000000000000000000000000000000000000000000000000600052604160045260246000fd5b604051908082528060200260200182016040528015610feb5781602001602082028036833780820191505090505b50905060005b84518110156110da57611084858281518110611036577f4e487b7100000000000000000000000000000000000000000000000000000000600052603260045260246000fd5b6020026020010151858381518110611077577f4e487b7100000000000000000000000000000000000000000000000000000000600052603260045260246000fd5b602002602001015161076e565b8282815181106110bd577f4e487b7100000000000000000000000000000000000000000000000000000000600052603260045260246000fd5b602002602001018181525050806110d39061481f565b9050610ff1565b508091505092915050565b600a6020528060005260406000206000915090508054611104906147bc565b80601f0160208091040260200160405190810160405280929190818152602001828054611130906147bc565b801561117d5780601f106111525761010080835404028352916020019161117d565b820191906000526020600020905b81548152906001019060200180831161116057829003601f168201915b505050505081565b61118d612045565b73ffffffffffffffffffffffffffffffffffffffff166111ab61146f565b73ffffffffffffffffffffffffffffffffffffffff1614611201576040517f08c379a00000000000000000000000000000000000000000000000000000000081526004016111f8906143e8565b60405180910390fd5b61120b60006123ad565b565b600082600061121b82611b8e565b90503373ffffffffffffffffffffffffffffffffffffffff1661123c61146f565b73ffffffffffffffffffffffffffffffffffffffff1614806112bf5750600115156006600083815260200190815260200160002060003373ffffffffffffffffffffffffffffffffffffffff1673ffffffffffffffffffffffffffffffffffffffff16815260200190815260200160002060009054906101000a900460ff161515145b806112f557503373ffffffffffffffffffffffffffffffffffffffff163073ffffffffffffffffffffffffffffffffffffffff16145b611334576040517f08c379a000000000000000000000000000000000000000000000000000000000815260040161132b90614288565b60405180910390fd5b61133d856118ae565b61137c576040517f08c379a000000000000000000000000000000000000000000000000000000000815260040161137390614328565b60405180910390fd5b611387868686612473565b83600b600087815260200190815260200160002060008282546113aa91906146d2565b9250508190555083600760008873ffffffffffffffffffffffffffffffffffffffff1673ffffffffffffffffffffffffffffffffffffffff1681526020019081526020016000206000878152602001908152602001600020600082825461141191906146d2565b925050819055506001925050509392505050565b6008602052816000526040600020602052806000526040600020600091509150505481565b6007602052816000526040600020602052806000526040600020600091509150505481565b6000600360009054906101000a900473ffffffffffffffffffffffffffffffffffffffff16905090565b60006114a483611b60565b6114e3576040517f08c379a00000000000000000000000000000000000000000000000000000000081526004016114da90614428565b60405180910390fd5b6000600b6000858152602001908152602001600020600081546115059061481f565b9190508190559050808417915061151c8286612690565b82600a60008481526020019081526020016000209080519060200190611543929190613168565b50818573ffffffffffffffffffffffffffffffffffffffff167fd2c38398cb1d153f906fd8dafa23f3c242c8503cfb2b362fd96f90b3763007ce60405160405180910390a3509392505050565b60006fffffffffffffffffffffffffffffffff801682169050919050565b6115b6612045565b73ffffffffffffffffffffffffffffffffffffffff166115d461146f565b73ffffffffffffffffffffffffffffffffffffffff161461162a576040517f08c379a0000000000000000000000000000000000000000000000000000000008152600401611621906143e8565b60405180910390fd5b611633836118ae565b611672576040517f08c379a000000000000000000000000000000000000000000000000000000000815260040161166990614348565b60405180910390fd5b80600860008473ffffffffffffffffffffffffffffffffffffffff1673ffffffffffffffffffffffffffffffffffffffff168152602001908152602001600020600085815260200190815260200160002060008282546116d2919061467c565b925050819055508173ffffffffffffffffffffffffffffffffffffffff16837f8aa1d0d8a065e76aa87e2a407f14dfb1c36840a8496ef169409f73a1fbac17668360405161172091906144e8565b60405180910390a3505050565b8173ffffffffffffffffffffffffffffffffffffffff1661174c612045565b73ffffffffffffffffffffffffffffffffffffffff1614156117a3576040517f08c379a000000000000000000000000000000000000000000000000000000000815260040161179a90614468565b60405180910390fd5b80600160006117b0612045565b73ffffffffffffffffffffffffffffffffffffffff1673ffffffffffffffffffffffffffffffffffffffff16815260200190815260200160002060008473ffffffffffffffffffffffffffffffffffffffff1673ffffffffffffffffffffffffffffffffffffffff16815260200190815260200160002060006101000a81548160ff0219169083151502179055508173ffffffffffffffffffffffffffffffffffffffff1661185d612045565b73ffffffffffffffffffffffffffffffffffffffff167f17307eab39ab6107e8899845ad3d59bd9653f200f220920489ca2b5937696c31836040516118a291906141f0565b60405180910390a35050565b6000807f80000000000000000000000000000000000000000000000000000000000000008316149050919050565b600088888888888888886040516020016118fd98979695949392919061400b565b6040516020818303038152906040525063bc197c8160e01b905098975050505050505050565b600b6020528060005260406000206000915090505481565b600083600061194982611b8e565b90503373ffffffffffffffffffffffffffffffffffffffff1661196a61146f565b73ffffffffffffffffffffffffffffffffffffffff1614806119ed5750600115156006600083815260200190815260200160002060003373ffffffffffffffffffffffffffffffffffffffff1673ffffffffffffffffffffffffffffffffffffffff16815260200190815260200160002060009054906101000a900460ff161515145b80611a2357503373ffffffffffffffffffffffffffffffffffffffff163073ffffffffffffffffffffffffffffffffffffffff16145b611a62576040517f08c379a0000000000000000000000000000000000000000000000000000000008152600401611a5990614288565b60405180910390fd5b611a6b866118ae565b611aaa576040517f08c379a0000000000000000000000000000000000000000000000000000000008152600401611aa190614428565b60405180910390fd5b611ab68787878761280d565b84600b60008881526020019081526020016000206000828254611ad9919061467c565b9250508190555084600760008973ffffffffffffffffffffffffffffffffffffffff1673ffffffffffffffffffffffffffffffffffffffff16815260200190815260200160002060008881526020019081526020016000206000828254611b40919061467c565b92505081905550600192505050949350505050565b63f23a6e6160e01b81565b60007f8000000000000000000000000000000000000000000000000000000000000000808316149050919050565b600060806fffffffffffffffffffffffffffffffff8016901b82169050919050565b6000611bbc83836129a3565b80611bf95750611bca61146f565b73ffffffffffffffffffffffffffffffffffffffff163373ffffffffffffffffffffffffffffffffffffffff16145b905092915050565b6000868686868686604051602001611c1e969594939291906140e1565b6040516020818303038152906040525063f23a6e6160e01b90509695505050505050565b611c4a612045565b73ffffffffffffffffffffffffffffffffffffffff168573ffffffffffffffffffffffffffffffffffffffff161480611c905750611c8f85611c8a612045565b611bb0565b5b611ccf576040517f08c379a0000000000000000000000000000000000000000000000000000000008152600401611cc690614308565b60405180910390fd5b611cd8836118ae565b15611e505781600760008773ffffffffffffffffffffffffffffffffffffffff1673ffffffffffffffffffffffffffffffffffffffff1681526020019081526020016000206000858152602001908152602001600020541015611d70576040517f08c379a0000000000000000000000000000000000000000000000000000000008152600401611d6790614448565b60405180910390fd5b611d7d8585858585612a37565b81600760008773ffffffffffffffffffffffffffffffffffffffff1673ffffffffffffffffffffffffffffffffffffffff16815260200190815260200160002060008581526020019081526020016000206000828254611ddd91906146d2565b9250508190555081600760008673ffffffffffffffffffffffffffffffffffffffff1673ffffffffffffffffffffffffffffffffffffffff16815260200190815260200160002060008581526020019081526020016000206000828254611e44919061467c565b92505081905550611ed1565b8473ffffffffffffffffffffffffffffffffffffffff16611e7084610ef7565b73ffffffffffffffffffffffffffffffffffffffff1614611ec6576040517f08c379a0000000000000000000000000000000000000000000000000000000008152600401611ebd90614408565b60405180910390fd5b611ed08385612690565b5b5050505050565b611ee0612045565b73ffffffffffffffffffffffffffffffffffffffff16611efe61146f565b73ffffffffffffffffffffffffffffffffffffffff1614611f54576040517f08c379a0000000000000000000000000000000000000000000000000000000008152600401611f4b906143e8565b60405180910390fd5b600073ffffffffffffffffffffffffffffffffffffffff168173ffffffffffffffffffffffffffffffffffffffff161415611fc4576040517f08c379a0000000000000000000000000000000000000000000000000000000008152600401611fbb906142c8565b60405180910390fd5b611fcd816123ad565b50565b63bc197c8160e01b81565b60007f01ffc9a7000000000000000000000000000000000000000000000000000000007bffffffffffffffffffffffffffffffffffffffffffffffffffffffff1916827bffffffffffffffffffffffffffffffffffffffffffffffffffffffff1916149050919050565b600033905090565b8151835114612091576040517f08c379a0000000000000000000000000000000000000000000000000000000008152600401612088906144a8565b60405180910390fd5b600073ffffffffffffffffffffffffffffffffffffffff168473ffffffffffffffffffffffffffffffffffffffff161415612101576040517f08c379a00000000000000000000000000000000000000000000000000000000081526004016120f890614368565b60405180910390fd5b600061210b612045565b905061211b818787878787612cb9565b60005b8451811015612318576000858281518110612162577f4e487b7100000000000000000000000000000000000000000000000000000000600052603260045260246000fd5b6020026020010151905060008583815181106121a7577f4e487b7100000000000000000000000000000000000000000000000000000000600052603260045260246000fd5b60200260200101519050600080600084815260200190815260200160002060008b73ffffffffffffffffffffffffffffffffffffffff1673ffffffffffffffffffffffffffffffffffffffff16815260200190815260200160002054905081811015612248576040517f08c379a000000000000000000000000000000000000000000000000000000000815260040161223f906143c8565b60405180910390fd5b81810360008085815260200190815260200160002060008c73ffffffffffffffffffffffffffffffffffffffff1673ffffffffffffffffffffffffffffffffffffffff168152602001908152602001600020819055508160008085815260200190815260200160002060008b73ffffffffffffffffffffffffffffffffffffffff1673ffffffffffffffffffffffffffffffffffffffff16815260200190815260200160002060008282546122fd919061467c565b92505081905550505050806123119061481f565b905061211e565b508473ffffffffffffffffffffffffffffffffffffffff168673ffffffffffffffffffffffffffffffffffffffff168273ffffffffffffffffffffffffffffffffffffffff167f4a39dc06d4c0dbc64b70af90fd698a233a518aa5d07e595d983b8c0526c8f7fb878760405161238f9291906141b9565b60405180910390a46123a5818787878787612cc1565b505050505050565b6000600360009054906101000a900473ffffffffffffffffffffffffffffffffffffffff16905081600360006101000a81548173ffffffffffffffffffffffffffffffffffffffff021916908373ffffffffffffffffffffffffffffffffffffffff1602179055508173ffffffffffffffffffffffffffffffffffffffff168173ffffffffffffffffffffffffffffffffffffffff167f8be0079c531659141344cd1fd0a4f28419497f9722a3daafe3b4186f6b6457e060405160405180910390a35050565b600073ffffffffffffffffffffffffffffffffffffffff168373ffffffffffffffffffffffffffffffffffffffff1614156124e3576040517f08c379a00000000000000000000000000000000000000000000000000000000081526004016124da906143a8565b60405180910390fd5b60006124ed612045565b905061251d818560006124ff87612ea8565b61250887612ea8565b60405180602001604052806000815250612cb9565b600080600085815260200190815260200160002060008673ffffffffffffffffffffffffffffffffffffffff1673ffffffffffffffffffffffffffffffffffffffff168152602001908152602001600020549050828110156125b4576040517f08c379a00000000000000000000000000000000000000000000000000000000081526004016125ab906142e8565b60405180910390fd5b82810360008086815260200190815260200160002060008773ffffffffffffffffffffffffffffffffffffffff1673ffffffffffffffffffffffffffffffffffffffff16815260200190815260200160002081905550600073ffffffffffffffffffffffffffffffffffffffff168573ffffffffffffffffffffffffffffffffffffffff168373ffffffffffffffffffffffffffffffffffffffff167fc3d58168c5ae7397731d063d5bbf3d657854427343f4c083240f7aacaa2d0f628787604051612681929190614503565b60405180910390a45050505050565b81600061269c82611b8e565b90503373ffffffffffffffffffffffffffffffffffffffff166126bd61146f565b73ffffffffffffffffffffffffffffffffffffffff1614806127405750600115156006600083815260200190815260200160002060003373ffffffffffffffffffffffffffffffffffffffff1673ffffffffffffffffffffffffffffffffffffffff16815260200190815260200160002060009054906101000a900460ff161515145b8061277657503373ffffffffffffffffffffffffffffffffffffffff163073ffffffffffffffffffffffffffffffffffffffff16145b6127b5576040517f08c379a00000000000000000000000000000000000000000000000000000000081526004016127ac90614288565b60405180910390fd5b826005600086815260200190815260200160002060006101000a81548173ffffffffffffffffffffffffffffffffffffffff021916908373ffffffffffffffffffffffffffffffffffffffff16021790555050505050565b600073ffffffffffffffffffffffffffffffffffffffff168473ffffffffffffffffffffffffffffffffffffffff16141561287d576040517f08c379a0000000000000000000000000000000000000000000000000000000008152600401612874906144c8565b60405180910390fd5b6000612887612045565b90506128a88160008761289988612ea8565b6128a288612ea8565b87612cb9565b8260008086815260200190815260200160002060008773ffffffffffffffffffffffffffffffffffffffff1673ffffffffffffffffffffffffffffffffffffffff1681526020019081526020016000206000828254612907919061467c565b925050819055508473ffffffffffffffffffffffffffffffffffffffff16600073ffffffffffffffffffffffffffffffffffffffff168273ffffffffffffffffffffffffffffffffffffffff167fc3d58168c5ae7397731d063d5bbf3d657854427343f4c083240f7aacaa2d0f628787604051612985929190614503565b60405180910390a461299c81600087878787612f6e565b5050505050565b6000600160008473ffffffffffffffffffffffffffffffffffffffff1673ffffffffffffffffffffffffffffffffffffffff16815260200190815260200160002060008373ffffffffffffffffffffffffffffffffffffffff1673ffffffffffffffffffffffffffffffffffffffff16815260200190815260200160002060009054906101000a900460ff16905092915050565b600073ffffffffffffffffffffffffffffffffffffffff168473ffffffffffffffffffffffffffffffffffffffff161415612aa7576040517f08c379a0000000000000000000000000000000000000000000000000000000008152600401612a9e90614368565b60405180910390fd5b6000612ab1612045565b9050612ad1818787612ac288612ea8565b612acb88612ea8565b87612cb9565b600080600086815260200190815260200160002060008873ffffffffffffffffffffffffffffffffffffffff1673ffffffffffffffffffffffffffffffffffffffff16815260200190815260200160002054905083811015612b68576040517f08c379a0000000000000000000000000000000000000000000000000000000008152600401612b5f906143c8565b60405180910390fd5b83810360008087815260200190815260200160002060008973ffffffffffffffffffffffffffffffffffffffff1673ffffffffffffffffffffffffffffffffffffffff168152602001908152602001600020819055508360008087815260200190815260200160002060008873ffffffffffffffffffffffffffffffffffffffff1673ffffffffffffffffffffffffffffffffffffffff1681526020019081526020016000206000828254612c1d919061467c565b925050819055508573ffffffffffffffffffffffffffffffffffffffff168773ffffffffffffffffffffffffffffffffffffffff168373ffffffffffffffffffffffffffffffffffffffff167fc3d58168c5ae7397731d063d5bbf3d657854427343f4c083240f7aacaa2d0f628888604051612c9a929190614503565b60405180910390a4612cb0828888888888612f6e565b50505050505050565b505050505050565b612ce08473ffffffffffffffffffffffffffffffffffffffff16613155565b15612ea0578373ffffffffffffffffffffffffffffffffffffffff1663bc197c8187878686866040518663ffffffff1660e01b8152600401612d26959493929190614079565b602060405180830381600087803b158015612d4057600080fd5b505af1925050508015612d7157506040513d601f19601f82011682018060405250810190612d6e9190613a7c565b60015b612e1757612d7d6148f5565b806308c379a01415612dda5750612d92614f18565b80612d9d5750612ddc565b806040517f08c379a0000000000000000000000000000000000000000000000000000000008152600401612dd19190614226565b60405180910390fd5b505b6040517f08c379a0000000000000000000000000000000000000000000000000000000008152600401612e0e90614248565b60405180910390fd5b63bc197c8160e01b7bffffffffffffffffffffffffffffffffffffffffffffffffffffffff1916817bffffffffffffffffffffffffffffffffffffffffffffffffffffffff191614612e9e576040517f08c379a0000000000000000000000000000000000000000000000000000000008152600401612e9590614268565b60405180910390fd5b505b505050505050565b60606000600167ffffffffffffffff811115612eed577f4e487b7100000000000000000000000000000000000000000000000000000000600052604160045260246000fd5b604051908082528060200260200182016040528015612f1b5781602001602082028036833780820191505090505b5090508281600081518110612f59577f4e487b7100000000000000000000000000000000000000000000000000000000600052603260045260246000fd5b60200260200101818152505080915050919050565b612f8d8473ffffffffffffffffffffffffffffffffffffffff16613155565b1561314d578373ffffffffffffffffffffffffffffffffffffffff1663f23a6e6187878686866040518663ffffffff1660e01b8152600401612fd395949392919061413d565b602060405180830381600087803b158015612fed57600080fd5b505af192505050801561301e57506040513d601f19601f8201168201806040525081019061301b9190613a7c565b60015b6130c45761302a6148f5565b806308c379a01415613087575061303f614f18565b8061304a5750613089565b806040517f08c379a000000000000000000000000000000000000000000000000000000000815260040161307e9190614226565b60405180910390fd5b505b6040517f08c379a00000000000000000000000000000000000000000000000000000000081526004016130bb90614248565b60405180910390fd5b63f23a6e6160e01b7bffffffffffffffffffffffffffffffffffffffffffffffffffffffff1916817bffffffffffffffffffffffffffffffffffffffffffffffffffffffff19161461314b576040517f08c379a000000000000000000000000000000000000000000000000000000000815260040161314290614268565b60405180910390fd5b505b505050505050565b600080823b905060008111915050919050565b828054613174906147bc565b90600052602060002090601f01602090048101928261319657600085556131dd565b82601f106131af57805160ff19168380011785556131dd565b828001600101855582156131dd579182015b828111156131dc5782518255916020019190600101906131c1565b5b5090506131ea91906131ee565b5090565b5b808211156132075760008160009055506001016131ef565b5090565b600061321e61321984614551565b61452c565b9050808382526020820190508285602086028201111561323d57600080fd5b60005b8581101561326d5781613253888261335f565b845260208401935060208301925050600181019050613240565b5050509392505050565b600061328a6132858461457d565b61452c565b905080838252602082019050828560208602820111156132a957600080fd5b60005b858110156132d957816132bf88826134ef565b8452602084019350602083019250506001810190506132ac565b5050509392505050565b60006132f66132f1846145a9565b61452c565b90508281526020810184848401111561330e57600080fd5b61331984828561477a565b509392505050565b600061333461332f846145da565b61452c565b90508281526020810184848401111561334c57600080fd5b61335784828561477a565b509392505050565b60008135905061336e81614fae565b92915050565b600082601f83011261338557600080fd5b813561339584826020860161320b565b91505092915050565b60008083601f8401126133b057600080fd5b8235905067ffffffffffffffff8111156133c957600080fd5b6020830191508360208202830111156133e157600080fd5b9250929050565b600082601f8301126133f957600080fd5b8135613409848260208601613277565b91505092915050565b60008135905061342181614fc5565b92915050565b60008135905061343681614fdc565b92915050565b60008151905061344b81614fdc565b92915050565b60008083601f84011261346357600080fd5b8235905067ffffffffffffffff81111561347c57600080fd5b60208301915083600182028301111561349457600080fd5b9250929050565b600082601f8301126134ac57600080fd5b81356134bc8482602086016132e3565b91505092915050565b600082601f8301126134d657600080fd5b81356134e6848260208601613321565b91505092915050565b6000813590506134fe81614ff3565b92915050565b60006020828403121561351657600080fd5b60006135248482850161335f565b91505092915050565b6000806040838503121561354057600080fd5b600061354e8582860161335f565b925050602061355f8582860161335f565b9150509250929050565b60008060008060008060008060a0898b03121561358557600080fd5b60006135938b828c0161335f565b98505060206135a48b828c0161335f565b975050604089013567ffffffffffffffff8111156135c157600080fd5b6135cd8b828c0161339e565b9650965050606089013567ffffffffffffffff8111156135ec57600080fd5b6135f88b828c0161339e565b9450945050608089013567ffffffffffffffff81111561361757600080fd5b6136238b828c01613451565b92509250509295985092959890939650565b600080600080600060a0868803121561364d57600080fd5b600061365b8882890161335f565b955050602061366c8882890161335f565b945050604086013567ffffffffffffffff81111561368957600080fd5b613695888289016133e8565b935050606086013567ffffffffffffffff8111156136b257600080fd5b6136be888289016133e8565b925050608086013567ffffffffffffffff8111156136db57600080fd5b6136e78882890161349b565b9150509295509295909350565b60008060008060008060a0878903121561370d57600080fd5b600061371b89828a0161335f565b965050602061372c89828a0161335f565b955050604061373d89828a016134ef565b945050606061374e89828a016134ef565b935050608087013567ffffffffffffffff81111561376b57600080fd5b61377789828a01613451565b92509250509295509295509295565b600080600080600060a0868803121561379e57600080fd5b60006137ac8882890161335f565b95505060206137bd8882890161335f565b94505060406137ce888289016134ef565b93505060606137df888289016134ef565b925050608086013567ffffffffffffffff8111156137fc57600080fd5b6138088882890161349b565b9150509295509295909350565b6000806040838503121561382857600080fd5b60006138368582860161335f565b925050602061384785828601613412565b9150509250929050565b6000806040838503121561386457600080fd5b60006138728582860161335f565b9250506020613883858286016134ef565b9150509250929050565b6000806000606084860312156138a257600080fd5b60006138b08682870161335f565b93505060206138c1868287016134ef565b925050604084013567ffffffffffffffff8111156138de57600080fd5b6138ea868287016134c5565b9150509250925092565b60008060006060848603121561390957600080fd5b60006139178682870161335f565b9350506020613928868287016134ef565b9250506040613939868287016134ef565b9150509250925092565b6000806000806080858703121561395957600080fd5b60006139678782880161335f565b9450506020613978878288016134ef565b9350506040613989878288016134ef565b925050606085013567ffffffffffffffff8111156139a657600080fd5b6139b28782880161349b565b91505092959194509250565b600080604083850312156139d157600080fd5b600083013567ffffffffffffffff8111156139eb57600080fd5b6139f785828601613374565b925050602083013567ffffffffffffffff811115613a1457600080fd5b613a20858286016133e8565b9150509250929050565b600060208284031215613a3c57600080fd5b6000613a4a84828501613412565b91505092915050565b600060208284031215613a6557600080fd5b6000613a7384828501613427565b91505092915050565b600060208284031215613a8e57600080fd5b6000613a9c8482850161343c565b91505092915050565b600060208284031215613ab757600080fd5b6000613ac5848285016134ef565b91505092915050565b60008060408385031215613ae157600080fd5b6000613aef858286016134ef565b9250506020613b008582860161335f565b9150509250929050565b600080600060608486031215613b1f57600080fd5b6000613b2d868287016134ef565b9350506020613b3e8682870161335f565b9250506040613b4f868287016134ef565b9150509250925092565b6000613b658383613fd2565b60208301905092915050565b613b7a81614706565b82525050565b6000613b8c8385614649565b93507f07ffffffffffffffffffffffffffffffffffffffffffffffffffffffffffffff831115613bbb57600080fd5b602083029250613bcc83858461477a565b82840190509392505050565b6000613be38261461b565b613bed8185614649565b9350613bf88361460b565b8060005b83811015613c29578151613c108882613b59565b9750613c1b8361463c565b925050600181019050613bfc565b5085935050505092915050565b613c3f81614718565b82525050565b613c4e81614724565b82525050565b6000613c60838561465a565b9350613c6d83858461477a565b613c7683614917565b840190509392505050565b6000613c8c82614626565b613c96818561465a565b9350613ca6818560208601614789565b613caf81614917565b840191505092915050565b6000613cc582614631565b613ccf818561466b565b9350613cdf818560208601614789565b613ce881614917565b840191505092915050565b6000613d0060348361466b565b9150613d0b82614935565b604082019050919050565b6000613d2360288361466b565b9150613d2e82614984565b604082019050919050565b6000613d46601f8361466b565b9150613d51826149d3565b602082019050919050565b6000613d69602b8361466b565b9150613d74826149fc565b604082019050919050565b6000613d8c60268361466b565b9150613d9782614a4b565b604082019050919050565b6000613daf60248361466b565b9150613dba82614a9a565b604082019050919050565b6000613dd260298361466b565b9150613ddd82614ae9565b604082019050919050565b6000613df5602d8361466b565b9150613e0082614b38565b604082019050919050565b6000613e18602e8361466b565b9150613e2382614b87565b604082019050919050565b6000613e3b60258361466b565b9150613e4682614bd6565b604082019050919050565b6000613e5e60328361466b565b9150613e6982614c25565b604082019050919050565b6000613e8160238361466b565b9150613e8c82614c74565b604082019050919050565b6000613ea4602a8361466b565b9150613eaf82614cc3565b604082019050919050565b6000613ec760208361466b565b9150613ed282614d12565b602082019050919050565b6000613eea600f8361466b565b9150613ef582614d3b565b602082019050919050565b6000613f0d602d8361466b565b9150613f1882614d64565b604082019050919050565b6000613f3060128361466b565b9150613f3b82614db3565b602082019050919050565b6000613f5360298361466b565b9150613f5e82614ddc565b604082019050919050565b6000613f7660298361466b565b9150613f8182614e2b565b604082019050919050565b6000613f9960288361466b565b9150613fa482614e7a565b604082019050919050565b6000613fbc60218361466b565b9150613fc782614ec9565b604082019050919050565b613fdb81614770565b82525050565b613fea81614770565b82525050565b60006020820190506140056000830184613b71565b92915050565b600060a082019050614020600083018b613b71565b61402d602083018a613b71565b818103604083015261404081888a613b80565b90508181036060830152614055818688613b80565b9050818103608083015261406a818486613c54565b90509998505050505050505050565b600060a08201905061408e6000830188613b71565b61409b6020830187613b71565b81810360408301526140ad8186613bd8565b905081810360608301526140c18185613bd8565b905081810360808301526140d58184613c81565b90509695505050505050565b600060a0820190506140f66000830189613b71565b6141036020830188613b71565b6141106040830187613fe1565b61411d6060830186613fe1565b8181036080830152614130818486613c54565b9050979650505050505050565b600060a0820190506141526000830188613b71565b61415f6020830187613b71565b61416c6040830186613fe1565b6141796060830185613fe1565b818103608083015261418b8184613c81565b90509695505050505050565b600060208201905081810360008301526141b18184613bd8565b905092915050565b600060408201905081810360008301526141d38185613bd8565b905081810360208301526141e78184613bd8565b90509392505050565b60006020820190506142056000830184613c36565b92915050565b60006020820190506142206000830184613c45565b92915050565b600060208201905081810360008301526142408184613cba565b905092915050565b6000602082019050818103600083015261426181613cf3565b9050919050565b6000602082019050818103600083015261428181613d16565b9050919050565b600060208201905081810360008301526142a181613d39565b9050919050565b600060208201905081810360008301526142c181613d5c565b9050919050565b600060208201905081810360008301526142e181613d7f565b9050919050565b6000602082019050818103600083015261430181613da2565b9050919050565b6000602082019050818103600083015261432181613dc5565b9050919050565b6000602082019050818103600083015261434181613de8565b9050919050565b6000602082019050818103600083015261436181613e0b565b9050919050565b6000602082019050818103600083015261438181613e2e565b9050919050565b600060208201905081810360008301526143a181613e51565b9050919050565b600060208201905081810360008301526143c181613e74565b9050919050565b600060208201905081810360008301526143e181613e97565b9050919050565b6000602082019050818103600083015261440181613eba565b9050919050565b6000602082019050818103600083015261442181613edd565b9050919050565b6000602082019050818103600083015261444181613f00565b9050919050565b6000602082019050818103600083015261446181613f23565b9050919050565b6000602082019050818103600083015261448181613f46565b9050919050565b600060208201905081810360008301526144a181613f69565b9050919050565b600060208201905081810360008301526144c181613f8c565b9050919050565b600060208201905081810360008301526144e181613faf565b9050919050565b60006020820190506144fd6000830184613fe1565b92915050565b60006040820190506145186000830185613fe1565b6145256020830184613fe1565b9392505050565b6000614536614547565b905061454282826147ee565b919050565b6000604051905090565b600067ffffffffffffffff82111561456c5761456b6148c6565b5b602082029050602081019050919050565b600067ffffffffffffffff821115614598576145976148c6565b5b602082029050602081019050919050565b600067ffffffffffffffff8211156145c4576145c36148c6565b5b6145cd82614917565b9050602081019050919050565b600067ffffffffffffffff8211156145f5576145f46148c6565b5b6145fe82614917565b9050602081019050919050565b6000819050602082019050919050565b600081519050919050565b600081519050919050565b600081519050919050565b6000602082019050919050565b600082825260208201905092915050565b600082825260208201905092915050565b600082825260208201905092915050565b600061468782614770565b915061469283614770565b9250827fffffffffffffffffffffffffffffffffffffffffffffffffffffffffffffffff038211156146c7576146c6614868565b5b828201905092915050565b60006146dd82614770565b91506146e883614770565b9250828210156146fb576146fa614868565b5b828203905092915050565b600061471182614750565b9050919050565b60008115159050919050565b60007fffffffff0000000000000000000000000000000000000000000000000000000082169050919050565b600073ffffffffffffffffffffffffffffffffffffffff82169050919050565b6000819050919050565b82818337600083830152505050565b60005b838110156147a757808201518184015260208101905061478c565b838111156147b6576000848401525b50505050565b600060028204905060018216806147d457607f821691505b602082108114156147e8576147e7614897565b5b50919050565b6147f782614917565b810181811067ffffffffffffffff82111715614816576148156148c6565b5b80604052505050565b600061482a82614770565b91507fffffffffffffffffffffffffffffffffffffffffffffffffffffffffffffffff82141561485d5761485c614868565b5b600182019050919050565b7f4e487b7100000000000000000000000000000000000000000000000000000000600052601160045260246000fd5b7f4e487b7100000000000000000000000000000000000000000000000000000000600052602260045260246000fd5b7f4e487b7100000000000000000000000000000000000000000000000000000000600052604160045260246000fd5b600060033d11156149145760046000803e614911600051614928565b90505b90565b6000601f19601f8301169050919050565b60008160e01c9050919050565b7f455243313135353a207472616e7366657220746f206e6f6e204552433131353560008201527f526563656976657220696d706c656d656e746572000000000000000000000000602082015250565b7f455243313135353a204552433131353552656365697665722072656a6563746560008201527f6420746f6b656e73000000000000000000000000000000000000000000000000602082015250565b7f596f752063616e6e6f7420706572666f726d207468697320616374696f6e2e00600082015250565b7f455243313135353a2062616c616e636520717565727920666f7220746865207a60008201527f65726f2061646472657373000000000000000000000000000000000000000000602082015250565b7f4f776e61626c653a206e6577206f776e657220697320746865207a65726f206160008201527f6464726573730000000000000000000000000000000000000000000000000000602082015250565b7f455243313135353a206275726e20616d6f756e7420657863656564732062616c60008201527f616e636500000000000000000000000000000000000000000000000000000000602082015250565b7f455243313135353a2063616c6c6572206973206e6f74206f776e6572206e6f7260008201527f20617070726f7665640000000000000000000000000000000000000000000000602082015250565b7f54524945445f544f5f4255524e5f46554e4749424c455f464f525f4e4f4e5f4660008201527f554e4749424c455f544f4b454e00000000000000000000000000000000000000602082015250565b7f54524945445f544f5f5354414b455f46554e4749424c455f464f525f4e4f4e5f60008201527f46554e4749424c455f544f4b454e000000000000000000000000000000000000602082015250565b7f455243313135353a207472616e7366657220746f20746865207a65726f20616460008201527f6472657373000000000000000000000000000000000000000000000000000000602082015250565b7f455243313135353a207472616e736665722063616c6c6572206973206e6f742060008201527f6f776e6572206e6f7220617070726f7665640000000000000000000000000000602082015250565b7f455243313135353a206275726e2066726f6d20746865207a65726f206164647260008201527f6573730000000000000000000000000000000000000000000000000000000000602082015250565b7f455243313135353a20696e73756666696369656e742062616c616e636520666f60008201527f72207472616e7366657200000000000000000000000000000000000000000000602082015250565b7f4f776e61626c653a2063616c6c6572206973206e6f7420746865206f776e6572600082015250565b7f57726f6e67204e4654206f776e65720000000000000000000000000000000000600082015250565b7f54524945445f544f5f4d494e545f46554e4749424c455f464f525f4e4f4e5f4660008201527f554e4749424c455f544f4b454e00000000000000000000000000000000000000602082015250565b7f696e73756666696369656e742066756e64730000000000000000000000000000600082015250565b7f455243313135353a2073657474696e6720617070726f76616c2073746174757360008201527f20666f722073656c660000000000000000000000000000000000000000000000602082015250565b7f455243313135353a206163636f756e747320616e6420696473206c656e67746860008201527f206d69736d617463680000000000000000000000000000000000000000000000602082015250565b7f455243313135353a2069647320616e6420616d6f756e7473206c656e6774682060008201527f6d69736d61746368000000000000000000000000000000000000000000000000602082015250565b7f455243313135353a206d696e7420746f20746865207a65726f2061646472657360008201527f7300000000000000000000000000000000000000000000000000000000000000602082015250565b600060443d1015614f2857614fab565b614f30614547565b60043d036004823e80513d602482011167ffffffffffffffff82111715614f58575050614fab565b808201805167ffffffffffffffff811115614f765750505050614fab565b80602083010160043d038501811115614f93575050505050614fab565b614fa2826020018501866147ee565b82955050505050505b90565b614fb781614706565b8114614fc257600080fd5b50565b614fce81614718565b8114614fd957600080fd5b50565b614fe581614724565b8114614ff057600080fd5b50565b614ffc81614770565b811461500757600080fd5b5056fea2646970667358221220c852f8c147de4b5b44dc8ae44a46563144287ffb485e6b32d5d0c647a5febc5c64736f6c63430008040033",
  "linkReferences": {},
  "deployedLinkReferences": {}
}