{
  "_format": "hh-sol-artifact-1",
  "contractName": "GalaxyToken",
  "sourceName": "contracts/GalaxyToken.sol",
  "abi": [
    {
      "inputs": [],
      "stateMutability": "nonpayable",
      "type": "constructor"
    },
    {
      "anonymous": false,
      "inputs": [
        {
          "indexed": true,
          "internalType": "address",
          "name": "account",
          "type": "address"
        },
        {
          "indexed": true,
          "internalType": "address",
          "name": "operator",
          "type": "address"
        },
        {
          "indexed": false,
          "internalType": "bool",
          "name": "approved",
          "type": "bool"
        }
      ],
      "name": "ApprovalForAll",
      "type": "event"
    },
    {
      "anonymous": false,
      "inputs": [
        {
          "indexed": true,
          "internalType": "address",
          "name": "",
          "type": "address"
        },
        {
          "indexed": true,
          "internalType": "uint256",
          "name": "",
          "type": "uint256"
        }
      ],
      "name": "NfTokenMint",
      "type": "event"
    },
    {
      "anonymous": false,
      "inputs": [
        {
          "indexed": true,
          "internalType": "uint256",
          "name": "",
          "type": "uint256"
        },
        {
          "indexed": true,
          "internalType": "address",
          "name": "",
          "type": "address"
        },
        {
          "indexed": false,
          "internalType": "uint256",
          "name": "",
          "type": "uint256"
        }
      ],
      "name": "OwnerCredited",
      "type": "event"
    },
    {
      "anonymous": false,
      "inputs": [
        {
          "indexed": true,
          "internalType": "address",
          "name": "previousOwner",
          "type": "address"
        },
        {
          "indexed": true,
          "internalType": "address",
          "name": "newOwner",
          "type": "address"
        }
      ],
      "name": "OwnershipTransferred",
      "type": "event"
    },
    {
      "anonymous": false,
      "inputs": [
        {
          "indexed": true,
          "internalType": "address",
          "name": "",
          "type": "address"
        },
        {
          "indexed": false,
          "internalType": "uint256",
          "name": "",
          "type": "uint256"
        }
      ],
      "name": "TokenCreation",
      "type": "event"
    },
    {
      "anonymous": false,
      "inputs": [
        {
          "indexed": true,
          "internalType": "address",
          "name": "operator",
          "type": "address"
        },
        {
          "indexed": true,
          "internalType": "address",
          "name": "from",
          "type": "address"
        },
        {
          "indexed": true,
          "internalType": "address",
          "name": "to",
          "type": "address"
        },
        {
          "indexed": false,
          "internalType": "uint256[]",
          "name": "ids",
          "type": "uint256[]"
        },
        {
          "indexed": false,
          "internalType": "uint256[]",
          "name": "values",
          "type": "uint256[]"
        }
      ],
      "name": "TransferBatch",
      "type": "event"
    },
    {
      "anonymous": false,
      "inputs": [
        {
          "indexed": true,
          "internalType": "address",
          "name": "operator",
          "type": "address"
        },
        {
          "indexed": true,
          "internalType": "address",
          "name": "from",
          "type": "address"
        },
        {
          "indexed": true,
          "internalType": "address",
          "name": "to",
          "type": "address"
        },
        {
          "indexed": false,
          "internalType": "uint256",
          "name": "id",
          "type": "uint256"
        },
        {
          "indexed": false,
          "internalType": "uint256",
          "name": "value",
          "type": "uint256"
        }
      ],
      "name": "TransferSingle",
      "type": "event"
    },
    {
      "anonymous": false,
      "inputs": [
        {
          "indexed": false,
          "internalType": "string",
          "name": "value",
          "type": "string"
        },
        {
          "indexed": true,
          "internalType": "uint256",
          "name": "id",
          "type": "uint256"
        }
      ],
      "name": "URI",
      "type": "event"
    },
    {
      "inputs": [
        {
          "internalType": "address",
          "name": "account",
          "type": "address"
        },
        {
          "internalType": "uint256",
          "name": "_type",
          "type": "uint256"
        }
      ],
      "name": "addOperator",
      "outputs": [
        {
          "internalType": "bool",
          "name": "",
          "type": "bool"
        }
      ],
      "stateMutability": "nonpayable",
      "type": "function"
    },
    {
      "inputs": [
        {
          "internalType": "address",
          "name": "account",
          "type": "address"
        },
        {
          "internalType": "uint256",
          "name": "id",
          "type": "uint256"
        }
      ],
      "name": "balanceOf",
      "outputs": [
        {
          "internalType": "uint256",
          "name": "",
          "type": "uint256"
        }
      ],
      "stateMutability": "view",
      "type": "function"
    },
    {
      "inputs": [
        {
          "internalType": "address[]",
          "name": "accounts",
          "type": "address[]"
        },
        {
          "internalType": "uint256[]",
          "name": "ids",
          "type": "uint256[]"
        }
      ],
      "name": "balanceOfBatch",
      "outputs": [
        {
          "internalType": "uint256[]",
          "name": "",
          "type": "uint256[]"
        }
      ],
      "stateMutability": "view",
      "type": "function"
    },
    {
      "inputs": [
        {
          "internalType": "address",
          "name": "",
          "type": "address"
        },
        {
          "internalType": "uint256",
          "name": "",
          "type": "uint256"
        }
      ],
      "name": "claimableAmount",
      "outputs": [
        {
          "internalType": "uint256",
          "name": "",
          "type": "uint256"
        }
      ],
      "stateMutability": "view",
      "type": "function"
    },
    {
      "inputs": [
        {
          "internalType": "bool",
          "name": "isNF",
          "type": "bool"
        }
      ],
      "name": "createTokenType",
      "outputs": [
        {
          "internalType": "uint256",
          "name": "_type",
          "type": "uint256"
        }
      ],
      "stateMutability": "nonpayable",
      "type": "function"
    },
    {
      "inputs": [
        {
          "internalType": "uint256",
          "name": "_type",
          "type": "uint256"
        },
        {
          "internalType": "address",
          "name": "account",
          "type": "address"
        }
      ],
      "name": "dividendClaim",
      "outputs": [
        {
          "internalType": "uint256",
          "name": "_amount",
          "type": "uint256"
        }
      ],
      "stateMutability": "nonpayable",
      "type": "function"
    },
    {
      "inputs": [
        {
          "internalType": "address",
          "name": "account",
          "type": "address"
        },
        {
          "internalType": "uint256",
          "name": "_type",
          "type": "uint256"
        },
        {
          "internalType": "uint256",
          "name": "amount",
          "type": "uint256"
        }
      ],
      "name": "fungibleBurn",
      "outputs": [
        {
          "internalType": "bool",
          "name": "",
          "type": "bool"
        }
      ],
      "stateMutability": "nonpayable",
      "type": "function"
    },
    {
      "inputs": [
        {
          "internalType": "address",
          "name": "account",
          "type": "address"
        },
        {
          "internalType": "uint256",
          "name": "_type",
          "type": "uint256"
        },
        {
          "internalType": "uint256",
          "name": "amount",
          "type": "uint256"
        },
        {
          "internalType": "bytes",
          "name": "data",
          "type": "bytes"
        }
      ],
      "name": "fungibleMint",
      "outputs": [
        {
          "internalType": "bool",
          "name": "",
          "type": "bool"
        }
      ],
      "stateMutability": "nonpayable",
      "type": "function"
    },
    {
      "inputs": [
        {
          "internalType": "uint256",
          "name": "id",
          "type": "uint256"
        }
      ],
      "name": "getNfOwner",
      "outputs": [
        {
          "internalType": "address",
          "name": "",
          "type": "address"
        }
      ],
      "stateMutability": "view",
      "type": "function"
    },
    {
      "inputs": [
        {
          "internalType": "uint256",
          "name": "id",
          "type": "uint256"
        }
      ],
      "name": "getNonFungibleIndex",
      "outputs": [
        {
          "internalType": "uint256",
          "name": "",
          "type": "uint256"
        }
      ],
      "stateMutability": "pure",
      "type": "function"
    },
    {
      "inputs": [
        {
          "internalType": "uint256",
          "name": "id",
          "type": "uint256"
        }
      ],
      "name": "getNonFungibleTokenType",
      "outputs": [
        {
          "internalType": "uint256",
          "name": "",
          "type": "uint256"
        }
      ],
      "stateMutability": "pure",
      "type": "function"
    },
    {
      "inputs": [
        {
          "internalType": "address",
          "name": "",
          "type": "address"
        },
        {
          "internalType": "uint256",
          "name": "",
          "type": "uint256"
        }
      ],
      "name": "holderAmount",
      "outputs": [
        {
          "internalType": "uint256",
          "name": "",
          "type": "uint256"
        }
      ],
      "stateMutability": "view",
      "type": "function"
    },
    {
      "inputs": [
        {
          "internalType": "address",
          "name": "account",
          "type": "address"
        },
        {
          "internalType": "address",
          "name": "operator",
          "type": "address"
        }
      ],
      "name": "isApprovedForAll",
      "outputs": [
        {
          "internalType": "bool",
          "name": "",
          "type": "bool"
        }
      ],
      "stateMutability": "view",
      "type": "function"
    },
    {
      "inputs": [
        {
          "internalType": "uint256",
          "name": "id",
          "type": "uint256"
        }
      ],
      "name": "isFungible",
      "outputs": [
        {
          "internalType": "bool",
          "name": "",
          "type": "bool"
        }
      ],
      "stateMutability": "pure",
      "type": "function"
    },
    {
      "inputs": [
        {
          "internalType": "uint256",
          "name": "id",
          "type": "uint256"
        }
      ],
      "name": "isNonFungible",
      "outputs": [
        {
          "internalType": "bool",
          "name": "",
          "type": "bool"
        }
      ],
      "stateMutability": "pure",
      "type": "function"
    },
    {
      "inputs": [
        {
          "internalType": "address",
          "name": "account",
          "type": "address"
        },
        {
          "internalType": "uint256",
          "name": "_type",
          "type": "uint256"
        },
        {
          "internalType": "string",
          "name": "tokenURI",
          "type": "string"
        }
      ],
      "name": "nonFungibleMint",
      "outputs": [
        {
          "internalType": "uint256",
          "name": "id",
          "type": "uint256"
        }
      ],
      "stateMutability": "nonpayable",
      "type": "function"
    },
    {
      "inputs": [
        {
          "internalType": "uint256",
          "name": "",
          "type": "uint256"
        },
        {
          "internalType": "address",
          "name": "",
          "type": "address"
        }
      ],
      "name": "operators",
      "outputs": [
        {
          "internalType": "bool",
          "name": "",
          "type": "bool"
        }
      ],
      "stateMutability": "view",
      "type": "function"
    },
    {
      "inputs": [],
      "name": "owner",
      "outputs": [
        {
          "internalType": "address",
          "name": "",
          "type": "address"
        }
      ],
      "stateMutability": "view",
      "type": "function"
    },
    {
      "inputs": [
        {
          "internalType": "uint256",
          "name": "_type",
          "type": "uint256"
        },
        {
          "internalType": "address",
          "name": "account",
          "type": "address"
        },
        {
          "internalType": "uint256",
          "name": "amount",
          "type": "uint256"
        }
      ],
      "name": "provideDividend",
      "outputs": [],
      "stateMutability": "nonpayable",
      "type": "function"
    },
    {
      "inputs": [
        {
          "internalType": "address",
          "name": "account",
          "type": "address"
        },
        {
          "internalType": "uint256",
          "name": "_type",
          "type": "uint256"
        }
      ],
      "name": "removeOperator",
      "outputs": [
        {
          "internalType": "bool",
          "name": "",
          "type": "bool"
        }
      ],
      "stateMutability": "nonpayable",
      "type": "function"
    },
    {
      "inputs": [],
      "name": "renounceOwnership",
      "outputs": [],
      "stateMutability": "nonpayable",
      "type": "function"
    },
    {
      "inputs": [
        {
          "internalType": "address",
          "name": "from",
          "type": "address"
        },
        {
          "internalType": "address",
          "name": "to",
          "type": "address"
        },
        {
          "internalType": "uint256[]",
          "name": "ids",
          "type": "uint256[]"
        },
        {
          "internalType": "uint256[]",
          "name": "amounts",
          "type": "uint256[]"
        },
        {
          "internalType": "bytes",
          "name": "data",
          "type": "bytes"
        }
      ],
      "name": "safeBatchTransferFrom",
      "outputs": [],
      "stateMutability": "nonpayable",
      "type": "function"
    },
    {
      "inputs": [
        {
          "internalType": "address",
          "name": "from",
          "type": "address"
        },
        {
          "internalType": "address",
          "name": "to",
          "type": "address"
        },
        {
          "internalType": "uint256",
          "name": "id",
          "type": "uint256"
        },
        {
          "internalType": "uint256",
          "name": "amount",
          "type": "uint256"
        },
        {
          "internalType": "bytes",
          "name": "data",
          "type": "bytes"
        }
      ],
      "name": "safeTransferFrom",
      "outputs": [],
      "stateMutability": "nonpayable",
      "type": "function"
    },
    {
      "inputs": [
        {
          "internalType": "address",
          "name": "operator",
          "type": "address"
        },
        {
          "internalType": "bool",
          "name": "approved",
          "type": "bool"
        }
      ],
      "name": "setApprovalForAll",
      "outputs": [],
      "stateMutability": "nonpayable",
      "type": "function"
    },
    {
      "inputs": [
        {
          "internalType": "bytes4",
          "name": "interfaceId",
          "type": "bytes4"
        }
      ],
      "name": "supportsInterface",
      "outputs": [
        {
          "internalType": "bool",
          "name": "",
          "type": "bool"
        }
      ],
      "stateMutability": "view",
      "type": "function"
    },
    {
      "inputs": [
        {
          "internalType": "uint256",
          "name": "",
          "type": "uint256"
        }
      ],
      "name": "tokenMetadata",
      "outputs": [
        {
          "internalType": "string",
          "name": "",
          "type": "string"
        }
      ],
      "stateMutability": "view",
      "type": "function"
    },
    {
      "inputs": [
        {
          "internalType": "uint256",
          "name": "",
          "type": "uint256"
        }
      ],
      "name": "totalSupply",
      "outputs": [
        {
          "internalType": "uint256",
          "name": "",
          "type": "uint256"
        }
      ],
      "stateMutability": "view",
      "type": "function"
    },
    {
      "inputs": [
        {
          "internalType": "address",
          "name": "newOwner",
          "type": "address"
        }
      ],
      "name": "transferOwnership",
      "outputs": [],
      "stateMutability": "nonpayable",
      "type": "function"
    },
    {
      "inputs": [
        {
          "internalType": "uint256",
          "name": "",
          "type": "uint256"
        }
      ],
      "name": "uri",
      "outputs": [
        {
          "internalType": "string",
          "name": "",
          "type": "string"
        }
      ],
      "stateMutability": "view",
      "type": "function"
    }
  ],
  "bytecode": "0x60806040523480156200001157600080fd5b506040518060400160405280600b81526020017f47616c617879546f6b656e00000000000000000000000000000000000000000081525062000059816200008060201b60201c565b506200007a6200006e6200009c60201b60201c565b620000a460201b60201c565b6200027f565b8060029080519060200190620000989291906200016a565b5050565b600033905090565b6000600360009054906101000a900473ffffffffffffffffffffffffffffffffffffffff16905081600360006101000a81548173ffffffffffffffffffffffffffffffffffffffff021916908373ffffffffffffffffffffffffffffffffffffffff1602179055508173ffffffffffffffffffffffffffffffffffffffff168173ffffffffffffffffffffffffffffffffffffffff167f8be0079c531659141344cd1fd0a4f28419497f9722a3daafe3b4186f6b6457e060405160405180910390a35050565b82805462000178906200021a565b90600052602060002090601f0160209004810192826200019c5760008555620001e8565b82601f10620001b757805160ff1916838001178555620001e8565b82800160010185558215620001e8579182015b82811115620001e7578251825591602001919060010190620001ca565b5b509050620001f79190620001fb565b5090565b5b8082111562000216576000816000905550600101620001fc565b5090565b600060028204905060018216806200023357607f821691505b602082108114156200024a576200024962000250565b5b50919050565b7f4e487b7100000000000000000000000000000000000000000000000000000000600052602260045260246000fd5b614b6f806200028f6000396000f3fe608060405234801561001057600080fd5b50600436106101cd5760003560e01c806379b8d93811610104578063adebf6f2116100a2578063e4b5b61a11610071578063e4b5b61a1461060e578063e985e9c51461063e578063f242432a1461066e578063f2fde38b1461068a576101cd565b8063adebf6f21461054e578063bd85b0391461057e578063d533da2a146105ae578063e44591f0146105de576101cd565b806398b4ad6f116100de57806398b4ad6f146104b65780639cca1c64146104e6578063a1eb700114610516578063a22cb46514610532576101cd565b806379b8d938146104385780637a015627146104685780638da5cb5b14610498576101cd565b80633979aba7116101715780634e1273f41161014b5780634e1273f41461039e5780636914db60146103ce578063715018a6146103fe578063717b7f3614610408576101cd565b80633979aba71461030e5780633b0e4d341461033e5780633fa9f7f31461036e576101cd565b806305caa0ff116101ad57806305caa0ff146102625780630e89341c146102925780630f7fa72f146102c25780632eb2c2d6146102f2576101cd565b8062fdd58e146101d2578062ffc1351461020257806301ffc9a714610232575b600080fd5b6101ec60048036038101906101e791906134f9565b6106a6565b6040516101f99190614017565b60405180910390f35b61021c60048036038101906102179190613776565b61076f565b6040516102299190614017565b60405180910390f35b61024c600480360381019061024791906136fb565b610884565b6040516102599190613d3a565b60405180910390f35b61027c600480360381019061027791906136d2565b610966565b6040516102899190614017565b60405180910390f35b6102ac60048036038101906102a7919061374d565b610a30565b6040516102b99190613d55565b60405180910390f35b6102dc60048036038101906102d791906134f9565b610ac4565b6040516102e99190613d3a565b60405180910390f35b61030c6004803603810190610307919061336f565b610c11565b005b610328600480360381019061032391906134f9565b610cb2565b6040516103359190613d3a565b60405180910390f35b61035860048036038101906103539190613776565b610e00565b6040516103659190613d3a565b60405180910390f35b6103886004803603810190610383919061374d565b610e2f565b6040516103959190613c04565b60405180910390f35b6103b860048036038101906103b39190613666565b610e6c565b6040516103c59190613ce1565b60405180910390f35b6103e860048036038101906103e3919061374d565b61101d565b6040516103f59190613d55565b60405180910390f35b6104066110bd565b005b610422600480360381019061041d919061359c565b611145565b60405161042f9190613d3a565b60405180910390f35b610452600480360381019061044d91906134f9565b61135d565b60405161045f9190614017565b60405180910390f35b610482600480360381019061047d91906134f9565b611382565b60405161048f9190614017565b60405180910390f35b6104a06113a7565b6040516104ad9190613c04565b60405180910390f35b6104d060048036038101906104cb9190613535565b6113d1565b6040516104dd9190614017565b60405180910390f35b61050060048036038101906104fb919061374d565b6114c8565b60405161050d9190614017565b60405180910390f35b610530600480360381019061052b91906137b2565b6114e6565b005b61054c600480360381019061054791906134bd565b611665565b005b6105686004803603810190610563919061374d565b6117e6565b6040516105759190613d3a565b60405180910390f35b6105986004803603810190610593919061374d565b611814565b6040516105a59190614017565b60405180910390f35b6105c860048036038101906105c391906135eb565b61182c565b6040516105d59190613d3a565b60405180910390f35b6105f860048036038101906105f3919061374d565b611a46565b6040516106059190613d3a565b60405180910390f35b6106286004803603810190610623919061374d565b611a74565b6040516106359190614017565b60405180910390f35b61065860048036038101906106539190613333565b611a96565b6040516106659190613d3a565b60405180910390f35b6106886004803603810190610683919061342e565b611ae7565b005b6106a4600480360381019061069f919061330a565b611d7d565b005b60008073ffffffffffffffffffffffffffffffffffffffff168373ffffffffffffffffffffffffffffffffffffffff161415610717576040517f08c379a000000000000000000000000000000000000000000000000000000000815260040161070e90613dd7565b60405180910390fd5b60008083815260200190815260200160002060008473ffffffffffffffffffffffffffffffffffffffff1673ffffffffffffffffffffffffffffffffffffffff16815260200190815260200160002054905092915050565b600061077a836117e6565b6107b9576040517f08c379a00000000000000000000000000000000000000000000000000000000081526004016107b090613e57565b60405180910390fd5b600860008373ffffffffffffffffffffffffffffffffffffffff1673ffffffffffffffffffffffffffffffffffffffff16815260200190815260200160002060008481526020019081526020016000205490506108278284836040518060200160405280600081525061182c565b506000600860008473ffffffffffffffffffffffffffffffffffffffff1673ffffffffffffffffffffffffffffffffffffffff16815260200190815260200160002060008581526020019081526020016000208190555092915050565b60007fd9b67a26000000000000000000000000000000000000000000000000000000007bffffffffffffffffffffffffffffffffffffffffffffffffffffffff1916827bffffffffffffffffffffffffffffffffffffffffffffffffffffffff1916148061094f57507f0e89341c000000000000000000000000000000000000000000000000000000007bffffffffffffffffffffffffffffffffffffffffffffffffffffffff1916827bffffffffffffffffffffffffffffffffffffffffffffffffffffffff1916145b8061095f575061095e82611e75565b5b9050919050565b6000610970611edf565b73ffffffffffffffffffffffffffffffffffffffff1661098e6113a7565b73ffffffffffffffffffffffffffffffffffffffff16146109e4576040517f08c379a00000000000000000000000000000000000000000000000000000000081526004016109db90613f17565b60405180910390fd5b60806004600081546109f59061434e565b919050819055901b90508115610a2b577f8000000000000000000000000000000000000000000000000000000000000000811790505b919050565b606060028054610a3f906142eb565b80601f0160208091040260200160405190810160405280929190818152602001828054610a6b906142eb565b8015610ab85780601f10610a8d57610100808354040283529160200191610ab8565b820191906000526020600020905b815481529060010190602001808311610a9b57829003601f168201915b50505050509050919050565b6000610ace611edf565b73ffffffffffffffffffffffffffffffffffffffff16610aec6113a7565b73ffffffffffffffffffffffffffffffffffffffff1614610b42576040517f08c379a0000000000000000000000000000000000000000000000000000000008152600401610b3990613f17565b60405180910390fd5b60016006600084815260200190815260200160002060008573ffffffffffffffffffffffffffffffffffffffff1673ffffffffffffffffffffffffffffffffffffffff16815260200190815260200160002060006101000a81548160ff0219169083151502179055506006600083815260200190815260200160002060008473ffffffffffffffffffffffffffffffffffffffff1673ffffffffffffffffffffffffffffffffffffffff16815260200190815260200160002060009054906101000a900460ff16905092915050565b610c19611edf565b73ffffffffffffffffffffffffffffffffffffffff168573ffffffffffffffffffffffffffffffffffffffff161480610c5f5750610c5e85610c59611edf565b611a96565b5b610c9e576040517f08c379a0000000000000000000000000000000000000000000000000000000008152600401610c9590613eb7565b60405180910390fd5b610cab8585858585611ee7565b5050505050565b6000610cbc611edf565b73ffffffffffffffffffffffffffffffffffffffff16610cda6113a7565b73ffffffffffffffffffffffffffffffffffffffff1614610d30576040517f08c379a0000000000000000000000000000000000000000000000000000000008152600401610d2790613f17565b60405180910390fd5b60006006600084815260200190815260200160002060008573ffffffffffffffffffffffffffffffffffffffff1673ffffffffffffffffffffffffffffffffffffffff16815260200190815260200160002060006101000a81548160ff0219169083151502179055506006600083815260200190815260200160002060008473ffffffffffffffffffffffffffffffffffffffff1673ffffffffffffffffffffffffffffffffffffffff16815260200190815260200160002060009054906101000a900460ff1615905092915050565b60066020528160005260406000206020528060005260406000206000915091509054906101000a900460ff1681565b60006005600083815260200190815260200160002060009054906101000a900473ffffffffffffffffffffffffffffffffffffffff169050919050565b60608151835114610eb2576040517f08c379a0000000000000000000000000000000000000000000000000000000008152600401610ea990613fb7565b60405180910390fd5b6000835167ffffffffffffffff811115610ef5577f4e487b7100000000000000000000000000000000000000000000000000000000600052604160045260246000fd5b604051908082528060200260200182016040528015610f235781602001602082028036833780820191505090505b50905060005b845181101561101257610fbc858281518110610f6e577f4e487b7100000000000000000000000000000000000000000000000000000000600052603260045260246000fd5b6020026020010151858381518110610faf577f4e487b7100000000000000000000000000000000000000000000000000000000600052603260045260246000fd5b60200260200101516106a6565b828281518110610ff5577f4e487b7100000000000000000000000000000000000000000000000000000000600052603260045260246000fd5b6020026020010181815250508061100b9061434e565b9050610f29565b508091505092915050565b600a602052806000526040600020600091509050805461103c906142eb565b80601f0160208091040260200160405190810160405280929190818152602001828054611068906142eb565b80156110b55780601f1061108a576101008083540402835291602001916110b5565b820191906000526020600020905b81548152906001019060200180831161109857829003601f168201915b505050505081565b6110c5611edf565b73ffffffffffffffffffffffffffffffffffffffff166110e36113a7565b73ffffffffffffffffffffffffffffffffffffffff1614611139576040517f08c379a000000000000000000000000000000000000000000000000000000000815260040161113090613f17565b60405180910390fd5b6111436000612247565b565b600082600061115382611a74565b90503373ffffffffffffffffffffffffffffffffffffffff166111746113a7565b73ffffffffffffffffffffffffffffffffffffffff1614806111f75750600115156006600083815260200190815260200160002060003373ffffffffffffffffffffffffffffffffffffffff1673ffffffffffffffffffffffffffffffffffffffff16815260200190815260200160002060009054906101000a900460ff161515145b8061122d57503373ffffffffffffffffffffffffffffffffffffffff163073ffffffffffffffffffffffffffffffffffffffff16145b61126c576040517f08c379a000000000000000000000000000000000000000000000000000000000815260040161126390613db7565b60405180910390fd5b611275856117e6565b6112b4576040517f08c379a00000000000000000000000000000000000000000000000000000000081526004016112ab90613e57565b60405180910390fd5b6112bf86868661230d565b83600b600087815260200190815260200160002060008282546112e29190614201565b9250508190555083600760008873ffffffffffffffffffffffffffffffffffffffff1673ffffffffffffffffffffffffffffffffffffffff168152602001908152602001600020600087815260200190815260200160002060008282546113499190614201565b925050819055506001925050509392505050565b6008602052816000526040600020602052806000526040600020600091509150505481565b6007602052816000526040600020602052806000526040600020600091509150505481565b6000600360009054906101000a900473ffffffffffffffffffffffffffffffffffffffff16905090565b60006113dc83611a46565b61141b576040517f08c379a000000000000000000000000000000000000000000000000000000000815260040161141290613f57565b60405180910390fd5b6000600b60008581526020019081526020016000206000815461143d9061434e565b91905081905590508084179150611454828661252a565b82600a6000848152602001908152602001600020908051906020019061147b929190613002565b50818573ffffffffffffffffffffffffffffffffffffffff167fd2c38398cb1d153f906fd8dafa23f3c242c8503cfb2b362fd96f90b3763007ce60405160405180910390a3509392505050565b60006fffffffffffffffffffffffffffffffff801682169050919050565b6114ee611edf565b73ffffffffffffffffffffffffffffffffffffffff1661150c6113a7565b73ffffffffffffffffffffffffffffffffffffffff1614611562576040517f08c379a000000000000000000000000000000000000000000000000000000000815260040161155990613f17565b60405180910390fd5b61156b836117e6565b6115aa576040517f08c379a00000000000000000000000000000000000000000000000000000000081526004016115a190613e77565b60405180910390fd5b80600860008473ffffffffffffffffffffffffffffffffffffffff1673ffffffffffffffffffffffffffffffffffffffff1681526020019081526020016000206000858152602001908152602001600020600082825461160a91906141ab565b925050819055508173ffffffffffffffffffffffffffffffffffffffff16837f8aa1d0d8a065e76aa87e2a407f14dfb1c36840a8496ef169409f73a1fbac1766836040516116589190614017565b60405180910390a3505050565b8173ffffffffffffffffffffffffffffffffffffffff16611684611edf565b73ffffffffffffffffffffffffffffffffffffffff1614156116db576040517f08c379a00000000000000000000000000000000000000000000000000000000081526004016116d290613f97565b60405180910390fd5b80600160006116e8611edf565b73ffffffffffffffffffffffffffffffffffffffff1673ffffffffffffffffffffffffffffffffffffffff16815260200190815260200160002060008473ffffffffffffffffffffffffffffffffffffffff1673ffffffffffffffffffffffffffffffffffffffff16815260200190815260200160002060006101000a81548160ff0219169083151502179055508173ffffffffffffffffffffffffffffffffffffffff16611795611edf565b73ffffffffffffffffffffffffffffffffffffffff167f17307eab39ab6107e8899845ad3d59bd9653f200f220920489ca2b5937696c31836040516117da9190613d3a565b60405180910390a35050565b6000807f80000000000000000000000000000000000000000000000000000000000000008316149050919050565b600b6020528060005260406000206000915090505481565b600083600061183a82611a74565b90503373ffffffffffffffffffffffffffffffffffffffff1661185b6113a7565b73ffffffffffffffffffffffffffffffffffffffff1614806118de5750600115156006600083815260200190815260200160002060003373ffffffffffffffffffffffffffffffffffffffff1673ffffffffffffffffffffffffffffffffffffffff16815260200190815260200160002060009054906101000a900460ff161515145b8061191457503373ffffffffffffffffffffffffffffffffffffffff163073ffffffffffffffffffffffffffffffffffffffff16145b611953576040517f08c379a000000000000000000000000000000000000000000000000000000000815260040161194a90613db7565b60405180910390fd5b61195c866117e6565b61199b576040517f08c379a000000000000000000000000000000000000000000000000000000000815260040161199290613f57565b60405180910390fd5b6119a7878787876126a7565b84600b600088815260200190815260200160002060008282546119ca91906141ab565b9250508190555084600760008973ffffffffffffffffffffffffffffffffffffffff1673ffffffffffffffffffffffffffffffffffffffff16815260200190815260200160002060008881526020019081526020016000206000828254611a3191906141ab565b92505081905550600192505050949350505050565b60007f8000000000000000000000000000000000000000000000000000000000000000808316149050919050565b600060806fffffffffffffffffffffffffffffffff8016901b82169050919050565b6000611aa2838361283d565b80611adf5750611ab06113a7565b73ffffffffffffffffffffffffffffffffffffffff163373ffffffffffffffffffffffffffffffffffffffff16145b905092915050565b611aef611edf565b73ffffffffffffffffffffffffffffffffffffffff168573ffffffffffffffffffffffffffffffffffffffff161480611b355750611b3485611b2f611edf565b611a96565b5b611b74576040517f08c379a0000000000000000000000000000000000000000000000000000000008152600401611b6b90613e37565b60405180910390fd5b611b7d836117e6565b15611cf55781600760008773ffffffffffffffffffffffffffffffffffffffff1673ffffffffffffffffffffffffffffffffffffffff1681526020019081526020016000206000858152602001908152602001600020541015611c15576040517f08c379a0000000000000000000000000000000000000000000000000000000008152600401611c0c90613f77565b60405180910390fd5b611c2285858585856128d1565b81600760008773ffffffffffffffffffffffffffffffffffffffff1673ffffffffffffffffffffffffffffffffffffffff16815260200190815260200160002060008581526020019081526020016000206000828254611c829190614201565b9250508190555081600760008673ffffffffffffffffffffffffffffffffffffffff1673ffffffffffffffffffffffffffffffffffffffff16815260200190815260200160002060008581526020019081526020016000206000828254611ce991906141ab565b92505081905550611d76565b8473ffffffffffffffffffffffffffffffffffffffff16611d1584610e2f565b73ffffffffffffffffffffffffffffffffffffffff1614611d6b576040517f08c379a0000000000000000000000000000000000000000000000000000000008152600401611d6290613f37565b60405180910390fd5b611d75838561252a565b5b5050505050565b611d85611edf565b73ffffffffffffffffffffffffffffffffffffffff16611da36113a7565b73ffffffffffffffffffffffffffffffffffffffff1614611df9576040517f08c379a0000000000000000000000000000000000000000000000000000000008152600401611df090613f17565b60405180910390fd5b600073ffffffffffffffffffffffffffffffffffffffff168173ffffffffffffffffffffffffffffffffffffffff161415611e69576040517f08c379a0000000000000000000000000000000000000000000000000000000008152600401611e6090613df7565b60405180910390fd5b611e7281612247565b50565b60007f01ffc9a7000000000000000000000000000000000000000000000000000000007bffffffffffffffffffffffffffffffffffffffffffffffffffffffff1916827bffffffffffffffffffffffffffffffffffffffffffffffffffffffff1916149050919050565b600033905090565b8151835114611f2b576040517f08c379a0000000000000000000000000000000000000000000000000000000008152600401611f2290613fd7565b60405180910390fd5b600073ffffffffffffffffffffffffffffffffffffffff168473ffffffffffffffffffffffffffffffffffffffff161415611f9b576040517f08c379a0000000000000000000000000000000000000000000000000000000008152600401611f9290613e97565b60405180910390fd5b6000611fa5611edf565b9050611fb5818787878787612b53565b60005b84518110156121b2576000858281518110611ffc577f4e487b7100000000000000000000000000000000000000000000000000000000600052603260045260246000fd5b602002602001015190506000858381518110612041577f4e487b7100000000000000000000000000000000000000000000000000000000600052603260045260246000fd5b60200260200101519050600080600084815260200190815260200160002060008b73ffffffffffffffffffffffffffffffffffffffff1673ffffffffffffffffffffffffffffffffffffffff168152602001908152602001600020549050818110156120e2576040517f08c379a00000000000000000000000000000000000000000000000000000000081526004016120d990613ef7565b60405180910390fd5b81810360008085815260200190815260200160002060008c73ffffffffffffffffffffffffffffffffffffffff1673ffffffffffffffffffffffffffffffffffffffff168152602001908152602001600020819055508160008085815260200190815260200160002060008b73ffffffffffffffffffffffffffffffffffffffff1673ffffffffffffffffffffffffffffffffffffffff168152602001908152602001600020600082825461219791906141ab565b92505081905550505050806121ab9061434e565b9050611fb8565b508473ffffffffffffffffffffffffffffffffffffffff168673ffffffffffffffffffffffffffffffffffffffff168273ffffffffffffffffffffffffffffffffffffffff167f4a39dc06d4c0dbc64b70af90fd698a233a518aa5d07e595d983b8c0526c8f7fb8787604051612229929190613d03565b60405180910390a461223f818787878787612b5b565b505050505050565b6000600360009054906101000a900473ffffffffffffffffffffffffffffffffffffffff16905081600360006101000a81548173ffffffffffffffffffffffffffffffffffffffff021916908373ffffffffffffffffffffffffffffffffffffffff1602179055508173ffffffffffffffffffffffffffffffffffffffff168173ffffffffffffffffffffffffffffffffffffffff167f8be0079c531659141344cd1fd0a4f28419497f9722a3daafe3b4186f6b6457e060405160405180910390a35050565b600073ffffffffffffffffffffffffffffffffffffffff168373ffffffffffffffffffffffffffffffffffffffff16141561237d576040517f08c379a000000000000000000000000000000000000000000000000000000000815260040161237490613ed7565b60405180910390fd5b6000612387611edf565b90506123b78185600061239987612d42565b6123a287612d42565b60405180602001604052806000815250612b53565b600080600085815260200190815260200160002060008673ffffffffffffffffffffffffffffffffffffffff1673ffffffffffffffffffffffffffffffffffffffff1681526020019081526020016000205490508281101561244e576040517f08c379a000000000000000000000000000000000000000000000000000000000815260040161244590613e17565b60405180910390fd5b82810360008086815260200190815260200160002060008773ffffffffffffffffffffffffffffffffffffffff1673ffffffffffffffffffffffffffffffffffffffff16815260200190815260200160002081905550600073ffffffffffffffffffffffffffffffffffffffff168573ffffffffffffffffffffffffffffffffffffffff168373ffffffffffffffffffffffffffffffffffffffff167fc3d58168c5ae7397731d063d5bbf3d657854427343f4c083240f7aacaa2d0f62878760405161251b929190614032565b60405180910390a45050505050565b81600061253682611a74565b90503373ffffffffffffffffffffffffffffffffffffffff166125576113a7565b73ffffffffffffffffffffffffffffffffffffffff1614806125da5750600115156006600083815260200190815260200160002060003373ffffffffffffffffffffffffffffffffffffffff1673ffffffffffffffffffffffffffffffffffffffff16815260200190815260200160002060009054906101000a900460ff161515145b8061261057503373ffffffffffffffffffffffffffffffffffffffff163073ffffffffffffffffffffffffffffffffffffffff16145b61264f576040517f08c379a000000000000000000000000000000000000000000000000000000000815260040161264690613db7565b60405180910390fd5b826005600086815260200190815260200160002060006101000a81548173ffffffffffffffffffffffffffffffffffffffff021916908373ffffffffffffffffffffffffffffffffffffffff16021790555050505050565b600073ffffffffffffffffffffffffffffffffffffffff168473ffffffffffffffffffffffffffffffffffffffff161415612717576040517f08c379a000000000000000000000000000000000000000000000000000000000815260040161270e90613ff7565b60405180910390fd5b6000612721611edf565b90506127428160008761273388612d42565b61273c88612d42565b87612b53565b8260008086815260200190815260200160002060008773ffffffffffffffffffffffffffffffffffffffff1673ffffffffffffffffffffffffffffffffffffffff16815260200190815260200160002060008282546127a191906141ab565b925050819055508473ffffffffffffffffffffffffffffffffffffffff16600073ffffffffffffffffffffffffffffffffffffffff168273ffffffffffffffffffffffffffffffffffffffff167fc3d58168c5ae7397731d063d5bbf3d657854427343f4c083240f7aacaa2d0f62878760405161281f929190614032565b60405180910390a461283681600087878787612e08565b5050505050565b6000600160008473ffffffffffffffffffffffffffffffffffffffff1673ffffffffffffffffffffffffffffffffffffffff16815260200190815260200160002060008373ffffffffffffffffffffffffffffffffffffffff1673ffffffffffffffffffffffffffffffffffffffff16815260200190815260200160002060009054906101000a900460ff16905092915050565b600073ffffffffffffffffffffffffffffffffffffffff168473ffffffffffffffffffffffffffffffffffffffff161415612941576040517f08c379a000000000000000000000000000000000000000000000000000000000815260040161293890613e97565b60405180910390fd5b600061294b611edf565b905061296b81878761295c88612d42565b61296588612d42565b87612b53565b600080600086815260200190815260200160002060008873ffffffffffffffffffffffffffffffffffffffff1673ffffffffffffffffffffffffffffffffffffffff16815260200190815260200160002054905083811015612a02576040517f08c379a00000000000000000000000000000000000000000000000000000000081526004016129f990613ef7565b60405180910390fd5b83810360008087815260200190815260200160002060008973ffffffffffffffffffffffffffffffffffffffff1673ffffffffffffffffffffffffffffffffffffffff168152602001908152602001600020819055508360008087815260200190815260200160002060008873ffffffffffffffffffffffffffffffffffffffff1673ffffffffffffffffffffffffffffffffffffffff1681526020019081526020016000206000828254612ab791906141ab565b925050819055508573ffffffffffffffffffffffffffffffffffffffff168773ffffffffffffffffffffffffffffffffffffffff168373ffffffffffffffffffffffffffffffffffffffff167fc3d58168c5ae7397731d063d5bbf3d657854427343f4c083240f7aacaa2d0f628888604051612b34929190614032565b60405180910390a4612b4a828888888888612e08565b50505050505050565b505050505050565b612b7a8473ffffffffffffffffffffffffffffffffffffffff16612fef565b15612d3a578373ffffffffffffffffffffffffffffffffffffffff1663bc197c8187878686866040518663ffffffff1660e01b8152600401612bc0959493929190613c1f565b602060405180830381600087803b158015612bda57600080fd5b505af1925050508015612c0b57506040513d601f19601f82011682018060405250810190612c089190613724565b60015b612cb157612c17614424565b806308c379a01415612c745750612c2c614a47565b80612c375750612c76565b806040517f08c379a0000000000000000000000000000000000000000000000000000000008152600401612c6b9190613d55565b60405180910390fd5b505b6040517f08c379a0000000000000000000000000000000000000000000000000000000008152600401612ca890613d77565b60405180910390fd5b63bc197c8160e01b7bffffffffffffffffffffffffffffffffffffffffffffffffffffffff1916817bffffffffffffffffffffffffffffffffffffffffffffffffffffffff191614612d38576040517f08c379a0000000000000000000000000000000000000000000000000000000008152600401612d2f90613d97565b60405180910390fd5b505b505050505050565b60606000600167ffffffffffffffff811115612d87577f4e487b7100000000000000000000000000000000000000000000000000000000600052604160045260246000fd5b604051908082528060200260200182016040528015612db55781602001602082028036833780820191505090505b5090508281600081518110612df3577f4e487b7100000000000000000000000000000000000000000000000000000000600052603260045260246000fd5b60200260200101818152505080915050919050565b612e278473ffffffffffffffffffffffffffffffffffffffff16612fef565b15612fe7578373ffffffffffffffffffffffffffffffffffffffff1663f23a6e6187878686866040518663ffffffff1660e01b8152600401612e6d959493929190613c87565b602060405180830381600087803b158015612e8757600080fd5b505af1925050508015612eb857506040513d601f19601f82011682018060405250810190612eb59190613724565b60015b612f5e57612ec4614424565b806308c379a01415612f215750612ed9614a47565b80612ee45750612f23565b806040517f08c379a0000000000000000000000000000000000000000000000000000000008152600401612f189190613d55565b60405180910390fd5b505b6040517f08c379a0000000000000000000000000000000000000000000000000000000008152600401612f5590613d77565b60405180910390fd5b63f23a6e6160e01b7bffffffffffffffffffffffffffffffffffffffffffffffffffffffff1916817bffffffffffffffffffffffffffffffffffffffffffffffffffffffff191614612fe5576040517f08c379a0000000000000000000000000000000000000000000000000000000008152600401612fdc90613d97565b60405180910390fd5b505b505050505050565b600080823b905060008111915050919050565b82805461300e906142eb565b90600052602060002090601f0160209004810192826130305760008555613077565b82601f1061304957805160ff1916838001178555613077565b82800160010185558215613077579182015b8281111561307657825182559160200191906001019061305b565b5b5090506130849190613088565b5090565b5b808211156130a1576000816000905550600101613089565b5090565b60006130b86130b384614080565b61405b565b905080838252602082019050828560208602820111156130d757600080fd5b60005b8581101561310757816130ed88826131f9565b8452602084019350602083019250506001810190506130da565b5050509392505050565b600061312461311f846140ac565b61405b565b9050808382526020820190508285602086028201111561314357600080fd5b60005b85811015613173578161315988826132f5565b845260208401935060208301925050600181019050613146565b5050509392505050565b600061319061318b846140d8565b61405b565b9050828152602081018484840111156131a857600080fd5b6131b38482856142a9565b509392505050565b60006131ce6131c984614109565b61405b565b9050828152602081018484840111156131e657600080fd5b6131f18482856142a9565b509392505050565b60008135905061320881614add565b92915050565b600082601f83011261321f57600080fd5b813561322f8482602086016130a5565b91505092915050565b600082601f83011261324957600080fd5b8135613259848260208601613111565b91505092915050565b60008135905061327181614af4565b92915050565b60008135905061328681614b0b565b92915050565b60008151905061329b81614b0b565b92915050565b600082601f8301126132b257600080fd5b81356132c284826020860161317d565b91505092915050565b600082601f8301126132dc57600080fd5b81356132ec8482602086016131bb565b91505092915050565b60008135905061330481614b22565b92915050565b60006020828403121561331c57600080fd5b600061332a848285016131f9565b91505092915050565b6000806040838503121561334657600080fd5b6000613354858286016131f9565b9250506020613365858286016131f9565b9150509250929050565b600080600080600060a0868803121561338757600080fd5b6000613395888289016131f9565b95505060206133a6888289016131f9565b945050604086013567ffffffffffffffff8111156133c357600080fd5b6133cf88828901613238565b935050606086013567ffffffffffffffff8111156133ec57600080fd5b6133f888828901613238565b925050608086013567ffffffffffffffff81111561341557600080fd5b613421888289016132a1565b9150509295509295909350565b600080600080600060a0868803121561344657600080fd5b6000613454888289016131f9565b9550506020613465888289016131f9565b9450506040613476888289016132f5565b9350506060613487888289016132f5565b925050608086013567ffffffffffffffff8111156134a457600080fd5b6134b0888289016132a1565b9150509295509295909350565b600080604083850312156134d057600080fd5b60006134de858286016131f9565b92505060206134ef85828601613262565b9150509250929050565b6000806040838503121561350c57600080fd5b600061351a858286016131f9565b925050602061352b858286016132f5565b9150509250929050565b60008060006060848603121561354a57600080fd5b6000613558868287016131f9565b9350506020613569868287016132f5565b925050604084013567ffffffffffffffff81111561358657600080fd5b613592868287016132cb565b9150509250925092565b6000806000606084860312156135b157600080fd5b60006135bf868287016131f9565b93505060206135d0868287016132f5565b92505060406135e1868287016132f5565b9150509250925092565b6000806000806080858703121561360157600080fd5b600061360f878288016131f9565b9450506020613620878288016132f5565b9350506040613631878288016132f5565b925050606085013567ffffffffffffffff81111561364e57600080fd5b61365a878288016132a1565b91505092959194509250565b6000806040838503121561367957600080fd5b600083013567ffffffffffffffff81111561369357600080fd5b61369f8582860161320e565b925050602083013567ffffffffffffffff8111156136bc57600080fd5b6136c885828601613238565b9150509250929050565b6000602082840312156136e457600080fd5b60006136f284828501613262565b91505092915050565b60006020828403121561370d57600080fd5b600061371b84828501613277565b91505092915050565b60006020828403121561373657600080fd5b60006137448482850161328c565b91505092915050565b60006020828403121561375f57600080fd5b600061376d848285016132f5565b91505092915050565b6000806040838503121561378957600080fd5b6000613797858286016132f5565b92505060206137a8858286016131f9565b9150509250929050565b6000806000606084860312156137c757600080fd5b60006137d5868287016132f5565b93505060206137e6868287016131f9565b92505060406137f7868287016132f5565b9150509250925092565b600061380d8383613be6565b60208301905092915050565b61382281614235565b82525050565b60006138338261414a565b61383d8185614178565b93506138488361413a565b8060005b838110156138795781516138608882613801565b975061386b8361416b565b92505060018101905061384c565b5085935050505092915050565b61388f81614247565b82525050565b60006138a082614155565b6138aa8185614189565b93506138ba8185602086016142b8565b6138c381614446565b840191505092915050565b60006138d982614160565b6138e3818561419a565b93506138f38185602086016142b8565b6138fc81614446565b840191505092915050565b600061391460348361419a565b915061391f82614464565b604082019050919050565b600061393760288361419a565b9150613942826144b3565b604082019050919050565b600061395a601f8361419a565b915061396582614502565b602082019050919050565b600061397d602b8361419a565b91506139888261452b565b604082019050919050565b60006139a060268361419a565b91506139ab8261457a565b604082019050919050565b60006139c360248361419a565b91506139ce826145c9565b604082019050919050565b60006139e660298361419a565b91506139f182614618565b604082019050919050565b6000613a09602d8361419a565b9150613a1482614667565b604082019050919050565b6000613a2c602e8361419a565b9150613a37826146b6565b604082019050919050565b6000613a4f60258361419a565b9150613a5a82614705565b604082019050919050565b6000613a7260328361419a565b9150613a7d82614754565b604082019050919050565b6000613a9560238361419a565b9150613aa0826147a3565b604082019050919050565b6000613ab8602a8361419a565b9150613ac3826147f2565b604082019050919050565b6000613adb60208361419a565b9150613ae682614841565b602082019050919050565b6000613afe600f8361419a565b9150613b098261486a565b602082019050919050565b6000613b21602d8361419a565b9150613b2c82614893565b604082019050919050565b6000613b4460128361419a565b9150613b4f826148e2565b602082019050919050565b6000613b6760298361419a565b9150613b728261490b565b604082019050919050565b6000613b8a60298361419a565b9150613b958261495a565b604082019050919050565b6000613bad60288361419a565b9150613bb8826149a9565b604082019050919050565b6000613bd060218361419a565b9150613bdb826149f8565b604082019050919050565b613bef8161429f565b82525050565b613bfe8161429f565b82525050565b6000602082019050613c196000830184613819565b92915050565b600060a082019050613c346000830188613819565b613c416020830187613819565b8181036040830152613c538186613828565b90508181036060830152613c678185613828565b90508181036080830152613c7b8184613895565b90509695505050505050565b600060a082019050613c9c6000830188613819565b613ca96020830187613819565b613cb66040830186613bf5565b613cc36060830185613bf5565b8181036080830152613cd58184613895565b90509695505050505050565b60006020820190508181036000830152613cfb8184613828565b905092915050565b60006040820190508181036000830152613d1d8185613828565b90508181036020830152613d318184613828565b90509392505050565b6000602082019050613d4f6000830184613886565b92915050565b60006020820190508181036000830152613d6f81846138ce565b905092915050565b60006020820190508181036000830152613d9081613907565b9050919050565b60006020820190508181036000830152613db08161392a565b9050919050565b60006020820190508181036000830152613dd08161394d565b9050919050565b60006020820190508181036000830152613df081613970565b9050919050565b60006020820190508181036000830152613e1081613993565b9050919050565b60006020820190508181036000830152613e30816139b6565b9050919050565b60006020820190508181036000830152613e50816139d9565b9050919050565b60006020820190508181036000830152613e70816139fc565b9050919050565b60006020820190508181036000830152613e9081613a1f565b9050919050565b60006020820190508181036000830152613eb081613a42565b9050919050565b60006020820190508181036000830152613ed081613a65565b9050919050565b60006020820190508181036000830152613ef081613a88565b9050919050565b60006020820190508181036000830152613f1081613aab565b9050919050565b60006020820190508181036000830152613f3081613ace565b9050919050565b60006020820190508181036000830152613f5081613af1565b9050919050565b60006020820190508181036000830152613f7081613b14565b9050919050565b60006020820190508181036000830152613f9081613b37565b9050919050565b60006020820190508181036000830152613fb081613b5a565b9050919050565b60006020820190508181036000830152613fd081613b7d565b9050919050565b60006020820190508181036000830152613ff081613ba0565b9050919050565b6000602082019050818103600083015261401081613bc3565b9050919050565b600060208201905061402c6000830184613bf5565b92915050565b60006040820190506140476000830185613bf5565b6140546020830184613bf5565b9392505050565b6000614065614076565b9050614071828261431d565b919050565b6000604051905090565b600067ffffffffffffffff82111561409b5761409a6143f5565b5b602082029050602081019050919050565b600067ffffffffffffffff8211156140c7576140c66143f5565b5b602082029050602081019050919050565b600067ffffffffffffffff8211156140f3576140f26143f5565b5b6140fc82614446565b9050602081019050919050565b600067ffffffffffffffff821115614124576141236143f5565b5b61412d82614446565b9050602081019050919050565b6000819050602082019050919050565b600081519050919050565b600081519050919050565b600081519050919050565b6000602082019050919050565b600082825260208201905092915050565b600082825260208201905092915050565b600082825260208201905092915050565b60006141b68261429f565b91506141c18361429f565b9250827fffffffffffffffffffffffffffffffffffffffffffffffffffffffffffffffff038211156141f6576141f5614397565b5b828201905092915050565b600061420c8261429f565b91506142178361429f565b92508282101561422a57614229614397565b5b828203905092915050565b60006142408261427f565b9050919050565b60008115159050919050565b60007fffffffff0000000000000000000000000000000000000000000000000000000082169050919050565b600073ffffffffffffffffffffffffffffffffffffffff82169050919050565b6000819050919050565b82818337600083830152505050565b60005b838110156142d65780820151818401526020810190506142bb565b838111156142e5576000848401525b50505050565b6000600282049050600182168061430357607f821691505b60208210811415614317576143166143c6565b5b50919050565b61432682614446565b810181811067ffffffffffffffff82111715614345576143446143f5565b5b80604052505050565b60006143598261429f565b91507fffffffffffffffffffffffffffffffffffffffffffffffffffffffffffffffff82141561438c5761438b614397565b5b600182019050919050565b7f4e487b7100000000000000000000000000000000000000000000000000000000600052601160045260246000fd5b7f4e487b7100000000000000000000000000000000000000000000000000000000600052602260045260246000fd5b7f4e487b7100000000000000000000000000000000000000000000000000000000600052604160045260246000fd5b600060033d11156144435760046000803e614440600051614457565b90505b90565b6000601f19601f8301169050919050565b60008160e01c9050919050565b7f455243313135353a207472616e7366657220746f206e6f6e204552433131353560008201527f526563656976657220696d706c656d656e746572000000000000000000000000602082015250565b7f455243313135353a204552433131353552656365697665722072656a6563746560008201527f6420746f6b656e73000000000000000000000000000000000000000000000000602082015250565b7f596f752063616e6e6f7420706572666f726d207468697320616374696f6e2e00600082015250565b7f455243313135353a2062616c616e636520717565727920666f7220746865207a60008201527f65726f2061646472657373000000000000000000000000000000000000000000602082015250565b7f4f776e61626c653a206e6577206f776e657220697320746865207a65726f206160008201527f6464726573730000000000000000000000000000000000000000000000000000602082015250565b7f455243313135353a206275726e20616d6f756e7420657863656564732062616c60008201527f616e636500000000000000000000000000000000000000000000000000000000602082015250565b7f455243313135353a2063616c6c6572206973206e6f74206f776e6572206e6f7260008201527f20617070726f7665640000000000000000000000000000000000000000000000602082015250565b7f54524945445f544f5f4255524e5f46554e4749424c455f464f525f4e4f4e5f4660008201527f554e4749424c455f544f4b454e00000000000000000000000000000000000000602082015250565b7f54524945445f544f5f5354414b455f46554e4749424c455f464f525f4e4f4e5f60008201527f46554e4749424c455f544f4b454e000000000000000000000000000000000000602082015250565b7f455243313135353a207472616e7366657220746f20746865207a65726f20616460008201527f6472657373000000000000000000000000000000000000000000000000000000602082015250565b7f455243313135353a207472616e736665722063616c6c6572206973206e6f742060008201527f6f776e6572206e6f7220617070726f7665640000000000000000000000000000602082015250565b7f455243313135353a206275726e2066726f6d20746865207a65726f206164647260008201527f6573730000000000000000000000000000000000000000000000000000000000602082015250565b7f455243313135353a20696e73756666696369656e742062616c616e636520666f60008201527f72207472616e7366657200000000000000000000000000000000000000000000602082015250565b7f4f776e61626c653a2063616c6c6572206973206e6f7420746865206f776e6572600082015250565b7f57726f6e67204e4654206f776e65720000000000000000000000000000000000600082015250565b7f54524945445f544f5f4d494e545f46554e4749424c455f464f525f4e4f4e5f4660008201527f554e4749424c455f544f4b454e00000000000000000000000000000000000000602082015250565b7f696e73756666696369656e742066756e64730000000000000000000000000000600082015250565b7f455243313135353a2073657474696e6720617070726f76616c2073746174757360008201527f20666f722073656c660000000000000000000000000000000000000000000000602082015250565b7f455243313135353a206163636f756e747320616e6420696473206c656e67746860008201527f206d69736d617463680000000000000000000000000000000000000000000000602082015250565b7f455243313135353a2069647320616e6420616d6f756e7473206c656e6774682060008201527f6d69736d61746368000000000000000000000000000000000000000000000000602082015250565b7f455243313135353a206d696e7420746f20746865207a65726f2061646472657360008201527f7300000000000000000000000000000000000000000000000000000000000000602082015250565b600060443d1015614a5757614ada565b614a5f614076565b60043d036004823e80513d602482011167ffffffffffffffff82111715614a87575050614ada565b808201805167ffffffffffffffff811115614aa55750505050614ada565b80602083010160043d038501811115614ac2575050505050614ada565b614ad18260200185018661431d565b82955050505050505b90565b614ae681614235565b8114614af157600080fd5b50565b614afd81614247565b8114614b0857600080fd5b50565b614b1481614253565b8114614b1f57600080fd5b50565b614b2b8161429f565b8114614b3657600080fd5b5056fea264697066735822122093afeed4f5832c8722c71a8ae21e148e1457d1b5c68fd2ec193b8de6b8a47a2c64736f6c63430008040033",
  "linkReferences": {},
  "deployedLinkReferences": {}
}