{
  "_format": "hh-sol-artifact-1",
  "contractName": "SpaceMafia",
  "sourceName": "contracts/SpaceMafia.sol",
  "abi": [
    {
      "inputs": [],
      "stateMutability": "nonpayable",
      "type": "constructor"
    },
    {
      "anonymous": false,
      "inputs": [
        {
          "indexed": true,
          "internalType": "address",
          "name": "previousOwner",
          "type": "address"
        },
        {
          "indexed": true,
          "internalType": "address",
          "name": "newOwner",
          "type": "address"
        }
      ],
      "name": "OwnershipTransferred",
      "type": "event"
    },
    {
      "inputs": [
        {
          "internalType": "uint256",
          "name": "_tokenId",
          "type": "uint256"
        }
      ],
      "name": "claimDividends",
      "outputs": [
        {
          "internalType": "uint256",
          "name": "",
          "type": "uint256"
        }
      ],
      "stateMutability": "nonpayable",
      "type": "function"
    },
    {
      "inputs": [
        {
          "internalType": "uint256",
          "name": "_tokenId",
          "type": "uint256"
        }
      ],
      "name": "claimableDividends",
      "outputs": [
        {
          "internalType": "uint256",
          "name": "",
          "type": "uint256"
        }
      ],
      "stateMutability": "view",
      "type": "function"
    },
    {
      "inputs": [
        {
          "internalType": "uint256",
          "name": "_nukeId",
          "type": "uint256"
        }
      ],
      "name": "completeAttack",
      "outputs": [
        {
          "internalType": "bool",
          "name": "",
          "type": "bool"
        }
      ],
      "stateMutability": "nonpayable",
      "type": "function"
    },
    {
      "inputs": [
        {
          "internalType": "uint256",
          "name": "_nukeId",
          "type": "uint256"
        }
      ],
      "name": "defenseProbability",
      "outputs": [
        {
          "internalType": "uint256",
          "name": "",
          "type": "uint256"
        }
      ],
      "stateMutability": "view",
      "type": "function"
    },
    {
      "inputs": [
        {
          "internalType": "uint256",
          "name": "amount",
          "type": "uint256"
        }
      ],
      "name": "depositInAAVE",
      "outputs": [],
      "stateMutability": "payable",
      "type": "function"
    },
    {
      "inputs": [],
      "name": "galaxyToken",
      "outputs": [
        {
          "internalType": "contract GalaxyToken",
          "name": "",
          "type": "address"
        }
      ],
      "stateMutability": "view",
      "type": "function"
    },
    {
      "inputs": [
        {
          "internalType": "address",
          "name": "_account",
          "type": "address"
        }
      ],
      "name": "getMafiaBalanceOf",
      "outputs": [
        {
          "internalType": "uint256",
          "name": "",
          "type": "uint256"
        }
      ],
      "stateMutability": "view",
      "type": "function"
    },
    {
      "inputs": [],
      "name": "getMafiaTokenSupply",
      "outputs": [
        {
          "internalType": "uint256",
          "name": "",
          "type": "uint256"
        }
      ],
      "stateMutability": "view",
      "type": "function"
    },
    {
      "inputs": [
        {
          "internalType": "uint256",
          "name": "_id",
          "type": "uint256"
        }
      ],
      "name": "getPlanet",
      "outputs": [
        {
          "internalType": "address",
          "name": "",
          "type": "address"
        },
        {
          "internalType": "string",
          "name": "",
          "type": "string"
        }
      ],
      "stateMutability": "view",
      "type": "function"
    },
    {
      "inputs": [],
      "name": "getPlanetSupply",
      "outputs": [
        {
          "internalType": "uint256",
          "name": "",
          "type": "uint256"
        }
      ],
      "stateMutability": "view",
      "type": "function"
    },
    {
      "inputs": [
        {
          "internalType": "uint256",
          "name": "_id",
          "type": "uint256"
        }
      ],
      "name": "getRocket",
      "outputs": [
        {
          "internalType": "address",
          "name": "",
          "type": "address"
        },
        {
          "internalType": "string",
          "name": "",
          "type": "string"
        }
      ],
      "stateMutability": "view",
      "type": "function"
    },
    {
      "inputs": [],
      "name": "getRocketSupply",
      "outputs": [
        {
          "internalType": "uint256",
          "name": "",
          "type": "uint256"
        }
      ],
      "stateMutability": "view",
      "type": "function"
    },
    {
      "inputs": [
        {
          "internalType": "address",
          "name": "_galaxyToken",
          "type": "address"
        }
      ],
      "name": "initialize",
      "outputs": [],
      "stateMutability": "nonpayable",
      "type": "function"
    },
    {
      "inputs": [],
      "name": "lendingpool",
      "outputs": [
        {
          "internalType": "address",
          "name": "",
          "type": "address"
        }
      ],
      "stateMutability": "view",
      "type": "function"
    },
    {
      "inputs": [],
      "name": "mafiaToken",
      "outputs": [
        {
          "internalType": "uint256",
          "name": "",
          "type": "uint256"
        }
      ],
      "stateMutability": "view",
      "type": "function"
    },
    {
      "inputs": [
        {
          "internalType": "address",
          "name": "_account",
          "type": "address"
        },
        {
          "internalType": "string",
          "name": "_tokenURI",
          "type": "string"
        }
      ],
      "name": "mintPlanet",
      "outputs": [
        {
          "internalType": "uint256",
          "name": "_id",
          "type": "uint256"
        }
      ],
      "stateMutability": "nonpayable",
      "type": "function"
    },
    {
      "inputs": [
        {
          "internalType": "uint256",
          "name": "_planetId",
          "type": "uint256"
        }
      ],
      "name": "mintRocket",
      "outputs": [
        {
          "internalType": "uint256",
          "name": "_id",
          "type": "uint256"
        }
      ],
      "stateMutability": "nonpayable",
      "type": "function"
    },
    {
      "inputs": [
        {
          "internalType": "uint256",
          "name": "_planetId",
          "type": "uint256"
        },
        {
          "internalType": "uint256",
          "name": "_rocketId",
          "type": "uint256"
        },
        {
          "internalType": "uint256",
          "name": "_missionCost",
          "type": "uint256"
        }
      ],
      "name": "nuke",
      "outputs": [
        {
          "internalType": "uint256",
          "name": "",
          "type": "uint256"
        }
      ],
      "stateMutability": "nonpayable",
      "type": "function"
    },
    {
      "inputs": [],
      "name": "nukeCount",
      "outputs": [
        {
          "internalType": "uint256",
          "name": "",
          "type": "uint256"
        }
      ],
      "stateMutability": "view",
      "type": "function"
    },
    {
      "inputs": [],
      "name": "owner",
      "outputs": [
        {
          "internalType": "address",
          "name": "",
          "type": "address"
        }
      ],
      "stateMutability": "view",
      "type": "function"
    },
    {
      "inputs": [],
      "name": "planetType",
      "outputs": [
        {
          "internalType": "uint256",
          "name": "",
          "type": "uint256"
        }
      ],
      "stateMutability": "view",
      "type": "function"
    },
    {
      "inputs": [],
      "name": "renounceOwnership",
      "outputs": [],
      "stateMutability": "nonpayable",
      "type": "function"
    },
    {
      "inputs": [],
      "name": "rocketType",
      "outputs": [
        {
          "internalType": "uint256",
          "name": "",
          "type": "uint256"
        }
      ],
      "stateMutability": "view",
      "type": "function"
    },
    {
      "inputs": [
        {
          "internalType": "uint256",
          "name": "_tokenId",
          "type": "uint256"
        }
      ],
      "name": "stakeEthOnPlanet",
      "outputs": [
        {
          "internalType": "bool",
          "name": "",
          "type": "bool"
        }
      ],
      "stateMutability": "payable",
      "type": "function"
    },
    {
      "inputs": [
        {
          "internalType": "address",
          "name": "_to",
          "type": "address"
        },
        {
          "internalType": "uint256",
          "name": "_amount",
          "type": "uint256"
        }
      ],
      "name": "transferMafiaToken",
      "outputs": [],
      "stateMutability": "nonpayable",
      "type": "function"
    },
    {
      "inputs": [
        {
          "internalType": "address",
          "name": "newOwner",
          "type": "address"
        }
      ],
      "name": "transferOwnership",
      "outputs": [],
      "stateMutability": "nonpayable",
      "type": "function"
    },
    {
      "inputs": [
        {
          "internalType": "address",
          "name": "_to",
          "type": "address"
        },
        {
          "internalType": "uint256",
          "name": "_id",
          "type": "uint256"
        }
      ],
      "name": "transferPlanet",
      "outputs": [],
      "stateMutability": "nonpayable",
      "type": "function"
    },
    {
      "inputs": [
        {
          "internalType": "address",
          "name": "_to",
          "type": "address"
        },
        {
          "internalType": "uint256",
          "name": "_id",
          "type": "uint256"
        }
      ],
      "name": "transferRocket",
      "outputs": [],
      "stateMutability": "nonpayable",
      "type": "function"
    }
  ],
  "bytecode": "0x60806040523480156200001157600080fd5b5062000032620000266200003860201b60201c565b6200004060201b60201c565b62000104565b600033905090565b60008060009054906101000a900473ffffffffffffffffffffffffffffffffffffffff169050816000806101000a81548173ffffffffffffffffffffffffffffffffffffffff021916908373ffffffffffffffffffffffffffffffffffffffff1602179055508173ffffffffffffffffffffffffffffffffffffffff168173ffffffffffffffffffffffffffffffffffffffff167f8be0079c531659141344cd1fd0a4f28419497f9722a3daafe3b4186f6b6457e060405160405180910390a35050565b61475980620001146000396000f3fe6080604052600436106101b65760003560e01c8063968b0167116100ec578063bd7047c41161008a578063c9c9a9f211610064578063c9c9a9f214610652578063f1288a8d1461068f578063f2fde38b146106ab578063ffbec419146106d4576101b6565b8063bd7047c4146105c1578063c496d708146105fe578063c4d66de814610629576101b6565b80639d5dc416116100c65780639d5dc416146104de578063aed4f39c1461051b578063b5bab05314610559578063b8aa6f0214610596576101b6565b8063968b01671461044d578063971c53d4146104785780639c86d530146104a1576101b6565b806360a138ed11610159578063715018a611610133578063715018a6146103b05780637328fd73146103c75780638a0a866a146103f25780638da5cb5b14610422576101b6565b806360a138ed1461031d57806360c92db41461035a5780636f21de4d14610385576101b6565b806331e6ace01161019557806331e6ace01461025e57806334efcb8e146102895780633d48f982146102c757806356cdbdcb146102f2576101b6565b8062d36f92146101bb5780632b8f107d146101f8578063311125f714610235575b600080fd5b3480156101c757600080fd5b506101e260048036038101906101dd91906137d2565b6106fd565b6040516101ef9190613fec565b60405180910390f35b34801561020457600080fd5b5061021f600480360381019061021a9190613824565b610a95565b60405161022c9190613fec565b60405180910390f35b34801561024157600080fd5b5061025c6004803603810190610257919061372c565b61124f565b005b34801561026a57600080fd5b506102736112e7565b6040516102809190613fec565b60405180910390f35b34801561029557600080fd5b506102b060048036038101906102ab91906137d2565b61139b565b6040516102be929190613ce8565b60405180910390f35b3480156102d357600080fd5b506102dc611503565b6040516102e99190613fec565b60405180910390f35b3480156102fe57600080fd5b50610307611509565b6040516103149190613fec565b60405180910390f35b34801561032957600080fd5b50610344600480360381019061033f91906137d2565b6115bd565b6040516103519190613dfb565b60405180910390f35b34801561036657600080fd5b5061036f611ac1565b60405161037c9190613fec565b60405180910390f35b34801561039157600080fd5b5061039a611ac7565b6040516103a79190613fec565b60405180910390f35b3480156103bc57600080fd5b506103c5611acd565b005b3480156103d357600080fd5b506103dc611b55565b6040516103e99190613e31565b60405180910390f35b61040c600480360381019061040791906137d2565b611b7b565b6040516104199190613dfb565b60405180910390f35b34801561042e57600080fd5b50610437611f73565b6040516104449190613b9c565b60405180910390f35b34801561045957600080fd5b50610462611f9c565b60405161046f9190613fec565b60405180910390f35b34801561048457600080fd5b5061049f600480360381019061049a919061372c565b612050565b005b3480156104ad57600080fd5b506104c860048036038101906104c39190613686565b6120e8565b6040516104d59190613fec565b60405180910390f35b3480156104ea57600080fd5b50610505600480360381019061050091906137d2565b61219f565b6040516105129190613fec565b60405180910390f35b34801561052757600080fd5b50610542600480360381019061053d91906137d2565b61230a565b604051610550929190613ce8565b60405180910390f35b34801561056557600080fd5b50610580600480360381019061057b91906137d2565b612472565b60405161058d9190613fec565b60405180910390f35b3480156105a257600080fd5b506105ab6127b0565b6040516105b89190613fec565b60405180910390f35b3480156105cd57600080fd5b506105e860048036038101906105e391906137d2565b6127b6565b6040516105f59190613fec565b60405180910390f35b34801561060a57600080fd5b50610613612bdc565b6040516106209190613b9c565b60405180910390f35b34801561063557600080fd5b50610650600480360381019061064b9190613686565b612c02565b005b34801561065e57600080fd5b50610679600480360381019061067491906136d8565b613020565b6040516106869190613fec565b60405180910390f35b6106a960048036038101906106a491906137d2565b613159565b005b3480156106b757600080fd5b506106d260048036038101906106cd9190613686565b613204565b005b3480156106e057600080fd5b506106fb60048036038101906106f6919061372c565b6132fc565b005b600081600073ffffffffffffffffffffffffffffffffffffffff16600160009054906101000a900473ffffffffffffffffffffffffffffffffffffffff1673ffffffffffffffffffffffffffffffffffffffff16633fa9f7f3836040518263ffffffff1660e01b81526004016107739190613fec565b60206040518083038186803b15801561078b57600080fd5b505afa15801561079f573d6000803e3d6000fd5b505050506040513d601f19601f820116820180604052508101906107c391906136af565b73ffffffffffffffffffffffffffffffffffffffff16141561081a576040517f08c379a000000000000000000000000000000000000000000000000000000000815260040161081190613e6c565b60405180910390fd5b600254600160009054906101000a900473ffffffffffffffffffffffffffffffffffffffff1673ffffffffffffffffffffffffffffffffffffffff1663e4b5b61a836040518263ffffffff1660e01b81526004016108789190613fec565b60206040518083038186803b15801561089057600080fd5b505afa1580156108a4573d6000803e3d6000fd5b505050506040513d601f19601f820116820180604052508101906108c891906137fb565b14610908576040517f08c379a00000000000000000000000000000000000000000000000000000000081526004016108ff90613eec565b60405180910390fd5b6000600160009054906101000a900473ffffffffffffffffffffffffffffffffffffffff1673ffffffffffffffffffffffffffffffffffffffff16633fa9f7f3856040518263ffffffff1660e01b81526004016109659190613fec565b60206040518083038186803b15801561097d57600080fd5b505afa158015610991573d6000803e3d6000fd5b505050506040513d601f19601f820116820180604052508101906109b591906136af565b90506000600160009054906101000a900473ffffffffffffffffffffffffffffffffffffffff1673ffffffffffffffffffffffffffffffffffffffff166379b8d938836004546040518363ffffffff1660e01b8152600401610a18929190613d18565b60206040518083038186803b158015610a3057600080fd5b505afa158015610a44573d6000803e3d6000fd5b505050506040513d601f19601f82011682018060405250810190610a6891906137fb565b90506000610a7586613395565b9050610a8a818361343f90919063ffffffff16565b945050505050919050565b600083600073ffffffffffffffffffffffffffffffffffffffff16600160009054906101000a900473ffffffffffffffffffffffffffffffffffffffff1673ffffffffffffffffffffffffffffffffffffffff16633fa9f7f3836040518263ffffffff1660e01b8152600401610b0b9190613fec565b60206040518083038186803b158015610b2357600080fd5b505afa158015610b37573d6000803e3d6000fd5b505050506040513d601f19601f82011682018060405250810190610b5b91906136af565b73ffffffffffffffffffffffffffffffffffffffff161415610bb2576040517f08c379a0000000000000000000000000000000000000000000000000000000008152600401610ba990613e6c565b60405180910390fd5b600254600160009054906101000a900473ffffffffffffffffffffffffffffffffffffffff1673ffffffffffffffffffffffffffffffffffffffff1663e4b5b61a836040518263ffffffff1660e01b8152600401610c109190613fec565b60206040518083038186803b158015610c2857600080fd5b505afa158015610c3c573d6000803e3d6000fd5b505050506040513d601f19601f82011682018060405250810190610c6091906137fb565b14610ca0576040517f08c379a0000000000000000000000000000000000000000000000000000000008152600401610c9790613eec565b60405180910390fd5b83600073ffffffffffffffffffffffffffffffffffffffff16600160009054906101000a900473ffffffffffffffffffffffffffffffffffffffff1673ffffffffffffffffffffffffffffffffffffffff16633fa9f7f3836040518263ffffffff1660e01b8152600401610d149190613fec565b60206040518083038186803b158015610d2c57600080fd5b505afa158015610d40573d6000803e3d6000fd5b505050506040513d601f19601f82011682018060405250810190610d6491906136af565b73ffffffffffffffffffffffffffffffffffffffff161415610dbb576040517f08c379a0000000000000000000000000000000000000000000000000000000008152600401610db290613f2c565b60405180910390fd5b600354600160009054906101000a900473ffffffffffffffffffffffffffffffffffffffff1673ffffffffffffffffffffffffffffffffffffffff1663e4b5b61a836040518263ffffffff1660e01b8152600401610e199190613fec565b60206040518083038186803b158015610e3157600080fd5b505afa158015610e45573d6000803e3d6000fd5b505050506040513d601f19601f82011682018060405250810190610e6991906137fb565b14610ea9576040517f08c379a0000000000000000000000000000000000000000000000000000000008152600401610ea090613eac565b60405180910390fd5b6000600160009054906101000a900473ffffffffffffffffffffffffffffffffffffffff1673ffffffffffffffffffffffffffffffffffffffff16633fa9f7f3876040518263ffffffff1660e01b8152600401610f069190613fec565b60206040518083038186803b158015610f1e57600080fd5b505afa158015610f32573d6000803e3d6000fd5b505050506040513d601f19601f82011682018060405250810190610f5691906136af565b90503373ffffffffffffffffffffffffffffffffffffffff168173ffffffffffffffffffffffffffffffffffffffff1614610fc6576040517f08c379a0000000000000000000000000000000000000000000000000000000008152600401610fbd90613ecc565b60405180910390fd5b670de0b6b3a7640000851015611011576040517f08c379a000000000000000000000000000000000000000000000000000000000815260040161100890613e4c565b60405180910390fd5b84600160009054906101000a900473ffffffffffffffffffffffffffffffffffffffff1673ffffffffffffffffffffffffffffffffffffffff1662fdd58e336004546040518363ffffffff1660e01b8152600401611070929190613d18565b60206040518083038186803b15801561108857600080fd5b505afa15801561109c573d6000803e3d6000fd5b505050506040513d601f19601f820116820180604052508101906110c091906137fb565b1015611101576040517f08c379a00000000000000000000000000000000000000000000000000000000081526004016110f890613f4c565b60405180910390fd5b6040518060a0016040528086815260200187815260200188815260200160144361112b91906140f5565b8152602001600015158152506009600060065481526020019081526020016000206000820151816000015560208201518160010155604082015181600201556060820151816003015560808201518160040160006101000a81548160ff021916908315150217905550905050600160009054906101000a900473ffffffffffffffffffffffffffffffffffffffff1673ffffffffffffffffffffffffffffffffffffffff1663f242432a3330600454896040518563ffffffff1660e01b81526004016111fa9493929190613c67565b600060405180830381600087803b15801561121457600080fd5b505af1158015611228573d6000803e3d6000fd5b505050506006600081548092919061123f90614337565b9190505593505050509392505050565b600160009054906101000a900473ffffffffffffffffffffffffffffffffffffffff1673ffffffffffffffffffffffffffffffffffffffff1663f242432a33848460016040518563ffffffff1660e01b81526004016112b19493929190613c0f565b600060405180830381600087803b1580156112cb57600080fd5b505af11580156112df573d6000803e3d6000fd5b505050505050565b6000600160009054906101000a900473ffffffffffffffffffffffffffffffffffffffff1673ffffffffffffffffffffffffffffffffffffffff1663bd85b0396004546040518263ffffffff1660e01b81526004016113469190613fec565b60206040518083038186803b15801561135e57600080fd5b505afa158015611372573d6000803e3d6000fd5b505050506040513d601f19601f8201168201806040525081019061139691906137fb565b905090565b60006060600160009054906101000a900473ffffffffffffffffffffffffffffffffffffffff1673ffffffffffffffffffffffffffffffffffffffff16633fa9f7f3846040518263ffffffff1660e01b81526004016113fa9190613fec565b60206040518083038186803b15801561141257600080fd5b505afa158015611426573d6000803e3d6000fd5b505050506040513d601f19601f8201168201806040525081019061144a91906136af565b600160009054906101000a900473ffffffffffffffffffffffffffffffffffffffff1673ffffffffffffffffffffffffffffffffffffffff16636914db60856040518263ffffffff1660e01b81526004016114a59190613fec565b60006040518083038186803b1580156114bd57600080fd5b505afa1580156114d1573d6000803e3d6000fd5b505050506040513d6000823e3d601f19601f820116820180604052508101906114fa9190613791565b91509150915091565b60065481565b6000600160009054906101000a900473ffffffffffffffffffffffffffffffffffffffff1673ffffffffffffffffffffffffffffffffffffffff1663bd85b0396002546040518263ffffffff1660e01b81526004016115689190613fec565b60206040518083038186803b15801561158057600080fd5b505afa158015611594573d6000803e3d6000fd5b505050506040513d601f19601f820116820180604052508101906115b891906137fb565b905090565b6000806115c98361219f565b9050600060096000858152602001908152602001600020905060008160030154905080431161162d576040517f08c379a000000000000000000000000000000000000000000000000000000000815260040161162490613fcc565b60405180910390fd5b600061167d70010000000000000000000000000000000083406040516020016116569190613e16565b6040516020818303038152906040528051906020012060001c61345590919063ffffffff16565b90508381116117fd576000600160009054906101000a900473ffffffffffffffffffffffffffffffffffffffff1673ffffffffffffffffffffffffffffffffffffffff16633fa9f7f385600201546040518263ffffffff1660e01b81526004016116e79190613fec565b60206040518083038186803b1580156116ff57600080fd5b505afa158015611713573d6000803e3d6000fd5b505050506040513d601f19601f8201168201806040525081019061173791906136af565b9050600160009054906101000a900473ffffffffffffffffffffffffffffffffffffffff1673ffffffffffffffffffffffffffffffffffffffff1663f242432a308360045488600001546040518563ffffffff1660e01b81526004016117a09493929190613c67565b600060405180830381600087803b1580156117ba57600080fd5b505af11580156117ce573d6000803e3d6000fd5b5050505060018460040160006101000a81548160ff021916908315150217905550600095505050505050611abc565b6000600160009054906101000a900473ffffffffffffffffffffffffffffffffffffffff1673ffffffffffffffffffffffffffffffffffffffff16633fa9f7f385600201546040518263ffffffff1660e01b815260040161185e9190613fec565b60206040518083038186803b15801561187657600080fd5b505afa15801561188a573d6000803e3d6000fd5b505050506040513d601f19601f820116820180604052508101906118ae91906136af565b90506000600160009054906101000a900473ffffffffffffffffffffffffffffffffffffffff1673ffffffffffffffffffffffffffffffffffffffff16633fa9f7f386600101546040518263ffffffff1660e01b81526004016119119190613fec565b60206040518083038186803b15801561192957600080fd5b505afa15801561193d573d6000803e3d6000fd5b505050506040513d601f19601f8201168201806040525081019061196191906136af565b9050600160009054906101000a900473ffffffffffffffffffffffffffffffffffffffff1673ffffffffffffffffffffffffffffffffffffffff1663f242432a308360045489600001546040518563ffffffff1660e01b81526004016119ca9493929190613c67565b600060405180830381600087803b1580156119e457600080fd5b505af11580156119f8573d6000803e3d6000fd5b50505050600160009054906101000a900473ffffffffffffffffffffffffffffffffffffffff1673ffffffffffffffffffffffffffffffffffffffff1663f242432a8383886002015460006040518563ffffffff1660e01b8152600401611a629493929190613bb7565b600060405180830381600087803b158015611a7c57600080fd5b505af1158015611a90573d6000803e3d6000fd5b5050505060018560040160006101000a81548160ff021916908315150217905550600196505050505050505b919050565b60025481565b60045481565b611ad561346b565b73ffffffffffffffffffffffffffffffffffffffff16611af3611f73565b73ffffffffffffffffffffffffffffffffffffffff1614611b49576040517f08c379a0000000000000000000000000000000000000000000000000000000008152600401611b4090613f0c565b60405180910390fd5b611b536000613473565b565b600160009054906101000a900473ffffffffffffffffffffffffffffffffffffffff1681565b600081600073ffffffffffffffffffffffffffffffffffffffff16600160009054906101000a900473ffffffffffffffffffffffffffffffffffffffff1673ffffffffffffffffffffffffffffffffffffffff16633fa9f7f3836040518263ffffffff1660e01b8152600401611bf19190613fec565b60206040518083038186803b158015611c0957600080fd5b505afa158015611c1d573d6000803e3d6000fd5b505050506040513d601f19601f82011682018060405250810190611c4191906136af565b73ffffffffffffffffffffffffffffffffffffffff161415611c98576040517f08c379a0000000000000000000000000000000000000000000000000000000008152600401611c8f90613e6c565b60405180910390fd5b600254600160009054906101000a900473ffffffffffffffffffffffffffffffffffffffff1673ffffffffffffffffffffffffffffffffffffffff1663e4b5b61a836040518263ffffffff1660e01b8152600401611cf69190613fec565b60206040518083038186803b158015611d0e57600080fd5b505afa158015611d22573d6000803e3d6000fd5b505050506040513d601f19601f82011682018060405250810190611d4691906137fb565b14611d86576040517f08c379a0000000000000000000000000000000000000000000000000000000008152600401611d7d90613eec565b60405180910390fd5b60003411611dc9576040517f08c379a0000000000000000000000000000000000000000000000000000000008152600401611dc090613f6c565b60405180910390fd5b6000600160009054906101000a900473ffffffffffffffffffffffffffffffffffffffff1673ffffffffffffffffffffffffffffffffffffffff16633fa9f7f3856040518263ffffffff1660e01b8152600401611e269190613fec565b60206040518083038186803b158015611e3e57600080fd5b505afa158015611e52573d6000803e3d6000fd5b505050506040513d601f19601f82011682018060405250810190611e7691906136af565b9050600160009054906101000a900473ffffffffffffffffffffffffffffffffffffffff1673ffffffffffffffffffffffffffffffffffffffff1663a1eb700160045483611ec388613395565b6040518463ffffffff1660e01b8152600401611ee193929190614030565b600060405180830381600087803b158015611efb57600080fd5b505af1158015611f0f573d6000803e3d6000fd5b50505050611f3934600760008781526020019081526020016000205461343f90919063ffffffff16565b6007600086815260200190815260200160002081905550426008600086815260200190815260200160002081905550600192505050919050565b60008060009054906101000a900473ffffffffffffffffffffffffffffffffffffffff16905090565b6000600160009054906101000a900473ffffffffffffffffffffffffffffffffffffffff1673ffffffffffffffffffffffffffffffffffffffff1663bd85b0396003546040518263ffffffff1660e01b8152600401611ffb9190613fec565b60206040518083038186803b15801561201357600080fd5b505afa158015612027573d6000803e3d6000fd5b505050506040513d601f19601f8201168201806040525081019061204b91906137fb565b905090565b600160009054906101000a900473ffffffffffffffffffffffffffffffffffffffff1673ffffffffffffffffffffffffffffffffffffffff1663f242432a33848460016040518563ffffffff1660e01b81526004016120b29493929190613c0f565b600060405180830381600087803b1580156120cc57600080fd5b505af11580156120e0573d6000803e3d6000fd5b505050505050565b6000600160009054906101000a900473ffffffffffffffffffffffffffffffffffffffff1673ffffffffffffffffffffffffffffffffffffffff1662fdd58e836004546040518363ffffffff1660e01b8152600401612148929190613d18565b60206040518083038186803b15801561216057600080fd5b505afa158015612174573d6000803e3d6000fd5b505050506040513d601f19601f8201168201806040525081019061219891906137fb565b9050919050565b600060065482106121e5576040517f08c379a00000000000000000000000000000000000000000000000000000000081526004016121dc90613f8c565b60405180910390fd5b60006009600084815260200190815260200160002090508060040160009054906101000a900460ff161561224e576040517f08c379a000000000000000000000000000000000000000000000000000000000815260040161224590613fac565b60405180910390fd5b6000612298670de0b6b3a764000061228a846000015460076000876002015481526020019081526020016000205461343f90919063ffffffff16565b61343f90919063ffffffff16565b9050612301816122f37001000000000000000000000000000000006122e5670de0b6b3a764000060076000896002015481526020019081526020016000205461343f90919063ffffffff16565b61353790919063ffffffff16565b61345590919063ffffffff16565b92505050919050565b60006060600160009054906101000a900473ffffffffffffffffffffffffffffffffffffffff1673ffffffffffffffffffffffffffffffffffffffff16633fa9f7f3846040518263ffffffff1660e01b81526004016123699190613fec565b60206040518083038186803b15801561238157600080fd5b505afa158015612395573d6000803e3d6000fd5b505050506040513d601f19601f820116820180604052508101906123b991906136af565b600160009054906101000a900473ffffffffffffffffffffffffffffffffffffffff1673ffffffffffffffffffffffffffffffffffffffff16636914db60856040518263ffffffff1660e01b81526004016124149190613fec565b60006040518083038186803b15801561242c57600080fd5b505afa158015612440573d6000803e3d6000fd5b505050506040513d6000823e3d601f19601f820116820180604052508101906124699190613791565b91509150915091565b600080600160009054906101000a900473ffffffffffffffffffffffffffffffffffffffff1673ffffffffffffffffffffffffffffffffffffffff16633fa9f7f3846040518263ffffffff1660e01b81526004016124d09190613fec565b60206040518083038186803b1580156124e857600080fd5b505afa1580156124fc573d6000803e3d6000fd5b505050506040513d601f19601f8201168201806040525081019061252091906136af565b9050670de0b6b3a7640000600160009054906101000a900473ffffffffffffffffffffffffffffffffffffffff1673ffffffffffffffffffffffffffffffffffffffff1662fdd58e336004546040518363ffffffff1660e01b8152600401612589929190613d18565b60206040518083038186803b1580156125a157600080fd5b505afa1580156125b5573d6000803e3d6000fd5b505050506040513d601f19601f820116820180604052508101906125d991906137fb565b101561261a576040517f08c379a000000000000000000000000000000000000000000000000000000000815260040161261190613f4c565b60405180910390fd5b600160009054906101000a900473ffffffffffffffffffffffffffffffffffffffff1673ffffffffffffffffffffffffffffffffffffffff1663717b7f3633600454670de0b6b3a76400006040518463ffffffff1660e01b815260040161268393929190613dc4565b602060405180830381600087803b15801561269d57600080fd5b505af11580156126b1573d6000803e3d6000fd5b505050506040513d601f19601f820116820180604052508101906126d59190613768565b50600160009054906101000a900473ffffffffffffffffffffffffffffffffffffffff1673ffffffffffffffffffffffffffffffffffffffff166398b4ad6f82600354866040516020016127299190613b6b565b6040516020818303038152906040526040518463ffffffff1660e01b815260040161275693929190613d86565b602060405180830381600087803b15801561277057600080fd5b505af1158015612784573d6000803e3d6000fd5b505050506040513d601f19601f820116820180604052508101906127a891906137fb565b915050919050565b60035481565b600081600073ffffffffffffffffffffffffffffffffffffffff16600160009054906101000a900473ffffffffffffffffffffffffffffffffffffffff1673ffffffffffffffffffffffffffffffffffffffff16633fa9f7f3836040518263ffffffff1660e01b815260040161282c9190613fec565b60206040518083038186803b15801561284457600080fd5b505afa158015612858573d6000803e3d6000fd5b505050506040513d601f19601f8201168201806040525081019061287c91906136af565b73ffffffffffffffffffffffffffffffffffffffff1614156128d3576040517f08c379a00000000000000000000000000000000000000000000000000000000081526004016128ca90613e6c565b60405180910390fd5b600254600160009054906101000a900473ffffffffffffffffffffffffffffffffffffffff1673ffffffffffffffffffffffffffffffffffffffff1663e4b5b61a836040518263ffffffff1660e01b81526004016129319190613fec565b60206040518083038186803b15801561294957600080fd5b505afa15801561295d573d6000803e3d6000fd5b505050506040513d601f19601f8201168201806040525081019061298191906137fb565b146129c1576040517f08c379a00000000000000000000000000000000000000000000000000000000081526004016129b890613eec565b60405180910390fd5b6000600160009054906101000a900473ffffffffffffffffffffffffffffffffffffffff1673ffffffffffffffffffffffffffffffffffffffff16633fa9f7f3856040518263ffffffff1660e01b8152600401612a1e9190613fec565b60206040518083038186803b158015612a3657600080fd5b505afa158015612a4a573d6000803e3d6000fd5b505050506040513d601f19601f82011682018060405250810190612a6e91906136af565b9050600160009054906101000a900473ffffffffffffffffffffffffffffffffffffffff1673ffffffffffffffffffffffffffffffffffffffff1663a1eb700160045483612abb88613395565b6040518463ffffffff1660e01b8152600401612ad993929190614030565b600060405180830381600087803b158015612af357600080fd5b505af1158015612b07573d6000803e3d6000fd5b50505050426008600086815260200190815260200160002081905550600160009054906101000a900473ffffffffffffffffffffffffffffffffffffffff1673ffffffffffffffffffffffffffffffffffffffff1662ffc135600454836040518363ffffffff1660e01b8152600401612b81929190614007565b602060405180830381600087803b158015612b9b57600080fd5b505af1158015612baf573d6000803e3d6000fd5b505050506040513d601f19601f82011682018060405250810190612bd391906137fb565b92505050919050565b600560009054906101000a900473ffffffffffffffffffffffffffffffffffffffff1681565b612c0a61346b565b73ffffffffffffffffffffffffffffffffffffffff16612c28611f73565b73ffffffffffffffffffffffffffffffffffffffff1614612c7e576040517f08c379a0000000000000000000000000000000000000000000000000000000008152600401612c7590613f0c565b60405180910390fd5b80600160006101000a81548173ffffffffffffffffffffffffffffffffffffffff021916908373ffffffffffffffffffffffffffffffffffffffff160217905550600160009054906101000a900473ffffffffffffffffffffffffffffffffffffffff1673ffffffffffffffffffffffffffffffffffffffff166305caa0ff60006040518263ffffffff1660e01b8152600401612d1b9190613dfb565b602060405180830381600087803b158015612d3557600080fd5b505af1158015612d49573d6000803e3d6000fd5b505050506040513d601f19601f82011682018060405250810190612d6d91906137fb565b600481905550600160009054906101000a900473ffffffffffffffffffffffffffffffffffffffff1673ffffffffffffffffffffffffffffffffffffffff166305caa0ff60016040518263ffffffff1660e01b8152600401612dcf9190613dfb565b602060405180830381600087803b158015612de957600080fd5b505af1158015612dfd573d6000803e3d6000fd5b505050506040513d601f19601f82011682018060405250810190612e2191906137fb565b600281905550600160009054906101000a900473ffffffffffffffffffffffffffffffffffffffff1673ffffffffffffffffffffffffffffffffffffffff166305caa0ff60016040518263ffffffff1660e01b8152600401612e839190613dfb565b602060405180830381600087803b158015612e9d57600080fd5b505af1158015612eb1573d6000803e3d6000fd5b505050506040513d601f19601f82011682018060405250810190612ed591906137fb565b600381905550600160009054906101000a900473ffffffffffffffffffffffffffffffffffffffff1673ffffffffffffffffffffffffffffffffffffffff1663a22cb4653360016040518363ffffffff1660e01b8152600401612f39929190613cbf565b600060405180830381600087803b158015612f5357600080fd5b505af1158015612f67573d6000803e3d6000fd5b50505050600160009054906101000a900473ffffffffffffffffffffffffffffffffffffffff1673ffffffffffffffffffffffffffffffffffffffff16630f7fa72f336002546040518363ffffffff1660e01b8152600401612fca929190613d18565b602060405180830381600087803b158015612fe457600080fd5b505af1158015612ff8573d6000803e3d6000fd5b505050506040513d601f19601f8201168201806040525081019061301c9190613768565b5050565b600061302a61346b565b73ffffffffffffffffffffffffffffffffffffffff16613048611f73565b73ffffffffffffffffffffffffffffffffffffffff161461309e576040517f08c379a000000000000000000000000000000000000000000000000000000000815260040161309590613f0c565b60405180910390fd5b600160009054906101000a900473ffffffffffffffffffffffffffffffffffffffff1673ffffffffffffffffffffffffffffffffffffffff166398b4ad6f84600254856040518463ffffffff1660e01b81526004016130ff93929190613d86565b602060405180830381600087803b15801561311957600080fd5b505af115801561312d573d6000803e3d6000fd5b505050506040513d601f19601f8201168201806040525081019061315191906137fb565b905092915050565b600560009054906101000a900473ffffffffffffffffffffffffffffffffffffffff1673ffffffffffffffffffffffffffffffffffffffff1663e8eda9df73eeeeeeeeeeeeeeeeeeeeeeeeeeeeeeeeeeeeeeee833060006040518563ffffffff1660e01b81526004016131cf9493929190613d41565b600060405180830381600087803b1580156131e957600080fd5b505af11580156131fd573d6000803e3d6000fd5b5050505050565b61320c61346b565b73ffffffffffffffffffffffffffffffffffffffff1661322a611f73565b73ffffffffffffffffffffffffffffffffffffffff1614613280576040517f08c379a000000000000000000000000000000000000000000000000000000000815260040161327790613f0c565b60405180910390fd5b600073ffffffffffffffffffffffffffffffffffffffff168173ffffffffffffffffffffffffffffffffffffffff1614156132f0576040517f08c379a00000000000000000000000000000000000000000000000000000000081526004016132e790613e8c565b60405180910390fd5b6132f981613473565b50565b600160009054906101000a900473ffffffffffffffffffffffffffffffffffffffff1673ffffffffffffffffffffffffffffffffffffffff1663f242432a3384600454856040518563ffffffff1660e01b815260040161335f9493929190613c67565b600060405180830381600087803b15801561337957600080fd5b505af115801561338d573d6000803e3d6000fd5b505050505050565b60008060086000848152602001908152602001600020541461343a5760006008600084815260200190815260200160002054426133d291906141d6565b90506000600a6133ec60018461345590919063ffffffff16565b1161340a5761340560018361345590919063ffffffff16565b61340d565b600a5b905061343581600760008781526020019081526020016000205461353790919063ffffffff16565b925050505b919050565b6000818361344d91906140f5565b905092915050565b60008183613463919061414b565b905092915050565b600033905090565b60008060009054906101000a900473ffffffffffffffffffffffffffffffffffffffff169050816000806101000a81548173ffffffffffffffffffffffffffffffffffffffff021916908373ffffffffffffffffffffffffffffffffffffffff1602179055508173ffffffffffffffffffffffffffffffffffffffff168173ffffffffffffffffffffffffffffffffffffffff167f8be0079c531659141344cd1fd0a4f28419497f9722a3daafe3b4186f6b6457e060405160405180910390a35050565b60008183613545919061417c565b905092915050565b600061356061355b8461408c565b614067565b90508281526020810184848401111561357857600080fd5b6135838482856142c4565b509392505050565b600061359e6135998461408c565b614067565b9050828152602081018484840111156135b657600080fd5b6135c18482856142d3565b509392505050565b6000813590506135d8816146de565b92915050565b6000815190506135ed816146de565b92915050565b600081519050613602816146f5565b92915050565b600082601f83011261361957600080fd5b813561362984826020860161354d565b91505092915050565b600082601f83011261364357600080fd5b815161365384826020860161358b565b91505092915050565b60008135905061366b8161470c565b92915050565b6000815190506136808161470c565b92915050565b60006020828403121561369857600080fd5b60006136a6848285016135c9565b91505092915050565b6000602082840312156136c157600080fd5b60006136cf848285016135de565b91505092915050565b600080604083850312156136eb57600080fd5b60006136f9858286016135c9565b925050602083013567ffffffffffffffff81111561371657600080fd5b61372285828601613608565b9150509250929050565b6000806040838503121561373f57600080fd5b600061374d858286016135c9565b925050602061375e8582860161365c565b9150509250929050565b60006020828403121561377a57600080fd5b6000613788848285016135f3565b91505092915050565b6000602082840312156137a357600080fd5b600082015167ffffffffffffffff8111156137bd57600080fd5b6137c984828501613632565b91505092915050565b6000602082840312156137e457600080fd5b60006137f28482850161365c565b91505092915050565b60006020828403121561380d57600080fd5b600061381b84828501613671565b91505092915050565b60008060006060848603121561383957600080fd5b60006138478682870161365c565b93505060206138588682870161365c565b92505060406138698682870161365c565b9150509250925092565b61387c8161420a565b82525050565b61388b8161421c565b82525050565b61389a81614228565b82525050565b6138a98161426a565b82525050565b6138b88161428e565b82525050565b6138c7816142a0565b82525050565b6138d6816142b2565b82525050565b60006138e7826140bd565b6138f181856140d9565b93506139018185602086016142d3565b61390a81614417565b840191505092915050565b60006139226017836140d9565b915061392d82614428565b602082019050919050565b60006139456015836140d9565b915061395082614451565b602082019050919050565b60006139686026836140d9565b91506139738261447a565b604082019050919050565b600061398b6008836140ea565b9150613996826144c9565b600882019050919050565b60006139ae6016836140d9565b91506139b9826144f2565b602082019050919050565b60006139d16016836140d9565b91506139dc8261451b565b602082019050919050565b60006139f46016836140d9565b91506139ff82614544565b602082019050919050565b6000613a176001836140ea565b9150613a228261456d565b600182019050919050565b6000613a3a6020836140d9565b9150613a4582614596565b602082019050919050565b6000613a5d6015836140d9565b9150613a68826145bf565b602082019050919050565b6000613a806023836140d9565b9150613a8b826145e8565b604082019050919050565b6000613aa3601e836140d9565b9150613aae82614637565b602082019050919050565b6000613ac66000836140c8565b9150613ad182614660565b600082019050919050565b6000613ae9600e836140d9565b9150613af482614663565b602082019050919050565b6000613b0c6020836140d9565b9150613b178261468c565b602082019050919050565b6000613b2f601a836140d9565b9150613b3a826146b5565b602082019050919050565b613b4e81614260565b82525050565b613b65613b6082614260565b614380565b82525050565b6000613b768261397e565b9150613b828284613b54565b602082019150613b9182613a0a565b915081905092915050565b6000602082019050613bb16000830184613873565b92915050565b600060a082019050613bcc6000830187613873565b613bd96020830186613873565b613be66040830185613b45565b613bf360608301846138be565b8181036080830152613c0481613ab9565b905095945050505050565b600060a082019050613c246000830187613873565b613c316020830186613873565b613c3e6040830185613b45565b613c4b60608301846138cd565b8181036080830152613c5c81613ab9565b905095945050505050565b600060a082019050613c7c6000830187613873565b613c896020830186613873565b613c966040830185613b45565b613ca36060830184613b45565b8181036080830152613cb481613ab9565b905095945050505050565b6000604082019050613cd46000830185613873565b613ce16020830184613882565b9392505050565b6000604082019050613cfd6000830185613873565b8181036020830152613d0f81846138dc565b90509392505050565b6000604082019050613d2d6000830185613873565b613d3a6020830184613b45565b9392505050565b6000608082019050613d566000830187613873565b613d636020830186613b45565b613d706040830185613873565b613d7d60608301846138af565b95945050505050565b6000606082019050613d9b6000830186613873565b613da86020830185613b45565b8181036040830152613dba81846138dc565b9050949350505050565b6000606082019050613dd96000830186613873565b613de66020830185613b45565b613df36040830184613b45565b949350505050565b6000602082019050613e106000830184613882565b92915050565b6000602082019050613e2b6000830184613891565b92915050565b6000602082019050613e4660008301846138a0565b92915050565b60006020820190508181036000830152613e6581613915565b9050919050565b60006020820190508181036000830152613e8581613938565b9050919050565b60006020820190508181036000830152613ea58161395b565b9050919050565b60006020820190508181036000830152613ec5816139a1565b9050919050565b60006020820190508181036000830152613ee5816139c4565b9050919050565b60006020820190508181036000830152613f05816139e7565b9050919050565b60006020820190508181036000830152613f2581613a2d565b9050919050565b60006020820190508181036000830152613f4581613a50565b9050919050565b60006020820190508181036000830152613f6581613a73565b9050919050565b60006020820190508181036000830152613f8581613a96565b9050919050565b60006020820190508181036000830152613fa581613adc565b9050919050565b60006020820190508181036000830152613fc581613aff565b9050919050565b60006020820190508181036000830152613fe581613b22565b9050919050565b60006020820190506140016000830184613b45565b92915050565b600060408201905061401c6000830185613b45565b6140296020830184613873565b9392505050565b60006060820190506140456000830186613b45565b6140526020830185613873565b61405f6040830184613b45565b949350505050565b6000614071614082565b905061407d8282614306565b919050565b6000604051905090565b600067ffffffffffffffff8211156140a7576140a66143e8565b5b6140b082614417565b9050602081019050919050565b600081519050919050565b600082825260208201905092915050565b600082825260208201905092915050565b600081905092915050565b600061410082614260565b915061410b83614260565b9250827fffffffffffffffffffffffffffffffffffffffffffffffffffffffffffffffff038211156141405761413f61438a565b5b828201905092915050565b600061415682614260565b915061416183614260565b925082614171576141706143b9565b5b828204905092915050565b600061418782614260565b915061419283614260565b9250817fffffffffffffffffffffffffffffffffffffffffffffffffffffffffffffffff04831182151516156141cb576141ca61438a565b5b828202905092915050565b60006141e182614260565b91506141ec83614260565b9250828210156141ff576141fe61438a565b5b828203905092915050565b600061421582614240565b9050919050565b60008115159050919050565b6000819050919050565b600061ffff82169050919050565b600073ffffffffffffffffffffffffffffffffffffffff82169050919050565b6000819050919050565b60006142758261427c565b9050919050565b600061428782614240565b9050919050565b600061429982614232565b9050919050565b60006142ab82614260565b9050919050565b60006142bd82614260565b9050919050565b82818337600083830152505050565b60005b838110156142f15780820151818401526020810190506142d6565b83811115614300576000848401525b50505050565b61430f82614417565b810181811067ffffffffffffffff8211171561432e5761432d6143e8565b5b80604052505050565b600061434282614260565b91507fffffffffffffffffffffffffffffffffffffffffffffffffffffffffffffffff8214156143755761437461438a565b5b600182019050919050565b6000819050919050565b7f4e487b7100000000000000000000000000000000000000000000000000000000600052601160045260246000fd5b7f4e487b7100000000000000000000000000000000000000000000000000000000600052601260045260246000fd5b7f4e487b7100000000000000000000000000000000000000000000000000000000600052604160045260246000fd5b6000601f19601f8301169050919050565b7f4d697373696f6e20636f737420697320746f6f206c6f77000000000000000000600082015250565b7f506c616e657420646f6573206e6f742065786973740000000000000000000000600082015250565b7f4f776e61626c653a206e6577206f776e657220697320746865207a65726f206160008201527f6464726573730000000000000000000000000000000000000000000000000000602082015250565b7f7b706c616e65743a000000000000000000000000000000000000000000000000600082015250565b7f526f636b6574206973206e6f74206120726f636b657400000000000000000000600082015250565b7f41747461636b6572206973206e6f742073656e64657200000000000000000000600082015250565b7f506c616e6574206973206e6f74206120706c616e657400000000000000000000600082015250565b7f7d00000000000000000000000000000000000000000000000000000000000000600082015250565b7f4f776e61626c653a2063616c6c6572206973206e6f7420746865206f776e6572600082015250565b7f526f636b657420646f6573206e6f742065786973740000000000000000000000600082015250565b7f53656e64657220646f6573206e6f74206861766520656e6f7567682062616c6160008201527f6e63650000000000000000000000000000000000000000000000000000000000602082015250565b7f4e6f207374616b696e6720616d6f756e74206973206d656e74696f6e65640000600082015250565b50565b7f496e76616c6964206e756b654964000000000000000000000000000000000000600082015250565b7f41747461636b2068617320616c7265616479206265656e207265736f6c766564600082015250565b7f41747461636b206e6f742066696e616c697a61626c6520796574000000000000600082015250565b6146e78161420a565b81146146f257600080fd5b50565b6146fe8161421c565b811461470957600080fd5b50565b61471581614260565b811461472057600080fd5b5056fea2646970667358221220c7a8b6fc7ad47de741febd07b2816c215469c206d27bb02cd78fa36b348e3a3164736f6c63430008040033",
  "linkReferences": {},
  "deployedLinkReferences": {}
}