{
  "_format": "hh-sol-artifact-1",
  "contractName": "SpaceMafia",
  "sourceName": "contracts/SpaceMafia.sol",
  "abi": [
    {
      "inputs": [
        {
          "internalType": "address",
          "name": "_galaxyToken",
          "type": "address"
        }
      ],
      "stateMutability": "nonpayable",
      "type": "constructor"
    },
    {
      "anonymous": false,
      "inputs": [
        {
          "indexed": true,
          "internalType": "address",
          "name": "previousOwner",
          "type": "address"
        },
        {
          "indexed": true,
          "internalType": "address",
          "name": "newOwner",
          "type": "address"
        }
      ],
      "name": "OwnershipTransferred",
      "type": "event"
    },
    {
      "inputs": [
        {
          "internalType": "uint256",
          "name": "_tokenId",
          "type": "uint256"
        }
      ],
      "name": "claimDividends",
      "outputs": [
        {
          "internalType": "uint256",
          "name": "",
          "type": "uint256"
        }
      ],
      "stateMutability": "nonpayable",
      "type": "function"
    },
    {
      "inputs": [
        {
          "internalType": "uint256",
          "name": "_tokenId",
          "type": "uint256"
        }
      ],
      "name": "claimableDividends",
      "outputs": [
        {
          "internalType": "uint256",
          "name": "",
          "type": "uint256"
        }
      ],
      "stateMutability": "view",
      "type": "function"
    },
    {
      "inputs": [
        {
          "internalType": "uint256",
          "name": "_nukeId",
          "type": "uint256"
        }
      ],
      "name": "completeAttack",
      "outputs": [
        {
          "internalType": "bool",
          "name": "",
          "type": "bool"
        }
      ],
      "stateMutability": "nonpayable",
      "type": "function"
    },
    {
      "inputs": [
        {
          "internalType": "uint256",
          "name": "_nukeId",
          "type": "uint256"
        }
      ],
      "name": "defenseProbability",
      "outputs": [
        {
          "internalType": "uint256",
          "name": "",
          "type": "uint256"
        }
      ],
      "stateMutability": "view",
      "type": "function"
    },
    {
      "inputs": [
        {
          "internalType": "uint256",
          "name": "amount",
          "type": "uint256"
        }
      ],
      "name": "depositInAAVE",
      "outputs": [],
      "stateMutability": "payable",
      "type": "function"
    },
    {
      "inputs": [],
      "name": "galaxyToken",
      "outputs": [
        {
          "internalType": "contract GalaxyToken",
          "name": "",
          "type": "address"
        }
      ],
      "stateMutability": "view",
      "type": "function"
    },
    {
      "inputs": [],
      "name": "lendingpool",
      "outputs": [
        {
          "internalType": "address",
          "name": "",
          "type": "address"
        }
      ],
      "stateMutability": "view",
      "type": "function"
    },
    {
      "inputs": [],
      "name": "mafiaToken",
      "outputs": [
        {
          "internalType": "uint256",
          "name": "",
          "type": "uint256"
        }
      ],
      "stateMutability": "view",
      "type": "function"
    },
    {
      "inputs": [
        {
          "internalType": "address",
          "name": "_account",
          "type": "address"
        },
        {
          "internalType": "string",
          "name": "_tokenURI",
          "type": "string"
        }
      ],
      "name": "mintPlanet",
      "outputs": [
        {
          "internalType": "uint256",
          "name": "_id",
          "type": "uint256"
        }
      ],
      "stateMutability": "nonpayable",
      "type": "function"
    },
    {
      "inputs": [
        {
          "internalType": "uint256",
          "name": "_planetId",
          "type": "uint256"
        }
      ],
      "name": "mintRocket",
      "outputs": [
        {
          "internalType": "uint256",
          "name": "_id",
          "type": "uint256"
        }
      ],
      "stateMutability": "nonpayable",
      "type": "function"
    },
    {
      "inputs": [
        {
          "internalType": "uint256",
          "name": "_planetId",
          "type": "uint256"
        },
        {
          "internalType": "uint256",
          "name": "_rocketId",
          "type": "uint256"
        },
        {
          "internalType": "uint256",
          "name": "_missionCost",
          "type": "uint256"
        }
      ],
      "name": "nuke",
      "outputs": [
        {
          "internalType": "uint256",
          "name": "",
          "type": "uint256"
        }
      ],
      "stateMutability": "nonpayable",
      "type": "function"
    },
    {
      "inputs": [],
      "name": "nukeCount",
      "outputs": [
        {
          "internalType": "uint256",
          "name": "",
          "type": "uint256"
        }
      ],
      "stateMutability": "view",
      "type": "function"
    },
    {
      "inputs": [],
      "name": "owner",
      "outputs": [
        {
          "internalType": "address",
          "name": "",
          "type": "address"
        }
      ],
      "stateMutability": "view",
      "type": "function"
    },
    {
      "inputs": [],
      "name": "planetType",
      "outputs": [
        {
          "internalType": "uint256",
          "name": "",
          "type": "uint256"
        }
      ],
      "stateMutability": "view",
      "type": "function"
    },
    {
      "inputs": [],
      "name": "renounceOwnership",
      "outputs": [],
      "stateMutability": "nonpayable",
      "type": "function"
    },
    {
      "inputs": [],
      "name": "rocketType",
      "outputs": [
        {
          "internalType": "uint256",
          "name": "",
          "type": "uint256"
        }
      ],
      "stateMutability": "view",
      "type": "function"
    },
    {
      "inputs": [
        {
          "internalType": "uint256",
          "name": "_tokenId",
          "type": "uint256"
        }
      ],
      "name": "stakeEthOnPlanet",
      "outputs": [
        {
          "internalType": "bool",
          "name": "",
          "type": "bool"
        }
      ],
      "stateMutability": "payable",
      "type": "function"
    },
    {
      "inputs": [
        {
          "internalType": "address",
          "name": "newOwner",
          "type": "address"
        }
      ],
      "name": "transferOwnership",
      "outputs": [],
      "stateMutability": "nonpayable",
      "type": "function"
    }
  ],
  "bytecode": "0x60806040523480156200001157600080fd5b5060405162003d4638038062003d4683398181016040528101906200003791906200049d565b620000576200004b620003a360201b60201c565b620003ab60201b60201c565b80600160006101000a81548173ffffffffffffffffffffffffffffffffffffffff021916908373ffffffffffffffffffffffffffffffffffffffff160217905550600160009054906101000a900473ffffffffffffffffffffffffffffffffffffffff1673ffffffffffffffffffffffffffffffffffffffff166305caa0ff60006040518263ffffffff1660e01b8152600401620000f6919062000506565b602060405180830381600087803b1580156200011157600080fd5b505af115801562000126573d6000803e3d6000fd5b505050506040513d601f19601f820116820180604052508101906200014c9190620004c9565b600481905550600160009054906101000a900473ffffffffffffffffffffffffffffffffffffffff1673ffffffffffffffffffffffffffffffffffffffff166305caa0ff60016040518263ffffffff1660e01b8152600401620001b0919062000506565b602060405180830381600087803b158015620001cb57600080fd5b505af1158015620001e0573d6000803e3d6000fd5b505050506040513d601f19601f82011682018060405250810190620002069190620004c9565b600281905550600160009054906101000a900473ffffffffffffffffffffffffffffffffffffffff1673ffffffffffffffffffffffffffffffffffffffff166305caa0ff60016040518263ffffffff1660e01b81526004016200026a919062000506565b602060405180830381600087803b1580156200028557600080fd5b505af11580156200029a573d6000803e3d6000fd5b505050506040513d601f19601f82011682018060405250810190620002c09190620004c9565b6003819055507324a42fd28c976a61df5d00d0599c34c4f90748c873ffffffffffffffffffffffffffffffffffffffff16630261bf8b6040518163ffffffff1660e01b815260040160206040518083038186803b1580156200032157600080fd5b505afa15801562000336573d6000803e3d6000fd5b505050506040513d601f19601f820116820180604052508101906200035c91906200049d565b600560006101000a81548173ffffffffffffffffffffffffffffffffffffffff021916908373ffffffffffffffffffffffffffffffffffffffff16021790555050620005a1565b600033905090565b60008060009054906101000a900473ffffffffffffffffffffffffffffffffffffffff169050816000806101000a81548173ffffffffffffffffffffffffffffffffffffffff021916908373ffffffffffffffffffffffffffffffffffffffff1602179055508173ffffffffffffffffffffffffffffffffffffffff168173ffffffffffffffffffffffffffffffffffffffff167f8be0079c531659141344cd1fd0a4f28419497f9722a3daafe3b4186f6b6457e060405160405180910390a35050565b60008151905062000480816200056d565b92915050565b600081519050620004978162000587565b92915050565b600060208284031215620004b057600080fd5b6000620004c0848285016200046f565b91505092915050565b600060208284031215620004dc57600080fd5b6000620004ec8482850162000486565b91505092915050565b620005008162000537565b82525050565b60006020820190506200051d6000830184620004f5565b92915050565b6000620005308262000543565b9050919050565b60008115159050919050565b600073ffffffffffffffffffffffffffffffffffffffff82169050919050565b6000819050919050565b620005788162000523565b81146200058457600080fd5b50565b620005928162000563565b81146200059e57600080fd5b50565b61379580620005b16000396000f3fe6080604052600436106101085760003560e01c80638da5cb5b11610095578063bd7047c411610064578063bd7047c414610387578063c496d708146103c4578063c9c9a9f2146103ef578063f1288a8d1461042c578063f2fde38b1461044857610108565b80638da5cb5b146102b75780639d5dc416146102e2578063b5bab0531461031f578063b8aa6f021461035c57610108565b806360c92db4116100dc57806360c92db4146101ef5780636f21de4d1461021a578063715018a6146102455780637328fd731461025c5780638a0a866a1461028757610108565b8062d36f921461010d5780632b8f107d1461014a5780633d48f9821461018757806360a138ed146101b2575b600080fd5b34801561011957600080fd5b50610134600480360381019061012f91906128e0565b610471565b604051610141919061303a565b60405180910390f35b34801561015657600080fd5b50610171600480360381019061016c9190612932565b610809565b60405161017e919061303a565b60405180910390f35b34801561019357600080fd5b5061019c610fc3565b6040516101a9919061303a565b60405180910390f35b3480156101be57600080fd5b506101d960048036038101906101d491906128e0565b610fc9565b6040516101e69190612e49565b60405180910390f35b3480156101fb57600080fd5b506102046114cd565b604051610211919061303a565b60405180910390f35b34801561022657600080fd5b5061022f6114d3565b60405161023c919061303a565b60405180910390f35b34801561025157600080fd5b5061025a6114d9565b005b34801561026857600080fd5b50610271611561565b60405161027e9190612e7f565b60405180910390f35b6102a1600480360381019061029c91906128e0565b611587565b6040516102ae9190612e49565b60405180910390f35b3480156102c357600080fd5b506102cc611988565b6040516102d99190612c9b565b60405180910390f35b3480156102ee57600080fd5b50610309600480360381019061030491906128e0565b6119b1565b604051610316919061303a565b60405180910390f35b34801561032b57600080fd5b50610346600480360381019061034191906128e0565b611b1c565b604051610353919061303a565b60405180910390f35b34801561036857600080fd5b50610371611e5a565b60405161037e919061303a565b60405180910390f35b34801561039357600080fd5b506103ae60048036038101906103a991906128e0565b611e60565b6040516103bb919061303a565b60405180910390f35b3480156103d057600080fd5b506103d9612286565b6040516103e69190612c9b565b60405180910390f35b3480156103fb57600080fd5b5061041660048036038101906104119190612863565b6122ac565b604051610423919061303a565b60405180910390f35b610446600480360381019061044191906128e0565b6123e5565b005b34801561045457600080fd5b5061046f600480360381019061046a9190612811565b612490565b005b600081600073ffffffffffffffffffffffffffffffffffffffff16600160009054906101000a900473ffffffffffffffffffffffffffffffffffffffff1673ffffffffffffffffffffffffffffffffffffffff16633fa9f7f3836040518263ffffffff1660e01b81526004016104e7919061303a565b60206040518083038186803b1580156104ff57600080fd5b505afa158015610513573d6000803e3d6000fd5b505050506040513d601f19601f82011682018060405250810190610537919061283a565b73ffffffffffffffffffffffffffffffffffffffff16141561058e576040517f08c379a000000000000000000000000000000000000000000000000000000000815260040161058590612eba565b60405180910390fd5b600254600160009054906101000a900473ffffffffffffffffffffffffffffffffffffffff1673ffffffffffffffffffffffffffffffffffffffff1663e4b5b61a836040518263ffffffff1660e01b81526004016105ec919061303a565b60206040518083038186803b15801561060457600080fd5b505afa158015610618573d6000803e3d6000fd5b505050506040513d601f19601f8201168201806040525081019061063c9190612909565b1461067c576040517f08c379a000000000000000000000000000000000000000000000000000000000815260040161067390612f3a565b60405180910390fd5b6000600160009054906101000a900473ffffffffffffffffffffffffffffffffffffffff1673ffffffffffffffffffffffffffffffffffffffff16633fa9f7f3856040518263ffffffff1660e01b81526004016106d9919061303a565b60206040518083038186803b1580156106f157600080fd5b505afa158015610705573d6000803e3d6000fd5b505050506040513d601f19601f82011682018060405250810190610729919061283a565b90506000600160009054906101000a900473ffffffffffffffffffffffffffffffffffffffff1673ffffffffffffffffffffffffffffffffffffffff166379b8d938836004546040518363ffffffff1660e01b815260040161078c929190612d66565b60206040518083038186803b1580156107a457600080fd5b505afa1580156107b8573d6000803e3d6000fd5b505050506040513d601f19601f820116820180604052508101906107dc9190612909565b905060006107e986612588565b90506107fe818361263290919063ffffffff16565b945050505050919050565b600083600073ffffffffffffffffffffffffffffffffffffffff16600160009054906101000a900473ffffffffffffffffffffffffffffffffffffffff1673ffffffffffffffffffffffffffffffffffffffff16633fa9f7f3836040518263ffffffff1660e01b815260040161087f919061303a565b60206040518083038186803b15801561089757600080fd5b505afa1580156108ab573d6000803e3d6000fd5b505050506040513d601f19601f820116820180604052508101906108cf919061283a565b73ffffffffffffffffffffffffffffffffffffffff161415610926576040517f08c379a000000000000000000000000000000000000000000000000000000000815260040161091d90612eba565b60405180910390fd5b600254600160009054906101000a900473ffffffffffffffffffffffffffffffffffffffff1673ffffffffffffffffffffffffffffffffffffffff1663e4b5b61a836040518263ffffffff1660e01b8152600401610984919061303a565b60206040518083038186803b15801561099c57600080fd5b505afa1580156109b0573d6000803e3d6000fd5b505050506040513d601f19601f820116820180604052508101906109d49190612909565b14610a14576040517f08c379a0000000000000000000000000000000000000000000000000000000008152600401610a0b90612f3a565b60405180910390fd5b83600073ffffffffffffffffffffffffffffffffffffffff16600160009054906101000a900473ffffffffffffffffffffffffffffffffffffffff1673ffffffffffffffffffffffffffffffffffffffff16633fa9f7f3836040518263ffffffff1660e01b8152600401610a88919061303a565b60206040518083038186803b158015610aa057600080fd5b505afa158015610ab4573d6000803e3d6000fd5b505050506040513d601f19601f82011682018060405250810190610ad8919061283a565b73ffffffffffffffffffffffffffffffffffffffff161415610b2f576040517f08c379a0000000000000000000000000000000000000000000000000000000008152600401610b2690612f7a565b60405180910390fd5b600354600160009054906101000a900473ffffffffffffffffffffffffffffffffffffffff1673ffffffffffffffffffffffffffffffffffffffff1663e4b5b61a836040518263ffffffff1660e01b8152600401610b8d919061303a565b60206040518083038186803b158015610ba557600080fd5b505afa158015610bb9573d6000803e3d6000fd5b505050506040513d601f19601f82011682018060405250810190610bdd9190612909565b14610c1d576040517f08c379a0000000000000000000000000000000000000000000000000000000008152600401610c1490612efa565b60405180910390fd5b6000600160009054906101000a900473ffffffffffffffffffffffffffffffffffffffff1673ffffffffffffffffffffffffffffffffffffffff16633fa9f7f3876040518263ffffffff1660e01b8152600401610c7a919061303a565b60206040518083038186803b158015610c9257600080fd5b505afa158015610ca6573d6000803e3d6000fd5b505050506040513d601f19601f82011682018060405250810190610cca919061283a565b90503373ffffffffffffffffffffffffffffffffffffffff168173ffffffffffffffffffffffffffffffffffffffff1614610d3a576040517f08c379a0000000000000000000000000000000000000000000000000000000008152600401610d3190612f1a565b60405180910390fd5b670de0b6b3a7640000851015610d85576040517f08c379a0000000000000000000000000000000000000000000000000000000008152600401610d7c90612e9a565b60405180910390fd5b84600160009054906101000a900473ffffffffffffffffffffffffffffffffffffffff1673ffffffffffffffffffffffffffffffffffffffff1662fdd58e336004546040518363ffffffff1660e01b8152600401610de4929190612d66565b60206040518083038186803b158015610dfc57600080fd5b505afa158015610e10573d6000803e3d6000fd5b505050506040513d601f19601f82011682018060405250810190610e349190612909565b1015610e75576040517f08c379a0000000000000000000000000000000000000000000000000000000008152600401610e6c90612f9a565b60405180910390fd5b6040518060a00160405280868152602001878152602001888152602001601443610e9f9190613143565b8152602001600015158152506009600060065481526020019081526020016000206000820151816000015560208201518160010155604082015181600201556060820151816003015560808201518160040160006101000a81548160ff021916908315150217905550905050600160009054906101000a900473ffffffffffffffffffffffffffffffffffffffff1673ffffffffffffffffffffffffffffffffffffffff1663f242432a3330600454896040518563ffffffff1660e01b8152600401610f6e9493929190612d0e565b600060405180830381600087803b158015610f8857600080fd5b505af1158015610f9c573d6000803e3d6000fd5b5050505060066000815480929190610fb390613373565b9190505593505050509392505050565b60065481565b600080610fd5836119b1565b90506000600960008581526020019081526020016000209050600081600301549050804311611039576040517f08c379a00000000000000000000000000000000000000000000000000000000081526004016110309061301a565b60405180910390fd5b600061108970010000000000000000000000000000000083406040516020016110629190612e64565b6040516020818303038152906040528051906020012060001c61264890919063ffffffff16565b9050838111611209576000600160009054906101000a900473ffffffffffffffffffffffffffffffffffffffff1673ffffffffffffffffffffffffffffffffffffffff16633fa9f7f385600201546040518263ffffffff1660e01b81526004016110f3919061303a565b60206040518083038186803b15801561110b57600080fd5b505afa15801561111f573d6000803e3d6000fd5b505050506040513d601f19601f82011682018060405250810190611143919061283a565b9050600160009054906101000a900473ffffffffffffffffffffffffffffffffffffffff1673ffffffffffffffffffffffffffffffffffffffff1663f242432a308360045488600001546040518563ffffffff1660e01b81526004016111ac9493929190612d0e565b600060405180830381600087803b1580156111c657600080fd5b505af11580156111da573d6000803e3d6000fd5b5050505060018460040160006101000a81548160ff0219169083151502179055506000955050505050506114c8565b6000600160009054906101000a900473ffffffffffffffffffffffffffffffffffffffff1673ffffffffffffffffffffffffffffffffffffffff16633fa9f7f385600201546040518263ffffffff1660e01b815260040161126a919061303a565b60206040518083038186803b15801561128257600080fd5b505afa158015611296573d6000803e3d6000fd5b505050506040513d601f19601f820116820180604052508101906112ba919061283a565b90506000600160009054906101000a900473ffffffffffffffffffffffffffffffffffffffff1673ffffffffffffffffffffffffffffffffffffffff16633fa9f7f386600101546040518263ffffffff1660e01b815260040161131d919061303a565b60206040518083038186803b15801561133557600080fd5b505afa158015611349573d6000803e3d6000fd5b505050506040513d601f19601f8201168201806040525081019061136d919061283a565b9050600160009054906101000a900473ffffffffffffffffffffffffffffffffffffffff1673ffffffffffffffffffffffffffffffffffffffff1663f242432a308360045489600001546040518563ffffffff1660e01b81526004016113d69493929190612d0e565b600060405180830381600087803b1580156113f057600080fd5b505af1158015611404573d6000803e3d6000fd5b50505050600160009054906101000a900473ffffffffffffffffffffffffffffffffffffffff1673ffffffffffffffffffffffffffffffffffffffff1663f242432a8383886002015460006040518563ffffffff1660e01b815260040161146e9493929190612cb6565b600060405180830381600087803b15801561148857600080fd5b505af115801561149c573d6000803e3d6000fd5b5050505060018560040160006101000a81548160ff021916908315150217905550600196505050505050505b919050565b60025481565b60045481565b6114e161265e565b73ffffffffffffffffffffffffffffffffffffffff166114ff611988565b73ffffffffffffffffffffffffffffffffffffffff1614611555576040517f08c379a000000000000000000000000000000000000000000000000000000000815260040161154c90612f5a565b60405180910390fd5b61155f6000612666565b565b600160009054906101000a900473ffffffffffffffffffffffffffffffffffffffff1681565b600081600073ffffffffffffffffffffffffffffffffffffffff16600160009054906101000a900473ffffffffffffffffffffffffffffffffffffffff1673ffffffffffffffffffffffffffffffffffffffff16633fa9f7f3836040518263ffffffff1660e01b81526004016115fd919061303a565b60206040518083038186803b15801561161557600080fd5b505afa158015611629573d6000803e3d6000fd5b505050506040513d601f19601f8201168201806040525081019061164d919061283a565b73ffffffffffffffffffffffffffffffffffffffff1614156116a4576040517f08c379a000000000000000000000000000000000000000000000000000000000815260040161169b90612eba565b60405180910390fd5b600254600160009054906101000a900473ffffffffffffffffffffffffffffffffffffffff1673ffffffffffffffffffffffffffffffffffffffff1663e4b5b61a836040518263ffffffff1660e01b8152600401611702919061303a565b60206040518083038186803b15801561171a57600080fd5b505afa15801561172e573d6000803e3d6000fd5b505050506040513d601f19601f820116820180604052508101906117529190612909565b14611792576040517f08c379a000000000000000000000000000000000000000000000000000000000815260040161178990612f3a565b60405180910390fd5b600034116117d5576040517f08c379a00000000000000000000000000000000000000000000000000000000081526004016117cc90612fba565b60405180910390fd5b6000600160009054906101000a900473ffffffffffffffffffffffffffffffffffffffff1673ffffffffffffffffffffffffffffffffffffffff16633fa9f7f3856040518263ffffffff1660e01b8152600401611832919061303a565b60206040518083038186803b15801561184a57600080fd5b505afa15801561185e573d6000803e3d6000fd5b505050506040513d601f19601f82011682018060405250810190611882919061283a565b9050600160009054906101000a900473ffffffffffffffffffffffffffffffffffffffff1673ffffffffffffffffffffffffffffffffffffffff1663a1eb7001600454836118cf88612588565b6040518463ffffffff1660e01b81526004016118ed9392919061307e565b600060405180830381600087803b15801561190757600080fd5b505af115801561191b573d6000803e3d6000fd5b5050505061194534600760008781526020019081526020016000205461263290919063ffffffff16565b6007600086815260200190815260200160002081905550611965346123e5565b426008600086815260200190815260200160002081905550600192505050919050565b60008060009054906101000a900473ffffffffffffffffffffffffffffffffffffffff16905090565b600060065482106119f7576040517f08c379a00000000000000000000000000000000000000000000000000000000081526004016119ee90612fda565b60405180910390fd5b60006009600084815260200190815260200160002090508060040160009054906101000a900460ff1615611a60576040517f08c379a0000000000000000000000000000000000000000000000000000000008152600401611a5790612ffa565b60405180910390fd5b6000611aaa670de0b6b3a7640000611a9c846000015460076000876002015481526020019081526020016000205461263290919063ffffffff16565b61263290919063ffffffff16565b9050611b1381611b05700100000000000000000000000000000000611af7670de0b6b3a764000060076000896002015481526020019081526020016000205461263290919063ffffffff16565b61272a90919063ffffffff16565b61264890919063ffffffff16565b92505050919050565b600080600160009054906101000a900473ffffffffffffffffffffffffffffffffffffffff1673ffffffffffffffffffffffffffffffffffffffff16633fa9f7f3846040518263ffffffff1660e01b8152600401611b7a919061303a565b60206040518083038186803b158015611b9257600080fd5b505afa158015611ba6573d6000803e3d6000fd5b505050506040513d601f19601f82011682018060405250810190611bca919061283a565b9050670de0b6b3a7640000600160009054906101000a900473ffffffffffffffffffffffffffffffffffffffff1673ffffffffffffffffffffffffffffffffffffffff1662fdd58e336004546040518363ffffffff1660e01b8152600401611c33929190612d66565b60206040518083038186803b158015611c4b57600080fd5b505afa158015611c5f573d6000803e3d6000fd5b505050506040513d601f19601f82011682018060405250810190611c839190612909565b1015611cc4576040517f08c379a0000000000000000000000000000000000000000000000000000000008152600401611cbb90612f9a565b60405180910390fd5b600160009054906101000a900473ffffffffffffffffffffffffffffffffffffffff1673ffffffffffffffffffffffffffffffffffffffff1663717b7f3633600454670de0b6b3a76400006040518463ffffffff1660e01b8152600401611d2d93929190612e12565b602060405180830381600087803b158015611d4757600080fd5b505af1158015611d5b573d6000803e3d6000fd5b505050506040513d601f19601f82011682018060405250810190611d7f91906128b7565b50600160009054906101000a900473ffffffffffffffffffffffffffffffffffffffff1673ffffffffffffffffffffffffffffffffffffffff166398b4ad6f8260035486604051602001611dd39190612c6a565b6040516020818303038152906040526040518463ffffffff1660e01b8152600401611e0093929190612dd4565b602060405180830381600087803b158015611e1a57600080fd5b505af1158015611e2e573d6000803e3d6000fd5b505050506040513d601f19601f82011682018060405250810190611e529190612909565b915050919050565b60035481565b600081600073ffffffffffffffffffffffffffffffffffffffff16600160009054906101000a900473ffffffffffffffffffffffffffffffffffffffff1673ffffffffffffffffffffffffffffffffffffffff16633fa9f7f3836040518263ffffffff1660e01b8152600401611ed6919061303a565b60206040518083038186803b158015611eee57600080fd5b505afa158015611f02573d6000803e3d6000fd5b505050506040513d601f19601f82011682018060405250810190611f26919061283a565b73ffffffffffffffffffffffffffffffffffffffff161415611f7d576040517f08c379a0000000000000000000000000000000000000000000000000000000008152600401611f7490612eba565b60405180910390fd5b600254600160009054906101000a900473ffffffffffffffffffffffffffffffffffffffff1673ffffffffffffffffffffffffffffffffffffffff1663e4b5b61a836040518263ffffffff1660e01b8152600401611fdb919061303a565b60206040518083038186803b158015611ff357600080fd5b505afa158015612007573d6000803e3d6000fd5b505050506040513d601f19601f8201168201806040525081019061202b9190612909565b1461206b576040517f08c379a000000000000000000000000000000000000000000000000000000000815260040161206290612f3a565b60405180910390fd5b6000600160009054906101000a900473ffffffffffffffffffffffffffffffffffffffff1673ffffffffffffffffffffffffffffffffffffffff16633fa9f7f3856040518263ffffffff1660e01b81526004016120c8919061303a565b60206040518083038186803b1580156120e057600080fd5b505afa1580156120f4573d6000803e3d6000fd5b505050506040513d601f19601f82011682018060405250810190612118919061283a565b9050600160009054906101000a900473ffffffffffffffffffffffffffffffffffffffff1673ffffffffffffffffffffffffffffffffffffffff1663a1eb70016004548361216588612588565b6040518463ffffffff1660e01b81526004016121839392919061307e565b600060405180830381600087803b15801561219d57600080fd5b505af11580156121b1573d6000803e3d6000fd5b50505050426008600086815260200190815260200160002081905550600160009054906101000a900473ffffffffffffffffffffffffffffffffffffffff1673ffffffffffffffffffffffffffffffffffffffff1662ffc135600454836040518363ffffffff1660e01b815260040161222b929190613055565b602060405180830381600087803b15801561224557600080fd5b505af1158015612259573d6000803e3d6000fd5b505050506040513d601f19601f8201168201806040525081019061227d9190612909565b92505050919050565b600560009054906101000a900473ffffffffffffffffffffffffffffffffffffffff1681565b60006122b661265e565b73ffffffffffffffffffffffffffffffffffffffff166122d4611988565b73ffffffffffffffffffffffffffffffffffffffff161461232a576040517f08c379a000000000000000000000000000000000000000000000000000000000815260040161232190612f5a565b60405180910390fd5b600160009054906101000a900473ffffffffffffffffffffffffffffffffffffffff1673ffffffffffffffffffffffffffffffffffffffff166398b4ad6f84600254856040518463ffffffff1660e01b815260040161238b93929190612dd4565b602060405180830381600087803b1580156123a557600080fd5b505af11580156123b9573d6000803e3d6000fd5b505050506040513d601f19601f820116820180604052508101906123dd9190612909565b905092915050565b600560009054906101000a900473ffffffffffffffffffffffffffffffffffffffff1673ffffffffffffffffffffffffffffffffffffffff1663e8eda9df73eeeeeeeeeeeeeeeeeeeeeeeeeeeeeeeeeeeeeeee833060006040518563ffffffff1660e01b815260040161245b9493929190612d8f565b600060405180830381600087803b15801561247557600080fd5b505af1158015612489573d6000803e3d6000fd5b5050505050565b61249861265e565b73ffffffffffffffffffffffffffffffffffffffff166124b6611988565b73ffffffffffffffffffffffffffffffffffffffff161461250c576040517f08c379a000000000000000000000000000000000000000000000000000000000815260040161250390612f5a565b60405180910390fd5b600073ffffffffffffffffffffffffffffffffffffffff168173ffffffffffffffffffffffffffffffffffffffff16141561257c576040517f08c379a000000000000000000000000000000000000000000000000000000000815260040161257390612eda565b60405180910390fd5b61258581612666565b50565b60008060086000848152602001908152602001600020541461262d5760006008600084815260200190815260200160002054426125c59190613224565b90506000600a6125df60018461264890919063ffffffff16565b116125fd576125f860018361264890919063ffffffff16565b612600565b600a5b905061262881600760008781526020019081526020016000205461272a90919063ffffffff16565b925050505b919050565b600081836126409190613143565b905092915050565b600081836126569190613199565b905092915050565b600033905090565b60008060009054906101000a900473ffffffffffffffffffffffffffffffffffffffff169050816000806101000a81548173ffffffffffffffffffffffffffffffffffffffff021916908373ffffffffffffffffffffffffffffffffffffffff1602179055508173ffffffffffffffffffffffffffffffffffffffff168173ffffffffffffffffffffffffffffffffffffffff167f8be0079c531659141344cd1fd0a4f28419497f9722a3daafe3b4186f6b6457e060405160405180910390a35050565b6000818361273891906131ca565b905092915050565b600061275361274e846130da565b6130b5565b90508281526020810184848401111561276b57600080fd5b612776848285613300565b509392505050565b60008135905061278d8161371a565b92915050565b6000815190506127a28161371a565b92915050565b6000815190506127b781613731565b92915050565b600082601f8301126127ce57600080fd5b81356127de848260208601612740565b91505092915050565b6000813590506127f681613748565b92915050565b60008151905061280b81613748565b92915050565b60006020828403121561282357600080fd5b60006128318482850161277e565b91505092915050565b60006020828403121561284c57600080fd5b600061285a84828501612793565b91505092915050565b6000806040838503121561287657600080fd5b60006128848582860161277e565b925050602083013567ffffffffffffffff8111156128a157600080fd5b6128ad858286016127bd565b9150509250929050565b6000602082840312156128c957600080fd5b60006128d7848285016127a8565b91505092915050565b6000602082840312156128f257600080fd5b6000612900848285016127e7565b91505092915050565b60006020828403121561291b57600080fd5b6000612929848285016127fc565b91505092915050565b60008060006060848603121561294757600080fd5b6000612955868287016127e7565b9350506020612966868287016127e7565b9250506040612977868287016127e7565b9150509250925092565b61298a81613258565b82525050565b6129998161326a565b82525050565b6129a881613276565b82525050565b6129b7816132b8565b82525050565b6129c6816132dc565b82525050565b6129d5816132ee565b82525050565b60006129e68261310b565b6129f08185613127565b9350612a0081856020860161330f565b612a0981613453565b840191505092915050565b6000612a21601783613127565b9150612a2c82613464565b602082019050919050565b6000612a44601583613127565b9150612a4f8261348d565b602082019050919050565b6000612a67602683613127565b9150612a72826134b6565b604082019050919050565b6000612a8a600883613138565b9150612a9582613505565b600882019050919050565b6000612aad601683613127565b9150612ab88261352e565b602082019050919050565b6000612ad0601683613127565b9150612adb82613557565b602082019050919050565b6000612af3601683613127565b9150612afe82613580565b602082019050919050565b6000612b16600183613138565b9150612b21826135a9565b600182019050919050565b6000612b39602083613127565b9150612b44826135d2565b602082019050919050565b6000612b5c601583613127565b9150612b67826135fb565b602082019050919050565b6000612b7f602383613127565b9150612b8a82613624565b604082019050919050565b6000612ba2601e83613127565b9150612bad82613673565b602082019050919050565b6000612bc5600083613116565b9150612bd08261369c565b600082019050919050565b6000612be8600e83613127565b9150612bf38261369f565b602082019050919050565b6000612c0b602083613127565b9150612c16826136c8565b602082019050919050565b6000612c2e601a83613127565b9150612c39826136f1565b602082019050919050565b612c4d816132ae565b82525050565b612c64612c5f826132ae565b6133bc565b82525050565b6000612c7582612a7d565b9150612c818284612c53565b602082019150612c9082612b09565b915081905092915050565b6000602082019050612cb06000830184612981565b92915050565b600060a082019050612ccb6000830187612981565b612cd86020830186612981565b612ce56040830185612c44565b612cf260608301846129cc565b8181036080830152612d0381612bb8565b905095945050505050565b600060a082019050612d236000830187612981565b612d306020830186612981565b612d3d6040830185612c44565b612d4a6060830184612c44565b8181036080830152612d5b81612bb8565b905095945050505050565b6000604082019050612d7b6000830185612981565b612d886020830184612c44565b9392505050565b6000608082019050612da46000830187612981565b612db16020830186612c44565b612dbe6040830185612981565b612dcb60608301846129bd565b95945050505050565b6000606082019050612de96000830186612981565b612df66020830185612c44565b8181036040830152612e0881846129db565b9050949350505050565b6000606082019050612e276000830186612981565b612e346020830185612c44565b612e416040830184612c44565b949350505050565b6000602082019050612e5e6000830184612990565b92915050565b6000602082019050612e79600083018461299f565b92915050565b6000602082019050612e9460008301846129ae565b92915050565b60006020820190508181036000830152612eb381612a14565b9050919050565b60006020820190508181036000830152612ed381612a37565b9050919050565b60006020820190508181036000830152612ef381612a5a565b9050919050565b60006020820190508181036000830152612f1381612aa0565b9050919050565b60006020820190508181036000830152612f3381612ac3565b9050919050565b60006020820190508181036000830152612f5381612ae6565b9050919050565b60006020820190508181036000830152612f7381612b2c565b9050919050565b60006020820190508181036000830152612f9381612b4f565b9050919050565b60006020820190508181036000830152612fb381612b72565b9050919050565b60006020820190508181036000830152612fd381612b95565b9050919050565b60006020820190508181036000830152612ff381612bdb565b9050919050565b6000602082019050818103600083015261301381612bfe565b9050919050565b6000602082019050818103600083015261303381612c21565b9050919050565b600060208201905061304f6000830184612c44565b92915050565b600060408201905061306a6000830185612c44565b6130776020830184612981565b9392505050565b60006060820190506130936000830186612c44565b6130a06020830185612981565b6130ad6040830184612c44565b949350505050565b60006130bf6130d0565b90506130cb8282613342565b919050565b6000604051905090565b600067ffffffffffffffff8211156130f5576130f4613424565b5b6130fe82613453565b9050602081019050919050565b600081519050919050565b600082825260208201905092915050565b600082825260208201905092915050565b600081905092915050565b600061314e826132ae565b9150613159836132ae565b9250827fffffffffffffffffffffffffffffffffffffffffffffffffffffffffffffffff0382111561318e5761318d6133c6565b5b828201905092915050565b60006131a4826132ae565b91506131af836132ae565b9250826131bf576131be6133f5565b5b828204905092915050565b60006131d5826132ae565b91506131e0836132ae565b9250817fffffffffffffffffffffffffffffffffffffffffffffffffffffffffffffffff0483118215151615613219576132186133c6565b5b828202905092915050565b600061322f826132ae565b915061323a836132ae565b92508282101561324d5761324c6133c6565b5b828203905092915050565b60006132638261328e565b9050919050565b60008115159050919050565b6000819050919050565b600061ffff82169050919050565b600073ffffffffffffffffffffffffffffffffffffffff82169050919050565b6000819050919050565b60006132c3826132ca565b9050919050565b60006132d58261328e565b9050919050565b60006132e782613280565b9050919050565b60006132f9826132ae565b9050919050565b82818337600083830152505050565b60005b8381101561332d578082015181840152602081019050613312565b8381111561333c576000848401525b50505050565b61334b82613453565b810181811067ffffffffffffffff8211171561336a57613369613424565b5b80604052505050565b600061337e826132ae565b91507fffffffffffffffffffffffffffffffffffffffffffffffffffffffffffffffff8214156133b1576133b06133c6565b5b600182019050919050565b6000819050919050565b7f4e487b7100000000000000000000000000000000000000000000000000000000600052601160045260246000fd5b7f4e487b7100000000000000000000000000000000000000000000000000000000600052601260045260246000fd5b7f4e487b7100000000000000000000000000000000000000000000000000000000600052604160045260246000fd5b6000601f19601f8301169050919050565b7f4d697373696f6e20636f737420697320746f6f206c6f77000000000000000000600082015250565b7f506c616e657420646f6573206e6f742065786973740000000000000000000000600082015250565b7f4f776e61626c653a206e6577206f776e657220697320746865207a65726f206160008201527f6464726573730000000000000000000000000000000000000000000000000000602082015250565b7f7b706c616e65743a000000000000000000000000000000000000000000000000600082015250565b7f526f636b6574206973206e6f74206120726f636b657400000000000000000000600082015250565b7f41747461636b6572206973206e6f742073656e64657200000000000000000000600082015250565b7f506c616e6574206973206e6f74206120706c616e657400000000000000000000600082015250565b7f7d00000000000000000000000000000000000000000000000000000000000000600082015250565b7f4f776e61626c653a2063616c6c6572206973206e6f7420746865206f776e6572600082015250565b7f526f636b657420646f6573206e6f742065786973740000000000000000000000600082015250565b7f53656e64657220646f6573206e6f74206861766520656e6f7567682062616c6160008201527f6e63650000000000000000000000000000000000000000000000000000000000602082015250565b7f4e6f207374616b696e6720616d6f756e74206973206d656e74696f6e65640000600082015250565b50565b7f496e76616c6964206e756b654964000000000000000000000000000000000000600082015250565b7f41747461636b2068617320616c7265616479206265656e207265736f6c766564600082015250565b7f41747461636b206e6f742066696e616c697a61626c6520796574000000000000600082015250565b61372381613258565b811461372e57600080fd5b50565b61373a8161326a565b811461374557600080fd5b50565b613751816132ae565b811461375c57600080fd5b5056fea264697066735822122003547e877c8870bda9ce58977f83590aebd8032b3ed8147b23fd753f5774533964736f6c63430008040033",
  "linkReferences": {},
  "deployedLinkReferences": {}
}