{
  "_format": "hh-sol-artifact-1",
  "contractName": "SpaceMafia",
  "sourceName": "contracts/SpaceMafia.sol",
  "abi": [
    {
      "inputs": [],
      "stateMutability": "nonpayable",
      "type": "constructor"
    },
    {
      "anonymous": false,
      "inputs": [
        {
          "indexed": true,
          "internalType": "address",
          "name": "previousOwner",
          "type": "address"
        },
        {
          "indexed": true,
          "internalType": "address",
          "name": "newOwner",
          "type": "address"
        }
      ],
      "name": "OwnershipTransferred",
      "type": "event"
    },
    {
      "inputs": [
        {
          "internalType": "uint256",
          "name": "_random",
          "type": "uint256"
        },
        {
          "internalType": "uint256",
          "name": "_threshold",
          "type": "uint256"
        }
      ],
      "name": "checkRandom",
      "outputs": [
        {
          "internalType": "bool",
          "name": "",
          "type": "bool"
        }
      ],
      "stateMutability": "pure",
      "type": "function"
    },
    {
      "inputs": [
        {
          "internalType": "uint256",
          "name": "_tokenId",
          "type": "uint256"
        }
      ],
      "name": "claimDividends",
      "outputs": [
        {
          "internalType": "uint256",
          "name": "",
          "type": "uint256"
        }
      ],
      "stateMutability": "nonpayable",
      "type": "function"
    },
    {
      "inputs": [
        {
          "internalType": "uint256",
          "name": "_tokenId",
          "type": "uint256"
        }
      ],
      "name": "claimableDividends",
      "outputs": [
        {
          "internalType": "uint256",
          "name": "",
          "type": "uint256"
        }
      ],
      "stateMutability": "view",
      "type": "function"
    },
    {
      "inputs": [
        {
          "internalType": "uint256",
          "name": "_nukeId",
          "type": "uint256"
        }
      ],
      "name": "completeAttack",
      "outputs": [
        {
          "internalType": "bool",
          "name": "",
          "type": "bool"
        }
      ],
      "stateMutability": "nonpayable",
      "type": "function"
    },
    {
      "inputs": [
        {
          "internalType": "uint256",
          "name": "_nukeId",
          "type": "uint256"
        }
      ],
      "name": "defenseProbability",
      "outputs": [
        {
          "internalType": "uint256",
          "name": "",
          "type": "uint256"
        }
      ],
      "stateMutability": "view",
      "type": "function"
    },
    {
      "inputs": [
        {
          "internalType": "uint256",
          "name": "amount",
          "type": "uint256"
        }
      ],
      "name": "depositInAAVE",
      "outputs": [],
      "stateMutability": "payable",
      "type": "function"
    },
    {
      "inputs": [],
      "name": "galaxyToken",
      "outputs": [
        {
          "internalType": "contract GalaxyToken",
          "name": "",
          "type": "address"
        }
      ],
      "stateMutability": "view",
      "type": "function"
    },
    {
      "inputs": [
        {
          "internalType": "address",
          "name": "_account",
          "type": "address"
        }
      ],
      "name": "getMafiaBalanceOf",
      "outputs": [
        {
          "internalType": "uint256",
          "name": "",
          "type": "uint256"
        }
      ],
      "stateMutability": "view",
      "type": "function"
    },
    {
      "inputs": [],
      "name": "getMafiaTokenSupply",
      "outputs": [
        {
          "internalType": "uint256",
          "name": "",
          "type": "uint256"
        }
      ],
      "stateMutability": "view",
      "type": "function"
    },
    {
      "inputs": [
        {
          "internalType": "uint256",
          "name": "_id",
          "type": "uint256"
        }
      ],
      "name": "getPlanet",
      "outputs": [
        {
          "internalType": "address",
          "name": "",
          "type": "address"
        },
        {
          "internalType": "string",
          "name": "",
          "type": "string"
        }
      ],
      "stateMutability": "view",
      "type": "function"
    },
    {
      "inputs": [],
      "name": "getPlanetSupply",
      "outputs": [
        {
          "internalType": "uint256",
          "name": "",
          "type": "uint256"
        }
      ],
      "stateMutability": "view",
      "type": "function"
    },
    {
      "inputs": [
        {
          "internalType": "bytes32",
          "name": "_entropy",
          "type": "bytes32"
        }
      ],
      "name": "getRandom",
      "outputs": [
        {
          "internalType": "uint256",
          "name": "",
          "type": "uint256"
        }
      ],
      "stateMutability": "pure",
      "type": "function"
    },
    {
      "inputs": [
        {
          "internalType": "uint256",
          "name": "_id",
          "type": "uint256"
        }
      ],
      "name": "getRocket",
      "outputs": [
        {
          "internalType": "address",
          "name": "",
          "type": "address"
        },
        {
          "internalType": "string",
          "name": "",
          "type": "string"
        }
      ],
      "stateMutability": "view",
      "type": "function"
    },
    {
      "inputs": [],
      "name": "getRocketSupply",
      "outputs": [
        {
          "internalType": "uint256",
          "name": "",
          "type": "uint256"
        }
      ],
      "stateMutability": "view",
      "type": "function"
    },
    {
      "inputs": [
        {
          "internalType": "uint256",
          "name": "_numerator",
          "type": "uint256"
        },
        {
          "internalType": "uint256",
          "name": "_denominator",
          "type": "uint256"
        }
      ],
      "name": "getThreshold",
      "outputs": [
        {
          "internalType": "uint256",
          "name": "",
          "type": "uint256"
        }
      ],
      "stateMutability": "pure",
      "type": "function"
    },
    {
      "inputs": [
        {
          "internalType": "uint256",
          "name": "_nukeId",
          "type": "uint256"
        },
        {
          "internalType": "uint256",
          "name": "_hijackCost",
          "type": "uint256"
        }
      ],
      "name": "hijack",
      "outputs": [
        {
          "internalType": "bool",
          "name": "",
          "type": "bool"
        }
      ],
      "stateMutability": "nonpayable",
      "type": "function"
    },
    {
      "inputs": [
        {
          "internalType": "address",
          "name": "_galaxyToken",
          "type": "address"
        }
      ],
      "name": "initialize",
      "outputs": [],
      "stateMutability": "nonpayable",
      "type": "function"
    },
    {
      "inputs": [
        {
          "internalType": "uint256",
          "name": "",
          "type": "uint256"
        }
      ],
      "name": "lastStakedTime",
      "outputs": [
        {
          "internalType": "uint256",
          "name": "",
          "type": "uint256"
        }
      ],
      "stateMutability": "view",
      "type": "function"
    },
    {
      "inputs": [],
      "name": "lendingpool",
      "outputs": [
        {
          "internalType": "address",
          "name": "",
          "type": "address"
        }
      ],
      "stateMutability": "view",
      "type": "function"
    },
    {
      "inputs": [],
      "name": "mafiaToken",
      "outputs": [
        {
          "internalType": "uint256",
          "name": "",
          "type": "uint256"
        }
      ],
      "stateMutability": "view",
      "type": "function"
    },
    {
      "inputs": [
        {
          "internalType": "address",
          "name": "_account",
          "type": "address"
        },
        {
          "internalType": "string",
          "name": "_tokenURI",
          "type": "string"
        }
      ],
      "name": "mintPlanet",
      "outputs": [
        {
          "internalType": "uint256",
          "name": "_id",
          "type": "uint256"
        }
      ],
      "stateMutability": "nonpayable",
      "type": "function"
    },
    {
      "inputs": [
        {
          "internalType": "uint256",
          "name": "_planetId",
          "type": "uint256"
        }
      ],
      "name": "mintRocket",
      "outputs": [
        {
          "internalType": "uint256",
          "name": "_id",
          "type": "uint256"
        }
      ],
      "stateMutability": "nonpayable",
      "type": "function"
    },
    {
      "inputs": [
        {
          "internalType": "uint256",
          "name": "_planetId",
          "type": "uint256"
        },
        {
          "internalType": "uint256",
          "name": "_rocketId",
          "type": "uint256"
        },
        {
          "internalType": "uint256",
          "name": "_missionCost",
          "type": "uint256"
        }
      ],
      "name": "nuke",
      "outputs": [
        {
          "internalType": "uint256",
          "name": "",
          "type": "uint256"
        }
      ],
      "stateMutability": "nonpayable",
      "type": "function"
    },
    {
      "inputs": [],
      "name": "nukeCount",
      "outputs": [
        {
          "internalType": "uint256",
          "name": "",
          "type": "uint256"
        }
      ],
      "stateMutability": "view",
      "type": "function"
    },
    {
      "inputs": [],
      "name": "owner",
      "outputs": [
        {
          "internalType": "address",
          "name": "",
          "type": "address"
        }
      ],
      "stateMutability": "view",
      "type": "function"
    },
    {
      "inputs": [],
      "name": "planetType",
      "outputs": [
        {
          "internalType": "uint256",
          "name": "",
          "type": "uint256"
        }
      ],
      "stateMutability": "view",
      "type": "function"
    },
    {
      "inputs": [],
      "name": "renounceOwnership",
      "outputs": [],
      "stateMutability": "nonpayable",
      "type": "function"
    },
    {
      "inputs": [],
      "name": "rocketType",
      "outputs": [
        {
          "internalType": "uint256",
          "name": "",
          "type": "uint256"
        }
      ],
      "stateMutability": "view",
      "type": "function"
    },
    {
      "inputs": [
        {
          "internalType": "uint256",
          "name": "_tokenId",
          "type": "uint256"
        }
      ],
      "name": "stakeEthOnPlanet",
      "outputs": [
        {
          "internalType": "bool",
          "name": "",
          "type": "bool"
        }
      ],
      "stateMutability": "payable",
      "type": "function"
    },
    {
      "inputs": [
        {
          "internalType": "uint256",
          "name": "",
          "type": "uint256"
        }
      ],
      "name": "stakedEth",
      "outputs": [
        {
          "internalType": "uint256",
          "name": "",
          "type": "uint256"
        }
      ],
      "stateMutability": "view",
      "type": "function"
    },
    {
      "inputs": [
        {
          "internalType": "address",
          "name": "_to",
          "type": "address"
        },
        {
          "internalType": "uint256",
          "name": "_amount",
          "type": "uint256"
        }
      ],
      "name": "transferMafiaToken",
      "outputs": [],
      "stateMutability": "nonpayable",
      "type": "function"
    },
    {
      "inputs": [
        {
          "internalType": "address",
          "name": "newOwner",
          "type": "address"
        }
      ],
      "name": "transferOwnership",
      "outputs": [],
      "stateMutability": "nonpayable",
      "type": "function"
    },
    {
      "inputs": [
        {
          "internalType": "address",
          "name": "_to",
          "type": "address"
        },
        {
          "internalType": "uint256",
          "name": "_id",
          "type": "uint256"
        }
      ],
      "name": "transferPlanet",
      "outputs": [],
      "stateMutability": "nonpayable",
      "type": "function"
    },
    {
      "inputs": [
        {
          "internalType": "address",
          "name": "_to",
          "type": "address"
        },
        {
          "internalType": "uint256",
          "name": "_id",
          "type": "uint256"
        }
      ],
      "name": "transferRocket",
      "outputs": [],
      "stateMutability": "nonpayable",
      "type": "function"
    }
  ],
  "bytecode": "0x608060405260008060146101000a81548160ff0219169083151502179055503480156200002b57600080fd5b506200004c620000406200005260201b60201c565b6200005a60201b60201c565b6200011e565b600033905090565b60008060009054906101000a900473ffffffffffffffffffffffffffffffffffffffff169050816000806101000a81548173ffffffffffffffffffffffffffffffffffffffff021916908373ffffffffffffffffffffffffffffffffffffffff1602179055508173ffffffffffffffffffffffffffffffffffffffff168173ffffffffffffffffffffffffffffffffffffffff167f8be0079c531659141344cd1fd0a4f28419497f9722a3daafe3b4186f6b6457e060405160405180910390a35050565b615110806200012e6000396000f3fe6080604052600436106101f85760003560e01c80638da5cb5b1161010d578063b8aa6f02116100a0578063c6414eee1161006f578063c6414eee146107c5578063c9c9a9f214610802578063f1288a8d1461083f578063f2fde38b1461085b578063ffbec41914610884576101f8565b8063b8aa6f0214610709578063bd7047c414610734578063c496d70814610771578063c4d66de81461079c576101f8565b80639d5dc416116100dc5780639d5dc41614610614578063aed4f39c14610651578063b5bab0531461068f578063b737ed1b146106cc576101f8565b80638da5cb5b14610558578063968b016714610583578063971c53d4146105ae5780639c86d530146105d7576101f8565b80635374eec31161019057806360c92db41161015f57806360c92db4146104905780636f21de4d146104bb578063715018a6146104e65780637328fd73146104fd5780638a0a866a14610528576101f8565b80635374eec3146103ae57806353fad078146103eb57806356cdbdcb1461042857806360a138ed14610453576101f8565b8063311125f7116101cc578063311125f7146102f157806331e6ace01461031a57806334efcb8e146103455780633d48f98214610383576101f8565b8062d36f92146101fd57806324b4b9281461023a57806329fb518d146102775780632b8f107d146102b4575b600080fd5b34801561020957600080fd5b50610224600480360381019061021f9190613ff5565b6108ad565b60405161023191906148eb565b60405180910390f35b34801561024657600080fd5b50610261600480360381019061025c9190614047565b610c45565b60405161026e919061469a565b60405180910390f35b34801561028357600080fd5b5061029e60048036038101906102999190613ff5565b610c53565b6040516102ab91906148eb565b60405180910390f35b3480156102c057600080fd5b506102db60048036038101906102d69190614083565b610c6b565b6040516102e891906148eb565b60405180910390f35b3480156102fd57600080fd5b5061031860048036038101906103139190613f26565b611435565b005b34801561032657600080fd5b5061032f6114cd565b60405161033c91906148eb565b60405180910390f35b34801561035157600080fd5b5061036c60048036038101906103679190613ff5565b611581565b60405161037a929190614587565b60405180910390f35b34801561038f57600080fd5b506103986116e9565b6040516103a591906148eb565b60405180910390f35b3480156103ba57600080fd5b506103d560048036038101906103d09190614047565b6116ef565b6040516103e2919061469a565b60405180910390f35b3480156103f757600080fd5b50610412600480360381019061040d9190613ff5565b611c7c565b60405161041f91906148eb565b60405180910390f35b34801561043457600080fd5b5061043d611c94565b60405161044a91906148eb565b60405180910390f35b34801561045f57600080fd5b5061047a60048036038101906104759190613ff5565b611d48565b604051610487919061469a565b60405180910390f35b34801561049c57600080fd5b506104a5612286565b6040516104b291906148eb565b60405180910390f35b3480156104c757600080fd5b506104d061228c565b6040516104dd91906148eb565b60405180910390f35b3480156104f257600080fd5b506104fb612292565b005b34801561050957600080fd5b5061051261231a565b60405161051f91906146d0565b60405180910390f35b610542600480360381019061053d9190613ff5565b612340565b60405161054f919061469a565b60405180910390f35b34801561056457600080fd5b5061056d612738565b60405161057a9190614464565b60405180910390f35b34801561058f57600080fd5b50610598612761565b6040516105a591906148eb565b60405180910390f35b3480156105ba57600080fd5b506105d560048036038101906105d09190613f26565b612815565b005b3480156105e357600080fd5b506105fe60048036038101906105f99190613e80565b6128ad565b60405161060b91906148eb565b60405180910390f35b34801561062057600080fd5b5061063b60048036038101906106369190613ff5565b612964565b60405161064891906148eb565b60405180910390f35b34801561065d57600080fd5b5061067860048036038101906106739190613ff5565b612b53565b604051610686929190614587565b60405180910390f35b34801561069b57600080fd5b506106b660048036038101906106b19190613ff5565b612cbb565b6040516106c391906148eb565b60405180910390f35b3480156106d857600080fd5b506106f360048036038101906106ee9190613f8b565b612ff9565b60405161070091906148eb565b60405180910390f35b34801561071557600080fd5b5061071e61304f565b60405161072b91906148eb565b60405180910390f35b34801561074057600080fd5b5061075b60048036038101906107569190613ff5565b613055565b60405161076891906148eb565b60405180910390f35b34801561077d57600080fd5b5061078661347b565b6040516107939190614464565b60405180910390f35b3480156107a857600080fd5b506107c360048036038101906107be9190613e80565b6134a1565b005b3480156107d157600080fd5b506107ec60048036038101906107e79190614047565b6137ee565b6040516107f991906148eb565b60405180910390f35b34801561080e57600080fd5b5061082960048036038101906108249190613ed2565b61382e565b60405161083691906148eb565b60405180910390f35b61085960048036038101906108549190613ff5565b613967565b005b34801561086757600080fd5b50610882600480360381019061087d9190613e80565b613a12565b005b34801561089057600080fd5b506108ab60048036038101906108a69190613f26565b613b0a565b005b600081600073ffffffffffffffffffffffffffffffffffffffff16600160009054906101000a900473ffffffffffffffffffffffffffffffffffffffff1673ffffffffffffffffffffffffffffffffffffffff16633fa9f7f3836040518263ffffffff1660e01b815260040161092391906148eb565b60206040518083038186803b15801561093b57600080fd5b505afa15801561094f573d6000803e3d6000fd5b505050506040513d601f19601f820116820180604052508101906109739190613ea9565b73ffffffffffffffffffffffffffffffffffffffff1614156109ca576040517f08c379a00000000000000000000000000000000000000000000000000000000081526004016109c19061472b565b60405180910390fd5b600254600160009054906101000a900473ffffffffffffffffffffffffffffffffffffffff1673ffffffffffffffffffffffffffffffffffffffff1663e4b5b61a836040518263ffffffff1660e01b8152600401610a2891906148eb565b60206040518083038186803b158015610a4057600080fd5b505afa158015610a54573d6000803e3d6000fd5b505050506040513d601f19601f82011682018060405250810190610a78919061401e565b14610ab8576040517f08c379a0000000000000000000000000000000000000000000000000000000008152600401610aaf906147ab565b60405180910390fd5b6000600160009054906101000a900473ffffffffffffffffffffffffffffffffffffffff1673ffffffffffffffffffffffffffffffffffffffff16633fa9f7f3856040518263ffffffff1660e01b8152600401610b1591906148eb565b60206040518083038186803b158015610b2d57600080fd5b505afa158015610b41573d6000803e3d6000fd5b505050506040513d601f19601f82011682018060405250810190610b659190613ea9565b90506000600160009054906101000a900473ffffffffffffffffffffffffffffffffffffffff1673ffffffffffffffffffffffffffffffffffffffff166379b8d938836004546040518363ffffffff1660e01b8152600401610bc89291906145b7565b60206040518083038186803b158015610be057600080fd5b505afa158015610bf4573d6000803e3d6000fd5b505050506040513d601f19601f82011682018060405250810190610c18919061401e565b90506000610c2586613ba3565b9050610c3a8183613c2490919063ffffffff16565b945050505050919050565b600081831115905092915050565b60086020528060005260406000206000915090505481565b600083600073ffffffffffffffffffffffffffffffffffffffff16600160009054906101000a900473ffffffffffffffffffffffffffffffffffffffff1673ffffffffffffffffffffffffffffffffffffffff16633fa9f7f3836040518263ffffffff1660e01b8152600401610ce191906148eb565b60206040518083038186803b158015610cf957600080fd5b505afa158015610d0d573d6000803e3d6000fd5b505050506040513d601f19601f82011682018060405250810190610d319190613ea9565b73ffffffffffffffffffffffffffffffffffffffff161415610d88576040517f08c379a0000000000000000000000000000000000000000000000000000000008152600401610d7f9061472b565b60405180910390fd5b600254600160009054906101000a900473ffffffffffffffffffffffffffffffffffffffff1673ffffffffffffffffffffffffffffffffffffffff1663e4b5b61a836040518263ffffffff1660e01b8152600401610de691906148eb565b60206040518083038186803b158015610dfe57600080fd5b505afa158015610e12573d6000803e3d6000fd5b505050506040513d601f19601f82011682018060405250810190610e36919061401e565b14610e76576040517f08c379a0000000000000000000000000000000000000000000000000000000008152600401610e6d906147ab565b60405180910390fd5b83600073ffffffffffffffffffffffffffffffffffffffff16600160009054906101000a900473ffffffffffffffffffffffffffffffffffffffff1673ffffffffffffffffffffffffffffffffffffffff16633fa9f7f3836040518263ffffffff1660e01b8152600401610eea91906148eb565b60206040518083038186803b158015610f0257600080fd5b505afa158015610f16573d6000803e3d6000fd5b505050506040513d601f19601f82011682018060405250810190610f3a9190613ea9565b73ffffffffffffffffffffffffffffffffffffffff161415610f91576040517f08c379a0000000000000000000000000000000000000000000000000000000008152600401610f88906147eb565b60405180910390fd5b600354600160009054906101000a900473ffffffffffffffffffffffffffffffffffffffff1673ffffffffffffffffffffffffffffffffffffffff1663e4b5b61a836040518263ffffffff1660e01b8152600401610fef91906148eb565b60206040518083038186803b15801561100757600080fd5b505afa15801561101b573d6000803e3d6000fd5b505050506040513d601f19601f8201168201806040525081019061103f919061401e565b1461107f576040517f08c379a00000000000000000000000000000000000000000000000000000000081526004016110769061476b565b60405180910390fd5b6000600160009054906101000a900473ffffffffffffffffffffffffffffffffffffffff1673ffffffffffffffffffffffffffffffffffffffff16633fa9f7f3876040518263ffffffff1660e01b81526004016110dc91906148eb565b60206040518083038186803b1580156110f457600080fd5b505afa158015611108573d6000803e3d6000fd5b505050506040513d601f19601f8201168201806040525081019061112c9190613ea9565b90503373ffffffffffffffffffffffffffffffffffffffff168173ffffffffffffffffffffffffffffffffffffffff161461119c576040517f08c379a00000000000000000000000000000000000000000000000000000000081526004016111939061478b565b60405180910390fd5b670de0b6b3a76400008510156111e7576040517f08c379a00000000000000000000000000000000000000000000000000000000081526004016111de906146eb565b60405180910390fd5b84600160009054906101000a900473ffffffffffffffffffffffffffffffffffffffff1673ffffffffffffffffffffffffffffffffffffffff1662fdd58e336004546040518363ffffffff1660e01b81526004016112469291906145b7565b60206040518083038186803b15801561125e57600080fd5b505afa158015611272573d6000803e3d6000fd5b505050506040513d601f19601f82011682018060405250810190611296919061401e565b10156112d7576040517f08c379a00000000000000000000000000000000000000000000000000000000081526004016112ce9061486b565b60405180910390fd5b6040518060c0016040528086815260200187815260200188815260200160144361130191906149f4565b815260200186815260200160001515815250600960006006548152602001908152602001600020600082015181600001556020820151816001015560408201518160020155606082015181600301556080820151816004015560a08201518160050160006101000a81548160ff021916908315150217905550905050600160009054906101000a900473ffffffffffffffffffffffffffffffffffffffff1673ffffffffffffffffffffffffffffffffffffffff1663f242432a3330600454896040518563ffffffff1660e01b81526004016113e0949392919061452f565b600060405180830381600087803b1580156113fa57600080fd5b505af115801561140e573d6000803e3d6000fd5b505050506006600081548092919061142590614c36565b9190505593505050509392505050565b600160009054906101000a900473ffffffffffffffffffffffffffffffffffffffff1673ffffffffffffffffffffffffffffffffffffffff1663f242432a33848460016040518563ffffffff1660e01b815260040161149794939291906144d7565b600060405180830381600087803b1580156114b157600080fd5b505af11580156114c5573d6000803e3d6000fd5b505050505050565b6000600160009054906101000a900473ffffffffffffffffffffffffffffffffffffffff1673ffffffffffffffffffffffffffffffffffffffff1663bd85b0396004546040518263ffffffff1660e01b815260040161152c91906148eb565b60206040518083038186803b15801561154457600080fd5b505afa158015611558573d6000803e3d6000fd5b505050506040513d601f19601f8201168201806040525081019061157c919061401e565b905090565b60006060600160009054906101000a900473ffffffffffffffffffffffffffffffffffffffff1673ffffffffffffffffffffffffffffffffffffffff16633fa9f7f3846040518263ffffffff1660e01b81526004016115e091906148eb565b60206040518083038186803b1580156115f857600080fd5b505afa15801561160c573d6000803e3d6000fd5b505050506040513d601f19601f820116820180604052508101906116309190613ea9565b600160009054906101000a900473ffffffffffffffffffffffffffffffffffffffff1673ffffffffffffffffffffffffffffffffffffffff16636914db60856040518263ffffffff1660e01b815260040161168b91906148eb565b60006040518083038186803b1580156116a357600080fd5b505afa1580156116b7573d6000803e3d6000fd5b505050506040513d6000823e3d601f19601f820116820180604052508101906116e09190613fb4565b91509150915091565b60065481565b6000826006548110611736576040517f08c379a000000000000000000000000000000000000000000000000000000000815260040161172d9061484b565b60405180910390fd5b6009600082815260200190815260200160002060050160009054906101000a900460ff161561179a576040517f08c379a0000000000000000000000000000000000000000000000000000000008152600401611791906148ab565b60405180910390fd5b600033905060006009600087815260200190815260200160002090506000600160009054906101000a900473ffffffffffffffffffffffffffffffffffffffff1673ffffffffffffffffffffffffffffffffffffffff16633fa9f7f383600101546040518263ffffffff1660e01b815260040161181791906148eb565b60206040518083038186803b15801561182f57600080fd5b505afa158015611843573d6000803e3d6000fd5b505050506040513d601f19601f820116820180604052508101906118679190613ea9565b9050670de0b6b3a76400008610156118b4576040517f08c379a00000000000000000000000000000000000000000000000000000000081526004016118ab906146eb565b60405180910390fd5b85600160009054906101000a900473ffffffffffffffffffffffffffffffffffffffff1673ffffffffffffffffffffffffffffffffffffffff1662fdd58e856004546040518363ffffffff1660e01b81526004016119139291906145b7565b60206040518083038186803b15801561192b57600080fd5b505afa15801561193f573d6000803e3d6000fd5b505050506040513d601f19601f82011682018060405250810190611963919061401e565b10156119a4576040517f08c379a000000000000000000000000000000000000000000000000000000000815260040161199b9061486b565b60405180910390fd5b6000826003015490508043106119ef576040517f08c379a00000000000000000000000000000000000000000000000000000000081526004016119e69061470b565b60405180910390fd5b60008790506000611a0d85600401548a613c2490919063ffffffff16565b90506000611a1b83836137ee565b90506000611a35600143611a2f9190614ad5565b40612ff9565b9050600160009054906101000a900473ffffffffffffffffffffffffffffffffffffffff1673ffffffffffffffffffffffffffffffffffffffff1663f242432a89306004548f6040518563ffffffff1660e01b8152600401611a9a949392919061452f565b600060405180830381600087803b158015611ab457600080fd5b505af1158015611ac8573d6000803e3d6000fd5b505050508a8760000154611adc91906149f4565b8760000181905550611aee8183610c45565b15611c5357600160009054906101000a900473ffffffffffffffffffffffffffffffffffffffff1673ffffffffffffffffffffffffffffffffffffffff1663f242432a8760008a6001015460006040518563ffffffff1660e01b8152600401611b5a949392919061447f565b600060405180830381600087803b158015611b7457600080fd5b505af1158015611b88573d6000803e3d6000fd5b5050505060018760050160006101000a81548160ff021916908315150217905550600160009054906101000a900473ffffffffffffffffffffffffffffffffffffffff1673ffffffffffffffffffffffffffffffffffffffff1663f242432a308a6004548b600001546040518563ffffffff1660e01b8152600401611c10949392919061452f565b600060405180830381600087803b158015611c2a57600080fd5b505af1158015611c3e573d6000803e3d6000fd5b50505050600199505050505050505050611c75565b601443611c6091906149f4565b87600301819055506000995050505050505050505b5092915050565b60076020528060005260406000206000915090505481565b6000600160009054906101000a900473ffffffffffffffffffffffffffffffffffffffff1673ffffffffffffffffffffffffffffffffffffffff1663bd85b0396002546040518263ffffffff1660e01b8152600401611cf391906148eb565b60206040518083038186803b158015611d0b57600080fd5b505afa158015611d1f573d6000803e3d6000fd5b505050506040513d601f19601f82011682018060405250810190611d43919061401e565b905090565b6000816006548110611d8f576040517f08c379a0000000000000000000000000000000000000000000000000000000008152600401611d869061484b565b60405180910390fd5b6009600082815260200190815260200160002060050160009054906101000a900460ff1615611df3576040517f08c379a0000000000000000000000000000000000000000000000000000000008152600401611dea906148ab565b60405180910390fd5b6000611dfe84612964565b9050600060096000868152602001908152602001600020905060008160030154905080431015611e63576040517f08c379a0000000000000000000000000000000000000000000000000000000008152600401611e5a906148cb565b60405180910390fd5b6000611e6f8240612ff9565b905060018360050160006101000a81548160ff0219169083151502179055506000600160009054906101000a900473ffffffffffffffffffffffffffffffffffffffff1673ffffffffffffffffffffffffffffffffffffffff16633fa9f7f385600201546040518263ffffffff1660e01b8152600401611eef91906148eb565b60206040518083038186803b158015611f0757600080fd5b505afa158015611f1b573d6000803e3d6000fd5b505050506040513d601f19601f82011682018060405250810190611f3f9190613ea9565b90506000600160009054906101000a900473ffffffffffffffffffffffffffffffffffffffff1673ffffffffffffffffffffffffffffffffffffffff16633fa9f7f386600101546040518263ffffffff1660e01b8152600401611fa291906148eb565b60206040518083038186803b158015611fba57600080fd5b505afa158015611fce573d6000803e3d6000fd5b505050506040513d601f19601f82011682018060405250810190611ff29190613ea9565b9050600160009054906101000a900473ffffffffffffffffffffffffffffffffffffffff1673ffffffffffffffffffffffffffffffffffffffff1663f242432a826000886001015460006040518563ffffffff1660e01b815260040161205b949392919061447f565b600060405180830381600087803b15801561207557600080fd5b505af1158015612089573d6000803e3d6000fd5b505050506120978387610c45565b1561214457600160009054906101000a900473ffffffffffffffffffffffffffffffffffffffff1673ffffffffffffffffffffffffffffffffffffffff1663f242432a308460045489600001546040518563ffffffff1660e01b8152600401612103949392919061452f565b600060405180830381600087803b15801561211d57600080fd5b505af1158015612131573d6000803e3d6000fd5b5050505060009750505050505050612280565b600160009054906101000a900473ffffffffffffffffffffffffffffffffffffffff1673ffffffffffffffffffffffffffffffffffffffff1663f242432a308360045489600001546040518563ffffffff1660e01b81526004016121ab949392919061452f565b600060405180830381600087803b1580156121c557600080fd5b505af11580156121d9573d6000803e3d6000fd5b50505050600160009054906101000a900473ffffffffffffffffffffffffffffffffffffffff1673ffffffffffffffffffffffffffffffffffffffff1663f242432a8383886002015460006040518563ffffffff1660e01b8152600401612243949392919061447f565b600060405180830381600087803b15801561225d57600080fd5b505af1158015612271573d6000803e3d6000fd5b50505050600197505050505050505b50919050565b60025481565b60045481565b61229a613c3a565b73ffffffffffffffffffffffffffffffffffffffff166122b8612738565b73ffffffffffffffffffffffffffffffffffffffff161461230e576040517f08c379a0000000000000000000000000000000000000000000000000000000008152600401612305906147cb565b60405180910390fd5b6123186000613c42565b565b600160009054906101000a900473ffffffffffffffffffffffffffffffffffffffff1681565b600081600073ffffffffffffffffffffffffffffffffffffffff16600160009054906101000a900473ffffffffffffffffffffffffffffffffffffffff1673ffffffffffffffffffffffffffffffffffffffff16633fa9f7f3836040518263ffffffff1660e01b81526004016123b691906148eb565b60206040518083038186803b1580156123ce57600080fd5b505afa1580156123e2573d6000803e3d6000fd5b505050506040513d601f19601f820116820180604052508101906124069190613ea9565b73ffffffffffffffffffffffffffffffffffffffff16141561245d576040517f08c379a00000000000000000000000000000000000000000000000000000000081526004016124549061472b565b60405180910390fd5b600254600160009054906101000a900473ffffffffffffffffffffffffffffffffffffffff1673ffffffffffffffffffffffffffffffffffffffff1663e4b5b61a836040518263ffffffff1660e01b81526004016124bb91906148eb565b60206040518083038186803b1580156124d357600080fd5b505afa1580156124e7573d6000803e3d6000fd5b505050506040513d601f19601f8201168201806040525081019061250b919061401e565b1461254b576040517f08c379a0000000000000000000000000000000000000000000000000000000008152600401612542906147ab565b60405180910390fd5b6000341161258e576040517f08c379a00000000000000000000000000000000000000000000000000000000081526004016125859061482b565b60405180910390fd5b6000600160009054906101000a900473ffffffffffffffffffffffffffffffffffffffff1673ffffffffffffffffffffffffffffffffffffffff16633fa9f7f3856040518263ffffffff1660e01b81526004016125eb91906148eb565b60206040518083038186803b15801561260357600080fd5b505afa158015612617573d6000803e3d6000fd5b505050506040513d601f19601f8201168201806040525081019061263b9190613ea9565b9050600160009054906101000a900473ffffffffffffffffffffffffffffffffffffffff1673ffffffffffffffffffffffffffffffffffffffff1663a1eb70016004548361268888613ba3565b6040518463ffffffff1660e01b81526004016126a69392919061492f565b600060405180830381600087803b1580156126c057600080fd5b505af11580156126d4573d6000803e3d6000fd5b505050506126fe346007600087815260200190815260200160002054613c2490919063ffffffff16565b6007600086815260200190815260200160002081905550426008600086815260200190815260200160002081905550600192505050919050565b60008060009054906101000a900473ffffffffffffffffffffffffffffffffffffffff16905090565b6000600160009054906101000a900473ffffffffffffffffffffffffffffffffffffffff1673ffffffffffffffffffffffffffffffffffffffff1663bd85b0396003546040518263ffffffff1660e01b81526004016127c091906148eb565b60206040518083038186803b1580156127d857600080fd5b505afa1580156127ec573d6000803e3d6000fd5b505050506040513d601f19601f82011682018060405250810190612810919061401e565b905090565b600160009054906101000a900473ffffffffffffffffffffffffffffffffffffffff1673ffffffffffffffffffffffffffffffffffffffff1663f242432a33848460016040518563ffffffff1660e01b815260040161287794939291906144d7565b600060405180830381600087803b15801561289157600080fd5b505af11580156128a5573d6000803e3d6000fd5b505050505050565b6000600160009054906101000a900473ffffffffffffffffffffffffffffffffffffffff1673ffffffffffffffffffffffffffffffffffffffff1662fdd58e836004546040518363ffffffff1660e01b815260040161290d9291906145b7565b60206040518083038186803b15801561292557600080fd5b505afa158015612939573d6000803e3d6000fd5b505050506040513d601f19601f8201168201806040525081019061295d919061401e565b9050919050565b60008160065481106129ab576040517f08c379a00000000000000000000000000000000000000000000000000000000081526004016129a29061484b565b60405180910390fd5b6009600082815260200190815260200160002060050160009054906101000a900460ff1615612a0f576040517f08c379a0000000000000000000000000000000000000000000000000000000008152600401612a06906148ab565b60405180910390fd5b6006548310612a53576040517f08c379a0000000000000000000000000000000000000000000000000000000008152600401612a4a9061484b565b60405180910390fd5b60006009600085815260200190815260200160002090508060050160009054906101000a900460ff1615612abc576040517f08c379a0000000000000000000000000000000000000000000000000000000008152600401612ab3906148ab565b60405180910390fd5b6000612af0670de0b6b3a7640000600760008560020154815260200190815260200160002054613c2490919063ffffffff16565b90506000612b3c670de0b6b3a7640000612b2e8560000154600760008860020154815260200190815260200160002054613c2490919063ffffffff16565b613c2490919063ffffffff16565b9050612b4882826137ee565b945050505050919050565b60006060600160009054906101000a900473ffffffffffffffffffffffffffffffffffffffff1673ffffffffffffffffffffffffffffffffffffffff16633fa9f7f3846040518263ffffffff1660e01b8152600401612bb291906148eb565b60206040518083038186803b158015612bca57600080fd5b505afa158015612bde573d6000803e3d6000fd5b505050506040513d601f19601f82011682018060405250810190612c029190613ea9565b600160009054906101000a900473ffffffffffffffffffffffffffffffffffffffff1673ffffffffffffffffffffffffffffffffffffffff16636914db60856040518263ffffffff1660e01b8152600401612c5d91906148eb565b60006040518083038186803b158015612c7557600080fd5b505afa158015612c89573d6000803e3d6000fd5b505050506040513d6000823e3d601f19601f82011682018060405250810190612cb29190613fb4565b91509150915091565b600080600160009054906101000a900473ffffffffffffffffffffffffffffffffffffffff1673ffffffffffffffffffffffffffffffffffffffff16633fa9f7f3846040518263ffffffff1660e01b8152600401612d1991906148eb565b60206040518083038186803b158015612d3157600080fd5b505afa158015612d45573d6000803e3d6000fd5b505050506040513d601f19601f82011682018060405250810190612d699190613ea9565b9050670de0b6b3a7640000600160009054906101000a900473ffffffffffffffffffffffffffffffffffffffff1673ffffffffffffffffffffffffffffffffffffffff1662fdd58e336004546040518363ffffffff1660e01b8152600401612dd29291906145b7565b60206040518083038186803b158015612dea57600080fd5b505afa158015612dfe573d6000803e3d6000fd5b505050506040513d601f19601f82011682018060405250810190612e22919061401e565b1015612e63576040517f08c379a0000000000000000000000000000000000000000000000000000000008152600401612e5a9061480b565b60405180910390fd5b600160009054906101000a900473ffffffffffffffffffffffffffffffffffffffff1673ffffffffffffffffffffffffffffffffffffffff1663717b7f3633600454670de0b6b3a76400006040518463ffffffff1660e01b8152600401612ecc93929190614663565b602060405180830381600087803b158015612ee657600080fd5b505af1158015612efa573d6000803e3d6000fd5b505050506040513d601f19601f82011682018060405250810190612f1e9190613f62565b50600160009054906101000a900473ffffffffffffffffffffffffffffffffffffffff1673ffffffffffffffffffffffffffffffffffffffff166398b4ad6f8260035486604051602001612f729190614433565b6040516020818303038152906040526040518463ffffffff1660e01b8152600401612f9f93929190614625565b602060405180830381600087803b158015612fb957600080fd5b505af1158015612fcd573d6000803e3d6000fd5b505050506040513d601f19601f82011682018060405250810190612ff1919061401e565b915050919050565b60006130487001000000000000000000000000000000008360405160200161302191906146b5565b6040516020818303038152906040528051906020012060001c613d0690919063ffffffff16565b9050919050565b60035481565b600081600073ffffffffffffffffffffffffffffffffffffffff16600160009054906101000a900473ffffffffffffffffffffffffffffffffffffffff1673ffffffffffffffffffffffffffffffffffffffff16633fa9f7f3836040518263ffffffff1660e01b81526004016130cb91906148eb565b60206040518083038186803b1580156130e357600080fd5b505afa1580156130f7573d6000803e3d6000fd5b505050506040513d601f19601f8201168201806040525081019061311b9190613ea9565b73ffffffffffffffffffffffffffffffffffffffff161415613172576040517f08c379a00000000000000000000000000000000000000000000000000000000081526004016131699061472b565b60405180910390fd5b600254600160009054906101000a900473ffffffffffffffffffffffffffffffffffffffff1673ffffffffffffffffffffffffffffffffffffffff1663e4b5b61a836040518263ffffffff1660e01b81526004016131d091906148eb565b60206040518083038186803b1580156131e857600080fd5b505afa1580156131fc573d6000803e3d6000fd5b505050506040513d601f19601f82011682018060405250810190613220919061401e565b14613260576040517f08c379a0000000000000000000000000000000000000000000000000000000008152600401613257906147ab565b60405180910390fd5b6000600160009054906101000a900473ffffffffffffffffffffffffffffffffffffffff1673ffffffffffffffffffffffffffffffffffffffff16633fa9f7f3856040518263ffffffff1660e01b81526004016132bd91906148eb565b60206040518083038186803b1580156132d557600080fd5b505afa1580156132e9573d6000803e3d6000fd5b505050506040513d601f19601f8201168201806040525081019061330d9190613ea9565b9050600160009054906101000a900473ffffffffffffffffffffffffffffffffffffffff1673ffffffffffffffffffffffffffffffffffffffff1663a1eb70016004548361335a88613ba3565b6040518463ffffffff1660e01b81526004016133789392919061492f565b600060405180830381600087803b15801561339257600080fd5b505af11580156133a6573d6000803e3d6000fd5b50505050426008600086815260200190815260200160002081905550600160009054906101000a900473ffffffffffffffffffffffffffffffffffffffff1673ffffffffffffffffffffffffffffffffffffffff1662ffc135600454836040518363ffffffff1660e01b8152600401613420929190614906565b602060405180830381600087803b15801561343a57600080fd5b505af115801561344e573d6000803e3d6000fd5b505050506040513d601f19601f82011682018060405250810190613472919061401e565b92505050919050565b600560009054906101000a900473ffffffffffffffffffffffffffffffffffffffff1681565b6134a9613c3a565b73ffffffffffffffffffffffffffffffffffffffff166134c7612738565b73ffffffffffffffffffffffffffffffffffffffff161461351d576040517f08c379a0000000000000000000000000000000000000000000000000000000008152600401613514906147cb565b60405180910390fd5b60001515600060149054906101000a900460ff16151514613573576040517f08c379a000000000000000000000000000000000000000000000000000000000815260040161356a9061488b565b60405180910390fd5b80600160006101000a81548173ffffffffffffffffffffffffffffffffffffffff021916908373ffffffffffffffffffffffffffffffffffffffff160217905550600160009054906101000a900473ffffffffffffffffffffffffffffffffffffffff1673ffffffffffffffffffffffffffffffffffffffff166305caa0ff60006040518263ffffffff1660e01b8152600401613610919061469a565b602060405180830381600087803b15801561362a57600080fd5b505af115801561363e573d6000803e3d6000fd5b505050506040513d601f19601f82011682018060405250810190613662919061401e565b600481905550600160009054906101000a900473ffffffffffffffffffffffffffffffffffffffff1673ffffffffffffffffffffffffffffffffffffffff166305caa0ff60016040518263ffffffff1660e01b81526004016136c4919061469a565b602060405180830381600087803b1580156136de57600080fd5b505af11580156136f2573d6000803e3d6000fd5b505050506040513d601f19601f82011682018060405250810190613716919061401e565b600281905550600160009054906101000a900473ffffffffffffffffffffffffffffffffffffffff1673ffffffffffffffffffffffffffffffffffffffff166305caa0ff60016040518263ffffffff1660e01b8152600401613778919061469a565b602060405180830381600087803b15801561379257600080fd5b505af11580156137a6573d6000803e3d6000fd5b505050506040513d601f19601f820116820180604052508101906137ca919061401e565b6003819055506001600060146101000a81548160ff02191690831515021790555050565b60006138268261381870010000000000000000000000000000000086613d1c90919063ffffffff16565b613d0690919063ffffffff16565b905092915050565b6000613838613c3a565b73ffffffffffffffffffffffffffffffffffffffff16613856612738565b73ffffffffffffffffffffffffffffffffffffffff16146138ac576040517f08c379a00000000000000000000000000000000000000000000000000000000081526004016138a3906147cb565b60405180910390fd5b600160009054906101000a900473ffffffffffffffffffffffffffffffffffffffff1673ffffffffffffffffffffffffffffffffffffffff166398b4ad6f84600254856040518463ffffffff1660e01b815260040161390d93929190614625565b602060405180830381600087803b15801561392757600080fd5b505af115801561393b573d6000803e3d6000fd5b505050506040513d601f19601f8201168201806040525081019061395f919061401e565b905092915050565b600560009054906101000a900473ffffffffffffffffffffffffffffffffffffffff1673ffffffffffffffffffffffffffffffffffffffff1663e8eda9df73eeeeeeeeeeeeeeeeeeeeeeeeeeeeeeeeeeeeeeee833060006040518563ffffffff1660e01b81526004016139dd94939291906145e0565b600060405180830381600087803b1580156139f757600080fd5b505af1158015613a0b573d6000803e3d6000fd5b5050505050565b613a1a613c3a565b73ffffffffffffffffffffffffffffffffffffffff16613a38612738565b73ffffffffffffffffffffffffffffffffffffffff1614613a8e576040517f08c379a0000000000000000000000000000000000000000000000000000000008152600401613a85906147cb565b60405180910390fd5b600073ffffffffffffffffffffffffffffffffffffffff168173ffffffffffffffffffffffffffffffffffffffff161415613afe576040517f08c379a0000000000000000000000000000000000000000000000000000000008152600401613af59061474b565b60405180910390fd5b613b0781613c42565b50565b600160009054906101000a900473ffffffffffffffffffffffffffffffffffffffff1673ffffffffffffffffffffffffffffffffffffffff1663f242432a3384600454856040518563ffffffff1660e01b8152600401613b6d949392919061452f565b600060405180830381600087803b158015613b8757600080fd5b505af1158015613b9b573d6000803e3d6000fd5b505050505050565b600080600860008481526020019081526020016000205414613c1f576000600860008481526020019081526020016000205442613be09190614ad5565b9050613c1b6001613c0d836007600088815260200190815260200160002054613d1c90919063ffffffff16565b613d0690919063ffffffff16565b9150505b919050565b60008183613c3291906149f4565b905092915050565b600033905090565b60008060009054906101000a900473ffffffffffffffffffffffffffffffffffffffff169050816000806101000a81548173ffffffffffffffffffffffffffffffffffffffff021916908373ffffffffffffffffffffffffffffffffffffffff1602179055508173ffffffffffffffffffffffffffffffffffffffff168173ffffffffffffffffffffffffffffffffffffffff167f8be0079c531659141344cd1fd0a4f28419497f9722a3daafe3b4186f6b6457e060405160405180910390a35050565b60008183613d149190614a4a565b905092915050565b60008183613d2a9190614a7b565b905092915050565b6000613d45613d408461498b565b614966565b905082815260208101848484011115613d5d57600080fd5b613d68848285614bc3565b509392505050565b6000613d83613d7e8461498b565b614966565b905082815260208101848484011115613d9b57600080fd5b613da6848285614bd2565b509392505050565b600081359050613dbd8161507e565b92915050565b600081519050613dd28161507e565b92915050565b600081519050613de781615095565b92915050565b600081359050613dfc816150ac565b92915050565b600082601f830112613e1357600080fd5b8135613e23848260208601613d32565b91505092915050565b600082601f830112613e3d57600080fd5b8151613e4d848260208601613d70565b91505092915050565b600081359050613e65816150c3565b92915050565b600081519050613e7a816150c3565b92915050565b600060208284031215613e9257600080fd5b6000613ea084828501613dae565b91505092915050565b600060208284031215613ebb57600080fd5b6000613ec984828501613dc3565b91505092915050565b60008060408385031215613ee557600080fd5b6000613ef385828601613dae565b925050602083013567ffffffffffffffff811115613f1057600080fd5b613f1c85828601613e02565b9150509250929050565b60008060408385031215613f3957600080fd5b6000613f4785828601613dae565b9250506020613f5885828601613e56565b9150509250929050565b600060208284031215613f7457600080fd5b6000613f8284828501613dd8565b91505092915050565b600060208284031215613f9d57600080fd5b6000613fab84828501613ded565b91505092915050565b600060208284031215613fc657600080fd5b600082015167ffffffffffffffff811115613fe057600080fd5b613fec84828501613e2c565b91505092915050565b60006020828403121561400757600080fd5b600061401584828501613e56565b91505092915050565b60006020828403121561403057600080fd5b600061403e84828501613e6b565b91505092915050565b6000806040838503121561405a57600080fd5b600061406885828601613e56565b925050602061407985828601613e56565b9150509250929050565b60008060006060848603121561409857600080fd5b60006140a686828701613e56565b93505060206140b786828701613e56565b92505060406140c886828701613e56565b9150509250925092565b6140db81614b09565b82525050565b6140ea81614b1b565b82525050565b6140f981614b27565b82525050565b61410881614b69565b82525050565b61411781614b8d565b82525050565b61412681614b9f565b82525050565b61413581614bb1565b82525050565b6000614146826149bc565b61415081856149d8565b9350614160818560208601614bd2565b61416981614d16565b840191505092915050565b60006141816017836149d8565b915061418c82614d27565b602082019050919050565b60006141a4601a836149d8565b91506141af82614d50565b602082019050919050565b60006141c76015836149d8565b91506141d282614d79565b602082019050919050565b60006141ea6026836149d8565b91506141f582614da2565b604082019050919050565b600061420d6008836149e9565b915061421882614df1565b600882019050919050565b60006142306016836149d8565b915061423b82614e1a565b602082019050919050565b60006142536016836149d8565b915061425e82614e43565b602082019050919050565b60006142766016836149d8565b915061428182614e6c565b602082019050919050565b60006142996001836149e9565b91506142a482614e95565b600182019050919050565b60006142bc6020836149d8565b91506142c782614ebe565b602082019050919050565b60006142df6015836149d8565b91506142ea82614ee7565b602082019050919050565b60006143026023836149d8565b915061430d82614f10565b604082019050919050565b6000614325601e836149d8565b915061433082614f5f565b602082019050919050565b60006143486000836149c7565b915061435382614f88565b600082019050919050565b600061436b600e836149d8565b915061437682614f8b565b602082019050919050565b600061438e6029836149d8565b915061439982614fb4565b604082019050919050565b60006143b16013836149d8565b91506143bc82615003565b602082019050919050565b60006143d46020836149d8565b91506143df8261502c565b602082019050919050565b60006143f7601a836149d8565b915061440282615055565b602082019050919050565b61441681614b5f565b82525050565b61442d61442882614b5f565b614c7f565b82525050565b600061443e82614200565b915061444a828461441c565b6020820191506144598261428c565b915081905092915050565b600060208201905061447960008301846140d2565b92915050565b600060a08201905061449460008301876140d2565b6144a160208301866140d2565b6144ae604083018561440d565b6144bb606083018461411d565b81810360808301526144cc8161433b565b905095945050505050565b600060a0820190506144ec60008301876140d2565b6144f960208301866140d2565b614506604083018561440d565b614513606083018461412c565b81810360808301526145248161433b565b905095945050505050565b600060a08201905061454460008301876140d2565b61455160208301866140d2565b61455e604083018561440d565b61456b606083018461440d565b818103608083015261457c8161433b565b905095945050505050565b600060408201905061459c60008301856140d2565b81810360208301526145ae818461413b565b90509392505050565b60006040820190506145cc60008301856140d2565b6145d9602083018461440d565b9392505050565b60006080820190506145f560008301876140d2565b614602602083018661440d565b61460f60408301856140d2565b61461c606083018461410e565b95945050505050565b600060608201905061463a60008301866140d2565b614647602083018561440d565b8181036040830152614659818461413b565b9050949350505050565b600060608201905061467860008301866140d2565b614685602083018561440d565b614692604083018461440d565b949350505050565b60006020820190506146af60008301846140e1565b92915050565b60006020820190506146ca60008301846140f0565b92915050565b60006020820190506146e560008301846140ff565b92915050565b6000602082019050818103600083015261470481614174565b9050919050565b6000602082019050818103600083015261472481614197565b9050919050565b60006020820190508181036000830152614744816141ba565b9050919050565b60006020820190508181036000830152614764816141dd565b9050919050565b6000602082019050818103600083015261478481614223565b9050919050565b600060208201905081810360008301526147a481614246565b9050919050565b600060208201905081810360008301526147c481614269565b9050919050565b600060208201905081810360008301526147e4816142af565b9050919050565b60006020820190508181036000830152614804816142d2565b9050919050565b60006020820190508181036000830152614824816142f5565b9050919050565b6000602082019050818103600083015261484481614318565b9050919050565b600060208201905081810360008301526148648161435e565b9050919050565b6000602082019050818103600083015261488481614381565b9050919050565b600060208201905081810360008301526148a4816143a4565b9050919050565b600060208201905081810360008301526148c4816143c7565b9050919050565b600060208201905081810360008301526148e4816143ea565b9050919050565b6000602082019050614900600083018461440d565b92915050565b600060408201905061491b600083018561440d565b61492860208301846140d2565b9392505050565b6000606082019050614944600083018661440d565b61495160208301856140d2565b61495e604083018461440d565b949350505050565b6000614970614981565b905061497c8282614c05565b919050565b6000604051905090565b600067ffffffffffffffff8211156149a6576149a5614ce7565b5b6149af82614d16565b9050602081019050919050565b600081519050919050565b600082825260208201905092915050565b600082825260208201905092915050565b600081905092915050565b60006149ff82614b5f565b9150614a0a83614b5f565b9250827fffffffffffffffffffffffffffffffffffffffffffffffffffffffffffffffff03821115614a3f57614a3e614c89565b5b828201905092915050565b6000614a5582614b5f565b9150614a6083614b5f565b925082614a7057614a6f614cb8565b5b828204905092915050565b6000614a8682614b5f565b9150614a9183614b5f565b9250817fffffffffffffffffffffffffffffffffffffffffffffffffffffffffffffffff0483118215151615614aca57614ac9614c89565b5b828202905092915050565b6000614ae082614b5f565b9150614aeb83614b5f565b925082821015614afe57614afd614c89565b5b828203905092915050565b6000614b1482614b3f565b9050919050565b60008115159050919050565b6000819050919050565b600061ffff82169050919050565b600073ffffffffffffffffffffffffffffffffffffffff82169050919050565b6000819050919050565b6000614b7482614b7b565b9050919050565b6000614b8682614b3f565b9050919050565b6000614b9882614b31565b9050919050565b6000614baa82614b5f565b9050919050565b6000614bbc82614b5f565b9050919050565b82818337600083830152505050565b60005b83811015614bf0578082015181840152602081019050614bd5565b83811115614bff576000848401525b50505050565b614c0e82614d16565b810181811067ffffffffffffffff82111715614c2d57614c2c614ce7565b5b80604052505050565b6000614c4182614b5f565b91507fffffffffffffffffffffffffffffffffffffffffffffffffffffffffffffffff821415614c7457614c73614c89565b5b600182019050919050565b6000819050919050565b7f4e487b7100000000000000000000000000000000000000000000000000000000600052601160045260246000fd5b7f4e487b7100000000000000000000000000000000000000000000000000000000600052601260045260246000fd5b7f4e487b7100000000000000000000000000000000000000000000000000000000600052604160045260246000fd5b6000601f19601f8301169050919050565b7f4d697373696f6e20636f737420697320746f6f206c6f77000000000000000000600082015250565b7f41747461636b20697320616c726561647920636f6d706c657465000000000000600082015250565b7f506c616e657420646f6573206e6f742065786973740000000000000000000000600082015250565b7f4f776e61626c653a206e6577206f776e657220697320746865207a65726f206160008201527f6464726573730000000000000000000000000000000000000000000000000000602082015250565b7f7b706c616e65743a000000000000000000000000000000000000000000000000600082015250565b7f526f636b6574206973206e6f74206120726f636b657400000000000000000000600082015250565b7f41747461636b6572206973206e6f742073656e64657200000000000000000000600082015250565b7f506c616e6574206973206e6f74206120706c616e657400000000000000000000600082015250565b7f7d00000000000000000000000000000000000000000000000000000000000000600082015250565b7f4f776e61626c653a2063616c6c6572206973206e6f7420746865206f776e6572600082015250565b7f526f636b657420646f6573206e6f742065786973740000000000000000000000600082015250565b7f53656e64657220646f6573206e6f74206861766520656e6f7567682062616c6160008201527f6e63650000000000000000000000000000000000000000000000000000000000602082015250565b7f4e6f207374616b696e6720616d6f756e74206973206d656e74696f6e65640000600082015250565b50565b7f496e76616c6964206e756b654964000000000000000000000000000000000000600082015250565b7f53656e64657220646f6573206e6f74206861766520656e6f756768204d41464960008201527f412062616c616e63650000000000000000000000000000000000000000000000602082015250565b7f416c726561647920696e697469616c697a656400000000000000000000000000600082015250565b7f41747461636b2068617320616c7265616479206265656e207265736f6c766564600082015250565b7f41747461636b206e6f742066696e616c697a61626c6520796574000000000000600082015250565b61508781614b09565b811461509257600080fd5b50565b61509e81614b1b565b81146150a957600080fd5b50565b6150b581614b27565b81146150c057600080fd5b50565b6150cc81614b5f565b81146150d757600080fd5b5056fea2646970667358221220f73986d132fbbc2842a89811953aca9625b8403760ea5ee418b92dde5354221364736f6c63430008040033",
  "linkReferences": {},
  "deployedLinkReferences": {}
}