{
  "_format": "hh-sol-artifact-1",
  "contractName": "SpaceMafia",
  "sourceName": "contracts/SpaceMafia.sol",
  "abi": [
    {
      "inputs": [],
      "stateMutability": "nonpayable",
      "type": "constructor"
    },
    {
      "anonymous": false,
      "inputs": [
        {
          "indexed": true,
          "internalType": "address",
          "name": "previousOwner",
          "type": "address"
        },
        {
          "indexed": true,
          "internalType": "address",
          "name": "newOwner",
          "type": "address"
        }
      ],
      "name": "OwnershipTransferred",
      "type": "event"
    },
    {
      "inputs": [
        {
          "internalType": "uint256",
          "name": "_tokenId",
          "type": "uint256"
        }
      ],
      "name": "claimDividends",
      "outputs": [
        {
          "internalType": "uint256",
          "name": "",
          "type": "uint256"
        }
      ],
      "stateMutability": "nonpayable",
      "type": "function"
    },
    {
      "inputs": [
        {
          "internalType": "uint256",
          "name": "_tokenId",
          "type": "uint256"
        }
      ],
      "name": "claimableDividends",
      "outputs": [
        {
          "internalType": "uint256",
          "name": "",
          "type": "uint256"
        }
      ],
      "stateMutability": "view",
      "type": "function"
    },
    {
      "inputs": [
        {
          "internalType": "uint256",
          "name": "_nukeId",
          "type": "uint256"
        }
      ],
      "name": "completeAttack",
      "outputs": [
        {
          "internalType": "bool",
          "name": "",
          "type": "bool"
        }
      ],
      "stateMutability": "nonpayable",
      "type": "function"
    },
    {
      "inputs": [
        {
          "internalType": "uint256",
          "name": "_nukeId",
          "type": "uint256"
        }
      ],
      "name": "defenseProbability",
      "outputs": [
        {
          "internalType": "uint256",
          "name": "",
          "type": "uint256"
        }
      ],
      "stateMutability": "view",
      "type": "function"
    },
    {
      "inputs": [
        {
          "internalType": "uint256",
          "name": "amount",
          "type": "uint256"
        }
      ],
      "name": "depositInAAVE",
      "outputs": [],
      "stateMutability": "payable",
      "type": "function"
    },
    {
      "inputs": [],
      "name": "galaxyToken",
      "outputs": [
        {
          "internalType": "contract GalaxyToken",
          "name": "",
          "type": "address"
        }
      ],
      "stateMutability": "view",
      "type": "function"
    },
    {
      "inputs": [
        {
          "internalType": "address",
          "name": "_galaxyToken",
          "type": "address"
        }
      ],
      "name": "initialize",
      "outputs": [],
      "stateMutability": "nonpayable",
      "type": "function"
    },
    {
      "inputs": [],
      "name": "lendingpool",
      "outputs": [
        {
          "internalType": "address",
          "name": "",
          "type": "address"
        }
      ],
      "stateMutability": "view",
      "type": "function"
    },
    {
      "inputs": [],
      "name": "mafiaToken",
      "outputs": [
        {
          "internalType": "uint256",
          "name": "",
          "type": "uint256"
        }
      ],
      "stateMutability": "view",
      "type": "function"
    },
    {
      "inputs": [
        {
          "internalType": "address",
          "name": "_account",
          "type": "address"
        },
        {
          "internalType": "string",
          "name": "_tokenURI",
          "type": "string"
        }
      ],
      "name": "mintPlanet",
      "outputs": [
        {
          "internalType": "uint256",
          "name": "_id",
          "type": "uint256"
        }
      ],
      "stateMutability": "nonpayable",
      "type": "function"
    },
    {
      "inputs": [
        {
          "internalType": "uint256",
          "name": "_planetId",
          "type": "uint256"
        }
      ],
      "name": "mintRocket",
      "outputs": [
        {
          "internalType": "uint256",
          "name": "_id",
          "type": "uint256"
        }
      ],
      "stateMutability": "nonpayable",
      "type": "function"
    },
    {
      "inputs": [
        {
          "internalType": "uint256",
          "name": "_planetId",
          "type": "uint256"
        },
        {
          "internalType": "uint256",
          "name": "_rocketId",
          "type": "uint256"
        },
        {
          "internalType": "uint256",
          "name": "_missionCost",
          "type": "uint256"
        }
      ],
      "name": "nuke",
      "outputs": [
        {
          "internalType": "uint256",
          "name": "",
          "type": "uint256"
        }
      ],
      "stateMutability": "nonpayable",
      "type": "function"
    },
    {
      "inputs": [],
      "name": "nukeCount",
      "outputs": [
        {
          "internalType": "uint256",
          "name": "",
          "type": "uint256"
        }
      ],
      "stateMutability": "view",
      "type": "function"
    },
    {
      "inputs": [],
      "name": "owner",
      "outputs": [
        {
          "internalType": "address",
          "name": "",
          "type": "address"
        }
      ],
      "stateMutability": "view",
      "type": "function"
    },
    {
      "inputs": [],
      "name": "planetType",
      "outputs": [
        {
          "internalType": "uint256",
          "name": "",
          "type": "uint256"
        }
      ],
      "stateMutability": "view",
      "type": "function"
    },
    {
      "inputs": [],
      "name": "renounceOwnership",
      "outputs": [],
      "stateMutability": "nonpayable",
      "type": "function"
    },
    {
      "inputs": [],
      "name": "rocketType",
      "outputs": [
        {
          "internalType": "uint256",
          "name": "",
          "type": "uint256"
        }
      ],
      "stateMutability": "view",
      "type": "function"
    },
    {
      "inputs": [
        {
          "internalType": "uint256",
          "name": "_tokenId",
          "type": "uint256"
        }
      ],
      "name": "stakeEthOnPlanet",
      "outputs": [
        {
          "internalType": "bool",
          "name": "",
          "type": "bool"
        }
      ],
      "stateMutability": "payable",
      "type": "function"
    },
    {
      "inputs": [
        {
          "internalType": "address",
          "name": "newOwner",
          "type": "address"
        }
      ],
      "name": "transferOwnership",
      "outputs": [],
      "stateMutability": "nonpayable",
      "type": "function"
    }
  ],
  "bytecode": "0x60806040523480156200001157600080fd5b5062000032620000266200003860201b60201c565b6200004060201b60201c565b62000104565b600033905090565b60008060009054906101000a900473ffffffffffffffffffffffffffffffffffffffff169050816000806101000a81548173ffffffffffffffffffffffffffffffffffffffff021916908373ffffffffffffffffffffffffffffffffffffffff1602179055508173ffffffffffffffffffffffffffffffffffffffff168173ffffffffffffffffffffffffffffffffffffffff167f8be0079c531659141344cd1fd0a4f28419497f9722a3daafe3b4186f6b6457e060405160405180910390a35050565b613b7780620001146000396000f3fe6080604052600436106101135760003560e01c80638da5cb5b116100a0578063c496d70811610064578063c496d708146103cf578063c4d66de8146103fa578063c9c9a9f214610423578063f1288a8d14610460578063f2fde38b1461047c57610113565b80638da5cb5b146102c25780639d5dc416146102ed578063b5bab0531461032a578063b8aa6f0214610367578063bd7047c41461039257610113565b806360c92db4116100e757806360c92db4146101fa5780636f21de4d14610225578063715018a6146102505780637328fd73146102675780638a0a866a1461029257610113565b8062d36f92146101185780632b8f107d146101555780633d48f9821461019257806360a138ed146101bd575b600080fd5b34801561012457600080fd5b5061013f600480360381019061013a9190612cc2565b6104a5565b60405161014c919061341c565b60405180910390f35b34801561016157600080fd5b5061017c60048036038101906101779190612d14565b61083d565b604051610189919061341c565b60405180910390f35b34801561019e57600080fd5b506101a7610ff7565b6040516101b4919061341c565b60405180910390f35b3480156101c957600080fd5b506101e460048036038101906101df9190612cc2565b610ffd565b6040516101f1919061322b565b60405180910390f35b34801561020657600080fd5b5061020f611501565b60405161021c919061341c565b60405180910390f35b34801561023157600080fd5b5061023a611507565b604051610247919061341c565b60405180910390f35b34801561025c57600080fd5b5061026561150d565b005b34801561027357600080fd5b5061027c611595565b6040516102899190613261565b60405180910390f35b6102ac60048036038101906102a79190612cc2565b6115bb565b6040516102b9919061322b565b60405180910390f35b3480156102ce57600080fd5b506102d76119bc565b6040516102e4919061307d565b60405180910390f35b3480156102f957600080fd5b50610314600480360381019061030f9190612cc2565b6119e5565b604051610321919061341c565b60405180910390f35b34801561033657600080fd5b50610351600480360381019061034c9190612cc2565b611b50565b60405161035e919061341c565b60405180910390f35b34801561037357600080fd5b5061037c611e8e565b604051610389919061341c565b60405180910390f35b34801561039e57600080fd5b506103b960048036038101906103b49190612cc2565b611e94565b6040516103c6919061341c565b60405180910390f35b3480156103db57600080fd5b506103e46122ba565b6040516103f1919061307d565b60405180910390f35b34801561040657600080fd5b50610421600480360381019061041c9190612bf3565b6122e0565b005b34801561042f57600080fd5b5061044a60048036038101906104459190612c45565b61268e565b604051610457919061341c565b60405180910390f35b61047a60048036038101906104759190612cc2565b6127c7565b005b34801561048857600080fd5b506104a3600480360381019061049e9190612bf3565b612872565b005b600081600073ffffffffffffffffffffffffffffffffffffffff16600160009054906101000a900473ffffffffffffffffffffffffffffffffffffffff1673ffffffffffffffffffffffffffffffffffffffff16633fa9f7f3836040518263ffffffff1660e01b815260040161051b919061341c565b60206040518083038186803b15801561053357600080fd5b505afa158015610547573d6000803e3d6000fd5b505050506040513d601f19601f8201168201806040525081019061056b9190612c1c565b73ffffffffffffffffffffffffffffffffffffffff1614156105c2576040517f08c379a00000000000000000000000000000000000000000000000000000000081526004016105b99061329c565b60405180910390fd5b600254600160009054906101000a900473ffffffffffffffffffffffffffffffffffffffff1673ffffffffffffffffffffffffffffffffffffffff1663e4b5b61a836040518263ffffffff1660e01b8152600401610620919061341c565b60206040518083038186803b15801561063857600080fd5b505afa15801561064c573d6000803e3d6000fd5b505050506040513d601f19601f820116820180604052508101906106709190612ceb565b146106b0576040517f08c379a00000000000000000000000000000000000000000000000000000000081526004016106a79061331c565b60405180910390fd5b6000600160009054906101000a900473ffffffffffffffffffffffffffffffffffffffff1673ffffffffffffffffffffffffffffffffffffffff16633fa9f7f3856040518263ffffffff1660e01b815260040161070d919061341c565b60206040518083038186803b15801561072557600080fd5b505afa158015610739573d6000803e3d6000fd5b505050506040513d601f19601f8201168201806040525081019061075d9190612c1c565b90506000600160009054906101000a900473ffffffffffffffffffffffffffffffffffffffff1673ffffffffffffffffffffffffffffffffffffffff166379b8d938836004546040518363ffffffff1660e01b81526004016107c0929190613148565b60206040518083038186803b1580156107d857600080fd5b505afa1580156107ec573d6000803e3d6000fd5b505050506040513d601f19601f820116820180604052508101906108109190612ceb565b9050600061081d8661296a565b90506108328183612a1490919063ffffffff16565b945050505050919050565b600083600073ffffffffffffffffffffffffffffffffffffffff16600160009054906101000a900473ffffffffffffffffffffffffffffffffffffffff1673ffffffffffffffffffffffffffffffffffffffff16633fa9f7f3836040518263ffffffff1660e01b81526004016108b3919061341c565b60206040518083038186803b1580156108cb57600080fd5b505afa1580156108df573d6000803e3d6000fd5b505050506040513d601f19601f820116820180604052508101906109039190612c1c565b73ffffffffffffffffffffffffffffffffffffffff16141561095a576040517f08c379a00000000000000000000000000000000000000000000000000000000081526004016109519061329c565b60405180910390fd5b600254600160009054906101000a900473ffffffffffffffffffffffffffffffffffffffff1673ffffffffffffffffffffffffffffffffffffffff1663e4b5b61a836040518263ffffffff1660e01b81526004016109b8919061341c565b60206040518083038186803b1580156109d057600080fd5b505afa1580156109e4573d6000803e3d6000fd5b505050506040513d601f19601f82011682018060405250810190610a089190612ceb565b14610a48576040517f08c379a0000000000000000000000000000000000000000000000000000000008152600401610a3f9061331c565b60405180910390fd5b83600073ffffffffffffffffffffffffffffffffffffffff16600160009054906101000a900473ffffffffffffffffffffffffffffffffffffffff1673ffffffffffffffffffffffffffffffffffffffff16633fa9f7f3836040518263ffffffff1660e01b8152600401610abc919061341c565b60206040518083038186803b158015610ad457600080fd5b505afa158015610ae8573d6000803e3d6000fd5b505050506040513d601f19601f82011682018060405250810190610b0c9190612c1c565b73ffffffffffffffffffffffffffffffffffffffff161415610b63576040517f08c379a0000000000000000000000000000000000000000000000000000000008152600401610b5a9061335c565b60405180910390fd5b600354600160009054906101000a900473ffffffffffffffffffffffffffffffffffffffff1673ffffffffffffffffffffffffffffffffffffffff1663e4b5b61a836040518263ffffffff1660e01b8152600401610bc1919061341c565b60206040518083038186803b158015610bd957600080fd5b505afa158015610bed573d6000803e3d6000fd5b505050506040513d601f19601f82011682018060405250810190610c119190612ceb565b14610c51576040517f08c379a0000000000000000000000000000000000000000000000000000000008152600401610c48906132dc565b60405180910390fd5b6000600160009054906101000a900473ffffffffffffffffffffffffffffffffffffffff1673ffffffffffffffffffffffffffffffffffffffff16633fa9f7f3876040518263ffffffff1660e01b8152600401610cae919061341c565b60206040518083038186803b158015610cc657600080fd5b505afa158015610cda573d6000803e3d6000fd5b505050506040513d601f19601f82011682018060405250810190610cfe9190612c1c565b90503373ffffffffffffffffffffffffffffffffffffffff168173ffffffffffffffffffffffffffffffffffffffff1614610d6e576040517f08c379a0000000000000000000000000000000000000000000000000000000008152600401610d65906132fc565b60405180910390fd5b670de0b6b3a7640000851015610db9576040517f08c379a0000000000000000000000000000000000000000000000000000000008152600401610db09061327c565b60405180910390fd5b84600160009054906101000a900473ffffffffffffffffffffffffffffffffffffffff1673ffffffffffffffffffffffffffffffffffffffff1662fdd58e336004546040518363ffffffff1660e01b8152600401610e18929190613148565b60206040518083038186803b158015610e3057600080fd5b505afa158015610e44573d6000803e3d6000fd5b505050506040513d601f19601f82011682018060405250810190610e689190612ceb565b1015610ea9576040517f08c379a0000000000000000000000000000000000000000000000000000000008152600401610ea09061337c565b60405180910390fd5b6040518060a00160405280868152602001878152602001888152602001601443610ed39190613525565b8152602001600015158152506009600060065481526020019081526020016000206000820151816000015560208201518160010155604082015181600201556060820151816003015560808201518160040160006101000a81548160ff021916908315150217905550905050600160009054906101000a900473ffffffffffffffffffffffffffffffffffffffff1673ffffffffffffffffffffffffffffffffffffffff1663f242432a3330600454896040518563ffffffff1660e01b8152600401610fa294939291906130f0565b600060405180830381600087803b158015610fbc57600080fd5b505af1158015610fd0573d6000803e3d6000fd5b5050505060066000815480929190610fe790613755565b9190505593505050509392505050565b60065481565b600080611009836119e5565b9050600060096000858152602001908152602001600020905060008160030154905080431161106d576040517f08c379a0000000000000000000000000000000000000000000000000000000008152600401611064906133fc565b60405180910390fd5b60006110bd70010000000000000000000000000000000083406040516020016110969190613246565b6040516020818303038152906040528051906020012060001c612a2a90919063ffffffff16565b905083811161123d576000600160009054906101000a900473ffffffffffffffffffffffffffffffffffffffff1673ffffffffffffffffffffffffffffffffffffffff16633fa9f7f385600201546040518263ffffffff1660e01b8152600401611127919061341c565b60206040518083038186803b15801561113f57600080fd5b505afa158015611153573d6000803e3d6000fd5b505050506040513d601f19601f820116820180604052508101906111779190612c1c565b9050600160009054906101000a900473ffffffffffffffffffffffffffffffffffffffff1673ffffffffffffffffffffffffffffffffffffffff1663f242432a308360045488600001546040518563ffffffff1660e01b81526004016111e094939291906130f0565b600060405180830381600087803b1580156111fa57600080fd5b505af115801561120e573d6000803e3d6000fd5b5050505060018460040160006101000a81548160ff0219169083151502179055506000955050505050506114fc565b6000600160009054906101000a900473ffffffffffffffffffffffffffffffffffffffff1673ffffffffffffffffffffffffffffffffffffffff16633fa9f7f385600201546040518263ffffffff1660e01b815260040161129e919061341c565b60206040518083038186803b1580156112b657600080fd5b505afa1580156112ca573d6000803e3d6000fd5b505050506040513d601f19601f820116820180604052508101906112ee9190612c1c565b90506000600160009054906101000a900473ffffffffffffffffffffffffffffffffffffffff1673ffffffffffffffffffffffffffffffffffffffff16633fa9f7f386600101546040518263ffffffff1660e01b8152600401611351919061341c565b60206040518083038186803b15801561136957600080fd5b505afa15801561137d573d6000803e3d6000fd5b505050506040513d601f19601f820116820180604052508101906113a19190612c1c565b9050600160009054906101000a900473ffffffffffffffffffffffffffffffffffffffff1673ffffffffffffffffffffffffffffffffffffffff1663f242432a308360045489600001546040518563ffffffff1660e01b815260040161140a94939291906130f0565b600060405180830381600087803b15801561142457600080fd5b505af1158015611438573d6000803e3d6000fd5b50505050600160009054906101000a900473ffffffffffffffffffffffffffffffffffffffff1673ffffffffffffffffffffffffffffffffffffffff1663f242432a8383886002015460006040518563ffffffff1660e01b81526004016114a29493929190613098565b600060405180830381600087803b1580156114bc57600080fd5b505af11580156114d0573d6000803e3d6000fd5b5050505060018560040160006101000a81548160ff021916908315150217905550600196505050505050505b919050565b60025481565b60045481565b611515612a40565b73ffffffffffffffffffffffffffffffffffffffff166115336119bc565b73ffffffffffffffffffffffffffffffffffffffff1614611589576040517f08c379a00000000000000000000000000000000000000000000000000000000081526004016115809061333c565b60405180910390fd5b6115936000612a48565b565b600160009054906101000a900473ffffffffffffffffffffffffffffffffffffffff1681565b600081600073ffffffffffffffffffffffffffffffffffffffff16600160009054906101000a900473ffffffffffffffffffffffffffffffffffffffff1673ffffffffffffffffffffffffffffffffffffffff16633fa9f7f3836040518263ffffffff1660e01b8152600401611631919061341c565b60206040518083038186803b15801561164957600080fd5b505afa15801561165d573d6000803e3d6000fd5b505050506040513d601f19601f820116820180604052508101906116819190612c1c565b73ffffffffffffffffffffffffffffffffffffffff1614156116d8576040517f08c379a00000000000000000000000000000000000000000000000000000000081526004016116cf9061329c565b60405180910390fd5b600254600160009054906101000a900473ffffffffffffffffffffffffffffffffffffffff1673ffffffffffffffffffffffffffffffffffffffff1663e4b5b61a836040518263ffffffff1660e01b8152600401611736919061341c565b60206040518083038186803b15801561174e57600080fd5b505afa158015611762573d6000803e3d6000fd5b505050506040513d601f19601f820116820180604052508101906117869190612ceb565b146117c6576040517f08c379a00000000000000000000000000000000000000000000000000000000081526004016117bd9061331c565b60405180910390fd5b60003411611809576040517f08c379a00000000000000000000000000000000000000000000000000000000081526004016118009061339c565b60405180910390fd5b6000600160009054906101000a900473ffffffffffffffffffffffffffffffffffffffff1673ffffffffffffffffffffffffffffffffffffffff16633fa9f7f3856040518263ffffffff1660e01b8152600401611866919061341c565b60206040518083038186803b15801561187e57600080fd5b505afa158015611892573d6000803e3d6000fd5b505050506040513d601f19601f820116820180604052508101906118b69190612c1c565b9050600160009054906101000a900473ffffffffffffffffffffffffffffffffffffffff1673ffffffffffffffffffffffffffffffffffffffff1663a1eb7001600454836119038861296a565b6040518463ffffffff1660e01b815260040161192193929190613460565b600060405180830381600087803b15801561193b57600080fd5b505af115801561194f573d6000803e3d6000fd5b50505050611979346007600087815260200190815260200160002054612a1490919063ffffffff16565b6007600086815260200190815260200160002081905550611999346127c7565b426008600086815260200190815260200160002081905550600192505050919050565b60008060009054906101000a900473ffffffffffffffffffffffffffffffffffffffff16905090565b60006006548210611a2b576040517f08c379a0000000000000000000000000000000000000000000000000000000008152600401611a22906133bc565b60405180910390fd5b60006009600084815260200190815260200160002090508060040160009054906101000a900460ff1615611a94576040517f08c379a0000000000000000000000000000000000000000000000000000000008152600401611a8b906133dc565b60405180910390fd5b6000611ade670de0b6b3a7640000611ad08460000154600760008760020154815260200190815260200160002054612a1490919063ffffffff16565b612a1490919063ffffffff16565b9050611b4781611b39700100000000000000000000000000000000611b2b670de0b6b3a7640000600760008960020154815260200190815260200160002054612a1490919063ffffffff16565b612b0c90919063ffffffff16565b612a2a90919063ffffffff16565b92505050919050565b600080600160009054906101000a900473ffffffffffffffffffffffffffffffffffffffff1673ffffffffffffffffffffffffffffffffffffffff16633fa9f7f3846040518263ffffffff1660e01b8152600401611bae919061341c565b60206040518083038186803b158015611bc657600080fd5b505afa158015611bda573d6000803e3d6000fd5b505050506040513d601f19601f82011682018060405250810190611bfe9190612c1c565b9050670de0b6b3a7640000600160009054906101000a900473ffffffffffffffffffffffffffffffffffffffff1673ffffffffffffffffffffffffffffffffffffffff1662fdd58e336004546040518363ffffffff1660e01b8152600401611c67929190613148565b60206040518083038186803b158015611c7f57600080fd5b505afa158015611c93573d6000803e3d6000fd5b505050506040513d601f19601f82011682018060405250810190611cb79190612ceb565b1015611cf8576040517f08c379a0000000000000000000000000000000000000000000000000000000008152600401611cef9061337c565b60405180910390fd5b600160009054906101000a900473ffffffffffffffffffffffffffffffffffffffff1673ffffffffffffffffffffffffffffffffffffffff1663717b7f3633600454670de0b6b3a76400006040518463ffffffff1660e01b8152600401611d61939291906131f4565b602060405180830381600087803b158015611d7b57600080fd5b505af1158015611d8f573d6000803e3d6000fd5b505050506040513d601f19601f82011682018060405250810190611db39190612c99565b50600160009054906101000a900473ffffffffffffffffffffffffffffffffffffffff1673ffffffffffffffffffffffffffffffffffffffff166398b4ad6f8260035486604051602001611e07919061304c565b6040516020818303038152906040526040518463ffffffff1660e01b8152600401611e34939291906131b6565b602060405180830381600087803b158015611e4e57600080fd5b505af1158015611e62573d6000803e3d6000fd5b505050506040513d601f19601f82011682018060405250810190611e869190612ceb565b915050919050565b60035481565b600081600073ffffffffffffffffffffffffffffffffffffffff16600160009054906101000a900473ffffffffffffffffffffffffffffffffffffffff1673ffffffffffffffffffffffffffffffffffffffff16633fa9f7f3836040518263ffffffff1660e01b8152600401611f0a919061341c565b60206040518083038186803b158015611f2257600080fd5b505afa158015611f36573d6000803e3d6000fd5b505050506040513d601f19601f82011682018060405250810190611f5a9190612c1c565b73ffffffffffffffffffffffffffffffffffffffff161415611fb1576040517f08c379a0000000000000000000000000000000000000000000000000000000008152600401611fa89061329c565b60405180910390fd5b600254600160009054906101000a900473ffffffffffffffffffffffffffffffffffffffff1673ffffffffffffffffffffffffffffffffffffffff1663e4b5b61a836040518263ffffffff1660e01b815260040161200f919061341c565b60206040518083038186803b15801561202757600080fd5b505afa15801561203b573d6000803e3d6000fd5b505050506040513d601f19601f8201168201806040525081019061205f9190612ceb565b1461209f576040517f08c379a00000000000000000000000000000000000000000000000000000000081526004016120969061331c565b60405180910390fd5b6000600160009054906101000a900473ffffffffffffffffffffffffffffffffffffffff1673ffffffffffffffffffffffffffffffffffffffff16633fa9f7f3856040518263ffffffff1660e01b81526004016120fc919061341c565b60206040518083038186803b15801561211457600080fd5b505afa158015612128573d6000803e3d6000fd5b505050506040513d601f19601f8201168201806040525081019061214c9190612c1c565b9050600160009054906101000a900473ffffffffffffffffffffffffffffffffffffffff1673ffffffffffffffffffffffffffffffffffffffff1663a1eb7001600454836121998861296a565b6040518463ffffffff1660e01b81526004016121b793929190613460565b600060405180830381600087803b1580156121d157600080fd5b505af11580156121e5573d6000803e3d6000fd5b50505050426008600086815260200190815260200160002081905550600160009054906101000a900473ffffffffffffffffffffffffffffffffffffffff1673ffffffffffffffffffffffffffffffffffffffff1662ffc135600454836040518363ffffffff1660e01b815260040161225f929190613437565b602060405180830381600087803b15801561227957600080fd5b505af115801561228d573d6000803e3d6000fd5b505050506040513d601f19601f820116820180604052508101906122b19190612ceb565b92505050919050565b600560009054906101000a900473ffffffffffffffffffffffffffffffffffffffff1681565b6122e8612a40565b73ffffffffffffffffffffffffffffffffffffffff166123066119bc565b73ffffffffffffffffffffffffffffffffffffffff161461235c576040517f08c379a00000000000000000000000000000000000000000000000000000000081526004016123539061333c565b60405180910390fd5b80600160006101000a81548173ffffffffffffffffffffffffffffffffffffffff021916908373ffffffffffffffffffffffffffffffffffffffff160217905550600160009054906101000a900473ffffffffffffffffffffffffffffffffffffffff1673ffffffffffffffffffffffffffffffffffffffff166305caa0ff60006040518263ffffffff1660e01b81526004016123f9919061322b565b602060405180830381600087803b15801561241357600080fd5b505af1158015612427573d6000803e3d6000fd5b505050506040513d601f19601f8201168201806040525081019061244b9190612ceb565b600481905550600160009054906101000a900473ffffffffffffffffffffffffffffffffffffffff1673ffffffffffffffffffffffffffffffffffffffff166305caa0ff60016040518263ffffffff1660e01b81526004016124ad919061322b565b602060405180830381600087803b1580156124c757600080fd5b505af11580156124db573d6000803e3d6000fd5b505050506040513d601f19601f820116820180604052508101906124ff9190612ceb565b600281905550600160009054906101000a900473ffffffffffffffffffffffffffffffffffffffff1673ffffffffffffffffffffffffffffffffffffffff166305caa0ff60016040518263ffffffff1660e01b8152600401612561919061322b565b602060405180830381600087803b15801561257b57600080fd5b505af115801561258f573d6000803e3d6000fd5b505050506040513d601f19601f820116820180604052508101906125b39190612ceb565b6003819055507324a42fd28c976a61df5d00d0599c34c4f90748c873ffffffffffffffffffffffffffffffffffffffff16630261bf8b6040518163ffffffff1660e01b815260040160206040518083038186803b15801561261357600080fd5b505afa158015612627573d6000803e3d6000fd5b505050506040513d601f19601f8201168201806040525081019061264b9190612c1c565b600560006101000a81548173ffffffffffffffffffffffffffffffffffffffff021916908373ffffffffffffffffffffffffffffffffffffffff16021790555050565b6000612698612a40565b73ffffffffffffffffffffffffffffffffffffffff166126b66119bc565b73ffffffffffffffffffffffffffffffffffffffff161461270c576040517f08c379a00000000000000000000000000000000000000000000000000000000081526004016127039061333c565b60405180910390fd5b600160009054906101000a900473ffffffffffffffffffffffffffffffffffffffff1673ffffffffffffffffffffffffffffffffffffffff166398b4ad6f84600254856040518463ffffffff1660e01b815260040161276d939291906131b6565b602060405180830381600087803b15801561278757600080fd5b505af115801561279b573d6000803e3d6000fd5b505050506040513d601f19601f820116820180604052508101906127bf9190612ceb565b905092915050565b600560009054906101000a900473ffffffffffffffffffffffffffffffffffffffff1673ffffffffffffffffffffffffffffffffffffffff1663e8eda9df73eeeeeeeeeeeeeeeeeeeeeeeeeeeeeeeeeeeeeeee833060006040518563ffffffff1660e01b815260040161283d9493929190613171565b600060405180830381600087803b15801561285757600080fd5b505af115801561286b573d6000803e3d6000fd5b5050505050565b61287a612a40565b73ffffffffffffffffffffffffffffffffffffffff166128986119bc565b73ffffffffffffffffffffffffffffffffffffffff16146128ee576040517f08c379a00000000000000000000000000000000000000000000000000000000081526004016128e59061333c565b60405180910390fd5b600073ffffffffffffffffffffffffffffffffffffffff168173ffffffffffffffffffffffffffffffffffffffff16141561295e576040517f08c379a0000000000000000000000000000000000000000000000000000000008152600401612955906132bc565b60405180910390fd5b61296781612a48565b50565b600080600860008481526020019081526020016000205414612a0f5760006008600084815260200190815260200160002054426129a79190613606565b90506000600a6129c1600184612a2a90919063ffffffff16565b116129df576129da600183612a2a90919063ffffffff16565b6129e2565b600a5b9050612a0a816007600087815260200190815260200160002054612b0c90919063ffffffff16565b925050505b919050565b60008183612a229190613525565b905092915050565b60008183612a38919061357b565b905092915050565b600033905090565b60008060009054906101000a900473ffffffffffffffffffffffffffffffffffffffff169050816000806101000a81548173ffffffffffffffffffffffffffffffffffffffff021916908373ffffffffffffffffffffffffffffffffffffffff1602179055508173ffffffffffffffffffffffffffffffffffffffff168173ffffffffffffffffffffffffffffffffffffffff167f8be0079c531659141344cd1fd0a4f28419497f9722a3daafe3b4186f6b6457e060405160405180910390a35050565b60008183612b1a91906135ac565b905092915050565b6000612b35612b30846134bc565b613497565b905082815260208101848484011115612b4d57600080fd5b612b588482856136e2565b509392505050565b600081359050612b6f81613afc565b92915050565b600081519050612b8481613afc565b92915050565b600081519050612b9981613b13565b92915050565b600082601f830112612bb057600080fd5b8135612bc0848260208601612b22565b91505092915050565b600081359050612bd881613b2a565b92915050565b600081519050612bed81613b2a565b92915050565b600060208284031215612c0557600080fd5b6000612c1384828501612b60565b91505092915050565b600060208284031215612c2e57600080fd5b6000612c3c84828501612b75565b91505092915050565b60008060408385031215612c5857600080fd5b6000612c6685828601612b60565b925050602083013567ffffffffffffffff811115612c8357600080fd5b612c8f85828601612b9f565b9150509250929050565b600060208284031215612cab57600080fd5b6000612cb984828501612b8a565b91505092915050565b600060208284031215612cd457600080fd5b6000612ce284828501612bc9565b91505092915050565b600060208284031215612cfd57600080fd5b6000612d0b84828501612bde565b91505092915050565b600080600060608486031215612d2957600080fd5b6000612d3786828701612bc9565b9350506020612d4886828701612bc9565b9250506040612d5986828701612bc9565b9150509250925092565b612d6c8161363a565b82525050565b612d7b8161364c565b82525050565b612d8a81613658565b82525050565b612d998161369a565b82525050565b612da8816136be565b82525050565b612db7816136d0565b82525050565b6000612dc8826134ed565b612dd28185613509565b9350612de28185602086016136f1565b612deb81613835565b840191505092915050565b6000612e03601783613509565b9150612e0e82613846565b602082019050919050565b6000612e26601583613509565b9150612e318261386f565b602082019050919050565b6000612e49602683613509565b9150612e5482613898565b604082019050919050565b6000612e6c60088361351a565b9150612e77826138e7565b600882019050919050565b6000612e8f601683613509565b9150612e9a82613910565b602082019050919050565b6000612eb2601683613509565b9150612ebd82613939565b602082019050919050565b6000612ed5601683613509565b9150612ee082613962565b602082019050919050565b6000612ef860018361351a565b9150612f038261398b565b600182019050919050565b6000612f1b602083613509565b9150612f26826139b4565b602082019050919050565b6000612f3e601583613509565b9150612f49826139dd565b602082019050919050565b6000612f61602383613509565b9150612f6c82613a06565b604082019050919050565b6000612f84601e83613509565b9150612f8f82613a55565b602082019050919050565b6000612fa76000836134f8565b9150612fb282613a7e565b600082019050919050565b6000612fca600e83613509565b9150612fd582613a81565b602082019050919050565b6000612fed602083613509565b9150612ff882613aaa565b602082019050919050565b6000613010601a83613509565b915061301b82613ad3565b602082019050919050565b61302f81613690565b82525050565b61304661304182613690565b61379e565b82525050565b600061305782612e5f565b91506130638284613035565b60208201915061307282612eeb565b915081905092915050565b60006020820190506130926000830184612d63565b92915050565b600060a0820190506130ad6000830187612d63565b6130ba6020830186612d63565b6130c76040830185613026565b6130d46060830184612dae565b81810360808301526130e581612f9a565b905095945050505050565b600060a0820190506131056000830187612d63565b6131126020830186612d63565b61311f6040830185613026565b61312c6060830184613026565b818103608083015261313d81612f9a565b905095945050505050565b600060408201905061315d6000830185612d63565b61316a6020830184613026565b9392505050565b60006080820190506131866000830187612d63565b6131936020830186613026565b6131a06040830185612d63565b6131ad6060830184612d9f565b95945050505050565b60006060820190506131cb6000830186612d63565b6131d86020830185613026565b81810360408301526131ea8184612dbd565b9050949350505050565b60006060820190506132096000830186612d63565b6132166020830185613026565b6132236040830184613026565b949350505050565b60006020820190506132406000830184612d72565b92915050565b600060208201905061325b6000830184612d81565b92915050565b60006020820190506132766000830184612d90565b92915050565b6000602082019050818103600083015261329581612df6565b9050919050565b600060208201905081810360008301526132b581612e19565b9050919050565b600060208201905081810360008301526132d581612e3c565b9050919050565b600060208201905081810360008301526132f581612e82565b9050919050565b6000602082019050818103600083015261331581612ea5565b9050919050565b6000602082019050818103600083015261333581612ec8565b9050919050565b6000602082019050818103600083015261335581612f0e565b9050919050565b6000602082019050818103600083015261337581612f31565b9050919050565b6000602082019050818103600083015261339581612f54565b9050919050565b600060208201905081810360008301526133b581612f77565b9050919050565b600060208201905081810360008301526133d581612fbd565b9050919050565b600060208201905081810360008301526133f581612fe0565b9050919050565b6000602082019050818103600083015261341581613003565b9050919050565b60006020820190506134316000830184613026565b92915050565b600060408201905061344c6000830185613026565b6134596020830184612d63565b9392505050565b60006060820190506134756000830186613026565b6134826020830185612d63565b61348f6040830184613026565b949350505050565b60006134a16134b2565b90506134ad8282613724565b919050565b6000604051905090565b600067ffffffffffffffff8211156134d7576134d6613806565b5b6134e082613835565b9050602081019050919050565b600081519050919050565b600082825260208201905092915050565b600082825260208201905092915050565b600081905092915050565b600061353082613690565b915061353b83613690565b9250827fffffffffffffffffffffffffffffffffffffffffffffffffffffffffffffffff038211156135705761356f6137a8565b5b828201905092915050565b600061358682613690565b915061359183613690565b9250826135a1576135a06137d7565b5b828204905092915050565b60006135b782613690565b91506135c283613690565b9250817fffffffffffffffffffffffffffffffffffffffffffffffffffffffffffffffff04831182151516156135fb576135fa6137a8565b5b828202905092915050565b600061361182613690565b915061361c83613690565b92508282101561362f5761362e6137a8565b5b828203905092915050565b600061364582613670565b9050919050565b60008115159050919050565b6000819050919050565b600061ffff82169050919050565b600073ffffffffffffffffffffffffffffffffffffffff82169050919050565b6000819050919050565b60006136a5826136ac565b9050919050565b60006136b782613670565b9050919050565b60006136c982613662565b9050919050565b60006136db82613690565b9050919050565b82818337600083830152505050565b60005b8381101561370f5780820151818401526020810190506136f4565b8381111561371e576000848401525b50505050565b61372d82613835565b810181811067ffffffffffffffff8211171561374c5761374b613806565b5b80604052505050565b600061376082613690565b91507fffffffffffffffffffffffffffffffffffffffffffffffffffffffffffffffff821415613793576137926137a8565b5b600182019050919050565b6000819050919050565b7f4e487b7100000000000000000000000000000000000000000000000000000000600052601160045260246000fd5b7f4e487b7100000000000000000000000000000000000000000000000000000000600052601260045260246000fd5b7f4e487b7100000000000000000000000000000000000000000000000000000000600052604160045260246000fd5b6000601f19601f8301169050919050565b7f4d697373696f6e20636f737420697320746f6f206c6f77000000000000000000600082015250565b7f506c616e657420646f6573206e6f742065786973740000000000000000000000600082015250565b7f4f776e61626c653a206e6577206f776e657220697320746865207a65726f206160008201527f6464726573730000000000000000000000000000000000000000000000000000602082015250565b7f7b706c616e65743a000000000000000000000000000000000000000000000000600082015250565b7f526f636b6574206973206e6f74206120726f636b657400000000000000000000600082015250565b7f41747461636b6572206973206e6f742073656e64657200000000000000000000600082015250565b7f506c616e6574206973206e6f74206120706c616e657400000000000000000000600082015250565b7f7d00000000000000000000000000000000000000000000000000000000000000600082015250565b7f4f776e61626c653a2063616c6c6572206973206e6f7420746865206f776e6572600082015250565b7f526f636b657420646f6573206e6f742065786973740000000000000000000000600082015250565b7f53656e64657220646f6573206e6f74206861766520656e6f7567682062616c6160008201527f6e63650000000000000000000000000000000000000000000000000000000000602082015250565b7f4e6f207374616b696e6720616d6f756e74206973206d656e74696f6e65640000600082015250565b50565b7f496e76616c6964206e756b654964000000000000000000000000000000000000600082015250565b7f41747461636b2068617320616c7265616479206265656e207265736f6c766564600082015250565b7f41747461636b206e6f742066696e616c697a61626c6520796574000000000000600082015250565b613b058161363a565b8114613b1057600080fd5b50565b613b1c8161364c565b8114613b2757600080fd5b50565b613b3381613690565b8114613b3e57600080fd5b5056fea26469706673582212201f21264c712bc85c8610f532d155b073b51286fc40f88674d412b5b70991564f64736f6c63430008040033",
  "linkReferences": {},
  "deployedLinkReferences": {}
}