{
  "_format": "hh-sol-artifact-1",
  "contractName": "SpaceMafia",
  "sourceName": "contracts/SpaceMafia.sol",
  "abi": [
    {
      "inputs": [
        {
          "internalType": "address",
          "name": "_galaxyToken",
          "type": "address"
        }
      ],
      "stateMutability": "nonpayable",
      "type": "constructor"
    },
    {
      "anonymous": false,
      "inputs": [
        {
          "indexed": true,
          "internalType": "address",
          "name": "previousOwner",
          "type": "address"
        },
        {
          "indexed": true,
          "internalType": "address",
          "name": "newOwner",
          "type": "address"
        }
      ],
      "name": "OwnershipTransferred",
      "type": "event"
    },
    {
      "inputs": [
        {
          "internalType": "uint256",
          "name": "_random",
          "type": "uint256"
        },
        {
          "internalType": "uint256",
          "name": "_threshold",
          "type": "uint256"
        }
      ],
      "name": "checkRandom",
      "outputs": [
        {
          "internalType": "bool",
          "name": "",
          "type": "bool"
        }
      ],
      "stateMutability": "pure",
      "type": "function"
    },
    {
      "inputs": [
        {
          "internalType": "uint256",
          "name": "_tokenId",
          "type": "uint256"
        }
      ],
      "name": "claimDividends",
      "outputs": [
        {
          "internalType": "uint256",
          "name": "",
          "type": "uint256"
        }
      ],
      "stateMutability": "nonpayable",
      "type": "function"
    },
    {
      "inputs": [
        {
          "internalType": "uint256",
          "name": "_tokenId",
          "type": "uint256"
        }
      ],
      "name": "claimableDividends",
      "outputs": [
        {
          "internalType": "uint256",
          "name": "",
          "type": "uint256"
        }
      ],
      "stateMutability": "view",
      "type": "function"
    },
    {
      "inputs": [
        {
          "internalType": "uint256",
          "name": "_nukeId",
          "type": "uint256"
        }
      ],
      "name": "completeAttack",
      "outputs": [
        {
          "internalType": "bool",
          "name": "",
          "type": "bool"
        }
      ],
      "stateMutability": "nonpayable",
      "type": "function"
    },
    {
      "inputs": [
        {
          "internalType": "uint256",
          "name": "_nukeId",
          "type": "uint256"
        }
      ],
      "name": "defenseProbability",
      "outputs": [
        {
          "internalType": "uint256",
          "name": "",
          "type": "uint256"
        }
      ],
      "stateMutability": "view",
      "type": "function"
    },
    {
      "inputs": [
        {
          "internalType": "uint256",
          "name": "amount",
          "type": "uint256"
        }
      ],
      "name": "depositInAAVE",
      "outputs": [],
      "stateMutability": "payable",
      "type": "function"
    },
    {
      "inputs": [],
      "name": "galaxyToken",
      "outputs": [
        {
          "internalType": "contract GalaxyToken",
          "name": "",
          "type": "address"
        }
      ],
      "stateMutability": "view",
      "type": "function"
    },
    {
      "inputs": [
        {
          "internalType": "bytes32",
          "name": "_entropy",
          "type": "bytes32"
        }
      ],
      "name": "getRandom",
      "outputs": [
        {
          "internalType": "uint256",
          "name": "",
          "type": "uint256"
        }
      ],
      "stateMutability": "pure",
      "type": "function"
    },
    {
      "inputs": [
        {
          "internalType": "uint256",
          "name": "_numerator",
          "type": "uint256"
        },
        {
          "internalType": "uint256",
          "name": "_denominator",
          "type": "uint256"
        }
      ],
      "name": "getThreshold",
      "outputs": [
        {
          "internalType": "uint256",
          "name": "",
          "type": "uint256"
        }
      ],
      "stateMutability": "pure",
      "type": "function"
    },
    {
      "inputs": [
        {
          "internalType": "uint256",
          "name": "_nukeId",
          "type": "uint256"
        },
        {
          "internalType": "uint256",
          "name": "_hijackCost",
          "type": "uint256"
        }
      ],
      "name": "hijack",
      "outputs": [
        {
          "internalType": "bool",
          "name": "",
          "type": "bool"
        }
      ],
      "stateMutability": "nonpayable",
      "type": "function"
    },
    {
      "inputs": [],
      "name": "lendingpool",
      "outputs": [
        {
          "internalType": "address",
          "name": "",
          "type": "address"
        }
      ],
      "stateMutability": "view",
      "type": "function"
    },
    {
      "inputs": [],
      "name": "mafiaToken",
      "outputs": [
        {
          "internalType": "uint256",
          "name": "",
          "type": "uint256"
        }
      ],
      "stateMutability": "view",
      "type": "function"
    },
    {
      "inputs": [
        {
          "internalType": "address",
          "name": "_account",
          "type": "address"
        },
        {
          "internalType": "string",
          "name": "_tokenURI",
          "type": "string"
        }
      ],
      "name": "mintPlanet",
      "outputs": [
        {
          "internalType": "uint256",
          "name": "_id",
          "type": "uint256"
        }
      ],
      "stateMutability": "nonpayable",
      "type": "function"
    },
    {
      "inputs": [
        {
          "internalType": "uint256",
          "name": "_planetId",
          "type": "uint256"
        }
      ],
      "name": "mintRocket",
      "outputs": [
        {
          "internalType": "uint256",
          "name": "_id",
          "type": "uint256"
        }
      ],
      "stateMutability": "nonpayable",
      "type": "function"
    },
    {
      "inputs": [
        {
          "internalType": "uint256",
          "name": "_planetId",
          "type": "uint256"
        },
        {
          "internalType": "uint256",
          "name": "_rocketId",
          "type": "uint256"
        },
        {
          "internalType": "uint256",
          "name": "_missionCost",
          "type": "uint256"
        }
      ],
      "name": "nuke",
      "outputs": [
        {
          "internalType": "uint256",
          "name": "",
          "type": "uint256"
        }
      ],
      "stateMutability": "nonpayable",
      "type": "function"
    },
    {
      "inputs": [],
      "name": "nukeCount",
      "outputs": [
        {
          "internalType": "uint256",
          "name": "",
          "type": "uint256"
        }
      ],
      "stateMutability": "view",
      "type": "function"
    },
    {
      "inputs": [],
      "name": "owner",
      "outputs": [
        {
          "internalType": "address",
          "name": "",
          "type": "address"
        }
      ],
      "stateMutability": "view",
      "type": "function"
    },
    {
      "inputs": [],
      "name": "planetType",
      "outputs": [
        {
          "internalType": "uint256",
          "name": "",
          "type": "uint256"
        }
      ],
      "stateMutability": "view",
      "type": "function"
    },
    {
      "inputs": [],
      "name": "renounceOwnership",
      "outputs": [],
      "stateMutability": "nonpayable",
      "type": "function"
    },
    {
      "inputs": [],
      "name": "rocketType",
      "outputs": [
        {
          "internalType": "uint256",
          "name": "",
          "type": "uint256"
        }
      ],
      "stateMutability": "view",
      "type": "function"
    },
    {
      "inputs": [
        {
          "internalType": "uint256",
          "name": "_tokenId",
          "type": "uint256"
        }
      ],
      "name": "stakeEthOnPlanet",
      "outputs": [
        {
          "internalType": "bool",
          "name": "",
          "type": "bool"
        }
      ],
      "stateMutability": "payable",
      "type": "function"
    },
    {
      "inputs": [
        {
          "internalType": "address",
          "name": "newOwner",
          "type": "address"
        }
      ],
      "name": "transferOwnership",
      "outputs": [],
      "stateMutability": "nonpayable",
      "type": "function"
    }
  ],
  "bytecode": "0x60806040523480156200001157600080fd5b50604051620046f4380380620046f483398181016040528101906200003791906200049d565b620000576200004b620003a360201b60201c565b620003ab60201b60201c565b80600160006101000a81548173ffffffffffffffffffffffffffffffffffffffff021916908373ffffffffffffffffffffffffffffffffffffffff160217905550600160009054906101000a900473ffffffffffffffffffffffffffffffffffffffff1673ffffffffffffffffffffffffffffffffffffffff166305caa0ff60006040518263ffffffff1660e01b8152600401620000f6919062000506565b602060405180830381600087803b1580156200011157600080fd5b505af115801562000126573d6000803e3d6000fd5b505050506040513d601f19601f820116820180604052508101906200014c9190620004c9565b600481905550600160009054906101000a900473ffffffffffffffffffffffffffffffffffffffff1673ffffffffffffffffffffffffffffffffffffffff166305caa0ff60016040518263ffffffff1660e01b8152600401620001b0919062000506565b602060405180830381600087803b158015620001cb57600080fd5b505af1158015620001e0573d6000803e3d6000fd5b505050506040513d601f19601f82011682018060405250810190620002069190620004c9565b600281905550600160009054906101000a900473ffffffffffffffffffffffffffffffffffffffff1673ffffffffffffffffffffffffffffffffffffffff166305caa0ff60016040518263ffffffff1660e01b81526004016200026a919062000506565b602060405180830381600087803b1580156200028557600080fd5b505af11580156200029a573d6000803e3d6000fd5b505050506040513d601f19601f82011682018060405250810190620002c09190620004c9565b6003819055507324a42fd28c976a61df5d00d0599c34c4f90748c873ffffffffffffffffffffffffffffffffffffffff16630261bf8b6040518163ffffffff1660e01b815260040160206040518083038186803b1580156200032157600080fd5b505afa15801562000336573d6000803e3d6000fd5b505050506040513d601f19601f820116820180604052508101906200035c91906200049d565b600560006101000a81548173ffffffffffffffffffffffffffffffffffffffff021916908373ffffffffffffffffffffffffffffffffffffffff16021790555050620005a1565b600033905090565b60008060009054906101000a900473ffffffffffffffffffffffffffffffffffffffff169050816000806101000a81548173ffffffffffffffffffffffffffffffffffffffff021916908373ffffffffffffffffffffffffffffffffffffffff1602179055508173ffffffffffffffffffffffffffffffffffffffff168173ffffffffffffffffffffffffffffffffffffffff167f8be0079c531659141344cd1fd0a4f28419497f9722a3daafe3b4186f6b6457e060405160405180910390a35050565b60008151905062000480816200056d565b92915050565b600081519050620004978162000587565b92915050565b600060208284031215620004b057600080fd5b6000620004c0848285016200046f565b91505092915050565b600060208284031215620004dc57600080fd5b6000620004ec8482850162000486565b91505092915050565b620005008162000537565b82525050565b60006020820190506200051d6000830184620004f5565b92915050565b6000620005308262000543565b9050919050565b60008115159050919050565b600073ffffffffffffffffffffffffffffffffffffffff82169050919050565b6000819050919050565b620005788162000523565b81146200058457600080fd5b50565b620005928162000563565b81146200059e57600080fd5b50565b61414380620005b16000396000f3fe6080604052600436106101345760003560e01c80638da5cb5b116100ab578063bd7047c41161006f578063bd7047c41461046a578063c496d708146104a7578063c6414eee146104d2578063c9c9a9f21461050f578063f1288a8d1461054c578063f2fde38b1461056857610134565b80638da5cb5b1461035d5780639d5dc41614610388578063b5bab053146103c5578063b737ed1b14610402578063b8aa6f021461043f57610134565b806360a138ed116100fd57806360a138ed1461025857806360c92db4146102955780636f21de4d146102c0578063715018a6146102eb5780637328fd73146103025780638a0a866a1461032d57610134565b8062d36f921461013957806324b4b928146101765780632b8f107d146101b35780633d48f982146101f05780635374eec31461021b575b600080fd5b34801561014557600080fd5b50610160600480360381019061015b919061313d565b610591565b60405161016d9190613959565b60405180910390f35b34801561018257600080fd5b5061019d6004803603810190610198919061318f565b610929565b6040516101aa9190613728565b60405180910390f35b3480156101bf57600080fd5b506101da60048036038101906101d591906131cb565b610937565b6040516101e79190613959565b60405180910390f35b3480156101fc57600080fd5b50610205611101565b6040516102129190613959565b60405180910390f35b34801561022757600080fd5b50610242600480360381019061023d919061318f565b611107565b60405161024f9190613728565b60405180910390f35b34801561026457600080fd5b5061027f600480360381019061027a919061313d565b611694565b60405161028c9190613728565b60405180910390f35b3480156102a157600080fd5b506102aa611bd2565b6040516102b79190613959565b60405180910390f35b3480156102cc57600080fd5b506102d5611bd8565b6040516102e29190613959565b60405180910390f35b3480156102f757600080fd5b50610300611bde565b005b34801561030e57600080fd5b50610317611c66565b604051610324919061375e565b60405180910390f35b6103476004803603810190610342919061313d565b611c8c565b6040516103549190613728565b60405180910390f35b34801561036957600080fd5b5061037261208d565b60405161037f919061357a565b60405180910390f35b34801561039457600080fd5b506103af60048036038101906103aa919061313d565b6120b6565b6040516103bc9190613959565b60405180910390f35b3480156103d157600080fd5b506103ec60048036038101906103e7919061313d565b6122a5565b6040516103f99190613959565b60405180910390f35b34801561040e57600080fd5b5061042960048036038101906104249190613114565b6125e3565b6040516104369190613959565b60405180910390f35b34801561044b57600080fd5b50610454612639565b6040516104619190613959565b60405180910390f35b34801561047657600080fd5b50610491600480360381019061048c919061313d565b61263f565b60405161049e9190613959565b60405180910390f35b3480156104b357600080fd5b506104bc612a65565b6040516104c9919061357a565b60405180910390f35b3480156104de57600080fd5b506104f960048036038101906104f4919061318f565b612a8b565b6040516105069190613959565b60405180910390f35b34801561051b57600080fd5b5061053660048036038101906105319190613097565b612acb565b6040516105439190613959565b60405180910390f35b6105666004803603810190610561919061313d565b612c04565b005b34801561057457600080fd5b5061058f600480360381019061058a9190613045565b612caf565b005b600081600073ffffffffffffffffffffffffffffffffffffffff16600160009054906101000a900473ffffffffffffffffffffffffffffffffffffffff1673ffffffffffffffffffffffffffffffffffffffff16633fa9f7f3836040518263ffffffff1660e01b81526004016106079190613959565b60206040518083038186803b15801561061f57600080fd5b505afa158015610633573d6000803e3d6000fd5b505050506040513d601f19601f82011682018060405250810190610657919061306e565b73ffffffffffffffffffffffffffffffffffffffff1614156106ae576040517f08c379a00000000000000000000000000000000000000000000000000000000081526004016106a5906137b9565b60405180910390fd5b600254600160009054906101000a900473ffffffffffffffffffffffffffffffffffffffff1673ffffffffffffffffffffffffffffffffffffffff1663e4b5b61a836040518263ffffffff1660e01b815260040161070c9190613959565b60206040518083038186803b15801561072457600080fd5b505afa158015610738573d6000803e3d6000fd5b505050506040513d601f19601f8201168201806040525081019061075c9190613166565b1461079c576040517f08c379a000000000000000000000000000000000000000000000000000000000815260040161079390613839565b60405180910390fd5b6000600160009054906101000a900473ffffffffffffffffffffffffffffffffffffffff1673ffffffffffffffffffffffffffffffffffffffff16633fa9f7f3856040518263ffffffff1660e01b81526004016107f99190613959565b60206040518083038186803b15801561081157600080fd5b505afa158015610825573d6000803e3d6000fd5b505050506040513d601f19601f82011682018060405250810190610849919061306e565b90506000600160009054906101000a900473ffffffffffffffffffffffffffffffffffffffff1673ffffffffffffffffffffffffffffffffffffffff166379b8d938836004546040518363ffffffff1660e01b81526004016108ac929190613645565b60206040518083038186803b1580156108c457600080fd5b505afa1580156108d8573d6000803e3d6000fd5b505050506040513d601f19601f820116820180604052508101906108fc9190613166565b9050600061090986612da7565b905061091e8183612e5190919063ffffffff16565b945050505050919050565b600081831115905092915050565b600083600073ffffffffffffffffffffffffffffffffffffffff16600160009054906101000a900473ffffffffffffffffffffffffffffffffffffffff1673ffffffffffffffffffffffffffffffffffffffff16633fa9f7f3836040518263ffffffff1660e01b81526004016109ad9190613959565b60206040518083038186803b1580156109c557600080fd5b505afa1580156109d9573d6000803e3d6000fd5b505050506040513d601f19601f820116820180604052508101906109fd919061306e565b73ffffffffffffffffffffffffffffffffffffffff161415610a54576040517f08c379a0000000000000000000000000000000000000000000000000000000008152600401610a4b906137b9565b60405180910390fd5b600254600160009054906101000a900473ffffffffffffffffffffffffffffffffffffffff1673ffffffffffffffffffffffffffffffffffffffff1663e4b5b61a836040518263ffffffff1660e01b8152600401610ab29190613959565b60206040518083038186803b158015610aca57600080fd5b505afa158015610ade573d6000803e3d6000fd5b505050506040513d601f19601f82011682018060405250810190610b029190613166565b14610b42576040517f08c379a0000000000000000000000000000000000000000000000000000000008152600401610b3990613839565b60405180910390fd5b83600073ffffffffffffffffffffffffffffffffffffffff16600160009054906101000a900473ffffffffffffffffffffffffffffffffffffffff1673ffffffffffffffffffffffffffffffffffffffff16633fa9f7f3836040518263ffffffff1660e01b8152600401610bb69190613959565b60206040518083038186803b158015610bce57600080fd5b505afa158015610be2573d6000803e3d6000fd5b505050506040513d601f19601f82011682018060405250810190610c06919061306e565b73ffffffffffffffffffffffffffffffffffffffff161415610c5d576040517f08c379a0000000000000000000000000000000000000000000000000000000008152600401610c5490613879565b60405180910390fd5b600354600160009054906101000a900473ffffffffffffffffffffffffffffffffffffffff1673ffffffffffffffffffffffffffffffffffffffff1663e4b5b61a836040518263ffffffff1660e01b8152600401610cbb9190613959565b60206040518083038186803b158015610cd357600080fd5b505afa158015610ce7573d6000803e3d6000fd5b505050506040513d601f19601f82011682018060405250810190610d0b9190613166565b14610d4b576040517f08c379a0000000000000000000000000000000000000000000000000000000008152600401610d42906137f9565b60405180910390fd5b6000600160009054906101000a900473ffffffffffffffffffffffffffffffffffffffff1673ffffffffffffffffffffffffffffffffffffffff16633fa9f7f3876040518263ffffffff1660e01b8152600401610da89190613959565b60206040518083038186803b158015610dc057600080fd5b505afa158015610dd4573d6000803e3d6000fd5b505050506040513d601f19601f82011682018060405250810190610df8919061306e565b90503373ffffffffffffffffffffffffffffffffffffffff168173ffffffffffffffffffffffffffffffffffffffff1614610e68576040517f08c379a0000000000000000000000000000000000000000000000000000000008152600401610e5f90613819565b60405180910390fd5b670de0b6b3a7640000851015610eb3576040517f08c379a0000000000000000000000000000000000000000000000000000000008152600401610eaa90613779565b60405180910390fd5b84600160009054906101000a900473ffffffffffffffffffffffffffffffffffffffff1673ffffffffffffffffffffffffffffffffffffffff1662fdd58e336004546040518363ffffffff1660e01b8152600401610f12929190613645565b60206040518083038186803b158015610f2a57600080fd5b505afa158015610f3e573d6000803e3d6000fd5b505050506040513d601f19601f82011682018060405250810190610f629190613166565b1015610fa3576040517f08c379a0000000000000000000000000000000000000000000000000000000008152600401610f9a906138f9565b60405180910390fd5b6040518060c00160405280868152602001878152602001888152602001601443610fcd9190613a62565b815260200186815260200160001515815250600960006006548152602001908152602001600020600082015181600001556020820151816001015560408201518160020155606082015181600301556080820151816004015560a08201518160050160006101000a81548160ff021916908315150217905550905050600160009054906101000a900473ffffffffffffffffffffffffffffffffffffffff1673ffffffffffffffffffffffffffffffffffffffff1663f242432a3330600454896040518563ffffffff1660e01b81526004016110ac94939291906135ed565b600060405180830381600087803b1580156110c657600080fd5b505af11580156110da573d6000803e3d6000fd5b50505050600660008154809291906110f190613c92565b9190505593505050509392505050565b60065481565b600082600654811061114e576040517f08c379a0000000000000000000000000000000000000000000000000000000008152600401611145906138d9565b60405180910390fd5b6009600082815260200190815260200160002060050160009054906101000a900460ff16156111b2576040517f08c379a00000000000000000000000000000000000000000000000000000000081526004016111a990613919565b60405180910390fd5b600033905060006009600087815260200190815260200160002090506000600160009054906101000a900473ffffffffffffffffffffffffffffffffffffffff1673ffffffffffffffffffffffffffffffffffffffff16633fa9f7f383600101546040518263ffffffff1660e01b815260040161122f9190613959565b60206040518083038186803b15801561124757600080fd5b505afa15801561125b573d6000803e3d6000fd5b505050506040513d601f19601f8201168201806040525081019061127f919061306e565b9050670de0b6b3a76400008610156112cc576040517f08c379a00000000000000000000000000000000000000000000000000000000081526004016112c390613779565b60405180910390fd5b85600160009054906101000a900473ffffffffffffffffffffffffffffffffffffffff1673ffffffffffffffffffffffffffffffffffffffff1662fdd58e856004546040518363ffffffff1660e01b815260040161132b929190613645565b60206040518083038186803b15801561134357600080fd5b505afa158015611357573d6000803e3d6000fd5b505050506040513d601f19601f8201168201806040525081019061137b9190613166565b10156113bc576040517f08c379a00000000000000000000000000000000000000000000000000000000081526004016113b3906138f9565b60405180910390fd5b600082600301549050804310611407576040517f08c379a00000000000000000000000000000000000000000000000000000000081526004016113fe90613799565b60405180910390fd5b6000879050600061142585600401548a612e5190919063ffffffff16565b905060006114338383612a8b565b9050600061144d6001436114479190613b43565b406125e3565b9050600160009054906101000a900473ffffffffffffffffffffffffffffffffffffffff1673ffffffffffffffffffffffffffffffffffffffff1663f242432a89306004548f6040518563ffffffff1660e01b81526004016114b294939291906135ed565b600060405180830381600087803b1580156114cc57600080fd5b505af11580156114e0573d6000803e3d6000fd5b505050508a87600001546114f49190613a62565b87600001819055506115068183610929565b1561166b57600160009054906101000a900473ffffffffffffffffffffffffffffffffffffffff1673ffffffffffffffffffffffffffffffffffffffff1663f242432a8760008a6001015460006040518563ffffffff1660e01b81526004016115729493929190613595565b600060405180830381600087803b15801561158c57600080fd5b505af11580156115a0573d6000803e3d6000fd5b5050505060018760050160006101000a81548160ff021916908315150217905550600160009054906101000a900473ffffffffffffffffffffffffffffffffffffffff1673ffffffffffffffffffffffffffffffffffffffff1663f242432a308a6004548b600001546040518563ffffffff1660e01b815260040161162894939291906135ed565b600060405180830381600087803b15801561164257600080fd5b505af1158015611656573d6000803e3d6000fd5b5050505060019950505050505050505061168d565b6014436116789190613a62565b87600301819055506000995050505050505050505b5092915050565b60008160065481106116db576040517f08c379a00000000000000000000000000000000000000000000000000000000081526004016116d2906138d9565b60405180910390fd5b6009600082815260200190815260200160002060050160009054906101000a900460ff161561173f576040517f08c379a000000000000000000000000000000000000000000000000000000000815260040161173690613919565b60405180910390fd5b600061174a846120b6565b90506000600960008681526020019081526020016000209050600081600301549050804310156117af576040517f08c379a00000000000000000000000000000000000000000000000000000000081526004016117a690613939565b60405180910390fd5b60006117bb82406125e3565b905060018360050160006101000a81548160ff0219169083151502179055506000600160009054906101000a900473ffffffffffffffffffffffffffffffffffffffff1673ffffffffffffffffffffffffffffffffffffffff16633fa9f7f385600201546040518263ffffffff1660e01b815260040161183b9190613959565b60206040518083038186803b15801561185357600080fd5b505afa158015611867573d6000803e3d6000fd5b505050506040513d601f19601f8201168201806040525081019061188b919061306e565b90506000600160009054906101000a900473ffffffffffffffffffffffffffffffffffffffff1673ffffffffffffffffffffffffffffffffffffffff16633fa9f7f386600101546040518263ffffffff1660e01b81526004016118ee9190613959565b60206040518083038186803b15801561190657600080fd5b505afa15801561191a573d6000803e3d6000fd5b505050506040513d601f19601f8201168201806040525081019061193e919061306e565b9050600160009054906101000a900473ffffffffffffffffffffffffffffffffffffffff1673ffffffffffffffffffffffffffffffffffffffff1663f242432a826000886001015460006040518563ffffffff1660e01b81526004016119a79493929190613595565b600060405180830381600087803b1580156119c157600080fd5b505af11580156119d5573d6000803e3d6000fd5b505050506119e38387610929565b15611a9057600160009054906101000a900473ffffffffffffffffffffffffffffffffffffffff1673ffffffffffffffffffffffffffffffffffffffff1663f242432a308460045489600001546040518563ffffffff1660e01b8152600401611a4f94939291906135ed565b600060405180830381600087803b158015611a6957600080fd5b505af1158015611a7d573d6000803e3d6000fd5b5050505060009750505050505050611bcc565b600160009054906101000a900473ffffffffffffffffffffffffffffffffffffffff1673ffffffffffffffffffffffffffffffffffffffff1663f242432a308360045489600001546040518563ffffffff1660e01b8152600401611af794939291906135ed565b600060405180830381600087803b158015611b1157600080fd5b505af1158015611b25573d6000803e3d6000fd5b50505050600160009054906101000a900473ffffffffffffffffffffffffffffffffffffffff1673ffffffffffffffffffffffffffffffffffffffff1663f242432a8383886002015460006040518563ffffffff1660e01b8152600401611b8f9493929190613595565b600060405180830381600087803b158015611ba957600080fd5b505af1158015611bbd573d6000803e3d6000fd5b50505050600197505050505050505b50919050565b60025481565b60045481565b611be6612e67565b73ffffffffffffffffffffffffffffffffffffffff16611c0461208d565b73ffffffffffffffffffffffffffffffffffffffff1614611c5a576040517f08c379a0000000000000000000000000000000000000000000000000000000008152600401611c5190613859565b60405180910390fd5b611c646000612e6f565b565b600160009054906101000a900473ffffffffffffffffffffffffffffffffffffffff1681565b600081600073ffffffffffffffffffffffffffffffffffffffff16600160009054906101000a900473ffffffffffffffffffffffffffffffffffffffff1673ffffffffffffffffffffffffffffffffffffffff16633fa9f7f3836040518263ffffffff1660e01b8152600401611d029190613959565b60206040518083038186803b158015611d1a57600080fd5b505afa158015611d2e573d6000803e3d6000fd5b505050506040513d601f19601f82011682018060405250810190611d52919061306e565b73ffffffffffffffffffffffffffffffffffffffff161415611da9576040517f08c379a0000000000000000000000000000000000000000000000000000000008152600401611da0906137b9565b60405180910390fd5b600254600160009054906101000a900473ffffffffffffffffffffffffffffffffffffffff1673ffffffffffffffffffffffffffffffffffffffff1663e4b5b61a836040518263ffffffff1660e01b8152600401611e079190613959565b60206040518083038186803b158015611e1f57600080fd5b505afa158015611e33573d6000803e3d6000fd5b505050506040513d601f19601f82011682018060405250810190611e579190613166565b14611e97576040517f08c379a0000000000000000000000000000000000000000000000000000000008152600401611e8e90613839565b60405180910390fd5b60003411611eda576040517f08c379a0000000000000000000000000000000000000000000000000000000008152600401611ed1906138b9565b60405180910390fd5b6000600160009054906101000a900473ffffffffffffffffffffffffffffffffffffffff1673ffffffffffffffffffffffffffffffffffffffff16633fa9f7f3856040518263ffffffff1660e01b8152600401611f379190613959565b60206040518083038186803b158015611f4f57600080fd5b505afa158015611f63573d6000803e3d6000fd5b505050506040513d601f19601f82011682018060405250810190611f87919061306e565b9050600160009054906101000a900473ffffffffffffffffffffffffffffffffffffffff1673ffffffffffffffffffffffffffffffffffffffff1663a1eb700160045483611fd488612da7565b6040518463ffffffff1660e01b8152600401611ff29392919061399d565b600060405180830381600087803b15801561200c57600080fd5b505af1158015612020573d6000803e3d6000fd5b5050505061204a346007600087815260200190815260200160002054612e5190919063ffffffff16565b600760008681526020019081526020016000208190555061206a34612c04565b426008600086815260200190815260200160002081905550600192505050919050565b60008060009054906101000a900473ffffffffffffffffffffffffffffffffffffffff16905090565b60008160065481106120fd576040517f08c379a00000000000000000000000000000000000000000000000000000000081526004016120f4906138d9565b60405180910390fd5b6009600082815260200190815260200160002060050160009054906101000a900460ff1615612161576040517f08c379a000000000000000000000000000000000000000000000000000000000815260040161215890613919565b60405180910390fd5b60065483106121a5576040517f08c379a000000000000000000000000000000000000000000000000000000000815260040161219c906138d9565b60405180910390fd5b60006009600085815260200190815260200160002090508060050160009054906101000a900460ff161561220e576040517f08c379a000000000000000000000000000000000000000000000000000000000815260040161220590613919565b60405180910390fd5b6000612242670de0b6b3a7640000600760008560020154815260200190815260200160002054612e5190919063ffffffff16565b9050600061228e670de0b6b3a76400006122808560000154600760008860020154815260200190815260200160002054612e5190919063ffffffff16565b612e5190919063ffffffff16565b905061229a8282612a8b565b945050505050919050565b600080600160009054906101000a900473ffffffffffffffffffffffffffffffffffffffff1673ffffffffffffffffffffffffffffffffffffffff16633fa9f7f3846040518263ffffffff1660e01b81526004016123039190613959565b60206040518083038186803b15801561231b57600080fd5b505afa15801561232f573d6000803e3d6000fd5b505050506040513d601f19601f82011682018060405250810190612353919061306e565b9050670de0b6b3a7640000600160009054906101000a900473ffffffffffffffffffffffffffffffffffffffff1673ffffffffffffffffffffffffffffffffffffffff1662fdd58e336004546040518363ffffffff1660e01b81526004016123bc929190613645565b60206040518083038186803b1580156123d457600080fd5b505afa1580156123e8573d6000803e3d6000fd5b505050506040513d601f19601f8201168201806040525081019061240c9190613166565b101561244d576040517f08c379a000000000000000000000000000000000000000000000000000000000815260040161244490613899565b60405180910390fd5b600160009054906101000a900473ffffffffffffffffffffffffffffffffffffffff1673ffffffffffffffffffffffffffffffffffffffff1663717b7f3633600454670de0b6b3a76400006040518463ffffffff1660e01b81526004016124b6939291906136f1565b602060405180830381600087803b1580156124d057600080fd5b505af11580156124e4573d6000803e3d6000fd5b505050506040513d601f19601f8201168201806040525081019061250891906130eb565b50600160009054906101000a900473ffffffffffffffffffffffffffffffffffffffff1673ffffffffffffffffffffffffffffffffffffffff166398b4ad6f826003548660405160200161255c9190613549565b6040516020818303038152906040526040518463ffffffff1660e01b8152600401612589939291906136b3565b602060405180830381600087803b1580156125a357600080fd5b505af11580156125b7573d6000803e3d6000fd5b505050506040513d601f19601f820116820180604052508101906125db9190613166565b915050919050565b60006126327001000000000000000000000000000000008360405160200161260b9190613743565b6040516020818303038152906040528051906020012060001c612f3390919063ffffffff16565b9050919050565b60035481565b600081600073ffffffffffffffffffffffffffffffffffffffff16600160009054906101000a900473ffffffffffffffffffffffffffffffffffffffff1673ffffffffffffffffffffffffffffffffffffffff16633fa9f7f3836040518263ffffffff1660e01b81526004016126b59190613959565b60206040518083038186803b1580156126cd57600080fd5b505afa1580156126e1573d6000803e3d6000fd5b505050506040513d601f19601f82011682018060405250810190612705919061306e565b73ffffffffffffffffffffffffffffffffffffffff16141561275c576040517f08c379a0000000000000000000000000000000000000000000000000000000008152600401612753906137b9565b60405180910390fd5b600254600160009054906101000a900473ffffffffffffffffffffffffffffffffffffffff1673ffffffffffffffffffffffffffffffffffffffff1663e4b5b61a836040518263ffffffff1660e01b81526004016127ba9190613959565b60206040518083038186803b1580156127d257600080fd5b505afa1580156127e6573d6000803e3d6000fd5b505050506040513d601f19601f8201168201806040525081019061280a9190613166565b1461284a576040517f08c379a000000000000000000000000000000000000000000000000000000000815260040161284190613839565b60405180910390fd5b6000600160009054906101000a900473ffffffffffffffffffffffffffffffffffffffff1673ffffffffffffffffffffffffffffffffffffffff16633fa9f7f3856040518263ffffffff1660e01b81526004016128a79190613959565b60206040518083038186803b1580156128bf57600080fd5b505afa1580156128d3573d6000803e3d6000fd5b505050506040513d601f19601f820116820180604052508101906128f7919061306e565b9050600160009054906101000a900473ffffffffffffffffffffffffffffffffffffffff1673ffffffffffffffffffffffffffffffffffffffff1663a1eb70016004548361294488612da7565b6040518463ffffffff1660e01b81526004016129629392919061399d565b600060405180830381600087803b15801561297c57600080fd5b505af1158015612990573d6000803e3d6000fd5b50505050426008600086815260200190815260200160002081905550600160009054906101000a900473ffffffffffffffffffffffffffffffffffffffff1673ffffffffffffffffffffffffffffffffffffffff1662ffc135600454836040518363ffffffff1660e01b8152600401612a0a929190613974565b602060405180830381600087803b158015612a2457600080fd5b505af1158015612a38573d6000803e3d6000fd5b505050506040513d601f19601f82011682018060405250810190612a5c9190613166565b92505050919050565b600560009054906101000a900473ffffffffffffffffffffffffffffffffffffffff1681565b6000612ac382612ab570010000000000000000000000000000000086612f4990919063ffffffff16565b612f3390919063ffffffff16565b905092915050565b6000612ad5612e67565b73ffffffffffffffffffffffffffffffffffffffff16612af361208d565b73ffffffffffffffffffffffffffffffffffffffff1614612b49576040517f08c379a0000000000000000000000000000000000000000000000000000000008152600401612b4090613859565b60405180910390fd5b600160009054906101000a900473ffffffffffffffffffffffffffffffffffffffff1673ffffffffffffffffffffffffffffffffffffffff166398b4ad6f84600254856040518463ffffffff1660e01b8152600401612baa939291906136b3565b602060405180830381600087803b158015612bc457600080fd5b505af1158015612bd8573d6000803e3d6000fd5b505050506040513d601f19601f82011682018060405250810190612bfc9190613166565b905092915050565b600560009054906101000a900473ffffffffffffffffffffffffffffffffffffffff1673ffffffffffffffffffffffffffffffffffffffff1663e8eda9df73eeeeeeeeeeeeeeeeeeeeeeeeeeeeeeeeeeeeeeee833060006040518563ffffffff1660e01b8152600401612c7a949392919061366e565b600060405180830381600087803b158015612c9457600080fd5b505af1158015612ca8573d6000803e3d6000fd5b5050505050565b612cb7612e67565b73ffffffffffffffffffffffffffffffffffffffff16612cd561208d565b73ffffffffffffffffffffffffffffffffffffffff1614612d2b576040517f08c379a0000000000000000000000000000000000000000000000000000000008152600401612d2290613859565b60405180910390fd5b600073ffffffffffffffffffffffffffffffffffffffff168173ffffffffffffffffffffffffffffffffffffffff161415612d9b576040517f08c379a0000000000000000000000000000000000000000000000000000000008152600401612d92906137d9565b60405180910390fd5b612da481612e6f565b50565b600080600860008481526020019081526020016000205414612e4c576000600860008481526020019081526020016000205442612de49190613b43565b90506000600a612dfe600184612f3390919063ffffffff16565b11612e1c57612e17600183612f3390919063ffffffff16565b612e1f565b600a5b9050612e47816007600087815260200190815260200160002054612f4990919063ffffffff16565b925050505b919050565b60008183612e5f9190613a62565b905092915050565b600033905090565b60008060009054906101000a900473ffffffffffffffffffffffffffffffffffffffff169050816000806101000a81548173ffffffffffffffffffffffffffffffffffffffff021916908373ffffffffffffffffffffffffffffffffffffffff1602179055508173ffffffffffffffffffffffffffffffffffffffff168173ffffffffffffffffffffffffffffffffffffffff167f8be0079c531659141344cd1fd0a4f28419497f9722a3daafe3b4186f6b6457e060405160405180910390a35050565b60008183612f419190613ab8565b905092915050565b60008183612f579190613ae9565b905092915050565b6000612f72612f6d846139f9565b6139d4565b905082815260208101848484011115612f8a57600080fd5b612f95848285613c1f565b509392505050565b600081359050612fac816140b1565b92915050565b600081519050612fc1816140b1565b92915050565b600081519050612fd6816140c8565b92915050565b600081359050612feb816140df565b92915050565b600082601f83011261300257600080fd5b8135613012848260208601612f5f565b91505092915050565b60008135905061302a816140f6565b92915050565b60008151905061303f816140f6565b92915050565b60006020828403121561305757600080fd5b600061306584828501612f9d565b91505092915050565b60006020828403121561308057600080fd5b600061308e84828501612fb2565b91505092915050565b600080604083850312156130aa57600080fd5b60006130b885828601612f9d565b925050602083013567ffffffffffffffff8111156130d557600080fd5b6130e185828601612ff1565b9150509250929050565b6000602082840312156130fd57600080fd5b600061310b84828501612fc7565b91505092915050565b60006020828403121561312657600080fd5b600061313484828501612fdc565b91505092915050565b60006020828403121561314f57600080fd5b600061315d8482850161301b565b91505092915050565b60006020828403121561317857600080fd5b600061318684828501613030565b91505092915050565b600080604083850312156131a257600080fd5b60006131b08582860161301b565b92505060206131c18582860161301b565b9150509250929050565b6000806000606084860312156131e057600080fd5b60006131ee8682870161301b565b93505060206131ff8682870161301b565b92505060406132108682870161301b565b9150509250925092565b61322381613b77565b82525050565b61323281613b89565b82525050565b61324181613b95565b82525050565b61325081613bd7565b82525050565b61325f81613bfb565b82525050565b61326e81613c0d565b82525050565b600061327f82613a2a565b6132898185613a46565b9350613299818560208601613c2e565b6132a281613d72565b840191505092915050565b60006132ba601783613a46565b91506132c582613d83565b602082019050919050565b60006132dd601a83613a46565b91506132e882613dac565b602082019050919050565b6000613300601583613a46565b915061330b82613dd5565b602082019050919050565b6000613323602683613a46565b915061332e82613dfe565b604082019050919050565b6000613346600883613a57565b915061335182613e4d565b600882019050919050565b6000613369601683613a46565b915061337482613e76565b602082019050919050565b600061338c601683613a46565b915061339782613e9f565b602082019050919050565b60006133af601683613a46565b91506133ba82613ec8565b602082019050919050565b60006133d2600183613a57565b91506133dd82613ef1565b600182019050919050565b60006133f5602083613a46565b915061340082613f1a565b602082019050919050565b6000613418601583613a46565b915061342382613f43565b602082019050919050565b600061343b602383613a46565b915061344682613f6c565b604082019050919050565b600061345e601e83613a46565b915061346982613fbb565b602082019050919050565b6000613481600083613a35565b915061348c82613fe4565b600082019050919050565b60006134a4600e83613a46565b91506134af82613fe7565b602082019050919050565b60006134c7602983613a46565b91506134d282614010565b604082019050919050565b60006134ea602083613a46565b91506134f58261405f565b602082019050919050565b600061350d601a83613a46565b915061351882614088565b602082019050919050565b61352c81613bcd565b82525050565b61354361353e82613bcd565b613cdb565b82525050565b600061355482613339565b91506135608284613532565b60208201915061356f826133c5565b915081905092915050565b600060208201905061358f600083018461321a565b92915050565b600060a0820190506135aa600083018761321a565b6135b7602083018661321a565b6135c46040830185613523565b6135d16060830184613265565b81810360808301526135e281613474565b905095945050505050565b600060a082019050613602600083018761321a565b61360f602083018661321a565b61361c6040830185613523565b6136296060830184613523565b818103608083015261363a81613474565b905095945050505050565b600060408201905061365a600083018561321a565b6136676020830184613523565b9392505050565b6000608082019050613683600083018761321a565b6136906020830186613523565b61369d604083018561321a565b6136aa6060830184613256565b95945050505050565b60006060820190506136c8600083018661321a565b6136d56020830185613523565b81810360408301526136e78184613274565b9050949350505050565b6000606082019050613706600083018661321a565b6137136020830185613523565b6137206040830184613523565b949350505050565b600060208201905061373d6000830184613229565b92915050565b60006020820190506137586000830184613238565b92915050565b60006020820190506137736000830184613247565b92915050565b60006020820190508181036000830152613792816132ad565b9050919050565b600060208201905081810360008301526137b2816132d0565b9050919050565b600060208201905081810360008301526137d2816132f3565b9050919050565b600060208201905081810360008301526137f281613316565b9050919050565b600060208201905081810360008301526138128161335c565b9050919050565b600060208201905081810360008301526138328161337f565b9050919050565b60006020820190508181036000830152613852816133a2565b9050919050565b60006020820190508181036000830152613872816133e8565b9050919050565b600060208201905081810360008301526138928161340b565b9050919050565b600060208201905081810360008301526138b28161342e565b9050919050565b600060208201905081810360008301526138d281613451565b9050919050565b600060208201905081810360008301526138f281613497565b9050919050565b60006020820190508181036000830152613912816134ba565b9050919050565b60006020820190508181036000830152613932816134dd565b9050919050565b6000602082019050818103600083015261395281613500565b9050919050565b600060208201905061396e6000830184613523565b92915050565b60006040820190506139896000830185613523565b613996602083018461321a565b9392505050565b60006060820190506139b26000830186613523565b6139bf602083018561321a565b6139cc6040830184613523565b949350505050565b60006139de6139ef565b90506139ea8282613c61565b919050565b6000604051905090565b600067ffffffffffffffff821115613a1457613a13613d43565b5b613a1d82613d72565b9050602081019050919050565b600081519050919050565b600082825260208201905092915050565b600082825260208201905092915050565b600081905092915050565b6000613a6d82613bcd565b9150613a7883613bcd565b9250827fffffffffffffffffffffffffffffffffffffffffffffffffffffffffffffffff03821115613aad57613aac613ce5565b5b828201905092915050565b6000613ac382613bcd565b9150613ace83613bcd565b925082613ade57613add613d14565b5b828204905092915050565b6000613af482613bcd565b9150613aff83613bcd565b9250817fffffffffffffffffffffffffffffffffffffffffffffffffffffffffffffffff0483118215151615613b3857613b37613ce5565b5b828202905092915050565b6000613b4e82613bcd565b9150613b5983613bcd565b925082821015613b6c57613b6b613ce5565b5b828203905092915050565b6000613b8282613bad565b9050919050565b60008115159050919050565b6000819050919050565b600061ffff82169050919050565b600073ffffffffffffffffffffffffffffffffffffffff82169050919050565b6000819050919050565b6000613be282613be9565b9050919050565b6000613bf482613bad565b9050919050565b6000613c0682613b9f565b9050919050565b6000613c1882613bcd565b9050919050565b82818337600083830152505050565b60005b83811015613c4c578082015181840152602081019050613c31565b83811115613c5b576000848401525b50505050565b613c6a82613d72565b810181811067ffffffffffffffff82111715613c8957613c88613d43565b5b80604052505050565b6000613c9d82613bcd565b91507fffffffffffffffffffffffffffffffffffffffffffffffffffffffffffffffff821415613cd057613ccf613ce5565b5b600182019050919050565b6000819050919050565b7f4e487b7100000000000000000000000000000000000000000000000000000000600052601160045260246000fd5b7f4e487b7100000000000000000000000000000000000000000000000000000000600052601260045260246000fd5b7f4e487b7100000000000000000000000000000000000000000000000000000000600052604160045260246000fd5b6000601f19601f8301169050919050565b7f4d697373696f6e20636f737420697320746f6f206c6f77000000000000000000600082015250565b7f41747461636b20697320616c726561647920636f6d706c657465000000000000600082015250565b7f506c616e657420646f6573206e6f742065786973740000000000000000000000600082015250565b7f4f776e61626c653a206e6577206f776e657220697320746865207a65726f206160008201527f6464726573730000000000000000000000000000000000000000000000000000602082015250565b7f7b706c616e65743a000000000000000000000000000000000000000000000000600082015250565b7f526f636b6574206973206e6f74206120726f636b657400000000000000000000600082015250565b7f41747461636b6572206973206e6f742073656e64657200000000000000000000600082015250565b7f506c616e6574206973206e6f74206120706c616e657400000000000000000000600082015250565b7f7d00000000000000000000000000000000000000000000000000000000000000600082015250565b7f4f776e61626c653a2063616c6c6572206973206e6f7420746865206f776e6572600082015250565b7f526f636b657420646f6573206e6f742065786973740000000000000000000000600082015250565b7f53656e64657220646f6573206e6f74206861766520656e6f7567682062616c6160008201527f6e63650000000000000000000000000000000000000000000000000000000000602082015250565b7f4e6f207374616b696e6720616d6f756e74206973206d656e74696f6e65640000600082015250565b50565b7f496e76616c6964206e756b654964000000000000000000000000000000000000600082015250565b7f53656e64657220646f6573206e6f74206861766520656e6f756768204d41464960008201527f412062616c616e63650000000000000000000000000000000000000000000000602082015250565b7f41747461636b2068617320616c7265616479206265656e207265736f6c766564600082015250565b7f41747461636b206e6f742066696e616c697a61626c6520796574000000000000600082015250565b6140ba81613b77565b81146140c557600080fd5b50565b6140d181613b89565b81146140dc57600080fd5b50565b6140e881613b95565b81146140f357600080fd5b50565b6140ff81613bcd565b811461410a57600080fd5b5056fea264697066735822122006a7d44039778c0d5a653be94a15da6a047d5a390b93510965493c2c48dece2464736f6c63430008040033",
  "linkReferences": {},
  "deployedLinkReferences": {}
}