{
  "_format": "hh-sol-artifact-1",
  "contractName": "SpaceMafia",
  "sourceName": "contracts/SpaceMafia.sol",
  "abi": [
    {
      "inputs": [],
      "stateMutability": "nonpayable",
      "type": "constructor"
    },
    {
      "anonymous": false,
      "inputs": [
        {
          "indexed": true,
          "internalType": "address",
          "name": "previousOwner",
          "type": "address"
        },
        {
          "indexed": true,
          "internalType": "address",
          "name": "newOwner",
          "type": "address"
        }
      ],
      "name": "OwnershipTransferred",
      "type": "event"
    },
    {
      "inputs": [
        {
          "internalType": "uint256",
          "name": "_random",
          "type": "uint256"
        },
        {
          "internalType": "uint256",
          "name": "_threshold",
          "type": "uint256"
        }
      ],
      "name": "checkRandom",
      "outputs": [
        {
          "internalType": "bool",
          "name": "",
          "type": "bool"
        }
      ],
      "stateMutability": "pure",
      "type": "function"
    },
    {
      "inputs": [
        {
          "internalType": "uint256",
          "name": "_tokenId",
          "type": "uint256"
        }
      ],
      "name": "claimDividends",
      "outputs": [
        {
          "internalType": "uint256",
          "name": "",
          "type": "uint256"
        }
      ],
      "stateMutability": "nonpayable",
      "type": "function"
    },
    {
      "inputs": [
        {
          "internalType": "uint256",
          "name": "_tokenId",
          "type": "uint256"
        }
      ],
      "name": "claimableDividends",
      "outputs": [
        {
          "internalType": "uint256",
          "name": "",
          "type": "uint256"
        }
      ],
      "stateMutability": "view",
      "type": "function"
    },
    {
      "inputs": [
        {
          "internalType": "uint256",
          "name": "_nukeId",
          "type": "uint256"
        }
      ],
      "name": "completeAttack",
      "outputs": [
        {
          "internalType": "bool",
          "name": "",
          "type": "bool"
        }
      ],
      "stateMutability": "nonpayable",
      "type": "function"
    },
    {
      "inputs": [
        {
          "internalType": "uint256",
          "name": "_nukeId",
          "type": "uint256"
        }
      ],
      "name": "defenseProbability",
      "outputs": [
        {
          "internalType": "uint256",
          "name": "",
          "type": "uint256"
        }
      ],
      "stateMutability": "view",
      "type": "function"
    },
    {
      "inputs": [
        {
          "internalType": "uint256",
          "name": "amount",
          "type": "uint256"
        }
      ],
      "name": "depositInAAVE",
      "outputs": [],
      "stateMutability": "payable",
      "type": "function"
    },
    {
      "inputs": [],
      "name": "galaxyToken",
      "outputs": [
        {
          "internalType": "contract GalaxyToken",
          "name": "",
          "type": "address"
        }
      ],
      "stateMutability": "view",
      "type": "function"
    },
    {
      "inputs": [
        {
          "internalType": "address",
          "name": "_account",
          "type": "address"
        }
      ],
      "name": "getMafiaBalanceOf",
      "outputs": [
        {
          "internalType": "uint256",
          "name": "",
          "type": "uint256"
        }
      ],
      "stateMutability": "view",
      "type": "function"
    },
    {
      "inputs": [],
      "name": "getMafiaTokenSupply",
      "outputs": [
        {
          "internalType": "uint256",
          "name": "",
          "type": "uint256"
        }
      ],
      "stateMutability": "view",
      "type": "function"
    },
    {
      "inputs": [
        {
          "internalType": "uint256",
          "name": "_id",
          "type": "uint256"
        }
      ],
      "name": "getPlanet",
      "outputs": [
        {
          "internalType": "address",
          "name": "",
          "type": "address"
        },
        {
          "internalType": "string",
          "name": "",
          "type": "string"
        }
      ],
      "stateMutability": "view",
      "type": "function"
    },
    {
      "inputs": [],
      "name": "getPlanetSupply",
      "outputs": [
        {
          "internalType": "uint256",
          "name": "",
          "type": "uint256"
        }
      ],
      "stateMutability": "view",
      "type": "function"
    },
    {
      "inputs": [
        {
          "internalType": "bytes32",
          "name": "_entropy",
          "type": "bytes32"
        }
      ],
      "name": "getRandom",
      "outputs": [
        {
          "internalType": "uint256",
          "name": "",
          "type": "uint256"
        }
      ],
      "stateMutability": "pure",
      "type": "function"
    },
    {
      "inputs": [
        {
          "internalType": "uint256",
          "name": "_id",
          "type": "uint256"
        }
      ],
      "name": "getRocket",
      "outputs": [
        {
          "internalType": "address",
          "name": "",
          "type": "address"
        },
        {
          "internalType": "string",
          "name": "",
          "type": "string"
        }
      ],
      "stateMutability": "view",
      "type": "function"
    },
    {
      "inputs": [],
      "name": "getRocketSupply",
      "outputs": [
        {
          "internalType": "uint256",
          "name": "",
          "type": "uint256"
        }
      ],
      "stateMutability": "view",
      "type": "function"
    },
    {
      "inputs": [
        {
          "internalType": "uint256",
          "name": "_numerator",
          "type": "uint256"
        },
        {
          "internalType": "uint256",
          "name": "_denominator",
          "type": "uint256"
        }
      ],
      "name": "getThreshold",
      "outputs": [
        {
          "internalType": "uint256",
          "name": "",
          "type": "uint256"
        }
      ],
      "stateMutability": "pure",
      "type": "function"
    },
    {
      "inputs": [
        {
          "internalType": "uint256",
          "name": "_nukeId",
          "type": "uint256"
        },
        {
          "internalType": "uint256",
          "name": "_hijackCost",
          "type": "uint256"
        }
      ],
      "name": "hijack",
      "outputs": [
        {
          "internalType": "bool",
          "name": "",
          "type": "bool"
        }
      ],
      "stateMutability": "nonpayable",
      "type": "function"
    },
    {
      "inputs": [
        {
          "internalType": "address",
          "name": "_galaxyToken",
          "type": "address"
        }
      ],
      "name": "initialize",
      "outputs": [],
      "stateMutability": "nonpayable",
      "type": "function"
    },
    {
      "inputs": [],
      "name": "lendingpool",
      "outputs": [
        {
          "internalType": "address",
          "name": "",
          "type": "address"
        }
      ],
      "stateMutability": "view",
      "type": "function"
    },
    {
      "inputs": [],
      "name": "mafiaToken",
      "outputs": [
        {
          "internalType": "uint256",
          "name": "",
          "type": "uint256"
        }
      ],
      "stateMutability": "view",
      "type": "function"
    },
    {
      "inputs": [
        {
          "internalType": "address",
          "name": "_account",
          "type": "address"
        },
        {
          "internalType": "string",
          "name": "_tokenURI",
          "type": "string"
        }
      ],
      "name": "mintPlanet",
      "outputs": [
        {
          "internalType": "uint256",
          "name": "_id",
          "type": "uint256"
        }
      ],
      "stateMutability": "nonpayable",
      "type": "function"
    },
    {
      "inputs": [
        {
          "internalType": "uint256",
          "name": "_planetId",
          "type": "uint256"
        }
      ],
      "name": "mintRocket",
      "outputs": [
        {
          "internalType": "uint256",
          "name": "_id",
          "type": "uint256"
        }
      ],
      "stateMutability": "nonpayable",
      "type": "function"
    },
    {
      "inputs": [
        {
          "internalType": "uint256",
          "name": "_planetId",
          "type": "uint256"
        },
        {
          "internalType": "uint256",
          "name": "_rocketId",
          "type": "uint256"
        },
        {
          "internalType": "uint256",
          "name": "_missionCost",
          "type": "uint256"
        }
      ],
      "name": "nuke",
      "outputs": [
        {
          "internalType": "uint256",
          "name": "",
          "type": "uint256"
        }
      ],
      "stateMutability": "nonpayable",
      "type": "function"
    },
    {
      "inputs": [],
      "name": "nukeCount",
      "outputs": [
        {
          "internalType": "uint256",
          "name": "",
          "type": "uint256"
        }
      ],
      "stateMutability": "view",
      "type": "function"
    },
    {
      "inputs": [],
      "name": "owner",
      "outputs": [
        {
          "internalType": "address",
          "name": "",
          "type": "address"
        }
      ],
      "stateMutability": "view",
      "type": "function"
    },
    {
      "inputs": [],
      "name": "planetType",
      "outputs": [
        {
          "internalType": "uint256",
          "name": "",
          "type": "uint256"
        }
      ],
      "stateMutability": "view",
      "type": "function"
    },
    {
      "inputs": [],
      "name": "renounceOwnership",
      "outputs": [],
      "stateMutability": "nonpayable",
      "type": "function"
    },
    {
      "inputs": [],
      "name": "rocketType",
      "outputs": [
        {
          "internalType": "uint256",
          "name": "",
          "type": "uint256"
        }
      ],
      "stateMutability": "view",
      "type": "function"
    },
    {
      "inputs": [
        {
          "internalType": "uint256",
          "name": "_tokenId",
          "type": "uint256"
        }
      ],
      "name": "stakeEthOnPlanet",
      "outputs": [
        {
          "internalType": "bool",
          "name": "",
          "type": "bool"
        }
      ],
      "stateMutability": "payable",
      "type": "function"
    },
    {
      "inputs": [
        {
          "internalType": "address",
          "name": "_to",
          "type": "address"
        },
        {
          "internalType": "uint256",
          "name": "_amount",
          "type": "uint256"
        }
      ],
      "name": "transferMafiaToken",
      "outputs": [],
      "stateMutability": "nonpayable",
      "type": "function"
    },
    {
      "inputs": [
        {
          "internalType": "address",
          "name": "newOwner",
          "type": "address"
        }
      ],
      "name": "transferOwnership",
      "outputs": [],
      "stateMutability": "nonpayable",
      "type": "function"
    },
    {
      "inputs": [
        {
          "internalType": "address",
          "name": "_to",
          "type": "address"
        },
        {
          "internalType": "uint256",
          "name": "_id",
          "type": "uint256"
        }
      ],
      "name": "transferPlanet",
      "outputs": [],
      "stateMutability": "nonpayable",
      "type": "function"
    },
    {
      "inputs": [
        {
          "internalType": "address",
          "name": "_to",
          "type": "address"
        },
        {
          "internalType": "uint256",
          "name": "_id",
          "type": "uint256"
        }
      ],
      "name": "transferRocket",
      "outputs": [],
      "stateMutability": "nonpayable",
      "type": "function"
    }
  ],
  "bytecode": "0x608060405260008060146101000a81548160ff0219169083151502179055503480156200002b57600080fd5b506200004c620000406200005260201b60201c565b6200005a60201b60201c565b6200011e565b600033905090565b60008060009054906101000a900473ffffffffffffffffffffffffffffffffffffffff169050816000806101000a81548173ffffffffffffffffffffffffffffffffffffffff021916908373ffffffffffffffffffffffffffffffffffffffff1602179055508173ffffffffffffffffffffffffffffffffffffffff168173ffffffffffffffffffffffffffffffffffffffff167f8be0079c531659141344cd1fd0a4f28419497f9722a3daafe3b4186f6b6457e060405160405180910390a35050565b6151e4806200012e6000396000f3fe6080604052600436106101e25760003560e01c8063968b016711610102578063bd7047c411610095578063c9c9a9f211610064578063c9c9a9f214610772578063f1288a8d146107af578063f2fde38b146107cb578063ffbec419146107f4576101e2565b8063bd7047c4146106a4578063c496d708146106e1578063c4d66de81461070c578063c6414eee14610735576101e2565b8063aed4f39c116100d1578063aed4f39c146105c1578063b5bab053146105ff578063b737ed1b1461063c578063b8aa6f0214610679576101e2565b8063968b0167146104f3578063971c53d41461051e5780639c86d530146105475780639d5dc41614610584576101e2565b806356cdbdcb1161017a578063715018a611610149578063715018a6146104565780637328fd731461046d5780638a0a866a146104985780638da5cb5b146104c8576101e2565b806356cdbdcb1461039857806360a138ed146103c357806360c92db4146104005780636f21de4d1461042b576101e2565b806331e6ace0116101b657806331e6ace0146102c757806334efcb8e146102f25780633d48f982146103305780635374eec31461035b576101e2565b8062d36f92146101e757806324b4b928146102245780632b8f107d14610261578063311125f71461029e575b600080fd5b3480156101f357600080fd5b5061020e600480360381019061020991906140a0565b61081d565b60405161021b91906149bf565b60405180910390f35b34801561023057600080fd5b5061024b600480360381019061024691906140f2565b610bb5565b604051610258919061476e565b60405180910390f35b34801561026d57600080fd5b506102886004803603810190610283919061412e565b610bc3565b60405161029591906149bf565b60405180910390f35b3480156102aa57600080fd5b506102c560048036038101906102c09190613fd1565b61138d565b005b3480156102d357600080fd5b506102dc611425565b6040516102e991906149bf565b60405180910390f35b3480156102fe57600080fd5b50610319600480360381019061031491906140a0565b6114d9565b60405161032792919061465b565b60405180910390f35b34801561033c57600080fd5b50610345611641565b60405161035291906149bf565b60405180910390f35b34801561036757600080fd5b50610382600480360381019061037d91906140f2565b611647565b60405161038f919061476e565b60405180910390f35b3480156103a457600080fd5b506103ad611bd4565b6040516103ba91906149bf565b60405180910390f35b3480156103cf57600080fd5b506103ea60048036038101906103e591906140a0565b611c88565b6040516103f7919061476e565b60405180910390f35b34801561040c57600080fd5b506104156121c6565b60405161042291906149bf565b60405180910390f35b34801561043757600080fd5b506104406121cc565b60405161044d91906149bf565b60405180910390f35b34801561046257600080fd5b5061046b6121d2565b005b34801561047957600080fd5b5061048261225a565b60405161048f91906147a4565b60405180910390f35b6104b260048036038101906104ad91906140a0565b612280565b6040516104bf919061476e565b60405180910390f35b3480156104d457600080fd5b506104dd612678565b6040516104ea919061450f565b60405180910390f35b3480156104ff57600080fd5b506105086126a1565b60405161051591906149bf565b60405180910390f35b34801561052a57600080fd5b5061054560048036038101906105409190613fd1565b612755565b005b34801561055357600080fd5b5061056e60048036038101906105699190613f2b565b6127ed565b60405161057b91906149bf565b60405180910390f35b34801561059057600080fd5b506105ab60048036038101906105a691906140a0565b6128a4565b6040516105b891906149bf565b60405180910390f35b3480156105cd57600080fd5b506105e860048036038101906105e391906140a0565b612a93565b6040516105f692919061465b565b60405180910390f35b34801561060b57600080fd5b50610626600480360381019061062191906140a0565b612bfb565b60405161063391906149bf565b60405180910390f35b34801561064857600080fd5b50610663600480360381019061065e9190614036565b612f39565b60405161067091906149bf565b60405180910390f35b34801561068557600080fd5b5061068e612f8f565b60405161069b91906149bf565b60405180910390f35b3480156106b057600080fd5b506106cb60048036038101906106c691906140a0565b612f95565b6040516106d891906149bf565b60405180910390f35b3480156106ed57600080fd5b506106f66133bb565b604051610703919061450f565b60405180910390f35b34801561071857600080fd5b50610733600480360381019061072e9190613f2b565b6133e1565b005b34801561074157600080fd5b5061075c600480360381019061075791906140f2565b613870565b60405161076991906149bf565b60405180910390f35b34801561077e57600080fd5b5061079960048036038101906107949190613f7d565b6138b0565b6040516107a691906149bf565b60405180910390f35b6107c960048036038101906107c491906140a0565b6139e9565b005b3480156107d757600080fd5b506107f260048036038101906107ed9190613f2b565b613a94565b005b34801561080057600080fd5b5061081b60048036038101906108169190613fd1565b613b8c565b005b600081600073ffffffffffffffffffffffffffffffffffffffff16600160009054906101000a900473ffffffffffffffffffffffffffffffffffffffff1673ffffffffffffffffffffffffffffffffffffffff16633fa9f7f3836040518263ffffffff1660e01b815260040161089391906149bf565b60206040518083038186803b1580156108ab57600080fd5b505afa1580156108bf573d6000803e3d6000fd5b505050506040513d601f19601f820116820180604052508101906108e39190613f54565b73ffffffffffffffffffffffffffffffffffffffff16141561093a576040517f08c379a0000000000000000000000000000000000000000000000000000000008152600401610931906147ff565b60405180910390fd5b600254600160009054906101000a900473ffffffffffffffffffffffffffffffffffffffff1673ffffffffffffffffffffffffffffffffffffffff1663e4b5b61a836040518263ffffffff1660e01b815260040161099891906149bf565b60206040518083038186803b1580156109b057600080fd5b505afa1580156109c4573d6000803e3d6000fd5b505050506040513d601f19601f820116820180604052508101906109e891906140c9565b14610a28576040517f08c379a0000000000000000000000000000000000000000000000000000000008152600401610a1f9061487f565b60405180910390fd5b6000600160009054906101000a900473ffffffffffffffffffffffffffffffffffffffff1673ffffffffffffffffffffffffffffffffffffffff16633fa9f7f3856040518263ffffffff1660e01b8152600401610a8591906149bf565b60206040518083038186803b158015610a9d57600080fd5b505afa158015610ab1573d6000803e3d6000fd5b505050506040513d601f19601f82011682018060405250810190610ad59190613f54565b90506000600160009054906101000a900473ffffffffffffffffffffffffffffffffffffffff1673ffffffffffffffffffffffffffffffffffffffff166379b8d938836004546040518363ffffffff1660e01b8152600401610b3892919061468b565b60206040518083038186803b158015610b5057600080fd5b505afa158015610b64573d6000803e3d6000fd5b505050506040513d601f19601f82011682018060405250810190610b8891906140c9565b90506000610b9586613c25565b9050610baa8183613ccf90919063ffffffff16565b945050505050919050565b600081831115905092915050565b600083600073ffffffffffffffffffffffffffffffffffffffff16600160009054906101000a900473ffffffffffffffffffffffffffffffffffffffff1673ffffffffffffffffffffffffffffffffffffffff16633fa9f7f3836040518263ffffffff1660e01b8152600401610c3991906149bf565b60206040518083038186803b158015610c5157600080fd5b505afa158015610c65573d6000803e3d6000fd5b505050506040513d601f19601f82011682018060405250810190610c899190613f54565b73ffffffffffffffffffffffffffffffffffffffff161415610ce0576040517f08c379a0000000000000000000000000000000000000000000000000000000008152600401610cd7906147ff565b60405180910390fd5b600254600160009054906101000a900473ffffffffffffffffffffffffffffffffffffffff1673ffffffffffffffffffffffffffffffffffffffff1663e4b5b61a836040518263ffffffff1660e01b8152600401610d3e91906149bf565b60206040518083038186803b158015610d5657600080fd5b505afa158015610d6a573d6000803e3d6000fd5b505050506040513d601f19601f82011682018060405250810190610d8e91906140c9565b14610dce576040517f08c379a0000000000000000000000000000000000000000000000000000000008152600401610dc59061487f565b60405180910390fd5b83600073ffffffffffffffffffffffffffffffffffffffff16600160009054906101000a900473ffffffffffffffffffffffffffffffffffffffff1673ffffffffffffffffffffffffffffffffffffffff16633fa9f7f3836040518263ffffffff1660e01b8152600401610e4291906149bf565b60206040518083038186803b158015610e5a57600080fd5b505afa158015610e6e573d6000803e3d6000fd5b505050506040513d601f19601f82011682018060405250810190610e929190613f54565b73ffffffffffffffffffffffffffffffffffffffff161415610ee9576040517f08c379a0000000000000000000000000000000000000000000000000000000008152600401610ee0906148bf565b60405180910390fd5b600354600160009054906101000a900473ffffffffffffffffffffffffffffffffffffffff1673ffffffffffffffffffffffffffffffffffffffff1663e4b5b61a836040518263ffffffff1660e01b8152600401610f4791906149bf565b60206040518083038186803b158015610f5f57600080fd5b505afa158015610f73573d6000803e3d6000fd5b505050506040513d601f19601f82011682018060405250810190610f9791906140c9565b14610fd7576040517f08c379a0000000000000000000000000000000000000000000000000000000008152600401610fce9061483f565b60405180910390fd5b6000600160009054906101000a900473ffffffffffffffffffffffffffffffffffffffff1673ffffffffffffffffffffffffffffffffffffffff16633fa9f7f3876040518263ffffffff1660e01b815260040161103491906149bf565b60206040518083038186803b15801561104c57600080fd5b505afa158015611060573d6000803e3d6000fd5b505050506040513d601f19601f820116820180604052508101906110849190613f54565b90503373ffffffffffffffffffffffffffffffffffffffff168173ffffffffffffffffffffffffffffffffffffffff16146110f4576040517f08c379a00000000000000000000000000000000000000000000000000000000081526004016110eb9061485f565b60405180910390fd5b670de0b6b3a764000085101561113f576040517f08c379a0000000000000000000000000000000000000000000000000000000008152600401611136906147bf565b60405180910390fd5b84600160009054906101000a900473ffffffffffffffffffffffffffffffffffffffff1673ffffffffffffffffffffffffffffffffffffffff1662fdd58e336004546040518363ffffffff1660e01b815260040161119e92919061468b565b60206040518083038186803b1580156111b657600080fd5b505afa1580156111ca573d6000803e3d6000fd5b505050506040513d601f19601f820116820180604052508101906111ee91906140c9565b101561122f576040517f08c379a00000000000000000000000000000000000000000000000000000000081526004016112269061493f565b60405180910390fd5b6040518060c001604052808681526020018781526020018881526020016014436112599190614ac8565b815260200186815260200160001515815250600960006006548152602001908152602001600020600082015181600001556020820151816001015560408201518160020155606082015181600301556080820151816004015560a08201518160050160006101000a81548160ff021916908315150217905550905050600160009054906101000a900473ffffffffffffffffffffffffffffffffffffffff1673ffffffffffffffffffffffffffffffffffffffff1663f242432a3330600454896040518563ffffffff1660e01b815260040161133894939291906145da565b600060405180830381600087803b15801561135257600080fd5b505af1158015611366573d6000803e3d6000fd5b505050506006600081548092919061137d90614d0a565b9190505593505050509392505050565b600160009054906101000a900473ffffffffffffffffffffffffffffffffffffffff1673ffffffffffffffffffffffffffffffffffffffff1663f242432a33848460016040518563ffffffff1660e01b81526004016113ef9493929190614582565b600060405180830381600087803b15801561140957600080fd5b505af115801561141d573d6000803e3d6000fd5b505050505050565b6000600160009054906101000a900473ffffffffffffffffffffffffffffffffffffffff1673ffffffffffffffffffffffffffffffffffffffff1663bd85b0396004546040518263ffffffff1660e01b815260040161148491906149bf565b60206040518083038186803b15801561149c57600080fd5b505afa1580156114b0573d6000803e3d6000fd5b505050506040513d601f19601f820116820180604052508101906114d491906140c9565b905090565b60006060600160009054906101000a900473ffffffffffffffffffffffffffffffffffffffff1673ffffffffffffffffffffffffffffffffffffffff16633fa9f7f3846040518263ffffffff1660e01b815260040161153891906149bf565b60206040518083038186803b15801561155057600080fd5b505afa158015611564573d6000803e3d6000fd5b505050506040513d601f19601f820116820180604052508101906115889190613f54565b600160009054906101000a900473ffffffffffffffffffffffffffffffffffffffff1673ffffffffffffffffffffffffffffffffffffffff16636914db60856040518263ffffffff1660e01b81526004016115e391906149bf565b60006040518083038186803b1580156115fb57600080fd5b505afa15801561160f573d6000803e3d6000fd5b505050506040513d6000823e3d601f19601f82011682018060405250810190611638919061405f565b91509150915091565b60065481565b600082600654811061168e576040517f08c379a00000000000000000000000000000000000000000000000000000000081526004016116859061491f565b60405180910390fd5b6009600082815260200190815260200160002060050160009054906101000a900460ff16156116f2576040517f08c379a00000000000000000000000000000000000000000000000000000000081526004016116e99061497f565b60405180910390fd5b600033905060006009600087815260200190815260200160002090506000600160009054906101000a900473ffffffffffffffffffffffffffffffffffffffff1673ffffffffffffffffffffffffffffffffffffffff16633fa9f7f383600101546040518263ffffffff1660e01b815260040161176f91906149bf565b60206040518083038186803b15801561178757600080fd5b505afa15801561179b573d6000803e3d6000fd5b505050506040513d601f19601f820116820180604052508101906117bf9190613f54565b9050670de0b6b3a764000086101561180c576040517f08c379a0000000000000000000000000000000000000000000000000000000008152600401611803906147bf565b60405180910390fd5b85600160009054906101000a900473ffffffffffffffffffffffffffffffffffffffff1673ffffffffffffffffffffffffffffffffffffffff1662fdd58e856004546040518363ffffffff1660e01b815260040161186b92919061468b565b60206040518083038186803b15801561188357600080fd5b505afa158015611897573d6000803e3d6000fd5b505050506040513d601f19601f820116820180604052508101906118bb91906140c9565b10156118fc576040517f08c379a00000000000000000000000000000000000000000000000000000000081526004016118f39061493f565b60405180910390fd5b600082600301549050804310611947576040517f08c379a000000000000000000000000000000000000000000000000000000000815260040161193e906147df565b60405180910390fd5b6000879050600061196585600401548a613ccf90919063ffffffff16565b905060006119738383613870565b9050600061198d6001436119879190614ba9565b40612f39565b9050600160009054906101000a900473ffffffffffffffffffffffffffffffffffffffff1673ffffffffffffffffffffffffffffffffffffffff1663f242432a89306004548f6040518563ffffffff1660e01b81526004016119f294939291906145da565b600060405180830381600087803b158015611a0c57600080fd5b505af1158015611a20573d6000803e3d6000fd5b505050508a8760000154611a349190614ac8565b8760000181905550611a468183610bb5565b15611bab57600160009054906101000a900473ffffffffffffffffffffffffffffffffffffffff1673ffffffffffffffffffffffffffffffffffffffff1663f242432a8760008a6001015460006040518563ffffffff1660e01b8152600401611ab2949392919061452a565b600060405180830381600087803b158015611acc57600080fd5b505af1158015611ae0573d6000803e3d6000fd5b5050505060018760050160006101000a81548160ff021916908315150217905550600160009054906101000a900473ffffffffffffffffffffffffffffffffffffffff1673ffffffffffffffffffffffffffffffffffffffff1663f242432a308a6004548b600001546040518563ffffffff1660e01b8152600401611b6894939291906145da565b600060405180830381600087803b158015611b8257600080fd5b505af1158015611b96573d6000803e3d6000fd5b50505050600199505050505050505050611bcd565b601443611bb89190614ac8565b87600301819055506000995050505050505050505b5092915050565b6000600160009054906101000a900473ffffffffffffffffffffffffffffffffffffffff1673ffffffffffffffffffffffffffffffffffffffff1663bd85b0396002546040518263ffffffff1660e01b8152600401611c3391906149bf565b60206040518083038186803b158015611c4b57600080fd5b505afa158015611c5f573d6000803e3d6000fd5b505050506040513d601f19601f82011682018060405250810190611c8391906140c9565b905090565b6000816006548110611ccf576040517f08c379a0000000000000000000000000000000000000000000000000000000008152600401611cc69061491f565b60405180910390fd5b6009600082815260200190815260200160002060050160009054906101000a900460ff1615611d33576040517f08c379a0000000000000000000000000000000000000000000000000000000008152600401611d2a9061497f565b60405180910390fd5b6000611d3e846128a4565b9050600060096000868152602001908152602001600020905060008160030154905080431015611da3576040517f08c379a0000000000000000000000000000000000000000000000000000000008152600401611d9a9061499f565b60405180910390fd5b6000611daf8240612f39565b905060018360050160006101000a81548160ff0219169083151502179055506000600160009054906101000a900473ffffffffffffffffffffffffffffffffffffffff1673ffffffffffffffffffffffffffffffffffffffff16633fa9f7f385600201546040518263ffffffff1660e01b8152600401611e2f91906149bf565b60206040518083038186803b158015611e4757600080fd5b505afa158015611e5b573d6000803e3d6000fd5b505050506040513d601f19601f82011682018060405250810190611e7f9190613f54565b90506000600160009054906101000a900473ffffffffffffffffffffffffffffffffffffffff1673ffffffffffffffffffffffffffffffffffffffff16633fa9f7f386600101546040518263ffffffff1660e01b8152600401611ee291906149bf565b60206040518083038186803b158015611efa57600080fd5b505afa158015611f0e573d6000803e3d6000fd5b505050506040513d601f19601f82011682018060405250810190611f329190613f54565b9050600160009054906101000a900473ffffffffffffffffffffffffffffffffffffffff1673ffffffffffffffffffffffffffffffffffffffff1663f242432a826000886001015460006040518563ffffffff1660e01b8152600401611f9b949392919061452a565b600060405180830381600087803b158015611fb557600080fd5b505af1158015611fc9573d6000803e3d6000fd5b50505050611fd78387610bb5565b1561208457600160009054906101000a900473ffffffffffffffffffffffffffffffffffffffff1673ffffffffffffffffffffffffffffffffffffffff1663f242432a308460045489600001546040518563ffffffff1660e01b815260040161204394939291906145da565b600060405180830381600087803b15801561205d57600080fd5b505af1158015612071573d6000803e3d6000fd5b50505050600097505050505050506121c0565b600160009054906101000a900473ffffffffffffffffffffffffffffffffffffffff1673ffffffffffffffffffffffffffffffffffffffff1663f242432a308360045489600001546040518563ffffffff1660e01b81526004016120eb94939291906145da565b600060405180830381600087803b15801561210557600080fd5b505af1158015612119573d6000803e3d6000fd5b50505050600160009054906101000a900473ffffffffffffffffffffffffffffffffffffffff1673ffffffffffffffffffffffffffffffffffffffff1663f242432a8383886002015460006040518563ffffffff1660e01b8152600401612183949392919061452a565b600060405180830381600087803b15801561219d57600080fd5b505af11580156121b1573d6000803e3d6000fd5b50505050600197505050505050505b50919050565b60025481565b60045481565b6121da613ce5565b73ffffffffffffffffffffffffffffffffffffffff166121f8612678565b73ffffffffffffffffffffffffffffffffffffffff161461224e576040517f08c379a00000000000000000000000000000000000000000000000000000000081526004016122459061489f565b60405180910390fd5b6122586000613ced565b565b600160009054906101000a900473ffffffffffffffffffffffffffffffffffffffff1681565b600081600073ffffffffffffffffffffffffffffffffffffffff16600160009054906101000a900473ffffffffffffffffffffffffffffffffffffffff1673ffffffffffffffffffffffffffffffffffffffff16633fa9f7f3836040518263ffffffff1660e01b81526004016122f691906149bf565b60206040518083038186803b15801561230e57600080fd5b505afa158015612322573d6000803e3d6000fd5b505050506040513d601f19601f820116820180604052508101906123469190613f54565b73ffffffffffffffffffffffffffffffffffffffff16141561239d576040517f08c379a0000000000000000000000000000000000000000000000000000000008152600401612394906147ff565b60405180910390fd5b600254600160009054906101000a900473ffffffffffffffffffffffffffffffffffffffff1673ffffffffffffffffffffffffffffffffffffffff1663e4b5b61a836040518263ffffffff1660e01b81526004016123fb91906149bf565b60206040518083038186803b15801561241357600080fd5b505afa158015612427573d6000803e3d6000fd5b505050506040513d601f19601f8201168201806040525081019061244b91906140c9565b1461248b576040517f08c379a00000000000000000000000000000000000000000000000000000000081526004016124829061487f565b60405180910390fd5b600034116124ce576040517f08c379a00000000000000000000000000000000000000000000000000000000081526004016124c5906148ff565b60405180910390fd5b6000600160009054906101000a900473ffffffffffffffffffffffffffffffffffffffff1673ffffffffffffffffffffffffffffffffffffffff16633fa9f7f3856040518263ffffffff1660e01b815260040161252b91906149bf565b60206040518083038186803b15801561254357600080fd5b505afa158015612557573d6000803e3d6000fd5b505050506040513d601f19601f8201168201806040525081019061257b9190613f54565b9050600160009054906101000a900473ffffffffffffffffffffffffffffffffffffffff1673ffffffffffffffffffffffffffffffffffffffff1663a1eb7001600454836125c888613c25565b6040518463ffffffff1660e01b81526004016125e693929190614a03565b600060405180830381600087803b15801561260057600080fd5b505af1158015612614573d6000803e3d6000fd5b5050505061263e346007600087815260200190815260200160002054613ccf90919063ffffffff16565b6007600086815260200190815260200160002081905550426008600086815260200190815260200160002081905550600192505050919050565b60008060009054906101000a900473ffffffffffffffffffffffffffffffffffffffff16905090565b6000600160009054906101000a900473ffffffffffffffffffffffffffffffffffffffff1673ffffffffffffffffffffffffffffffffffffffff1663bd85b0396003546040518263ffffffff1660e01b815260040161270091906149bf565b60206040518083038186803b15801561271857600080fd5b505afa15801561272c573d6000803e3d6000fd5b505050506040513d601f19601f8201168201806040525081019061275091906140c9565b905090565b600160009054906101000a900473ffffffffffffffffffffffffffffffffffffffff1673ffffffffffffffffffffffffffffffffffffffff1663f242432a33848460016040518563ffffffff1660e01b81526004016127b79493929190614582565b600060405180830381600087803b1580156127d157600080fd5b505af11580156127e5573d6000803e3d6000fd5b505050505050565b6000600160009054906101000a900473ffffffffffffffffffffffffffffffffffffffff1673ffffffffffffffffffffffffffffffffffffffff1662fdd58e836004546040518363ffffffff1660e01b815260040161284d92919061468b565b60206040518083038186803b15801561286557600080fd5b505afa158015612879573d6000803e3d6000fd5b505050506040513d601f19601f8201168201806040525081019061289d91906140c9565b9050919050565b60008160065481106128eb576040517f08c379a00000000000000000000000000000000000000000000000000000000081526004016128e29061491f565b60405180910390fd5b6009600082815260200190815260200160002060050160009054906101000a900460ff161561294f576040517f08c379a00000000000000000000000000000000000000000000000000000000081526004016129469061497f565b60405180910390fd5b6006548310612993576040517f08c379a000000000000000000000000000000000000000000000000000000000815260040161298a9061491f565b60405180910390fd5b60006009600085815260200190815260200160002090508060050160009054906101000a900460ff16156129fc576040517f08c379a00000000000000000000000000000000000000000000000000000000081526004016129f39061497f565b60405180910390fd5b6000612a30670de0b6b3a7640000600760008560020154815260200190815260200160002054613ccf90919063ffffffff16565b90506000612a7c670de0b6b3a7640000612a6e8560000154600760008860020154815260200190815260200160002054613ccf90919063ffffffff16565b613ccf90919063ffffffff16565b9050612a888282613870565b945050505050919050565b60006060600160009054906101000a900473ffffffffffffffffffffffffffffffffffffffff1673ffffffffffffffffffffffffffffffffffffffff16633fa9f7f3846040518263ffffffff1660e01b8152600401612af291906149bf565b60206040518083038186803b158015612b0a57600080fd5b505afa158015612b1e573d6000803e3d6000fd5b505050506040513d601f19601f82011682018060405250810190612b429190613f54565b600160009054906101000a900473ffffffffffffffffffffffffffffffffffffffff1673ffffffffffffffffffffffffffffffffffffffff16636914db60856040518263ffffffff1660e01b8152600401612b9d91906149bf565b60006040518083038186803b158015612bb557600080fd5b505afa158015612bc9573d6000803e3d6000fd5b505050506040513d6000823e3d601f19601f82011682018060405250810190612bf2919061405f565b91509150915091565b600080600160009054906101000a900473ffffffffffffffffffffffffffffffffffffffff1673ffffffffffffffffffffffffffffffffffffffff16633fa9f7f3846040518263ffffffff1660e01b8152600401612c5991906149bf565b60206040518083038186803b158015612c7157600080fd5b505afa158015612c85573d6000803e3d6000fd5b505050506040513d601f19601f82011682018060405250810190612ca99190613f54565b9050670de0b6b3a7640000600160009054906101000a900473ffffffffffffffffffffffffffffffffffffffff1673ffffffffffffffffffffffffffffffffffffffff1662fdd58e336004546040518363ffffffff1660e01b8152600401612d1292919061468b565b60206040518083038186803b158015612d2a57600080fd5b505afa158015612d3e573d6000803e3d6000fd5b505050506040513d601f19601f82011682018060405250810190612d6291906140c9565b1015612da3576040517f08c379a0000000000000000000000000000000000000000000000000000000008152600401612d9a906148df565b60405180910390fd5b600160009054906101000a900473ffffffffffffffffffffffffffffffffffffffff1673ffffffffffffffffffffffffffffffffffffffff1663717b7f3633600454670de0b6b3a76400006040518463ffffffff1660e01b8152600401612e0c93929190614737565b602060405180830381600087803b158015612e2657600080fd5b505af1158015612e3a573d6000803e3d6000fd5b505050506040513d601f19601f82011682018060405250810190612e5e919061400d565b50600160009054906101000a900473ffffffffffffffffffffffffffffffffffffffff1673ffffffffffffffffffffffffffffffffffffffff166398b4ad6f8260035486604051602001612eb291906144de565b6040516020818303038152906040526040518463ffffffff1660e01b8152600401612edf939291906146f9565b602060405180830381600087803b158015612ef957600080fd5b505af1158015612f0d573d6000803e3d6000fd5b505050506040513d601f19601f82011682018060405250810190612f3191906140c9565b915050919050565b6000612f8870010000000000000000000000000000000083604051602001612f619190614789565b6040516020818303038152906040528051906020012060001c613db190919063ffffffff16565b9050919050565b60035481565b600081600073ffffffffffffffffffffffffffffffffffffffff16600160009054906101000a900473ffffffffffffffffffffffffffffffffffffffff1673ffffffffffffffffffffffffffffffffffffffff16633fa9f7f3836040518263ffffffff1660e01b815260040161300b91906149bf565b60206040518083038186803b15801561302357600080fd5b505afa158015613037573d6000803e3d6000fd5b505050506040513d601f19601f8201168201806040525081019061305b9190613f54565b73ffffffffffffffffffffffffffffffffffffffff1614156130b2576040517f08c379a00000000000000000000000000000000000000000000000000000000081526004016130a9906147ff565b60405180910390fd5b600254600160009054906101000a900473ffffffffffffffffffffffffffffffffffffffff1673ffffffffffffffffffffffffffffffffffffffff1663e4b5b61a836040518263ffffffff1660e01b815260040161311091906149bf565b60206040518083038186803b15801561312857600080fd5b505afa15801561313c573d6000803e3d6000fd5b505050506040513d601f19601f8201168201806040525081019061316091906140c9565b146131a0576040517f08c379a00000000000000000000000000000000000000000000000000000000081526004016131979061487f565b60405180910390fd5b6000600160009054906101000a900473ffffffffffffffffffffffffffffffffffffffff1673ffffffffffffffffffffffffffffffffffffffff16633fa9f7f3856040518263ffffffff1660e01b81526004016131fd91906149bf565b60206040518083038186803b15801561321557600080fd5b505afa158015613229573d6000803e3d6000fd5b505050506040513d601f19601f8201168201806040525081019061324d9190613f54565b9050600160009054906101000a900473ffffffffffffffffffffffffffffffffffffffff1673ffffffffffffffffffffffffffffffffffffffff1663a1eb70016004548361329a88613c25565b6040518463ffffffff1660e01b81526004016132b893929190614a03565b600060405180830381600087803b1580156132d257600080fd5b505af11580156132e6573d6000803e3d6000fd5b50505050426008600086815260200190815260200160002081905550600160009054906101000a900473ffffffffffffffffffffffffffffffffffffffff1673ffffffffffffffffffffffffffffffffffffffff1662ffc135600454836040518363ffffffff1660e01b81526004016133609291906149da565b602060405180830381600087803b15801561337a57600080fd5b505af115801561338e573d6000803e3d6000fd5b505050506040513d601f19601f820116820180604052508101906133b291906140c9565b92505050919050565b600560009054906101000a900473ffffffffffffffffffffffffffffffffffffffff1681565b6133e9613ce5565b73ffffffffffffffffffffffffffffffffffffffff16613407612678565b73ffffffffffffffffffffffffffffffffffffffff161461345d576040517f08c379a00000000000000000000000000000000000000000000000000000000081526004016134549061489f565b60405180910390fd5b60001515600060149054906101000a900460ff161515146134b3576040517f08c379a00000000000000000000000000000000000000000000000000000000081526004016134aa9061495f565b60405180910390fd5b80600160006101000a81548173ffffffffffffffffffffffffffffffffffffffff021916908373ffffffffffffffffffffffffffffffffffffffff160217905550600160009054906101000a900473ffffffffffffffffffffffffffffffffffffffff1673ffffffffffffffffffffffffffffffffffffffff166305caa0ff60006040518263ffffffff1660e01b8152600401613550919061476e565b602060405180830381600087803b15801561356a57600080fd5b505af115801561357e573d6000803e3d6000fd5b505050506040513d601f19601f820116820180604052508101906135a291906140c9565b600481905550600160009054906101000a900473ffffffffffffffffffffffffffffffffffffffff1673ffffffffffffffffffffffffffffffffffffffff166305caa0ff60016040518263ffffffff1660e01b8152600401613604919061476e565b602060405180830381600087803b15801561361e57600080fd5b505af1158015613632573d6000803e3d6000fd5b505050506040513d601f19601f8201168201806040525081019061365691906140c9565b600281905550600160009054906101000a900473ffffffffffffffffffffffffffffffffffffffff1673ffffffffffffffffffffffffffffffffffffffff166305caa0ff60016040518263ffffffff1660e01b81526004016136b8919061476e565b602060405180830381600087803b1580156136d257600080fd5b505af11580156136e6573d6000803e3d6000fd5b505050506040513d601f19601f8201168201806040525081019061370a91906140c9565b600381905550600160009054906101000a900473ffffffffffffffffffffffffffffffffffffffff1673ffffffffffffffffffffffffffffffffffffffff1663a22cb4653360016040518363ffffffff1660e01b815260040161376e929190614632565b600060405180830381600087803b15801561378857600080fd5b505af115801561379c573d6000803e3d6000fd5b50505050600160009054906101000a900473ffffffffffffffffffffffffffffffffffffffff1673ffffffffffffffffffffffffffffffffffffffff16630f7fa72f336002546040518363ffffffff1660e01b81526004016137ff92919061468b565b602060405180830381600087803b15801561381957600080fd5b505af115801561382d573d6000803e3d6000fd5b505050506040513d601f19601f82011682018060405250810190613851919061400d565b506001600060146101000a81548160ff02191690831515021790555050565b60006138a88261389a70010000000000000000000000000000000086613dc790919063ffffffff16565b613db190919063ffffffff16565b905092915050565b60006138ba613ce5565b73ffffffffffffffffffffffffffffffffffffffff166138d8612678565b73ffffffffffffffffffffffffffffffffffffffff161461392e576040517f08c379a00000000000000000000000000000000000000000000000000000000081526004016139259061489f565b60405180910390fd5b600160009054906101000a900473ffffffffffffffffffffffffffffffffffffffff1673ffffffffffffffffffffffffffffffffffffffff166398b4ad6f84600254856040518463ffffffff1660e01b815260040161398f939291906146f9565b602060405180830381600087803b1580156139a957600080fd5b505af11580156139bd573d6000803e3d6000fd5b505050506040513d601f19601f820116820180604052508101906139e191906140c9565b905092915050565b600560009054906101000a900473ffffffffffffffffffffffffffffffffffffffff1673ffffffffffffffffffffffffffffffffffffffff1663e8eda9df73eeeeeeeeeeeeeeeeeeeeeeeeeeeeeeeeeeeeeeee833060006040518563ffffffff1660e01b8152600401613a5f94939291906146b4565b600060405180830381600087803b158015613a7957600080fd5b505af1158015613a8d573d6000803e3d6000fd5b5050505050565b613a9c613ce5565b73ffffffffffffffffffffffffffffffffffffffff16613aba612678565b73ffffffffffffffffffffffffffffffffffffffff1614613b10576040517f08c379a0000000000000000000000000000000000000000000000000000000008152600401613b079061489f565b60405180910390fd5b600073ffffffffffffffffffffffffffffffffffffffff168173ffffffffffffffffffffffffffffffffffffffff161415613b80576040517f08c379a0000000000000000000000000000000000000000000000000000000008152600401613b779061481f565b60405180910390fd5b613b8981613ced565b50565b600160009054906101000a900473ffffffffffffffffffffffffffffffffffffffff1673ffffffffffffffffffffffffffffffffffffffff1663f242432a3384600454856040518563ffffffff1660e01b8152600401613bef94939291906145da565b600060405180830381600087803b158015613c0957600080fd5b505af1158015613c1d573d6000803e3d6000fd5b505050505050565b600080600860008481526020019081526020016000205414613cca576000600860008481526020019081526020016000205442613c629190614ba9565b90506000600a613c7c600184613db190919063ffffffff16565b11613c9a57613c95600183613db190919063ffffffff16565b613c9d565b600a5b9050613cc5816007600087815260200190815260200160002054613dc790919063ffffffff16565b925050505b919050565b60008183613cdd9190614ac8565b905092915050565b600033905090565b60008060009054906101000a900473ffffffffffffffffffffffffffffffffffffffff169050816000806101000a81548173ffffffffffffffffffffffffffffffffffffffff021916908373ffffffffffffffffffffffffffffffffffffffff1602179055508173ffffffffffffffffffffffffffffffffffffffff168173ffffffffffffffffffffffffffffffffffffffff167f8be0079c531659141344cd1fd0a4f28419497f9722a3daafe3b4186f6b6457e060405160405180910390a35050565b60008183613dbf9190614b1e565b905092915050565b60008183613dd59190614b4f565b905092915050565b6000613df0613deb84614a5f565b614a3a565b905082815260208101848484011115613e0857600080fd5b613e13848285614c97565b509392505050565b6000613e2e613e2984614a5f565b614a3a565b905082815260208101848484011115613e4657600080fd5b613e51848285614ca6565b509392505050565b600081359050613e6881615152565b92915050565b600081519050613e7d81615152565b92915050565b600081519050613e9281615169565b92915050565b600081359050613ea781615180565b92915050565b600082601f830112613ebe57600080fd5b8135613ece848260208601613ddd565b91505092915050565b600082601f830112613ee857600080fd5b8151613ef8848260208601613e1b565b91505092915050565b600081359050613f1081615197565b92915050565b600081519050613f2581615197565b92915050565b600060208284031215613f3d57600080fd5b6000613f4b84828501613e59565b91505092915050565b600060208284031215613f6657600080fd5b6000613f7484828501613e6e565b91505092915050565b60008060408385031215613f9057600080fd5b6000613f9e85828601613e59565b925050602083013567ffffffffffffffff811115613fbb57600080fd5b613fc785828601613ead565b9150509250929050565b60008060408385031215613fe457600080fd5b6000613ff285828601613e59565b925050602061400385828601613f01565b9150509250929050565b60006020828403121561401f57600080fd5b600061402d84828501613e83565b91505092915050565b60006020828403121561404857600080fd5b600061405684828501613e98565b91505092915050565b60006020828403121561407157600080fd5b600082015167ffffffffffffffff81111561408b57600080fd5b61409784828501613ed7565b91505092915050565b6000602082840312156140b257600080fd5b60006140c084828501613f01565b91505092915050565b6000602082840312156140db57600080fd5b60006140e984828501613f16565b91505092915050565b6000806040838503121561410557600080fd5b600061411385828601613f01565b925050602061412485828601613f01565b9150509250929050565b60008060006060848603121561414357600080fd5b600061415186828701613f01565b935050602061416286828701613f01565b925050604061417386828701613f01565b9150509250925092565b61418681614bdd565b82525050565b61419581614bef565b82525050565b6141a481614bfb565b82525050565b6141b381614c3d565b82525050565b6141c281614c61565b82525050565b6141d181614c73565b82525050565b6141e081614c85565b82525050565b60006141f182614a90565b6141fb8185614aac565b935061420b818560208601614ca6565b61421481614dea565b840191505092915050565b600061422c601783614aac565b915061423782614dfb565b602082019050919050565b600061424f601a83614aac565b915061425a82614e24565b602082019050919050565b6000614272601583614aac565b915061427d82614e4d565b602082019050919050565b6000614295602683614aac565b91506142a082614e76565b604082019050919050565b60006142b8600883614abd565b91506142c382614ec5565b600882019050919050565b60006142db601683614aac565b91506142e682614eee565b602082019050919050565b60006142fe601683614aac565b915061430982614f17565b602082019050919050565b6000614321601683614aac565b915061432c82614f40565b602082019050919050565b6000614344600183614abd565b915061434f82614f69565b600182019050919050565b6000614367602083614aac565b915061437282614f92565b602082019050919050565b600061438a601583614aac565b915061439582614fbb565b602082019050919050565b60006143ad602383614aac565b91506143b882614fe4565b604082019050919050565b60006143d0601e83614aac565b91506143db82615033565b602082019050919050565b60006143f3600083614a9b565b91506143fe8261505c565b600082019050919050565b6000614416600e83614aac565b91506144218261505f565b602082019050919050565b6000614439602983614aac565b915061444482615088565b604082019050919050565b600061445c601383614aac565b9150614467826150d7565b602082019050919050565b600061447f602083614aac565b915061448a82615100565b602082019050919050565b60006144a2601a83614aac565b91506144ad82615129565b602082019050919050565b6144c181614c33565b82525050565b6144d86144d382614c33565b614d53565b82525050565b60006144e9826142ab565b91506144f582846144c7565b60208201915061450482614337565b915081905092915050565b6000602082019050614524600083018461417d565b92915050565b600060a08201905061453f600083018761417d565b61454c602083018661417d565b61455960408301856144b8565b61456660608301846141c8565b8181036080830152614577816143e6565b905095945050505050565b600060a082019050614597600083018761417d565b6145a4602083018661417d565b6145b160408301856144b8565b6145be60608301846141d7565b81810360808301526145cf816143e6565b905095945050505050565b600060a0820190506145ef600083018761417d565b6145fc602083018661417d565b61460960408301856144b8565b61461660608301846144b8565b8181036080830152614627816143e6565b905095945050505050565b6000604082019050614647600083018561417d565b614654602083018461418c565b9392505050565b6000604082019050614670600083018561417d565b818103602083015261468281846141e6565b90509392505050565b60006040820190506146a0600083018561417d565b6146ad60208301846144b8565b9392505050565b60006080820190506146c9600083018761417d565b6146d660208301866144b8565b6146e3604083018561417d565b6146f060608301846141b9565b95945050505050565b600060608201905061470e600083018661417d565b61471b60208301856144b8565b818103604083015261472d81846141e6565b9050949350505050565b600060608201905061474c600083018661417d565b61475960208301856144b8565b61476660408301846144b8565b949350505050565b6000602082019050614783600083018461418c565b92915050565b600060208201905061479e600083018461419b565b92915050565b60006020820190506147b960008301846141aa565b92915050565b600060208201905081810360008301526147d88161421f565b9050919050565b600060208201905081810360008301526147f881614242565b9050919050565b6000602082019050818103600083015261481881614265565b9050919050565b6000602082019050818103600083015261483881614288565b9050919050565b60006020820190508181036000830152614858816142ce565b9050919050565b60006020820190508181036000830152614878816142f1565b9050919050565b6000602082019050818103600083015261489881614314565b9050919050565b600060208201905081810360008301526148b88161435a565b9050919050565b600060208201905081810360008301526148d88161437d565b9050919050565b600060208201905081810360008301526148f8816143a0565b9050919050565b60006020820190508181036000830152614918816143c3565b9050919050565b6000602082019050818103600083015261493881614409565b9050919050565b600060208201905081810360008301526149588161442c565b9050919050565b600060208201905081810360008301526149788161444f565b9050919050565b6000602082019050818103600083015261499881614472565b9050919050565b600060208201905081810360008301526149b881614495565b9050919050565b60006020820190506149d460008301846144b8565b92915050565b60006040820190506149ef60008301856144b8565b6149fc602083018461417d565b9392505050565b6000606082019050614a1860008301866144b8565b614a25602083018561417d565b614a3260408301846144b8565b949350505050565b6000614a44614a55565b9050614a508282614cd9565b919050565b6000604051905090565b600067ffffffffffffffff821115614a7a57614a79614dbb565b5b614a8382614dea565b9050602081019050919050565b600081519050919050565b600082825260208201905092915050565b600082825260208201905092915050565b600081905092915050565b6000614ad382614c33565b9150614ade83614c33565b9250827fffffffffffffffffffffffffffffffffffffffffffffffffffffffffffffffff03821115614b1357614b12614d5d565b5b828201905092915050565b6000614b2982614c33565b9150614b3483614c33565b925082614b4457614b43614d8c565b5b828204905092915050565b6000614b5a82614c33565b9150614b6583614c33565b9250817fffffffffffffffffffffffffffffffffffffffffffffffffffffffffffffffff0483118215151615614b9e57614b9d614d5d565b5b828202905092915050565b6000614bb482614c33565b9150614bbf83614c33565b925082821015614bd257614bd1614d5d565b5b828203905092915050565b6000614be882614c13565b9050919050565b60008115159050919050565b6000819050919050565b600061ffff82169050919050565b600073ffffffffffffffffffffffffffffffffffffffff82169050919050565b6000819050919050565b6000614c4882614c4f565b9050919050565b6000614c5a82614c13565b9050919050565b6000614c6c82614c05565b9050919050565b6000614c7e82614c33565b9050919050565b6000614c9082614c33565b9050919050565b82818337600083830152505050565b60005b83811015614cc4578082015181840152602081019050614ca9565b83811115614cd3576000848401525b50505050565b614ce282614dea565b810181811067ffffffffffffffff82111715614d0157614d00614dbb565b5b80604052505050565b6000614d1582614c33565b91507fffffffffffffffffffffffffffffffffffffffffffffffffffffffffffffffff821415614d4857614d47614d5d565b5b600182019050919050565b6000819050919050565b7f4e487b7100000000000000000000000000000000000000000000000000000000600052601160045260246000fd5b7f4e487b7100000000000000000000000000000000000000000000000000000000600052601260045260246000fd5b7f4e487b7100000000000000000000000000000000000000000000000000000000600052604160045260246000fd5b6000601f19601f8301169050919050565b7f4d697373696f6e20636f737420697320746f6f206c6f77000000000000000000600082015250565b7f41747461636b20697320616c726561647920636f6d706c657465000000000000600082015250565b7f506c616e657420646f6573206e6f742065786973740000000000000000000000600082015250565b7f4f776e61626c653a206e6577206f776e657220697320746865207a65726f206160008201527f6464726573730000000000000000000000000000000000000000000000000000602082015250565b7f7b706c616e65743a000000000000000000000000000000000000000000000000600082015250565b7f526f636b6574206973206e6f74206120726f636b657400000000000000000000600082015250565b7f41747461636b6572206973206e6f742073656e64657200000000000000000000600082015250565b7f506c616e6574206973206e6f74206120706c616e657400000000000000000000600082015250565b7f7d00000000000000000000000000000000000000000000000000000000000000600082015250565b7f4f776e61626c653a2063616c6c6572206973206e6f7420746865206f776e6572600082015250565b7f526f636b657420646f6573206e6f742065786973740000000000000000000000600082015250565b7f53656e64657220646f6573206e6f74206861766520656e6f7567682062616c6160008201527f6e63650000000000000000000000000000000000000000000000000000000000602082015250565b7f4e6f207374616b696e6720616d6f756e74206973206d656e74696f6e65640000600082015250565b50565b7f496e76616c6964206e756b654964000000000000000000000000000000000000600082015250565b7f53656e64657220646f6573206e6f74206861766520656e6f756768204d41464960008201527f412062616c616e63650000000000000000000000000000000000000000000000602082015250565b7f416c726561647920696e697469616c697a656400000000000000000000000000600082015250565b7f41747461636b2068617320616c7265616479206265656e207265736f6c766564600082015250565b7f41747461636b206e6f742066696e616c697a61626c6520796574000000000000600082015250565b61515b81614bdd565b811461516657600080fd5b50565b61517281614bef565b811461517d57600080fd5b50565b61518981614bfb565b811461519457600080fd5b50565b6151a081614c33565b81146151ab57600080fd5b5056fea2646970667358221220333750d21bbb5e3e35615f791e64eac0e5c3c9c2956bbf961d54c81e0ded2c5264736f6c63430008040033",
  "linkReferences": {},
  "deployedLinkReferences": {}
}