{
  "_format": "hh-sol-artifact-1",
  "contractName": "SpaceMafia",
  "sourceName": "contracts/SpaceMafia.sol",
  "abi": [
    {
      "inputs": [],
      "stateMutability": "nonpayable",
      "type": "constructor"
    },
    {
      "anonymous": false,
      "inputs": [
        {
          "indexed": true,
          "internalType": "address",
          "name": "previousOwner",
          "type": "address"
        },
        {
          "indexed": true,
          "internalType": "address",
          "name": "newOwner",
          "type": "address"
        }
      ],
      "name": "OwnershipTransferred",
      "type": "event"
    },
    {
      "inputs": [],
      "name": "ERC1155_BATCH_RECEIVED",
      "outputs": [
        {
          "internalType": "bytes4",
          "name": "",
          "type": "bytes4"
        }
      ],
      "stateMutability": "view",
      "type": "function"
    },
    {
      "inputs": [],
      "name": "ERC1155_RECEIVED",
      "outputs": [
        {
          "internalType": "bytes4",
          "name": "",
          "type": "bytes4"
        }
      ],
      "stateMutability": "view",
      "type": "function"
    },
    {
      "inputs": [
        {
          "internalType": "uint256",
          "name": "_random",
          "type": "uint256"
        },
        {
          "internalType": "uint256",
          "name": "_threshold",
          "type": "uint256"
        }
      ],
      "name": "checkRandom",
      "outputs": [
        {
          "internalType": "bool",
          "name": "",
          "type": "bool"
        }
      ],
      "stateMutability": "pure",
      "type": "function"
    },
    {
      "inputs": [
        {
          "internalType": "uint256",
          "name": "_tokenId",
          "type": "uint256"
        }
      ],
      "name": "claimDividends",
      "outputs": [
        {
          "internalType": "uint256",
          "name": "",
          "type": "uint256"
        }
      ],
      "stateMutability": "nonpayable",
      "type": "function"
    },
    {
      "inputs": [
        {
          "internalType": "uint256",
          "name": "_tokenId",
          "type": "uint256"
        }
      ],
      "name": "claimableDividends",
      "outputs": [
        {
          "internalType": "uint256",
          "name": "",
          "type": "uint256"
        }
      ],
      "stateMutability": "view",
      "type": "function"
    },
    {
      "inputs": [
        {
          "internalType": "uint256",
          "name": "_nukeId",
          "type": "uint256"
        }
      ],
      "name": "completeAttack",
      "outputs": [
        {
          "internalType": "bool",
          "name": "",
          "type": "bool"
        }
      ],
      "stateMutability": "nonpayable",
      "type": "function"
    },
    {
      "inputs": [
        {
          "internalType": "uint256",
          "name": "_nukeId",
          "type": "uint256"
        }
      ],
      "name": "defenseProbability",
      "outputs": [
        {
          "internalType": "uint256",
          "name": "",
          "type": "uint256"
        }
      ],
      "stateMutability": "view",
      "type": "function"
    },
    {
      "inputs": [
        {
          "internalType": "uint256",
          "name": "amount",
          "type": "uint256"
        }
      ],
      "name": "depositInAAVE",
      "outputs": [],
      "stateMutability": "payable",
      "type": "function"
    },
    {
      "inputs": [],
      "name": "galaxyToken",
      "outputs": [
        {
          "internalType": "contract GalaxyToken",
          "name": "",
          "type": "address"
        }
      ],
      "stateMutability": "view",
      "type": "function"
    },
    {
      "inputs": [
        {
          "internalType": "address",
          "name": "_account",
          "type": "address"
        }
      ],
      "name": "getMafiaBalanceOf",
      "outputs": [
        {
          "internalType": "uint256",
          "name": "",
          "type": "uint256"
        }
      ],
      "stateMutability": "view",
      "type": "function"
    },
    {
      "inputs": [],
      "name": "getMafiaTokenSupply",
      "outputs": [
        {
          "internalType": "uint256",
          "name": "",
          "type": "uint256"
        }
      ],
      "stateMutability": "view",
      "type": "function"
    },
    {
      "inputs": [
        {
          "internalType": "uint256",
          "name": "_id",
          "type": "uint256"
        }
      ],
      "name": "getPlanet",
      "outputs": [
        {
          "internalType": "address",
          "name": "",
          "type": "address"
        },
        {
          "internalType": "string",
          "name": "",
          "type": "string"
        }
      ],
      "stateMutability": "view",
      "type": "function"
    },
    {
      "inputs": [],
      "name": "getPlanetSupply",
      "outputs": [
        {
          "internalType": "uint256",
          "name": "",
          "type": "uint256"
        }
      ],
      "stateMutability": "view",
      "type": "function"
    },
    {
      "inputs": [
        {
          "internalType": "bytes32",
          "name": "_entropy",
          "type": "bytes32"
        }
      ],
      "name": "getRandom",
      "outputs": [
        {
          "internalType": "uint256",
          "name": "",
          "type": "uint256"
        }
      ],
      "stateMutability": "pure",
      "type": "function"
    },
    {
      "inputs": [
        {
          "internalType": "uint256",
          "name": "_id",
          "type": "uint256"
        }
      ],
      "name": "getRocket",
      "outputs": [
        {
          "internalType": "address",
          "name": "",
          "type": "address"
        },
        {
          "internalType": "string",
          "name": "",
          "type": "string"
        }
      ],
      "stateMutability": "view",
      "type": "function"
    },
    {
      "inputs": [],
      "name": "getRocketSupply",
      "outputs": [
        {
          "internalType": "uint256",
          "name": "",
          "type": "uint256"
        }
      ],
      "stateMutability": "view",
      "type": "function"
    },
    {
      "inputs": [
        {
          "internalType": "uint256",
          "name": "_numerator",
          "type": "uint256"
        },
        {
          "internalType": "uint256",
          "name": "_denominator",
          "type": "uint256"
        }
      ],
      "name": "getThreshold",
      "outputs": [
        {
          "internalType": "uint256",
          "name": "",
          "type": "uint256"
        }
      ],
      "stateMutability": "pure",
      "type": "function"
    },
    {
      "inputs": [
        {
          "internalType": "uint256",
          "name": "_nukeId",
          "type": "uint256"
        },
        {
          "internalType": "uint256",
          "name": "_hijackCost",
          "type": "uint256"
        }
      ],
      "name": "hijack",
      "outputs": [
        {
          "internalType": "bool",
          "name": "",
          "type": "bool"
        }
      ],
      "stateMutability": "nonpayable",
      "type": "function"
    },
    {
      "inputs": [
        {
          "internalType": "address",
          "name": "_galaxyToken",
          "type": "address"
        }
      ],
      "name": "initialize",
      "outputs": [],
      "stateMutability": "nonpayable",
      "type": "function"
    },
    {
      "inputs": [
        {
          "internalType": "uint256",
          "name": "",
          "type": "uint256"
        }
      ],
      "name": "lastStakedTime",
      "outputs": [
        {
          "internalType": "uint256",
          "name": "",
          "type": "uint256"
        }
      ],
      "stateMutability": "view",
      "type": "function"
    },
    {
      "inputs": [],
      "name": "lendingpool",
      "outputs": [
        {
          "internalType": "address",
          "name": "",
          "type": "address"
        }
      ],
      "stateMutability": "view",
      "type": "function"
    },
    {
      "inputs": [],
      "name": "mafiaToken",
      "outputs": [
        {
          "internalType": "uint256",
          "name": "",
          "type": "uint256"
        }
      ],
      "stateMutability": "view",
      "type": "function"
    },
    {
      "inputs": [
        {
          "internalType": "address",
          "name": "_account",
          "type": "address"
        },
        {
          "internalType": "string",
          "name": "_tokenURI",
          "type": "string"
        }
      ],
      "name": "mintPlanet",
      "outputs": [
        {
          "internalType": "uint256",
          "name": "_id",
          "type": "uint256"
        }
      ],
      "stateMutability": "nonpayable",
      "type": "function"
    },
    {
      "inputs": [
        {
          "internalType": "uint256",
          "name": "_planetId",
          "type": "uint256"
        }
      ],
      "name": "mintRocket",
      "outputs": [
        {
          "internalType": "uint256",
          "name": "_id",
          "type": "uint256"
        }
      ],
      "stateMutability": "nonpayable",
      "type": "function"
    },
    {
      "inputs": [
        {
          "internalType": "uint256",
          "name": "_planetId",
          "type": "uint256"
        },
        {
          "internalType": "uint256",
          "name": "_rocketId",
          "type": "uint256"
        },
        {
          "internalType": "uint256",
          "name": "_missionCost",
          "type": "uint256"
        }
      ],
      "name": "nuke",
      "outputs": [
        {
          "internalType": "uint256",
          "name": "",
          "type": "uint256"
        }
      ],
      "stateMutability": "nonpayable",
      "type": "function"
    },
    {
      "inputs": [],
      "name": "nukeCount",
      "outputs": [
        {
          "internalType": "uint256",
          "name": "",
          "type": "uint256"
        }
      ],
      "stateMutability": "view",
      "type": "function"
    },
    {
      "inputs": [
        {
          "internalType": "uint256",
          "name": "",
          "type": "uint256"
        }
      ],
      "name": "nukes",
      "outputs": [
        {
          "internalType": "uint256",
          "name": "totalStake",
          "type": "uint256"
        },
        {
          "internalType": "uint256",
          "name": "rocketId",
          "type": "uint256"
        },
        {
          "internalType": "uint256",
          "name": "targetPlanet",
          "type": "uint256"
        },
        {
          "internalType": "uint256",
          "name": "finalityBlock",
          "type": "uint256"
        },
        {
          "internalType": "uint256",
          "name": "missionCost",
          "type": "uint256"
        },
        {
          "internalType": "bool",
          "name": "complete",
          "type": "bool"
        }
      ],
      "stateMutability": "view",
      "type": "function"
    },
    {
      "inputs": [
        {
          "internalType": "address",
          "name": "operator",
          "type": "address"
        },
        {
          "internalType": "address",
          "name": "from",
          "type": "address"
        },
        {
          "internalType": "uint256[]",
          "name": "ids",
          "type": "uint256[]"
        },
        {
          "internalType": "uint256[]",
          "name": "values",
          "type": "uint256[]"
        },
        {
          "internalType": "bytes",
          "name": "data",
          "type": "bytes"
        }
      ],
      "name": "onERC1155BatchReceived",
      "outputs": [
        {
          "internalType": "bytes4",
          "name": "",
          "type": "bytes4"
        }
      ],
      "stateMutability": "nonpayable",
      "type": "function"
    },
    {
      "inputs": [
        {
          "internalType": "address",
          "name": "operator",
          "type": "address"
        },
        {
          "internalType": "address",
          "name": "from",
          "type": "address"
        },
        {
          "internalType": "uint256",
          "name": "id",
          "type": "uint256"
        },
        {
          "internalType": "uint256",
          "name": "value",
          "type": "uint256"
        },
        {
          "internalType": "bytes",
          "name": "data",
          "type": "bytes"
        }
      ],
      "name": "onERC1155Received",
      "outputs": [
        {
          "internalType": "bytes4",
          "name": "",
          "type": "bytes4"
        }
      ],
      "stateMutability": "nonpayable",
      "type": "function"
    },
    {
      "inputs": [],
      "name": "owner",
      "outputs": [
        {
          "internalType": "address",
          "name": "",
          "type": "address"
        }
      ],
      "stateMutability": "view",
      "type": "function"
    },
    {
      "inputs": [],
      "name": "planetType",
      "outputs": [
        {
          "internalType": "uint256",
          "name": "",
          "type": "uint256"
        }
      ],
      "stateMutability": "view",
      "type": "function"
    },
    {
      "inputs": [],
      "name": "renounceOwnership",
      "outputs": [],
      "stateMutability": "nonpayable",
      "type": "function"
    },
    {
      "inputs": [],
      "name": "rocketType",
      "outputs": [
        {
          "internalType": "uint256",
          "name": "",
          "type": "uint256"
        }
      ],
      "stateMutability": "view",
      "type": "function"
    },
    {
      "inputs": [
        {
          "internalType": "uint256",
          "name": "_tokenId",
          "type": "uint256"
        }
      ],
      "name": "stakeEthOnPlanet",
      "outputs": [
        {
          "internalType": "bool",
          "name": "",
          "type": "bool"
        }
      ],
      "stateMutability": "payable",
      "type": "function"
    },
    {
      "inputs": [
        {
          "internalType": "uint256",
          "name": "",
          "type": "uint256"
        }
      ],
      "name": "stakedEth",
      "outputs": [
        {
          "internalType": "uint256",
          "name": "",
          "type": "uint256"
        }
      ],
      "stateMutability": "view",
      "type": "function"
    },
    {
      "inputs": [
        {
          "internalType": "address",
          "name": "_to",
          "type": "address"
        },
        {
          "internalType": "uint256",
          "name": "_amount",
          "type": "uint256"
        }
      ],
      "name": "transferMafiaToken",
      "outputs": [],
      "stateMutability": "nonpayable",
      "type": "function"
    },
    {
      "inputs": [
        {
          "internalType": "address",
          "name": "newOwner",
          "type": "address"
        }
      ],
      "name": "transferOwnership",
      "outputs": [],
      "stateMutability": "nonpayable",
      "type": "function"
    },
    {
      "inputs": [
        {
          "internalType": "address",
          "name": "_to",
          "type": "address"
        },
        {
          "internalType": "uint256",
          "name": "_id",
          "type": "uint256"
        }
      ],
      "name": "transferPlanet",
      "outputs": [],
      "stateMutability": "nonpayable",
      "type": "function"
    },
    {
      "inputs": [
        {
          "internalType": "address",
          "name": "_to",
          "type": "address"
        },
        {
          "internalType": "uint256",
          "name": "_id",
          "type": "uint256"
        }
      ],
      "name": "transferRocket",
      "outputs": [],
      "stateMutability": "nonpayable",
      "type": "function"
    }
  ],
  "bytecode": "0x608060405260008060146101000a81548160ff0219169083151502179055503480156200002b57600080fd5b506200004c620000406200005260201b60201c565b6200005a60201b60201c565b6200011e565b600033905090565b60008060009054906101000a900473ffffffffffffffffffffffffffffffffffffffff169050816000806101000a81548173ffffffffffffffffffffffffffffffffffffffff021916908373ffffffffffffffffffffffffffffffffffffffff1602179055508173ffffffffffffffffffffffffffffffffffffffff168173ffffffffffffffffffffffffffffffffffffffff167f8be0079c531659141344cd1fd0a4f28419497f9722a3daafe3b4186f6b6457e060405160405180910390a35050565b61558f806200012e6000396000f3fe60806040526004361061022f5760003560e01c8063968b01671161012e578063c496d708116100ab578063f1288a8d1161006f578063f1288a8d14610920578063f23a6e611461093c578063f2fde38b14610979578063fc67bf1c146109a2578063ffbec419146109cd5761022f565b8063c496d70814610827578063c4d66de814610852578063c6414eee1461087b578063c9c9a9f2146108b8578063e0a5c949146108f55761022f565b8063b5bab053116100f2578063b5bab05314610708578063b737ed1b14610745578063b8aa6f0214610782578063bc197c81146107ad578063bd7047c4146107ea5761022f565b8063968b0167146105fc578063971c53d4146106275780639c86d530146106505780639d5dc4161461068d578063aed4f39c146106ca5761022f565b80635374eec3116101bc5780636f21de4d116101805780636f21de4d14610534578063715018a61461055f5780637328fd73146105765780638a0a866a146105a15780638da5cb5b146105d15761022f565b80635374eec31461042757806353fad0781461046457806356cdbdcb146104a157806360a138ed146104cc57806360c92db4146105095761022f565b80632b8f107d116102035780632b8f107d1461032d578063311125f71461036a57806331e6ace01461039357806334efcb8e146103be5780633d48f982146103fc5761022f565b8062d36f92146102345780632479fb8f1461027157806324b4b928146102b357806329fb518d146102f0575b600080fd5b34801561024057600080fd5b5061025b600480360381019061025691906143bd565b6109f6565b6040516102689190614cdd565b60405180910390f35b34801561027d57600080fd5b50610298600480360381019061029391906143bd565b610d8e565b6040516102aa96959493929190614d58565b60405180910390f35b3480156102bf57600080fd5b506102da60048036038101906102d5919061440f565b610dd7565b6040516102e79190614a71565b60405180910390f35b3480156102fc57600080fd5b50610317600480360381019061031291906143bd565b610de5565b6040516103249190614cdd565b60405180910390f35b34801561033957600080fd5b50610354600480360381019061034f919061444b565b610dfd565b6040516103619190614cdd565b60405180910390f35b34801561037657600080fd5b50610391600480360381019061038c91906142ee565b6115c7565b005b34801561039f57600080fd5b506103a861165f565b6040516103b59190614cdd565b60405180910390f35b3480156103ca57600080fd5b506103e560048036038101906103e091906143bd565b611713565b6040516103f392919061495e565b60405180910390f35b34801561040857600080fd5b5061041161187b565b60405161041e9190614cdd565b60405180910390f35b34801561043357600080fd5b5061044e6004803603810190610449919061440f565b611881565b60405161045b9190614a71565b60405180910390f35b34801561047057600080fd5b5061048b600480360381019061048691906143bd565b611e0e565b6040516104989190614cdd565b60405180910390f35b3480156104ad57600080fd5b506104b6611e26565b6040516104c39190614cdd565b60405180910390f35b3480156104d857600080fd5b506104f360048036038101906104ee91906143bd565b611eda565b6040516105009190614a71565b60405180910390f35b34801561051557600080fd5b5061051e612418565b60405161052b9190614cdd565b60405180910390f35b34801561054057600080fd5b5061054961241e565b6040516105569190614cdd565b60405180910390f35b34801561056b57600080fd5b50610574612424565b005b34801561058257600080fd5b5061058b6124ac565b6040516105989190614ac2565b60405180910390f35b6105bb60048036038101906105b691906143bd565b6124d2565b6040516105c89190614a71565b60405180910390f35b3480156105dd57600080fd5b506105e66128ca565b6040516105f3919061483b565b60405180910390f35b34801561060857600080fd5b506106116128f3565b60405161061e9190614cdd565b60405180910390f35b34801561063357600080fd5b5061064e600480360381019061064991906142ee565b6129a7565b005b34801561065c57600080fd5b50610677600480360381019061067291906140ea565b612a3f565b6040516106849190614cdd565b60405180910390f35b34801561069957600080fd5b506106b460048036038101906106af91906143bd565b612af6565b6040516106c19190614cdd565b60405180910390f35b3480156106d657600080fd5b506106f160048036038101906106ec91906143bd565b612ce5565b6040516106ff92919061495e565b60405180910390f35b34801561071457600080fd5b5061072f600480360381019061072a91906143bd565b612e4d565b60405161073c9190614cdd565b60405180910390f35b34801561075157600080fd5b5061076c60048036038101906107679190614353565b61318b565b6040516107799190614cdd565b60405180910390f35b34801561078e57600080fd5b506107976131e1565b6040516107a49190614cdd565b60405180910390f35b3480156107b957600080fd5b506107d460048036038101906107cf919061413c565b6131e7565b6040516107e19190614aa7565b60405180910390f35b3480156107f657600080fd5b50610811600480360381019061080c91906143bd565b6131ff565b60405161081e9190614cdd565b60405180910390f35b34801561083357600080fd5b5061083c613625565b604051610849919061483b565b60405180910390f35b34801561085e57600080fd5b50610879600480360381019061087491906140ea565b61364b565b005b34801561088757600080fd5b506108a2600480360381019061089d919061440f565b613998565b6040516108af9190614cdd565b60405180910390f35b3480156108c457600080fd5b506108df60048036038101906108da919061429a565b6139d8565b6040516108ec9190614cdd565b60405180910390f35b34801561090157600080fd5b5061090a613b11565b6040516109179190614aa7565b60405180910390f35b61093a600480360381019061093591906143bd565b613b1c565b005b34801561094857600080fd5b50610963600480360381019061095e9190614208565b613bc7565b6040516109709190614aa7565b60405180910390f35b34801561098557600080fd5b506109a0600480360381019061099b91906140ea565b613bdd565b005b3480156109ae57600080fd5b506109b7613cd5565b6040516109c49190614aa7565b60405180910390f35b3480156109d957600080fd5b506109f460048036038101906109ef91906142ee565b613ce0565b005b600081600073ffffffffffffffffffffffffffffffffffffffff16600160009054906101000a900473ffffffffffffffffffffffffffffffffffffffff1673ffffffffffffffffffffffffffffffffffffffff16633fa9f7f3836040518263ffffffff1660e01b8152600401610a6c9190614cdd565b60206040518083038186803b158015610a8457600080fd5b505afa158015610a98573d6000803e3d6000fd5b505050506040513d601f19601f82011682018060405250810190610abc9190614113565b73ffffffffffffffffffffffffffffffffffffffff161415610b13576040517f08c379a0000000000000000000000000000000000000000000000000000000008152600401610b0a90614b1d565b60405180910390fd5b600254600160009054906101000a900473ffffffffffffffffffffffffffffffffffffffff1673ffffffffffffffffffffffffffffffffffffffff1663e4b5b61a836040518263ffffffff1660e01b8152600401610b719190614cdd565b60206040518083038186803b158015610b8957600080fd5b505afa158015610b9d573d6000803e3d6000fd5b505050506040513d601f19601f82011682018060405250810190610bc191906143e6565b14610c01576040517f08c379a0000000000000000000000000000000000000000000000000000000008152600401610bf890614b9d565b60405180910390fd5b6000600160009054906101000a900473ffffffffffffffffffffffffffffffffffffffff1673ffffffffffffffffffffffffffffffffffffffff16633fa9f7f3856040518263ffffffff1660e01b8152600401610c5e9190614cdd565b60206040518083038186803b158015610c7657600080fd5b505afa158015610c8a573d6000803e3d6000fd5b505050506040513d601f19601f82011682018060405250810190610cae9190614113565b90506000600160009054906101000a900473ffffffffffffffffffffffffffffffffffffffff1673ffffffffffffffffffffffffffffffffffffffff166379b8d938836004546040518363ffffffff1660e01b8152600401610d1192919061498e565b60206040518083038186803b158015610d2957600080fd5b505afa158015610d3d573d6000803e3d6000fd5b505050506040513d601f19601f82011682018060405250810190610d6191906143e6565b90506000610d6e86613d79565b9050610d838183613dfa90919063ffffffff16565b945050505050919050565b60096020528060005260406000206000915090508060000154908060010154908060020154908060030154908060040154908060050160009054906101000a900460ff16905086565b600081831115905092915050565b60086020528060005260406000206000915090505481565b600083600073ffffffffffffffffffffffffffffffffffffffff16600160009054906101000a900473ffffffffffffffffffffffffffffffffffffffff1673ffffffffffffffffffffffffffffffffffffffff16633fa9f7f3836040518263ffffffff1660e01b8152600401610e739190614cdd565b60206040518083038186803b158015610e8b57600080fd5b505afa158015610e9f573d6000803e3d6000fd5b505050506040513d601f19601f82011682018060405250810190610ec39190614113565b73ffffffffffffffffffffffffffffffffffffffff161415610f1a576040517f08c379a0000000000000000000000000000000000000000000000000000000008152600401610f1190614b1d565b60405180910390fd5b600254600160009054906101000a900473ffffffffffffffffffffffffffffffffffffffff1673ffffffffffffffffffffffffffffffffffffffff1663e4b5b61a836040518263ffffffff1660e01b8152600401610f789190614cdd565b60206040518083038186803b158015610f9057600080fd5b505afa158015610fa4573d6000803e3d6000fd5b505050506040513d601f19601f82011682018060405250810190610fc891906143e6565b14611008576040517f08c379a0000000000000000000000000000000000000000000000000000000008152600401610fff90614b9d565b60405180910390fd5b83600073ffffffffffffffffffffffffffffffffffffffff16600160009054906101000a900473ffffffffffffffffffffffffffffffffffffffff1673ffffffffffffffffffffffffffffffffffffffff16633fa9f7f3836040518263ffffffff1660e01b815260040161107c9190614cdd565b60206040518083038186803b15801561109457600080fd5b505afa1580156110a8573d6000803e3d6000fd5b505050506040513d601f19601f820116820180604052508101906110cc9190614113565b73ffffffffffffffffffffffffffffffffffffffff161415611123576040517f08c379a000000000000000000000000000000000000000000000000000000000815260040161111a90614bdd565b60405180910390fd5b600354600160009054906101000a900473ffffffffffffffffffffffffffffffffffffffff1673ffffffffffffffffffffffffffffffffffffffff1663e4b5b61a836040518263ffffffff1660e01b81526004016111819190614cdd565b60206040518083038186803b15801561119957600080fd5b505afa1580156111ad573d6000803e3d6000fd5b505050506040513d601f19601f820116820180604052508101906111d191906143e6565b14611211576040517f08c379a000000000000000000000000000000000000000000000000000000000815260040161120890614b5d565b60405180910390fd5b6000600160009054906101000a900473ffffffffffffffffffffffffffffffffffffffff1673ffffffffffffffffffffffffffffffffffffffff16633fa9f7f3876040518263ffffffff1660e01b815260040161126e9190614cdd565b60206040518083038186803b15801561128657600080fd5b505afa15801561129a573d6000803e3d6000fd5b505050506040513d601f19601f820116820180604052508101906112be9190614113565b90503373ffffffffffffffffffffffffffffffffffffffff168173ffffffffffffffffffffffffffffffffffffffff161461132e576040517f08c379a000000000000000000000000000000000000000000000000000000000815260040161132590614b7d565b60405180910390fd5b670de0b6b3a7640000851015611379576040517f08c379a000000000000000000000000000000000000000000000000000000000815260040161137090614add565b60405180910390fd5b84600160009054906101000a900473ffffffffffffffffffffffffffffffffffffffff1673ffffffffffffffffffffffffffffffffffffffff1662fdd58e336004546040518363ffffffff1660e01b81526004016113d892919061498e565b60206040518083038186803b1580156113f057600080fd5b505afa158015611404573d6000803e3d6000fd5b505050506040513d601f19601f8201168201806040525081019061142891906143e6565b1015611469576040517f08c379a000000000000000000000000000000000000000000000000000000000815260040161146090614c5d565b60405180910390fd5b6040518060c001604052808681526020018781526020018881526020016014436114939190614e47565b815260200186815260200160001515815250600960006006548152602001908152602001600020600082015181600001556020820151816001015560408201518160020155606082015181600301556080820151816004015560a08201518160050160006101000a81548160ff021916908315150217905550905050600160009054906101000a900473ffffffffffffffffffffffffffffffffffffffff1673ffffffffffffffffffffffffffffffffffffffff1663f242432a3330600454896040518563ffffffff1660e01b81526004016115729493929190614906565b600060405180830381600087803b15801561158c57600080fd5b505af11580156115a0573d6000803e3d6000fd5b50505050600660008154809291906115b7906150b5565b9190505593505050509392505050565b600160009054906101000a900473ffffffffffffffffffffffffffffffffffffffff1673ffffffffffffffffffffffffffffffffffffffff1663f242432a33848460016040518563ffffffff1660e01b815260040161162994939291906148ae565b600060405180830381600087803b15801561164357600080fd5b505af1158015611657573d6000803e3d6000fd5b505050505050565b6000600160009054906101000a900473ffffffffffffffffffffffffffffffffffffffff1673ffffffffffffffffffffffffffffffffffffffff1663bd85b0396004546040518263ffffffff1660e01b81526004016116be9190614cdd565b60206040518083038186803b1580156116d657600080fd5b505afa1580156116ea573d6000803e3d6000fd5b505050506040513d601f19601f8201168201806040525081019061170e91906143e6565b905090565b60006060600160009054906101000a900473ffffffffffffffffffffffffffffffffffffffff1673ffffffffffffffffffffffffffffffffffffffff16633fa9f7f3846040518263ffffffff1660e01b81526004016117729190614cdd565b60206040518083038186803b15801561178a57600080fd5b505afa15801561179e573d6000803e3d6000fd5b505050506040513d601f19601f820116820180604052508101906117c29190614113565b600160009054906101000a900473ffffffffffffffffffffffffffffffffffffffff1673ffffffffffffffffffffffffffffffffffffffff16636914db60856040518263ffffffff1660e01b815260040161181d9190614cdd565b60006040518083038186803b15801561183557600080fd5b505afa158015611849573d6000803e3d6000fd5b505050506040513d6000823e3d601f19601f82011682018060405250810190611872919061437c565b91509150915091565b60065481565b60008260065481106118c8576040517f08c379a00000000000000000000000000000000000000000000000000000000081526004016118bf90614c3d565b60405180910390fd5b6009600082815260200190815260200160002060050160009054906101000a900460ff161561192c576040517f08c379a000000000000000000000000000000000000000000000000000000000815260040161192390614c9d565b60405180910390fd5b600033905060006009600087815260200190815260200160002090506000600160009054906101000a900473ffffffffffffffffffffffffffffffffffffffff1673ffffffffffffffffffffffffffffffffffffffff16633fa9f7f383600101546040518263ffffffff1660e01b81526004016119a99190614cdd565b60206040518083038186803b1580156119c157600080fd5b505afa1580156119d5573d6000803e3d6000fd5b505050506040513d601f19601f820116820180604052508101906119f99190614113565b9050670de0b6b3a7640000861015611a46576040517f08c379a0000000000000000000000000000000000000000000000000000000008152600401611a3d90614add565b60405180910390fd5b85600160009054906101000a900473ffffffffffffffffffffffffffffffffffffffff1673ffffffffffffffffffffffffffffffffffffffff1662fdd58e856004546040518363ffffffff1660e01b8152600401611aa592919061498e565b60206040518083038186803b158015611abd57600080fd5b505afa158015611ad1573d6000803e3d6000fd5b505050506040513d601f19601f82011682018060405250810190611af591906143e6565b1015611b36576040517f08c379a0000000000000000000000000000000000000000000000000000000008152600401611b2d90614c5d565b60405180910390fd5b600082600301549050804310611b81576040517f08c379a0000000000000000000000000000000000000000000000000000000008152600401611b7890614afd565b60405180910390fd5b60008790506000611b9f85600401548a613dfa90919063ffffffff16565b90506000611bad8383613998565b90506000611bc7600143611bc19190614f28565b4061318b565b9050600160009054906101000a900473ffffffffffffffffffffffffffffffffffffffff1673ffffffffffffffffffffffffffffffffffffffff1663f242432a89306004548f6040518563ffffffff1660e01b8152600401611c2c9493929190614906565b600060405180830381600087803b158015611c4657600080fd5b505af1158015611c5a573d6000803e3d6000fd5b505050508a8760000154611c6e9190614e47565b8760000181905550611c808183610dd7565b15611de557600160009054906101000a900473ffffffffffffffffffffffffffffffffffffffff1673ffffffffffffffffffffffffffffffffffffffff1663f242432a8760008a6001015460006040518563ffffffff1660e01b8152600401611cec9493929190614856565b600060405180830381600087803b158015611d0657600080fd5b505af1158015611d1a573d6000803e3d6000fd5b5050505060018760050160006101000a81548160ff021916908315150217905550600160009054906101000a900473ffffffffffffffffffffffffffffffffffffffff1673ffffffffffffffffffffffffffffffffffffffff1663f242432a308a6004548b600001546040518563ffffffff1660e01b8152600401611da29493929190614906565b600060405180830381600087803b158015611dbc57600080fd5b505af1158015611dd0573d6000803e3d6000fd5b50505050600199505050505050505050611e07565b601443611df29190614e47565b87600301819055506000995050505050505050505b5092915050565b60076020528060005260406000206000915090505481565b6000600160009054906101000a900473ffffffffffffffffffffffffffffffffffffffff1673ffffffffffffffffffffffffffffffffffffffff1663bd85b0396002546040518263ffffffff1660e01b8152600401611e859190614cdd565b60206040518083038186803b158015611e9d57600080fd5b505afa158015611eb1573d6000803e3d6000fd5b505050506040513d601f19601f82011682018060405250810190611ed591906143e6565b905090565b6000816006548110611f21576040517f08c379a0000000000000000000000000000000000000000000000000000000008152600401611f1890614c3d565b60405180910390fd5b6009600082815260200190815260200160002060050160009054906101000a900460ff1615611f85576040517f08c379a0000000000000000000000000000000000000000000000000000000008152600401611f7c90614c9d565b60405180910390fd5b6000611f9084612af6565b9050600060096000868152602001908152602001600020905060008160030154905080431015611ff5576040517f08c379a0000000000000000000000000000000000000000000000000000000008152600401611fec90614cbd565b60405180910390fd5b6000612001824061318b565b905060018360050160006101000a81548160ff0219169083151502179055506000600160009054906101000a900473ffffffffffffffffffffffffffffffffffffffff1673ffffffffffffffffffffffffffffffffffffffff16633fa9f7f385600201546040518263ffffffff1660e01b81526004016120819190614cdd565b60206040518083038186803b15801561209957600080fd5b505afa1580156120ad573d6000803e3d6000fd5b505050506040513d601f19601f820116820180604052508101906120d19190614113565b90506000600160009054906101000a900473ffffffffffffffffffffffffffffffffffffffff1673ffffffffffffffffffffffffffffffffffffffff16633fa9f7f386600101546040518263ffffffff1660e01b81526004016121349190614cdd565b60206040518083038186803b15801561214c57600080fd5b505afa158015612160573d6000803e3d6000fd5b505050506040513d601f19601f820116820180604052508101906121849190614113565b9050600160009054906101000a900473ffffffffffffffffffffffffffffffffffffffff1673ffffffffffffffffffffffffffffffffffffffff1663f242432a826000886001015460006040518563ffffffff1660e01b81526004016121ed9493929190614856565b600060405180830381600087803b15801561220757600080fd5b505af115801561221b573d6000803e3d6000fd5b505050506122298387610dd7565b156122d657600160009054906101000a900473ffffffffffffffffffffffffffffffffffffffff1673ffffffffffffffffffffffffffffffffffffffff1663f242432a308460045489600001546040518563ffffffff1660e01b81526004016122959493929190614906565b600060405180830381600087803b1580156122af57600080fd5b505af11580156122c3573d6000803e3d6000fd5b5050505060009750505050505050612412565b600160009054906101000a900473ffffffffffffffffffffffffffffffffffffffff1673ffffffffffffffffffffffffffffffffffffffff1663f242432a308360045489600001546040518563ffffffff1660e01b815260040161233d9493929190614906565b600060405180830381600087803b15801561235757600080fd5b505af115801561236b573d6000803e3d6000fd5b50505050600160009054906101000a900473ffffffffffffffffffffffffffffffffffffffff1673ffffffffffffffffffffffffffffffffffffffff1663f242432a8383886002015460006040518563ffffffff1660e01b81526004016123d59493929190614856565b600060405180830381600087803b1580156123ef57600080fd5b505af1158015612403573d6000803e3d6000fd5b50505050600197505050505050505b50919050565b60025481565b60045481565b61242c613e10565b73ffffffffffffffffffffffffffffffffffffffff1661244a6128ca565b73ffffffffffffffffffffffffffffffffffffffff16146124a0576040517f08c379a000000000000000000000000000000000000000000000000000000000815260040161249790614bbd565b60405180910390fd5b6124aa6000613e18565b565b600160009054906101000a900473ffffffffffffffffffffffffffffffffffffffff1681565b600081600073ffffffffffffffffffffffffffffffffffffffff16600160009054906101000a900473ffffffffffffffffffffffffffffffffffffffff1673ffffffffffffffffffffffffffffffffffffffff16633fa9f7f3836040518263ffffffff1660e01b81526004016125489190614cdd565b60206040518083038186803b15801561256057600080fd5b505afa158015612574573d6000803e3d6000fd5b505050506040513d601f19601f820116820180604052508101906125989190614113565b73ffffffffffffffffffffffffffffffffffffffff1614156125ef576040517f08c379a00000000000000000000000000000000000000000000000000000000081526004016125e690614b1d565b60405180910390fd5b600254600160009054906101000a900473ffffffffffffffffffffffffffffffffffffffff1673ffffffffffffffffffffffffffffffffffffffff1663e4b5b61a836040518263ffffffff1660e01b815260040161264d9190614cdd565b60206040518083038186803b15801561266557600080fd5b505afa158015612679573d6000803e3d6000fd5b505050506040513d601f19601f8201168201806040525081019061269d91906143e6565b146126dd576040517f08c379a00000000000000000000000000000000000000000000000000000000081526004016126d490614b9d565b60405180910390fd5b60003411612720576040517f08c379a000000000000000000000000000000000000000000000000000000000815260040161271790614c1d565b60405180910390fd5b6000600160009054906101000a900473ffffffffffffffffffffffffffffffffffffffff1673ffffffffffffffffffffffffffffffffffffffff16633fa9f7f3856040518263ffffffff1660e01b815260040161277d9190614cdd565b60206040518083038186803b15801561279557600080fd5b505afa1580156127a9573d6000803e3d6000fd5b505050506040513d601f19601f820116820180604052508101906127cd9190614113565b9050600160009054906101000a900473ffffffffffffffffffffffffffffffffffffffff1673ffffffffffffffffffffffffffffffffffffffff1663a1eb70016004548361281a88613d79565b6040518463ffffffff1660e01b815260040161283893929190614d21565b600060405180830381600087803b15801561285257600080fd5b505af1158015612866573d6000803e3d6000fd5b50505050612890346007600087815260200190815260200160002054613dfa90919063ffffffff16565b6007600086815260200190815260200160002081905550426008600086815260200190815260200160002081905550600192505050919050565b60008060009054906101000a900473ffffffffffffffffffffffffffffffffffffffff16905090565b6000600160009054906101000a900473ffffffffffffffffffffffffffffffffffffffff1673ffffffffffffffffffffffffffffffffffffffff1663bd85b0396003546040518263ffffffff1660e01b81526004016129529190614cdd565b60206040518083038186803b15801561296a57600080fd5b505afa15801561297e573d6000803e3d6000fd5b505050506040513d601f19601f820116820180604052508101906129a291906143e6565b905090565b600160009054906101000a900473ffffffffffffffffffffffffffffffffffffffff1673ffffffffffffffffffffffffffffffffffffffff1663f242432a33848460016040518563ffffffff1660e01b8152600401612a0994939291906148ae565b600060405180830381600087803b158015612a2357600080fd5b505af1158015612a37573d6000803e3d6000fd5b505050505050565b6000600160009054906101000a900473ffffffffffffffffffffffffffffffffffffffff1673ffffffffffffffffffffffffffffffffffffffff1662fdd58e836004546040518363ffffffff1660e01b8152600401612a9f92919061498e565b60206040518083038186803b158015612ab757600080fd5b505afa158015612acb573d6000803e3d6000fd5b505050506040513d601f19601f82011682018060405250810190612aef91906143e6565b9050919050565b6000816006548110612b3d576040517f08c379a0000000000000000000000000000000000000000000000000000000008152600401612b3490614c3d565b60405180910390fd5b6009600082815260200190815260200160002060050160009054906101000a900460ff1615612ba1576040517f08c379a0000000000000000000000000000000000000000000000000000000008152600401612b9890614c9d565b60405180910390fd5b6006548310612be5576040517f08c379a0000000000000000000000000000000000000000000000000000000008152600401612bdc90614c3d565b60405180910390fd5b60006009600085815260200190815260200160002090508060050160009054906101000a900460ff1615612c4e576040517f08c379a0000000000000000000000000000000000000000000000000000000008152600401612c4590614c9d565b60405180910390fd5b6000612c82670de0b6b3a7640000600760008560020154815260200190815260200160002054613dfa90919063ffffffff16565b90506000612cce670de0b6b3a7640000612cc08560000154600760008860020154815260200190815260200160002054613dfa90919063ffffffff16565b613dfa90919063ffffffff16565b9050612cda8282613998565b945050505050919050565b60006060600160009054906101000a900473ffffffffffffffffffffffffffffffffffffffff1673ffffffffffffffffffffffffffffffffffffffff16633fa9f7f3846040518263ffffffff1660e01b8152600401612d449190614cdd565b60206040518083038186803b158015612d5c57600080fd5b505afa158015612d70573d6000803e3d6000fd5b505050506040513d601f19601f82011682018060405250810190612d949190614113565b600160009054906101000a900473ffffffffffffffffffffffffffffffffffffffff1673ffffffffffffffffffffffffffffffffffffffff16636914db60856040518263ffffffff1660e01b8152600401612def9190614cdd565b60006040518083038186803b158015612e0757600080fd5b505afa158015612e1b573d6000803e3d6000fd5b505050506040513d6000823e3d601f19601f82011682018060405250810190612e44919061437c565b91509150915091565b600080600160009054906101000a900473ffffffffffffffffffffffffffffffffffffffff1673ffffffffffffffffffffffffffffffffffffffff16633fa9f7f3846040518263ffffffff1660e01b8152600401612eab9190614cdd565b60206040518083038186803b158015612ec357600080fd5b505afa158015612ed7573d6000803e3d6000fd5b505050506040513d601f19601f82011682018060405250810190612efb9190614113565b9050670de0b6b3a7640000600160009054906101000a900473ffffffffffffffffffffffffffffffffffffffff1673ffffffffffffffffffffffffffffffffffffffff1662fdd58e336004546040518363ffffffff1660e01b8152600401612f6492919061498e565b60206040518083038186803b158015612f7c57600080fd5b505afa158015612f90573d6000803e3d6000fd5b505050506040513d601f19601f82011682018060405250810190612fb491906143e6565b1015612ff5576040517f08c379a0000000000000000000000000000000000000000000000000000000008152600401612fec90614bfd565b60405180910390fd5b600160009054906101000a900473ffffffffffffffffffffffffffffffffffffffff1673ffffffffffffffffffffffffffffffffffffffff1663717b7f3633600454670de0b6b3a76400006040518463ffffffff1660e01b815260040161305e93929190614a3a565b602060405180830381600087803b15801561307857600080fd5b505af115801561308c573d6000803e3d6000fd5b505050506040513d601f19601f820116820180604052508101906130b0919061432a565b50600160009054906101000a900473ffffffffffffffffffffffffffffffffffffffff1673ffffffffffffffffffffffffffffffffffffffff166398b4ad6f8260035486604051602001613104919061480a565b6040516020818303038152906040526040518463ffffffff1660e01b8152600401613131939291906149fc565b602060405180830381600087803b15801561314b57600080fd5b505af115801561315f573d6000803e3d6000fd5b505050506040513d601f19601f8201168201806040525081019061318391906143e6565b915050919050565b60006131da700100000000000000000000000000000000836040516020016131b39190614a8c565b6040516020818303038152906040528051906020012060001c613edc90919063ffffffff16565b9050919050565b60035481565b600063bc197c8160e01b905098975050505050505050565b600081600073ffffffffffffffffffffffffffffffffffffffff16600160009054906101000a900473ffffffffffffffffffffffffffffffffffffffff1673ffffffffffffffffffffffffffffffffffffffff16633fa9f7f3836040518263ffffffff1660e01b81526004016132759190614cdd565b60206040518083038186803b15801561328d57600080fd5b505afa1580156132a1573d6000803e3d6000fd5b505050506040513d601f19601f820116820180604052508101906132c59190614113565b73ffffffffffffffffffffffffffffffffffffffff16141561331c576040517f08c379a000000000000000000000000000000000000000000000000000000000815260040161331390614b1d565b60405180910390fd5b600254600160009054906101000a900473ffffffffffffffffffffffffffffffffffffffff1673ffffffffffffffffffffffffffffffffffffffff1663e4b5b61a836040518263ffffffff1660e01b815260040161337a9190614cdd565b60206040518083038186803b15801561339257600080fd5b505afa1580156133a6573d6000803e3d6000fd5b505050506040513d601f19601f820116820180604052508101906133ca91906143e6565b1461340a576040517f08c379a000000000000000000000000000000000000000000000000000000000815260040161340190614b9d565b60405180910390fd5b6000600160009054906101000a900473ffffffffffffffffffffffffffffffffffffffff1673ffffffffffffffffffffffffffffffffffffffff16633fa9f7f3856040518263ffffffff1660e01b81526004016134679190614cdd565b60206040518083038186803b15801561347f57600080fd5b505afa158015613493573d6000803e3d6000fd5b505050506040513d601f19601f820116820180604052508101906134b79190614113565b9050600160009054906101000a900473ffffffffffffffffffffffffffffffffffffffff1673ffffffffffffffffffffffffffffffffffffffff1663a1eb70016004548361350488613d79565b6040518463ffffffff1660e01b815260040161352293929190614d21565b600060405180830381600087803b15801561353c57600080fd5b505af1158015613550573d6000803e3d6000fd5b50505050426008600086815260200190815260200160002081905550600160009054906101000a900473ffffffffffffffffffffffffffffffffffffffff1673ffffffffffffffffffffffffffffffffffffffff1662ffc135600454836040518363ffffffff1660e01b81526004016135ca929190614cf8565b602060405180830381600087803b1580156135e457600080fd5b505af11580156135f8573d6000803e3d6000fd5b505050506040513d601f19601f8201168201806040525081019061361c91906143e6565b92505050919050565b600560009054906101000a900473ffffffffffffffffffffffffffffffffffffffff1681565b613653613e10565b73ffffffffffffffffffffffffffffffffffffffff166136716128ca565b73ffffffffffffffffffffffffffffffffffffffff16146136c7576040517f08c379a00000000000000000000000000000000000000000000000000000000081526004016136be90614bbd565b60405180910390fd5b60001515600060149054906101000a900460ff1615151461371d576040517f08c379a000000000000000000000000000000000000000000000000000000000815260040161371490614c7d565b60405180910390fd5b80600160006101000a81548173ffffffffffffffffffffffffffffffffffffffff021916908373ffffffffffffffffffffffffffffffffffffffff160217905550600160009054906101000a900473ffffffffffffffffffffffffffffffffffffffff1673ffffffffffffffffffffffffffffffffffffffff166305caa0ff60006040518263ffffffff1660e01b81526004016137ba9190614a71565b602060405180830381600087803b1580156137d457600080fd5b505af11580156137e8573d6000803e3d6000fd5b505050506040513d601f19601f8201168201806040525081019061380c91906143e6565b600481905550600160009054906101000a900473ffffffffffffffffffffffffffffffffffffffff1673ffffffffffffffffffffffffffffffffffffffff166305caa0ff60016040518263ffffffff1660e01b815260040161386e9190614a71565b602060405180830381600087803b15801561388857600080fd5b505af115801561389c573d6000803e3d6000fd5b505050506040513d601f19601f820116820180604052508101906138c091906143e6565b600281905550600160009054906101000a900473ffffffffffffffffffffffffffffffffffffffff1673ffffffffffffffffffffffffffffffffffffffff166305caa0ff60016040518263ffffffff1660e01b81526004016139229190614a71565b602060405180830381600087803b15801561393c57600080fd5b505af1158015613950573d6000803e3d6000fd5b505050506040513d601f19601f8201168201806040525081019061397491906143e6565b6003819055506001600060146101000a81548160ff02191690831515021790555050565b60006139d0826139c270010000000000000000000000000000000086613ef290919063ffffffff16565b613edc90919063ffffffff16565b905092915050565b60006139e2613e10565b73ffffffffffffffffffffffffffffffffffffffff16613a006128ca565b73ffffffffffffffffffffffffffffffffffffffff1614613a56576040517f08c379a0000000000000000000000000000000000000000000000000000000008152600401613a4d90614bbd565b60405180910390fd5b600160009054906101000a900473ffffffffffffffffffffffffffffffffffffffff1673ffffffffffffffffffffffffffffffffffffffff166398b4ad6f84600254856040518463ffffffff1660e01b8152600401613ab7939291906149fc565b602060405180830381600087803b158015613ad157600080fd5b505af1158015613ae5573d6000803e3d6000fd5b505050506040513d601f19601f82011682018060405250810190613b0991906143e6565b905092915050565b63f23a6e6160e01b81565b600560009054906101000a900473ffffffffffffffffffffffffffffffffffffffff1673ffffffffffffffffffffffffffffffffffffffff1663e8eda9df73eeeeeeeeeeeeeeeeeeeeeeeeeeeeeeeeeeeeeeee833060006040518563ffffffff1660e01b8152600401613b9294939291906149b7565b600060405180830381600087803b158015613bac57600080fd5b505af1158015613bc0573d6000803e3d6000fd5b5050505050565b600063f23a6e6160e01b90509695505050505050565b613be5613e10565b73ffffffffffffffffffffffffffffffffffffffff16613c036128ca565b73ffffffffffffffffffffffffffffffffffffffff1614613c59576040517f08c379a0000000000000000000000000000000000000000000000000000000008152600401613c5090614bbd565b60405180910390fd5b600073ffffffffffffffffffffffffffffffffffffffff168173ffffffffffffffffffffffffffffffffffffffff161415613cc9576040517f08c379a0000000000000000000000000000000000000000000000000000000008152600401613cc090614b3d565b60405180910390fd5b613cd281613e18565b50565b63bc197c8160e01b81565b600160009054906101000a900473ffffffffffffffffffffffffffffffffffffffff1673ffffffffffffffffffffffffffffffffffffffff1663f242432a3384600454856040518563ffffffff1660e01b8152600401613d439493929190614906565b600060405180830381600087803b158015613d5d57600080fd5b505af1158015613d71573d6000803e3d6000fd5b505050505050565b600080600860008481526020019081526020016000205414613df5576000600860008481526020019081526020016000205442613db69190614f28565b9050613df16001613de3836007600088815260200190815260200160002054613ef290919063ffffffff16565b613edc90919063ffffffff16565b9150505b919050565b60008183613e089190614e47565b905092915050565b600033905090565b60008060009054906101000a900473ffffffffffffffffffffffffffffffffffffffff169050816000806101000a81548173ffffffffffffffffffffffffffffffffffffffff021916908373ffffffffffffffffffffffffffffffffffffffff1602179055508173ffffffffffffffffffffffffffffffffffffffff168173ffffffffffffffffffffffffffffffffffffffff167f8be0079c531659141344cd1fd0a4f28419497f9722a3daafe3b4186f6b6457e060405160405180910390a35050565b60008183613eea9190614e9d565b905092915050565b60008183613f009190614ece565b905092915050565b6000613f1b613f1684614dde565b614db9565b905082815260208101848484011115613f3357600080fd5b613f3e848285615042565b509392505050565b6000613f59613f5484614dde565b614db9565b905082815260208101848484011115613f7157600080fd5b613f7c848285615051565b509392505050565b600081359050613f93816154fd565b92915050565b600081519050613fa8816154fd565b92915050565b60008083601f840112613fc057600080fd5b8235905067ffffffffffffffff811115613fd957600080fd5b602083019150836020820283011115613ff157600080fd5b9250929050565b60008151905061400781615514565b92915050565b60008135905061401c8161552b565b92915050565b60008083601f84011261403457600080fd5b8235905067ffffffffffffffff81111561404d57600080fd5b60208301915083600182028301111561406557600080fd5b9250929050565b600082601f83011261407d57600080fd5b813561408d848260208601613f08565b91505092915050565b600082601f8301126140a757600080fd5b81516140b7848260208601613f46565b91505092915050565b6000813590506140cf81615542565b92915050565b6000815190506140e481615542565b92915050565b6000602082840312156140fc57600080fd5b600061410a84828501613f84565b91505092915050565b60006020828403121561412557600080fd5b600061413384828501613f99565b91505092915050565b60008060008060008060008060a0898b03121561415857600080fd5b60006141668b828c01613f84565b98505060206141778b828c01613f84565b975050604089013567ffffffffffffffff81111561419457600080fd5b6141a08b828c01613fae565b9650965050606089013567ffffffffffffffff8111156141bf57600080fd5b6141cb8b828c01613fae565b9450945050608089013567ffffffffffffffff8111156141ea57600080fd5b6141f68b828c01614022565b92509250509295985092959890939650565b60008060008060008060a0878903121561422157600080fd5b600061422f89828a01613f84565b965050602061424089828a01613f84565b955050604061425189828a016140c0565b945050606061426289828a016140c0565b935050608087013567ffffffffffffffff81111561427f57600080fd5b61428b89828a01614022565b92509250509295509295509295565b600080604083850312156142ad57600080fd5b60006142bb85828601613f84565b925050602083013567ffffffffffffffff8111156142d857600080fd5b6142e48582860161406c565b9150509250929050565b6000806040838503121561430157600080fd5b600061430f85828601613f84565b9250506020614320858286016140c0565b9150509250929050565b60006020828403121561433c57600080fd5b600061434a84828501613ff8565b91505092915050565b60006020828403121561436557600080fd5b60006143738482850161400d565b91505092915050565b60006020828403121561438e57600080fd5b600082015167ffffffffffffffff8111156143a857600080fd5b6143b484828501614096565b91505092915050565b6000602082840312156143cf57600080fd5b60006143dd848285016140c0565b91505092915050565b6000602082840312156143f857600080fd5b6000614406848285016140d5565b91505092915050565b6000806040838503121561442257600080fd5b6000614430858286016140c0565b9250506020614441858286016140c0565b9150509250929050565b60008060006060848603121561446057600080fd5b600061446e868287016140c0565b935050602061447f868287016140c0565b9250506040614490868287016140c0565b9150509250925092565b6144a381614f5c565b82525050565b6144b281614f6e565b82525050565b6144c181614f7a565b82525050565b6144d081614f84565b82525050565b6144df81614fe8565b82525050565b6144ee8161500c565b82525050565b6144fd8161501e565b82525050565b61450c81615030565b82525050565b600061451d82614e0f565b6145278185614e2b565b9350614537818560208601615051565b61454081615195565b840191505092915050565b6000614558601783614e2b565b9150614563826151a6565b602082019050919050565b600061457b601a83614e2b565b9150614586826151cf565b602082019050919050565b600061459e601583614e2b565b91506145a9826151f8565b602082019050919050565b60006145c1602683614e2b565b91506145cc82615221565b604082019050919050565b60006145e4600883614e3c565b91506145ef82615270565b600882019050919050565b6000614607601683614e2b565b915061461282615299565b602082019050919050565b600061462a601683614e2b565b9150614635826152c2565b602082019050919050565b600061464d601683614e2b565b9150614658826152eb565b602082019050919050565b6000614670600183614e3c565b915061467b82615314565b600182019050919050565b6000614693602083614e2b565b915061469e8261533d565b602082019050919050565b60006146b6601583614e2b565b91506146c182615366565b602082019050919050565b60006146d9602383614e2b565b91506146e48261538f565b604082019050919050565b60006146fc601e83614e2b565b9150614707826153de565b602082019050919050565b600061471f600083614e1a565b915061472a82615407565b600082019050919050565b6000614742600e83614e2b565b915061474d8261540a565b602082019050919050565b6000614765602983614e2b565b915061477082615433565b604082019050919050565b6000614788601383614e2b565b915061479382615482565b602082019050919050565b60006147ab602083614e2b565b91506147b6826154ab565b602082019050919050565b60006147ce601a83614e2b565b91506147d9826154d4565b602082019050919050565b6147ed81614fde565b82525050565b6148046147ff82614fde565b6150fe565b82525050565b6000614815826145d7565b915061482182846147f3565b60208201915061483082614663565b915081905092915050565b6000602082019050614850600083018461449a565b92915050565b600060a08201905061486b600083018761449a565b614878602083018661449a565b61488560408301856147e4565b61489260608301846144f4565b81810360808301526148a381614712565b905095945050505050565b600060a0820190506148c3600083018761449a565b6148d0602083018661449a565b6148dd60408301856147e4565b6148ea6060830184614503565b81810360808301526148fb81614712565b905095945050505050565b600060a08201905061491b600083018761449a565b614928602083018661449a565b61493560408301856147e4565b61494260608301846147e4565b818103608083015261495381614712565b905095945050505050565b6000604082019050614973600083018561449a565b81810360208301526149858184614512565b90509392505050565b60006040820190506149a3600083018561449a565b6149b060208301846147e4565b9392505050565b60006080820190506149cc600083018761449a565b6149d960208301866147e4565b6149e6604083018561449a565b6149f360608301846144e5565b95945050505050565b6000606082019050614a11600083018661449a565b614a1e60208301856147e4565b8181036040830152614a308184614512565b9050949350505050565b6000606082019050614a4f600083018661449a565b614a5c60208301856147e4565b614a6960408301846147e4565b949350505050565b6000602082019050614a8660008301846144a9565b92915050565b6000602082019050614aa160008301846144b8565b92915050565b6000602082019050614abc60008301846144c7565b92915050565b6000602082019050614ad760008301846144d6565b92915050565b60006020820190508181036000830152614af68161454b565b9050919050565b60006020820190508181036000830152614b168161456e565b9050919050565b60006020820190508181036000830152614b3681614591565b9050919050565b60006020820190508181036000830152614b56816145b4565b9050919050565b60006020820190508181036000830152614b76816145fa565b9050919050565b60006020820190508181036000830152614b968161461d565b9050919050565b60006020820190508181036000830152614bb681614640565b9050919050565b60006020820190508181036000830152614bd681614686565b9050919050565b60006020820190508181036000830152614bf6816146a9565b9050919050565b60006020820190508181036000830152614c16816146cc565b9050919050565b60006020820190508181036000830152614c36816146ef565b9050919050565b60006020820190508181036000830152614c5681614735565b9050919050565b60006020820190508181036000830152614c7681614758565b9050919050565b60006020820190508181036000830152614c968161477b565b9050919050565b60006020820190508181036000830152614cb68161479e565b9050919050565b60006020820190508181036000830152614cd6816147c1565b9050919050565b6000602082019050614cf260008301846147e4565b92915050565b6000604082019050614d0d60008301856147e4565b614d1a602083018461449a565b9392505050565b6000606082019050614d3660008301866147e4565b614d43602083018561449a565b614d5060408301846147e4565b949350505050565b600060c082019050614d6d60008301896147e4565b614d7a60208301886147e4565b614d8760408301876147e4565b614d9460608301866147e4565b614da160808301856147e4565b614dae60a08301846144a9565b979650505050505050565b6000614dc3614dd4565b9050614dcf8282615084565b919050565b6000604051905090565b600067ffffffffffffffff821115614df957614df8615166565b5b614e0282615195565b9050602081019050919050565b600081519050919050565b600082825260208201905092915050565b600082825260208201905092915050565b600081905092915050565b6000614e5282614fde565b9150614e5d83614fde565b9250827fffffffffffffffffffffffffffffffffffffffffffffffffffffffffffffffff03821115614e9257614e91615108565b5b828201905092915050565b6000614ea882614fde565b9150614eb383614fde565b925082614ec357614ec2615137565b5b828204905092915050565b6000614ed982614fde565b9150614ee483614fde565b9250817fffffffffffffffffffffffffffffffffffffffffffffffffffffffffffffffff0483118215151615614f1d57614f1c615108565b5b828202905092915050565b6000614f3382614fde565b9150614f3e83614fde565b925082821015614f5157614f50615108565b5b828203905092915050565b6000614f6782614fbe565b9050919050565b60008115159050919050565b6000819050919050565b60007fffffffff0000000000000000000000000000000000000000000000000000000082169050919050565b600061ffff82169050919050565b600073ffffffffffffffffffffffffffffffffffffffff82169050919050565b6000819050919050565b6000614ff382614ffa565b9050919050565b600061500582614fbe565b9050919050565b600061501782614fb0565b9050919050565b600061502982614fde565b9050919050565b600061503b82614fde565b9050919050565b82818337600083830152505050565b60005b8381101561506f578082015181840152602081019050615054565b8381111561507e576000848401525b50505050565b61508d82615195565b810181811067ffffffffffffffff821117156150ac576150ab615166565b5b80604052505050565b60006150c082614fde565b91507fffffffffffffffffffffffffffffffffffffffffffffffffffffffffffffffff8214156150f3576150f2615108565b5b600182019050919050565b6000819050919050565b7f4e487b7100000000000000000000000000000000000000000000000000000000600052601160045260246000fd5b7f4e487b7100000000000000000000000000000000000000000000000000000000600052601260045260246000fd5b7f4e487b7100000000000000000000000000000000000000000000000000000000600052604160045260246000fd5b6000601f19601f8301169050919050565b7f4d697373696f6e20636f737420697320746f6f206c6f77000000000000000000600082015250565b7f41747461636b20697320616c726561647920636f6d706c657465000000000000600082015250565b7f506c616e657420646f6573206e6f742065786973740000000000000000000000600082015250565b7f4f776e61626c653a206e6577206f776e657220697320746865207a65726f206160008201527f6464726573730000000000000000000000000000000000000000000000000000602082015250565b7f7b706c616e65743a000000000000000000000000000000000000000000000000600082015250565b7f526f636b6574206973206e6f74206120726f636b657400000000000000000000600082015250565b7f41747461636b6572206973206e6f742073656e64657200000000000000000000600082015250565b7f506c616e6574206973206e6f74206120706c616e657400000000000000000000600082015250565b7f7d00000000000000000000000000000000000000000000000000000000000000600082015250565b7f4f776e61626c653a2063616c6c6572206973206e6f7420746865206f776e6572600082015250565b7f526f636b657420646f6573206e6f742065786973740000000000000000000000600082015250565b7f53656e64657220646f6573206e6f74206861766520656e6f7567682062616c6160008201527f6e63650000000000000000000000000000000000000000000000000000000000602082015250565b7f4e6f207374616b696e6720616d6f756e74206973206d656e74696f6e65640000600082015250565b50565b7f496e76616c6964206e756b654964000000000000000000000000000000000000600082015250565b7f53656e64657220646f6573206e6f74206861766520656e6f756768204d41464960008201527f412062616c616e63650000000000000000000000000000000000000000000000602082015250565b7f416c726561647920696e697469616c697a656400000000000000000000000000600082015250565b7f41747461636b2068617320616c7265616479206265656e207265736f6c766564600082015250565b7f41747461636b206e6f742066696e616c697a61626c6520796574000000000000600082015250565b61550681614f5c565b811461551157600080fd5b50565b61551d81614f6e565b811461552857600080fd5b50565b61553481614f7a565b811461553f57600080fd5b50565b61554b81614fde565b811461555657600080fd5b5056fea2646970667358221220736fdedb3cfdb4c624e8102dcc6fd5c79d872e1a9a24f6c8bd440b55a76e743e64736f6c63430008040033",
  "linkReferences": {},
  "deployedLinkReferences": {}
}