{
  "_format": "hh-sol-artifact-1",
  "contractName": "SpaceMafia",
  "sourceName": "contracts/SpaceMafia.sol",
  "abi": [
    {
      "inputs": [
        {
          "internalType": "address",
          "name": "_galaxyToken",
          "type": "address"
        }
      ],
      "stateMutability": "nonpayable",
      "type": "constructor"
    },
    {
      "anonymous": false,
      "inputs": [
        {
          "indexed": true,
          "internalType": "address",
          "name": "previousOwner",
          "type": "address"
        },
        {
          "indexed": true,
          "internalType": "address",
          "name": "newOwner",
          "type": "address"
        }
      ],
      "name": "OwnershipTransferred",
      "type": "event"
    },
    {
      "inputs": [
        {
          "internalType": "uint256",
          "name": "_random",
          "type": "uint256"
        },
        {
          "internalType": "uint256",
          "name": "_threshold",
          "type": "uint256"
        }
      ],
      "name": "checkRandom",
      "outputs": [
        {
          "internalType": "bool",
          "name": "",
          "type": "bool"
        }
      ],
      "stateMutability": "pure",
      "type": "function"
    },
    {
      "inputs": [
        {
          "internalType": "uint256",
          "name": "_tokenId",
          "type": "uint256"
        }
      ],
      "name": "claimDividends",
      "outputs": [
        {
          "internalType": "uint256",
          "name": "",
          "type": "uint256"
        }
      ],
      "stateMutability": "nonpayable",
      "type": "function"
    },
    {
      "inputs": [
        {
          "internalType": "uint256",
          "name": "_tokenId",
          "type": "uint256"
        }
      ],
      "name": "claimableDividends",
      "outputs": [
        {
          "internalType": "uint256",
          "name": "",
          "type": "uint256"
        }
      ],
      "stateMutability": "view",
      "type": "function"
    },
    {
      "inputs": [
        {
          "internalType": "uint256",
          "name": "_nukeId",
          "type": "uint256"
        }
      ],
      "name": "completeAttack",
      "outputs": [
        {
          "internalType": "bool",
          "name": "",
          "type": "bool"
        }
      ],
      "stateMutability": "nonpayable",
      "type": "function"
    },
    {
      "inputs": [
        {
          "internalType": "uint256",
          "name": "_nukeId",
          "type": "uint256"
        }
      ],
      "name": "defenseProbability",
      "outputs": [
        {
          "internalType": "uint256",
          "name": "",
          "type": "uint256"
        }
      ],
      "stateMutability": "view",
      "type": "function"
    },
    {
      "inputs": [],
      "name": "galaxyToken",
      "outputs": [
        {
          "internalType": "contract GalaxyToken",
          "name": "",
          "type": "address"
        }
      ],
      "stateMutability": "view",
      "type": "function"
    },
    {
      "inputs": [
        {
          "internalType": "bytes32",
          "name": "_entropy",
          "type": "bytes32"
        }
      ],
      "name": "getRandom",
      "outputs": [
        {
          "internalType": "uint256",
          "name": "",
          "type": "uint256"
        }
      ],
      "stateMutability": "pure",
      "type": "function"
    },
    {
      "inputs": [
        {
          "internalType": "uint256",
          "name": "_numerator",
          "type": "uint256"
        },
        {
          "internalType": "uint256",
          "name": "_denominator",
          "type": "uint256"
        }
      ],
      "name": "getThreshold",
      "outputs": [
        {
          "internalType": "uint256",
          "name": "",
          "type": "uint256"
        }
      ],
      "stateMutability": "pure",
      "type": "function"
    },
    {
      "inputs": [
        {
          "internalType": "uint256",
          "name": "_nukeId",
          "type": "uint256"
        },
        {
          "internalType": "uint256",
          "name": "_hijackCost",
          "type": "uint256"
        }
      ],
      "name": "hijack",
      "outputs": [
        {
          "internalType": "bool",
          "name": "",
          "type": "bool"
        }
      ],
      "stateMutability": "nonpayable",
      "type": "function"
    },
    {
      "inputs": [],
      "name": "mafiaToken",
      "outputs": [
        {
          "internalType": "uint256",
          "name": "",
          "type": "uint256"
        }
      ],
      "stateMutability": "view",
      "type": "function"
    },
    {
      "inputs": [
        {
          "internalType": "address",
          "name": "_account",
          "type": "address"
        },
        {
          "internalType": "string",
          "name": "_tokenURI",
          "type": "string"
        }
      ],
      "name": "mintPlanet",
      "outputs": [
        {
          "internalType": "uint256",
          "name": "_id",
          "type": "uint256"
        }
      ],
      "stateMutability": "nonpayable",
      "type": "function"
    },
    {
      "inputs": [
        {
          "internalType": "uint256",
          "name": "_planetId",
          "type": "uint256"
        }
      ],
      "name": "mintRocket",
      "outputs": [
        {
          "internalType": "uint256",
          "name": "_id",
          "type": "uint256"
        }
      ],
      "stateMutability": "nonpayable",
      "type": "function"
    },
    {
      "inputs": [
        {
          "internalType": "uint256",
          "name": "_planetId",
          "type": "uint256"
        },
        {
          "internalType": "uint256",
          "name": "_rocketId",
          "type": "uint256"
        },
        {
          "internalType": "uint256",
          "name": "_missionCost",
          "type": "uint256"
        }
      ],
      "name": "nuke",
      "outputs": [
        {
          "internalType": "uint256",
          "name": "",
          "type": "uint256"
        }
      ],
      "stateMutability": "nonpayable",
      "type": "function"
    },
    {
      "inputs": [],
      "name": "nukeCount",
      "outputs": [
        {
          "internalType": "uint256",
          "name": "",
          "type": "uint256"
        }
      ],
      "stateMutability": "view",
      "type": "function"
    },
    {
      "inputs": [],
      "name": "owner",
      "outputs": [
        {
          "internalType": "address",
          "name": "",
          "type": "address"
        }
      ],
      "stateMutability": "view",
      "type": "function"
    },
    {
      "inputs": [],
      "name": "planetType",
      "outputs": [
        {
          "internalType": "uint256",
          "name": "",
          "type": "uint256"
        }
      ],
      "stateMutability": "view",
      "type": "function"
    },
    {
      "inputs": [],
      "name": "renounceOwnership",
      "outputs": [],
      "stateMutability": "nonpayable",
      "type": "function"
    },
    {
      "inputs": [],
      "name": "rocketType",
      "outputs": [
        {
          "internalType": "uint256",
          "name": "",
          "type": "uint256"
        }
      ],
      "stateMutability": "view",
      "type": "function"
    },
    {
      "inputs": [
        {
          "internalType": "uint256",
          "name": "_tokenId",
          "type": "uint256"
        }
      ],
      "name": "stakeEthOnPlanet",
      "outputs": [
        {
          "internalType": "bool",
          "name": "",
          "type": "bool"
        }
      ],
      "stateMutability": "payable",
      "type": "function"
    },
    {
      "inputs": [
        {
          "internalType": "address",
          "name": "newOwner",
          "type": "address"
        }
      ],
      "name": "transferOwnership",
      "outputs": [],
      "stateMutability": "nonpayable",
      "type": "function"
    }
  ],
  "bytecode": "0x60806040523480156200001157600080fd5b5060405162004473380380620044738339818101604052810190620000379190620003c7565b620000576200004b620002cd60201b60201c565b620002d560201b60201c565b80600160006101000a81548173ffffffffffffffffffffffffffffffffffffffff021916908373ffffffffffffffffffffffffffffffffffffffff160217905550600160009054906101000a900473ffffffffffffffffffffffffffffffffffffffff1673ffffffffffffffffffffffffffffffffffffffff166305caa0ff60006040518263ffffffff1660e01b8152600401620000f6919062000430565b602060405180830381600087803b1580156200011157600080fd5b505af115801562000126573d6000803e3d6000fd5b505050506040513d601f19601f820116820180604052508101906200014c9190620003f3565b600481905550600160009054906101000a900473ffffffffffffffffffffffffffffffffffffffff1673ffffffffffffffffffffffffffffffffffffffff166305caa0ff60016040518263ffffffff1660e01b8152600401620001b0919062000430565b602060405180830381600087803b158015620001cb57600080fd5b505af1158015620001e0573d6000803e3d6000fd5b505050506040513d601f19601f82011682018060405250810190620002069190620003f3565b600281905550600160009054906101000a900473ffffffffffffffffffffffffffffffffffffffff1673ffffffffffffffffffffffffffffffffffffffff166305caa0ff60016040518263ffffffff1660e01b81526004016200026a919062000430565b602060405180830381600087803b1580156200028557600080fd5b505af11580156200029a573d6000803e3d6000fd5b505050506040513d601f19601f82011682018060405250810190620002c09190620003f3565b60038190555050620004cb565b600033905090565b60008060009054906101000a900473ffffffffffffffffffffffffffffffffffffffff169050816000806101000a81548173ffffffffffffffffffffffffffffffffffffffff021916908373ffffffffffffffffffffffffffffffffffffffff1602179055508173ffffffffffffffffffffffffffffffffffffffff168173ffffffffffffffffffffffffffffffffffffffff167f8be0079c531659141344cd1fd0a4f28419497f9722a3daafe3b4186f6b6457e060405160405180910390a35050565b600081519050620003aa8162000497565b92915050565b600081519050620003c181620004b1565b92915050565b600060208284031215620003da57600080fd5b6000620003ea8482850162000399565b91505092915050565b6000602082840312156200040657600080fd5b60006200041684828501620003b0565b91505092915050565b6200042a8162000461565b82525050565b60006020820190506200044760008301846200041f565b92915050565b60006200045a826200046d565b9050919050565b60008115159050919050565b600073ffffffffffffffffffffffffffffffffffffffff82169050919050565b6000819050919050565b620004a2816200044d565b8114620004ae57600080fd5b50565b620004bc816200048d565b8114620004c857600080fd5b50565b613f9880620004db6000396000f3fe60806040526004361061011e5760003560e01c80638a0a866a116100a0578063b8aa6f0211610064578063b8aa6f0214610429578063bd7047c414610454578063c6414eee14610491578063c9c9a9f2146104ce578063f2fde38b1461050b5761011e565b80638a0a866a146103175780638da5cb5b146103475780639d5dc41614610372578063b5bab053146103af578063b737ed1b146103ec5761011e565b806360a138ed116100e757806360a138ed1461024257806360c92db41461027f5780636f21de4d146102aa578063715018a6146102d55780637328fd73146102ec5761011e565b8062d36f921461012357806324b4b928146101605780632b8f107d1461019d5780633d48f982146101da5780635374eec314610205575b600080fd5b34801561012f57600080fd5b5061014a60048036038101906101459190613006565b610534565b60405161015791906137ce565b60405180910390f35b34801561016c57600080fd5b5061018760048036038101906101829190613058565b6108cc565b604051610194919061359d565b60405180910390f35b3480156101a957600080fd5b506101c460048036038101906101bf9190613094565b6108da565b6040516101d191906137ce565b60405180910390f35b3480156101e657600080fd5b506101ef6110a4565b6040516101fc91906137ce565b60405180910390f35b34801561021157600080fd5b5061022c60048036038101906102279190613058565b6110aa565b604051610239919061359d565b60405180910390f35b34801561024e57600080fd5b5061026960048036038101906102649190613006565b611637565b604051610276919061359d565b60405180910390f35b34801561028b57600080fd5b50610294611b75565b6040516102a191906137ce565b60405180910390f35b3480156102b657600080fd5b506102bf611b7b565b6040516102cc91906137ce565b60405180910390f35b3480156102e157600080fd5b506102ea611b81565b005b3480156102f857600080fd5b50610301611c09565b60405161030e91906135d3565b60405180910390f35b610331600480360381019061032c9190613006565b611c2f565b60405161033e919061359d565b60405180910390f35b34801561035357600080fd5b5061035c612027565b6040516103699190613434565b60405180910390f35b34801561037e57600080fd5b5061039960048036038101906103949190613006565b612050565b6040516103a691906137ce565b60405180910390f35b3480156103bb57600080fd5b506103d660048036038101906103d19190613006565b61223f565b6040516103e391906137ce565b60405180910390f35b3480156103f857600080fd5b50610413600480360381019061040e9190612fdd565b61257d565b60405161042091906137ce565b60405180910390f35b34801561043557600080fd5b5061043e6125d3565b60405161044b91906137ce565b60405180910390f35b34801561046057600080fd5b5061047b60048036038101906104769190613006565b6125d9565b60405161048891906137ce565b60405180910390f35b34801561049d57600080fd5b506104b860048036038101906104b39190613058565b6129ff565b6040516104c591906137ce565b60405180910390f35b3480156104da57600080fd5b506104f560048036038101906104f09190612f60565b612a3f565b60405161050291906137ce565b60405180910390f35b34801561051757600080fd5b50610532600480360381019061052d9190612f0e565b612b78565b005b600081600073ffffffffffffffffffffffffffffffffffffffff16600160009054906101000a900473ffffffffffffffffffffffffffffffffffffffff1673ffffffffffffffffffffffffffffffffffffffff16633fa9f7f3836040518263ffffffff1660e01b81526004016105aa91906137ce565b60206040518083038186803b1580156105c257600080fd5b505afa1580156105d6573d6000803e3d6000fd5b505050506040513d601f19601f820116820180604052508101906105fa9190612f37565b73ffffffffffffffffffffffffffffffffffffffff161415610651576040517f08c379a00000000000000000000000000000000000000000000000000000000081526004016106489061362e565b60405180910390fd5b600254600160009054906101000a900473ffffffffffffffffffffffffffffffffffffffff1673ffffffffffffffffffffffffffffffffffffffff1663e4b5b61a836040518263ffffffff1660e01b81526004016106af91906137ce565b60206040518083038186803b1580156106c757600080fd5b505afa1580156106db573d6000803e3d6000fd5b505050506040513d601f19601f820116820180604052508101906106ff919061302f565b1461073f576040517f08c379a0000000000000000000000000000000000000000000000000000000008152600401610736906136ae565b60405180910390fd5b6000600160009054906101000a900473ffffffffffffffffffffffffffffffffffffffff1673ffffffffffffffffffffffffffffffffffffffff16633fa9f7f3856040518263ffffffff1660e01b815260040161079c91906137ce565b60206040518083038186803b1580156107b457600080fd5b505afa1580156107c8573d6000803e3d6000fd5b505050506040513d601f19601f820116820180604052508101906107ec9190612f37565b90506000600160009054906101000a900473ffffffffffffffffffffffffffffffffffffffff1673ffffffffffffffffffffffffffffffffffffffff166379b8d938836004546040518363ffffffff1660e01b815260040161084f9291906134ff565b60206040518083038186803b15801561086757600080fd5b505afa15801561087b573d6000803e3d6000fd5b505050506040513d601f19601f8201168201806040525081019061089f919061302f565b905060006108ac86612c70565b90506108c18183612d1a90919063ffffffff16565b945050505050919050565b600081831115905092915050565b600083600073ffffffffffffffffffffffffffffffffffffffff16600160009054906101000a900473ffffffffffffffffffffffffffffffffffffffff1673ffffffffffffffffffffffffffffffffffffffff16633fa9f7f3836040518263ffffffff1660e01b815260040161095091906137ce565b60206040518083038186803b15801561096857600080fd5b505afa15801561097c573d6000803e3d6000fd5b505050506040513d601f19601f820116820180604052508101906109a09190612f37565b73ffffffffffffffffffffffffffffffffffffffff1614156109f7576040517f08c379a00000000000000000000000000000000000000000000000000000000081526004016109ee9061362e565b60405180910390fd5b600254600160009054906101000a900473ffffffffffffffffffffffffffffffffffffffff1673ffffffffffffffffffffffffffffffffffffffff1663e4b5b61a836040518263ffffffff1660e01b8152600401610a5591906137ce565b60206040518083038186803b158015610a6d57600080fd5b505afa158015610a81573d6000803e3d6000fd5b505050506040513d601f19601f82011682018060405250810190610aa5919061302f565b14610ae5576040517f08c379a0000000000000000000000000000000000000000000000000000000008152600401610adc906136ae565b60405180910390fd5b83600073ffffffffffffffffffffffffffffffffffffffff16600160009054906101000a900473ffffffffffffffffffffffffffffffffffffffff1673ffffffffffffffffffffffffffffffffffffffff16633fa9f7f3836040518263ffffffff1660e01b8152600401610b5991906137ce565b60206040518083038186803b158015610b7157600080fd5b505afa158015610b85573d6000803e3d6000fd5b505050506040513d601f19601f82011682018060405250810190610ba99190612f37565b73ffffffffffffffffffffffffffffffffffffffff161415610c00576040517f08c379a0000000000000000000000000000000000000000000000000000000008152600401610bf7906136ee565b60405180910390fd5b600354600160009054906101000a900473ffffffffffffffffffffffffffffffffffffffff1673ffffffffffffffffffffffffffffffffffffffff1663e4b5b61a836040518263ffffffff1660e01b8152600401610c5e91906137ce565b60206040518083038186803b158015610c7657600080fd5b505afa158015610c8a573d6000803e3d6000fd5b505050506040513d601f19601f82011682018060405250810190610cae919061302f565b14610cee576040517f08c379a0000000000000000000000000000000000000000000000000000000008152600401610ce59061366e565b60405180910390fd5b6000600160009054906101000a900473ffffffffffffffffffffffffffffffffffffffff1673ffffffffffffffffffffffffffffffffffffffff16633fa9f7f3876040518263ffffffff1660e01b8152600401610d4b91906137ce565b60206040518083038186803b158015610d6357600080fd5b505afa158015610d77573d6000803e3d6000fd5b505050506040513d601f19601f82011682018060405250810190610d9b9190612f37565b90503373ffffffffffffffffffffffffffffffffffffffff168173ffffffffffffffffffffffffffffffffffffffff1614610e0b576040517f08c379a0000000000000000000000000000000000000000000000000000000008152600401610e029061368e565b60405180910390fd5b670de0b6b3a7640000851015610e56576040517f08c379a0000000000000000000000000000000000000000000000000000000008152600401610e4d906135ee565b60405180910390fd5b84600160009054906101000a900473ffffffffffffffffffffffffffffffffffffffff1673ffffffffffffffffffffffffffffffffffffffff1662fdd58e336004546040518363ffffffff1660e01b8152600401610eb59291906134ff565b60206040518083038186803b158015610ecd57600080fd5b505afa158015610ee1573d6000803e3d6000fd5b505050506040513d601f19601f82011682018060405250810190610f05919061302f565b1015610f46576040517f08c379a0000000000000000000000000000000000000000000000000000000008152600401610f3d9061376e565b60405180910390fd5b6040518060c00160405280868152602001878152602001888152602001601443610f7091906138d7565b815260200186815260200160001515815250600860006005548152602001908152602001600020600082015181600001556020820151816001015560408201518160020155606082015181600301556080820151816004015560a08201518160050160006101000a81548160ff021916908315150217905550905050600160009054906101000a900473ffffffffffffffffffffffffffffffffffffffff1673ffffffffffffffffffffffffffffffffffffffff1663f242432a3330600454896040518563ffffffff1660e01b815260040161104f94939291906134a7565b600060405180830381600087803b15801561106957600080fd5b505af115801561107d573d6000803e3d6000fd5b505050506005600081548092919061109490613ae7565b9190505593505050509392505050565b60055481565b60008260055481106110f1576040517f08c379a00000000000000000000000000000000000000000000000000000000081526004016110e89061374e565b60405180910390fd5b6008600082815260200190815260200160002060050160009054906101000a900460ff1615611155576040517f08c379a000000000000000000000000000000000000000000000000000000000815260040161114c9061378e565b60405180910390fd5b600033905060006008600087815260200190815260200160002090506000600160009054906101000a900473ffffffffffffffffffffffffffffffffffffffff1673ffffffffffffffffffffffffffffffffffffffff16633fa9f7f383600101546040518263ffffffff1660e01b81526004016111d291906137ce565b60206040518083038186803b1580156111ea57600080fd5b505afa1580156111fe573d6000803e3d6000fd5b505050506040513d601f19601f820116820180604052508101906112229190612f37565b9050670de0b6b3a764000086101561126f576040517f08c379a0000000000000000000000000000000000000000000000000000000008152600401611266906135ee565b60405180910390fd5b85600160009054906101000a900473ffffffffffffffffffffffffffffffffffffffff1673ffffffffffffffffffffffffffffffffffffffff1662fdd58e856004546040518363ffffffff1660e01b81526004016112ce9291906134ff565b60206040518083038186803b1580156112e657600080fd5b505afa1580156112fa573d6000803e3d6000fd5b505050506040513d601f19601f8201168201806040525081019061131e919061302f565b101561135f576040517f08c379a00000000000000000000000000000000000000000000000000000000081526004016113569061376e565b60405180910390fd5b6000826003015490508043106113aa576040517f08c379a00000000000000000000000000000000000000000000000000000000081526004016113a19061360e565b60405180910390fd5b600087905060006113c885600401548a612d1a90919063ffffffff16565b905060006113d683836129ff565b905060006113f06001436113ea91906139b8565b4061257d565b9050600160009054906101000a900473ffffffffffffffffffffffffffffffffffffffff1673ffffffffffffffffffffffffffffffffffffffff1663f242432a89306004548f6040518563ffffffff1660e01b815260040161145594939291906134a7565b600060405180830381600087803b15801561146f57600080fd5b505af1158015611483573d6000803e3d6000fd5b505050508a876000015461149791906138d7565b87600001819055506114a981836108cc565b1561160e57600160009054906101000a900473ffffffffffffffffffffffffffffffffffffffff1673ffffffffffffffffffffffffffffffffffffffff1663f242432a8760008a6001015460006040518563ffffffff1660e01b8152600401611515949392919061344f565b600060405180830381600087803b15801561152f57600080fd5b505af1158015611543573d6000803e3d6000fd5b5050505060018760050160006101000a81548160ff021916908315150217905550600160009054906101000a900473ffffffffffffffffffffffffffffffffffffffff1673ffffffffffffffffffffffffffffffffffffffff1663f242432a308a6004548b600001546040518563ffffffff1660e01b81526004016115cb94939291906134a7565b600060405180830381600087803b1580156115e557600080fd5b505af11580156115f9573d6000803e3d6000fd5b50505050600199505050505050505050611630565b60144361161b91906138d7565b87600301819055506000995050505050505050505b5092915050565b600081600554811061167e576040517f08c379a00000000000000000000000000000000000000000000000000000000081526004016116759061374e565b60405180910390fd5b6008600082815260200190815260200160002060050160009054906101000a900460ff16156116e2576040517f08c379a00000000000000000000000000000000000000000000000000000000081526004016116d99061378e565b60405180910390fd5b60006116ed84612050565b9050600060086000868152602001908152602001600020905060008160030154905080431015611752576040517f08c379a0000000000000000000000000000000000000000000000000000000008152600401611749906137ae565b60405180910390fd5b600061175e824061257d565b905060018360050160006101000a81548160ff0219169083151502179055506000600160009054906101000a900473ffffffffffffffffffffffffffffffffffffffff1673ffffffffffffffffffffffffffffffffffffffff16633fa9f7f385600201546040518263ffffffff1660e01b81526004016117de91906137ce565b60206040518083038186803b1580156117f657600080fd5b505afa15801561180a573d6000803e3d6000fd5b505050506040513d601f19601f8201168201806040525081019061182e9190612f37565b90506000600160009054906101000a900473ffffffffffffffffffffffffffffffffffffffff1673ffffffffffffffffffffffffffffffffffffffff16633fa9f7f386600101546040518263ffffffff1660e01b815260040161189191906137ce565b60206040518083038186803b1580156118a957600080fd5b505afa1580156118bd573d6000803e3d6000fd5b505050506040513d601f19601f820116820180604052508101906118e19190612f37565b9050600160009054906101000a900473ffffffffffffffffffffffffffffffffffffffff1673ffffffffffffffffffffffffffffffffffffffff1663f242432a826000886001015460006040518563ffffffff1660e01b815260040161194a949392919061344f565b600060405180830381600087803b15801561196457600080fd5b505af1158015611978573d6000803e3d6000fd5b5050505061198683876108cc565b15611a3357600160009054906101000a900473ffffffffffffffffffffffffffffffffffffffff1673ffffffffffffffffffffffffffffffffffffffff1663f242432a308460045489600001546040518563ffffffff1660e01b81526004016119f294939291906134a7565b600060405180830381600087803b158015611a0c57600080fd5b505af1158015611a20573d6000803e3d6000fd5b5050505060009750505050505050611b6f565b600160009054906101000a900473ffffffffffffffffffffffffffffffffffffffff1673ffffffffffffffffffffffffffffffffffffffff1663f242432a308360045489600001546040518563ffffffff1660e01b8152600401611a9a94939291906134a7565b600060405180830381600087803b158015611ab457600080fd5b505af1158015611ac8573d6000803e3d6000fd5b50505050600160009054906101000a900473ffffffffffffffffffffffffffffffffffffffff1673ffffffffffffffffffffffffffffffffffffffff1663f242432a8383886002015460006040518563ffffffff1660e01b8152600401611b32949392919061344f565b600060405180830381600087803b158015611b4c57600080fd5b505af1158015611b60573d6000803e3d6000fd5b50505050600197505050505050505b50919050565b60025481565b60045481565b611b89612d30565b73ffffffffffffffffffffffffffffffffffffffff16611ba7612027565b73ffffffffffffffffffffffffffffffffffffffff1614611bfd576040517f08c379a0000000000000000000000000000000000000000000000000000000008152600401611bf4906136ce565b60405180910390fd5b611c076000612d38565b565b600160009054906101000a900473ffffffffffffffffffffffffffffffffffffffff1681565b600081600073ffffffffffffffffffffffffffffffffffffffff16600160009054906101000a900473ffffffffffffffffffffffffffffffffffffffff1673ffffffffffffffffffffffffffffffffffffffff16633fa9f7f3836040518263ffffffff1660e01b8152600401611ca591906137ce565b60206040518083038186803b158015611cbd57600080fd5b505afa158015611cd1573d6000803e3d6000fd5b505050506040513d601f19601f82011682018060405250810190611cf59190612f37565b73ffffffffffffffffffffffffffffffffffffffff161415611d4c576040517f08c379a0000000000000000000000000000000000000000000000000000000008152600401611d439061362e565b60405180910390fd5b600254600160009054906101000a900473ffffffffffffffffffffffffffffffffffffffff1673ffffffffffffffffffffffffffffffffffffffff1663e4b5b61a836040518263ffffffff1660e01b8152600401611daa91906137ce565b60206040518083038186803b158015611dc257600080fd5b505afa158015611dd6573d6000803e3d6000fd5b505050506040513d601f19601f82011682018060405250810190611dfa919061302f565b14611e3a576040517f08c379a0000000000000000000000000000000000000000000000000000000008152600401611e31906136ae565b60405180910390fd5b60003411611e7d576040517f08c379a0000000000000000000000000000000000000000000000000000000008152600401611e749061372e565b60405180910390fd5b6000600160009054906101000a900473ffffffffffffffffffffffffffffffffffffffff1673ffffffffffffffffffffffffffffffffffffffff16633fa9f7f3856040518263ffffffff1660e01b8152600401611eda91906137ce565b60206040518083038186803b158015611ef257600080fd5b505afa158015611f06573d6000803e3d6000fd5b505050506040513d601f19601f82011682018060405250810190611f2a9190612f37565b9050600160009054906101000a900473ffffffffffffffffffffffffffffffffffffffff1673ffffffffffffffffffffffffffffffffffffffff1663a1eb700160045483611f7788612c70565b6040518463ffffffff1660e01b8152600401611f9593929190613812565b600060405180830381600087803b158015611faf57600080fd5b505af1158015611fc3573d6000803e3d6000fd5b50505050611fed346006600087815260200190815260200160002054612d1a90919063ffffffff16565b6006600086815260200190815260200160002081905550426007600086815260200190815260200160002081905550600192505050919050565b60008060009054906101000a900473ffffffffffffffffffffffffffffffffffffffff16905090565b6000816005548110612097576040517f08c379a000000000000000000000000000000000000000000000000000000000815260040161208e9061374e565b60405180910390fd5b6008600082815260200190815260200160002060050160009054906101000a900460ff16156120fb576040517f08c379a00000000000000000000000000000000000000000000000000000000081526004016120f29061378e565b60405180910390fd5b600554831061213f576040517f08c379a00000000000000000000000000000000000000000000000000000000081526004016121369061374e565b60405180910390fd5b60006008600085815260200190815260200160002090508060050160009054906101000a900460ff16156121a8576040517f08c379a000000000000000000000000000000000000000000000000000000000815260040161219f9061378e565b60405180910390fd5b60006121dc670de0b6b3a7640000600660008560020154815260200190815260200160002054612d1a90919063ffffffff16565b90506000612228670de0b6b3a764000061221a8560000154600660008860020154815260200190815260200160002054612d1a90919063ffffffff16565b612d1a90919063ffffffff16565b905061223482826129ff565b945050505050919050565b600080600160009054906101000a900473ffffffffffffffffffffffffffffffffffffffff1673ffffffffffffffffffffffffffffffffffffffff16633fa9f7f3846040518263ffffffff1660e01b815260040161229d91906137ce565b60206040518083038186803b1580156122b557600080fd5b505afa1580156122c9573d6000803e3d6000fd5b505050506040513d601f19601f820116820180604052508101906122ed9190612f37565b9050670de0b6b3a7640000600160009054906101000a900473ffffffffffffffffffffffffffffffffffffffff1673ffffffffffffffffffffffffffffffffffffffff1662fdd58e336004546040518363ffffffff1660e01b81526004016123569291906134ff565b60206040518083038186803b15801561236e57600080fd5b505afa158015612382573d6000803e3d6000fd5b505050506040513d601f19601f820116820180604052508101906123a6919061302f565b10156123e7576040517f08c379a00000000000000000000000000000000000000000000000000000000081526004016123de9061370e565b60405180910390fd5b600160009054906101000a900473ffffffffffffffffffffffffffffffffffffffff1673ffffffffffffffffffffffffffffffffffffffff1663717b7f3633600454670de0b6b3a76400006040518463ffffffff1660e01b815260040161245093929190613566565b602060405180830381600087803b15801561246a57600080fd5b505af115801561247e573d6000803e3d6000fd5b505050506040513d601f19601f820116820180604052508101906124a29190612fb4565b50600160009054906101000a900473ffffffffffffffffffffffffffffffffffffffff1673ffffffffffffffffffffffffffffffffffffffff166398b4ad6f82600354866040516020016124f69190613403565b6040516020818303038152906040526040518463ffffffff1660e01b815260040161252393929190613528565b602060405180830381600087803b15801561253d57600080fd5b505af1158015612551573d6000803e3d6000fd5b505050506040513d601f19601f82011682018060405250810190612575919061302f565b915050919050565b60006125cc700100000000000000000000000000000000836040516020016125a591906135b8565b6040516020818303038152906040528051906020012060001c612dfc90919063ffffffff16565b9050919050565b60035481565b600081600073ffffffffffffffffffffffffffffffffffffffff16600160009054906101000a900473ffffffffffffffffffffffffffffffffffffffff1673ffffffffffffffffffffffffffffffffffffffff16633fa9f7f3836040518263ffffffff1660e01b815260040161264f91906137ce565b60206040518083038186803b15801561266757600080fd5b505afa15801561267b573d6000803e3d6000fd5b505050506040513d601f19601f8201168201806040525081019061269f9190612f37565b73ffffffffffffffffffffffffffffffffffffffff1614156126f6576040517f08c379a00000000000000000000000000000000000000000000000000000000081526004016126ed9061362e565b60405180910390fd5b600254600160009054906101000a900473ffffffffffffffffffffffffffffffffffffffff1673ffffffffffffffffffffffffffffffffffffffff1663e4b5b61a836040518263ffffffff1660e01b815260040161275491906137ce565b60206040518083038186803b15801561276c57600080fd5b505afa158015612780573d6000803e3d6000fd5b505050506040513d601f19601f820116820180604052508101906127a4919061302f565b146127e4576040517f08c379a00000000000000000000000000000000000000000000000000000000081526004016127db906136ae565b60405180910390fd5b6000600160009054906101000a900473ffffffffffffffffffffffffffffffffffffffff1673ffffffffffffffffffffffffffffffffffffffff16633fa9f7f3856040518263ffffffff1660e01b815260040161284191906137ce565b60206040518083038186803b15801561285957600080fd5b505afa15801561286d573d6000803e3d6000fd5b505050506040513d601f19601f820116820180604052508101906128919190612f37565b9050600160009054906101000a900473ffffffffffffffffffffffffffffffffffffffff1673ffffffffffffffffffffffffffffffffffffffff1663a1eb7001600454836128de88612c70565b6040518463ffffffff1660e01b81526004016128fc93929190613812565b600060405180830381600087803b15801561291657600080fd5b505af115801561292a573d6000803e3d6000fd5b50505050426007600086815260200190815260200160002081905550600160009054906101000a900473ffffffffffffffffffffffffffffffffffffffff1673ffffffffffffffffffffffffffffffffffffffff1662ffc135600454836040518363ffffffff1660e01b81526004016129a49291906137e9565b602060405180830381600087803b1580156129be57600080fd5b505af11580156129d2573d6000803e3d6000fd5b505050506040513d601f19601f820116820180604052508101906129f6919061302f565b92505050919050565b6000612a3782612a2970010000000000000000000000000000000086612e1290919063ffffffff16565b612dfc90919063ffffffff16565b905092915050565b6000612a49612d30565b73ffffffffffffffffffffffffffffffffffffffff16612a67612027565b73ffffffffffffffffffffffffffffffffffffffff1614612abd576040517f08c379a0000000000000000000000000000000000000000000000000000000008152600401612ab4906136ce565b60405180910390fd5b600160009054906101000a900473ffffffffffffffffffffffffffffffffffffffff1673ffffffffffffffffffffffffffffffffffffffff166398b4ad6f84600254856040518463ffffffff1660e01b8152600401612b1e93929190613528565b602060405180830381600087803b158015612b3857600080fd5b505af1158015612b4c573d6000803e3d6000fd5b505050506040513d601f19601f82011682018060405250810190612b70919061302f565b905092915050565b612b80612d30565b73ffffffffffffffffffffffffffffffffffffffff16612b9e612027565b73ffffffffffffffffffffffffffffffffffffffff1614612bf4576040517f08c379a0000000000000000000000000000000000000000000000000000000008152600401612beb906136ce565b60405180910390fd5b600073ffffffffffffffffffffffffffffffffffffffff168173ffffffffffffffffffffffffffffffffffffffff161415612c64576040517f08c379a0000000000000000000000000000000000000000000000000000000008152600401612c5b9061364e565b60405180910390fd5b612c6d81612d38565b50565b600080600760008481526020019081526020016000205414612d15576000600760008481526020019081526020016000205442612cad91906139b8565b90506000600a612cc7600184612dfc90919063ffffffff16565b11612ce557612ce0600183612dfc90919063ffffffff16565b612ce8565b600a5b9050612d10816006600087815260200190815260200160002054612e1290919063ffffffff16565b925050505b919050565b60008183612d2891906138d7565b905092915050565b600033905090565b60008060009054906101000a900473ffffffffffffffffffffffffffffffffffffffff169050816000806101000a81548173ffffffffffffffffffffffffffffffffffffffff021916908373ffffffffffffffffffffffffffffffffffffffff1602179055508173ffffffffffffffffffffffffffffffffffffffff168173ffffffffffffffffffffffffffffffffffffffff167f8be0079c531659141344cd1fd0a4f28419497f9722a3daafe3b4186f6b6457e060405160405180910390a35050565b60008183612e0a919061392d565b905092915050565b60008183612e20919061395e565b905092915050565b6000612e3b612e368461386e565b613849565b905082815260208101848484011115612e5357600080fd5b612e5e848285613a74565b509392505050565b600081359050612e7581613f06565b92915050565b600081519050612e8a81613f06565b92915050565b600081519050612e9f81613f1d565b92915050565b600081359050612eb481613f34565b92915050565b600082601f830112612ecb57600080fd5b8135612edb848260208601612e28565b91505092915050565b600081359050612ef381613f4b565b92915050565b600081519050612f0881613f4b565b92915050565b600060208284031215612f2057600080fd5b6000612f2e84828501612e66565b91505092915050565b600060208284031215612f4957600080fd5b6000612f5784828501612e7b565b91505092915050565b60008060408385031215612f7357600080fd5b6000612f8185828601612e66565b925050602083013567ffffffffffffffff811115612f9e57600080fd5b612faa85828601612eba565b9150509250929050565b600060208284031215612fc657600080fd5b6000612fd484828501612e90565b91505092915050565b600060208284031215612fef57600080fd5b6000612ffd84828501612ea5565b91505092915050565b60006020828403121561301857600080fd5b600061302684828501612ee4565b91505092915050565b60006020828403121561304157600080fd5b600061304f84828501612ef9565b91505092915050565b6000806040838503121561306b57600080fd5b600061307985828601612ee4565b925050602061308a85828601612ee4565b9150509250929050565b6000806000606084860312156130a957600080fd5b60006130b786828701612ee4565b93505060206130c886828701612ee4565b92505060406130d986828701612ee4565b9150509250925092565b6130ec816139ec565b82525050565b6130fb816139fe565b82525050565b61310a81613a0a565b82525050565b61311981613a3e565b82525050565b61312881613a62565b82525050565b60006131398261389f565b61314381856138bb565b9350613153818560208601613a83565b61315c81613bc7565b840191505092915050565b60006131746017836138bb565b915061317f82613bd8565b602082019050919050565b6000613197601a836138bb565b91506131a282613c01565b602082019050919050565b60006131ba6015836138bb565b91506131c582613c2a565b602082019050919050565b60006131dd6026836138bb565b91506131e882613c53565b604082019050919050565b60006132006008836138cc565b915061320b82613ca2565b600882019050919050565b60006132236016836138bb565b915061322e82613ccb565b602082019050919050565b60006132466016836138bb565b915061325182613cf4565b602082019050919050565b60006132696016836138bb565b915061327482613d1d565b602082019050919050565b600061328c6001836138cc565b915061329782613d46565b600182019050919050565b60006132af6020836138bb565b91506132ba82613d6f565b602082019050919050565b60006132d26015836138bb565b91506132dd82613d98565b602082019050919050565b60006132f56023836138bb565b915061330082613dc1565b604082019050919050565b6000613318601e836138bb565b915061332382613e10565b602082019050919050565b600061333b6000836138aa565b915061334682613e39565b600082019050919050565b600061335e600e836138bb565b915061336982613e3c565b602082019050919050565b60006133816029836138bb565b915061338c82613e65565b604082019050919050565b60006133a46020836138bb565b91506133af82613eb4565b602082019050919050565b60006133c7601a836138bb565b91506133d282613edd565b602082019050919050565b6133e681613a34565b82525050565b6133fd6133f882613a34565b613b30565b82525050565b600061340e826131f3565b915061341a82846133ec565b6020820191506134298261327f565b915081905092915050565b600060208201905061344960008301846130e3565b92915050565b600060a08201905061346460008301876130e3565b61347160208301866130e3565b61347e60408301856133dd565b61348b606083018461311f565b818103608083015261349c8161332e565b905095945050505050565b600060a0820190506134bc60008301876130e3565b6134c960208301866130e3565b6134d660408301856133dd565b6134e360608301846133dd565b81810360808301526134f48161332e565b905095945050505050565b600060408201905061351460008301856130e3565b61352160208301846133dd565b9392505050565b600060608201905061353d60008301866130e3565b61354a60208301856133dd565b818103604083015261355c818461312e565b9050949350505050565b600060608201905061357b60008301866130e3565b61358860208301856133dd565b61359560408301846133dd565b949350505050565b60006020820190506135b260008301846130f2565b92915050565b60006020820190506135cd6000830184613101565b92915050565b60006020820190506135e86000830184613110565b92915050565b6000602082019050818103600083015261360781613167565b9050919050565b600060208201905081810360008301526136278161318a565b9050919050565b60006020820190508181036000830152613647816131ad565b9050919050565b60006020820190508181036000830152613667816131d0565b9050919050565b6000602082019050818103600083015261368781613216565b9050919050565b600060208201905081810360008301526136a781613239565b9050919050565b600060208201905081810360008301526136c78161325c565b9050919050565b600060208201905081810360008301526136e7816132a2565b9050919050565b60006020820190508181036000830152613707816132c5565b9050919050565b60006020820190508181036000830152613727816132e8565b9050919050565b600060208201905081810360008301526137478161330b565b9050919050565b6000602082019050818103600083015261376781613351565b9050919050565b6000602082019050818103600083015261378781613374565b9050919050565b600060208201905081810360008301526137a781613397565b9050919050565b600060208201905081810360008301526137c7816133ba565b9050919050565b60006020820190506137e360008301846133dd565b92915050565b60006040820190506137fe60008301856133dd565b61380b60208301846130e3565b9392505050565b600060608201905061382760008301866133dd565b61383460208301856130e3565b61384160408301846133dd565b949350505050565b6000613853613864565b905061385f8282613ab6565b919050565b6000604051905090565b600067ffffffffffffffff82111561388957613888613b98565b5b61389282613bc7565b9050602081019050919050565b600081519050919050565b600082825260208201905092915050565b600082825260208201905092915050565b600081905092915050565b60006138e282613a34565b91506138ed83613a34565b9250827fffffffffffffffffffffffffffffffffffffffffffffffffffffffffffffffff0382111561392257613921613b3a565b5b828201905092915050565b600061393882613a34565b915061394383613a34565b92508261395357613952613b69565b5b828204905092915050565b600061396982613a34565b915061397483613a34565b9250817fffffffffffffffffffffffffffffffffffffffffffffffffffffffffffffffff04831182151516156139ad576139ac613b3a565b5b828202905092915050565b60006139c382613a34565b91506139ce83613a34565b9250828210156139e1576139e0613b3a565b5b828203905092915050565b60006139f782613a14565b9050919050565b60008115159050919050565b6000819050919050565b600073ffffffffffffffffffffffffffffffffffffffff82169050919050565b6000819050919050565b6000613a4982613a50565b9050919050565b6000613a5b82613a14565b9050919050565b6000613a6d82613a34565b9050919050565b82818337600083830152505050565b60005b83811015613aa1578082015181840152602081019050613a86565b83811115613ab0576000848401525b50505050565b613abf82613bc7565b810181811067ffffffffffffffff82111715613ade57613add613b98565b5b80604052505050565b6000613af282613a34565b91507fffffffffffffffffffffffffffffffffffffffffffffffffffffffffffffffff821415613b2557613b24613b3a565b5b600182019050919050565b6000819050919050565b7f4e487b7100000000000000000000000000000000000000000000000000000000600052601160045260246000fd5b7f4e487b7100000000000000000000000000000000000000000000000000000000600052601260045260246000fd5b7f4e487b7100000000000000000000000000000000000000000000000000000000600052604160045260246000fd5b6000601f19601f8301169050919050565b7f4d697373696f6e20636f737420697320746f6f206c6f77000000000000000000600082015250565b7f41747461636b20697320616c726561647920636f6d706c657465000000000000600082015250565b7f506c616e657420646f6573206e6f742065786973740000000000000000000000600082015250565b7f4f776e61626c653a206e6577206f776e657220697320746865207a65726f206160008201527f6464726573730000000000000000000000000000000000000000000000000000602082015250565b7f7b706c616e65743a000000000000000000000000000000000000000000000000600082015250565b7f526f636b6574206973206e6f74206120726f636b657400000000000000000000600082015250565b7f41747461636b6572206973206e6f742073656e64657200000000000000000000600082015250565b7f506c616e6574206973206e6f74206120706c616e657400000000000000000000600082015250565b7f7d00000000000000000000000000000000000000000000000000000000000000600082015250565b7f4f776e61626c653a2063616c6c6572206973206e6f7420746865206f776e6572600082015250565b7f526f636b657420646f6573206e6f742065786973740000000000000000000000600082015250565b7f53656e64657220646f6573206e6f74206861766520656e6f7567682062616c6160008201527f6e63650000000000000000000000000000000000000000000000000000000000602082015250565b7f4e6f207374616b696e6720616d6f756e74206973206d656e74696f6e65640000600082015250565b50565b7f496e76616c6964206e756b654964000000000000000000000000000000000000600082015250565b7f53656e64657220646f6573206e6f74206861766520656e6f756768204d41464960008201527f412062616c616e63650000000000000000000000000000000000000000000000602082015250565b7f41747461636b2068617320616c7265616479206265656e207265736f6c766564600082015250565b7f41747461636b206e6f742066696e616c697a61626c6520796574000000000000600082015250565b613f0f816139ec565b8114613f1a57600080fd5b50565b613f26816139fe565b8114613f3157600080fd5b50565b613f3d81613a0a565b8114613f4857600080fd5b50565b613f5481613a34565b8114613f5f57600080fd5b5056fea26469706673582212208ee6ecb837cff1dd237994f5d03629d75237df346fdb92facc0eaf60dad589c064736f6c63430008040033",
  "linkReferences": {},
  "deployedLinkReferences": {}
}