{
  "_format": "hh-sol-artifact-1",
  "contractName": "SpaceMafia",
  "sourceName": "contracts/SpaceMafia.sol",
  "abi": [
    {
      "inputs": [],
      "stateMutability": "nonpayable",
      "type": "constructor"
    },
    {
      "anonymous": false,
      "inputs": [
        {
          "indexed": true,
          "internalType": "address",
          "name": "previousOwner",
          "type": "address"
        },
        {
          "indexed": true,
          "internalType": "address",
          "name": "newOwner",
          "type": "address"
        }
      ],
      "name": "OwnershipTransferred",
      "type": "event"
    },
    {
      "inputs": [
        {
          "internalType": "uint256",
          "name": "_tokenId",
          "type": "uint256"
        }
      ],
      "name": "claimDividends",
      "outputs": [
        {
          "internalType": "uint256",
          "name": "",
          "type": "uint256"
        }
      ],
      "stateMutability": "nonpayable",
      "type": "function"
    },
    {
      "inputs": [
        {
          "internalType": "uint256",
          "name": "_tokenId",
          "type": "uint256"
        }
      ],
      "name": "claimableDividends",
      "outputs": [
        {
          "internalType": "uint256",
          "name": "",
          "type": "uint256"
        }
      ],
      "stateMutability": "view",
      "type": "function"
    },
    {
      "inputs": [
        {
          "internalType": "uint256",
          "name": "_nukeId",
          "type": "uint256"
        }
      ],
      "name": "completeAttack",
      "outputs": [
        {
          "internalType": "bool",
          "name": "",
          "type": "bool"
        }
      ],
      "stateMutability": "nonpayable",
      "type": "function"
    },
    {
      "inputs": [
        {
          "internalType": "uint256",
          "name": "_nukeId",
          "type": "uint256"
        }
      ],
      "name": "defenseProbability",
      "outputs": [
        {
          "internalType": "uint256",
          "name": "",
          "type": "uint256"
        }
      ],
      "stateMutability": "view",
      "type": "function"
    },
    {
      "inputs": [
        {
          "internalType": "uint256",
          "name": "amount",
          "type": "uint256"
        }
      ],
      "name": "depositInAAVE",
      "outputs": [],
      "stateMutability": "payable",
      "type": "function"
    },
    {
      "inputs": [],
      "name": "galaxyToken",
      "outputs": [
        {
          "internalType": "contract GalaxyToken",
          "name": "",
          "type": "address"
        }
      ],
      "stateMutability": "view",
      "type": "function"
    },
    {
      "inputs": [],
      "name": "initialize",
      "outputs": [],
      "stateMutability": "nonpayable",
      "type": "function"
    },
    {
      "inputs": [],
      "name": "lendingpool",
      "outputs": [
        {
          "internalType": "address",
          "name": "",
          "type": "address"
        }
      ],
      "stateMutability": "view",
      "type": "function"
    },
    {
      "inputs": [],
      "name": "mafiaToken",
      "outputs": [
        {
          "internalType": "uint256",
          "name": "",
          "type": "uint256"
        }
      ],
      "stateMutability": "view",
      "type": "function"
    },
    {
      "inputs": [
        {
          "internalType": "address",
          "name": "_account",
          "type": "address"
        },
        {
          "internalType": "string",
          "name": "_tokenURI",
          "type": "string"
        }
      ],
      "name": "mintPlanet",
      "outputs": [
        {
          "internalType": "uint256",
          "name": "_id",
          "type": "uint256"
        }
      ],
      "stateMutability": "nonpayable",
      "type": "function"
    },
    {
      "inputs": [
        {
          "internalType": "uint256",
          "name": "_planetId",
          "type": "uint256"
        }
      ],
      "name": "mintRocket",
      "outputs": [
        {
          "internalType": "uint256",
          "name": "_id",
          "type": "uint256"
        }
      ],
      "stateMutability": "nonpayable",
      "type": "function"
    },
    {
      "inputs": [
        {
          "internalType": "uint256",
          "name": "_planetId",
          "type": "uint256"
        },
        {
          "internalType": "uint256",
          "name": "_rocketId",
          "type": "uint256"
        },
        {
          "internalType": "uint256",
          "name": "_missionCost",
          "type": "uint256"
        }
      ],
      "name": "nuke",
      "outputs": [
        {
          "internalType": "uint256",
          "name": "",
          "type": "uint256"
        }
      ],
      "stateMutability": "nonpayable",
      "type": "function"
    },
    {
      "inputs": [],
      "name": "nukeCount",
      "outputs": [
        {
          "internalType": "uint256",
          "name": "",
          "type": "uint256"
        }
      ],
      "stateMutability": "view",
      "type": "function"
    },
    {
      "inputs": [],
      "name": "owner",
      "outputs": [
        {
          "internalType": "address",
          "name": "",
          "type": "address"
        }
      ],
      "stateMutability": "view",
      "type": "function"
    },
    {
      "inputs": [],
      "name": "planetType",
      "outputs": [
        {
          "internalType": "uint256",
          "name": "",
          "type": "uint256"
        }
      ],
      "stateMutability": "view",
      "type": "function"
    },
    {
      "inputs": [],
      "name": "renounceOwnership",
      "outputs": [],
      "stateMutability": "nonpayable",
      "type": "function"
    },
    {
      "inputs": [],
      "name": "rocketType",
      "outputs": [
        {
          "internalType": "uint256",
          "name": "",
          "type": "uint256"
        }
      ],
      "stateMutability": "view",
      "type": "function"
    },
    {
      "inputs": [
        {
          "internalType": "uint256",
          "name": "_tokenId",
          "type": "uint256"
        }
      ],
      "name": "stakeEthOnPlanet",
      "outputs": [
        {
          "internalType": "bool",
          "name": "",
          "type": "bool"
        }
      ],
      "stateMutability": "payable",
      "type": "function"
    },
    {
      "inputs": [
        {
          "internalType": "address",
          "name": "newOwner",
          "type": "address"
        }
      ],
      "name": "transferOwnership",
      "outputs": [],
      "stateMutability": "nonpayable",
      "type": "function"
    }
  ],
  "bytecode": "0x60806040523480156200001157600080fd5b5062000032620000266200003860201b60201c565b6200004060201b60201c565b62000104565b600033905090565b60008060009054906101000a900473ffffffffffffffffffffffffffffffffffffffff169050816000806101000a81548173ffffffffffffffffffffffffffffffffffffffff021916908373ffffffffffffffffffffffffffffffffffffffff1602179055508173ffffffffffffffffffffffffffffffffffffffff168173ffffffffffffffffffffffffffffffffffffffff167f8be0079c531659141344cd1fd0a4f28419497f9722a3daafe3b4186f6b6457e060405160405180910390a35050565b61871f80620001146000396000f3fe6080604052600436106200012d5760003560e01c80638a0a866a11620000af578063bd7047c4116200006d578063bd7047c41462000410578063c496d7081462000454578063c9c9a9f21462000484578063f1288a8d14620004c8578063f2fde38b14620004e8576200012d565b80638a0a866a14620002f25780638da5cb5b14620003285780639d5dc4161462000358578063b5bab053146200039c578063b8aa6f0214620003e0576200012d565b806360c92db411620000fd57806360c92db4146200022e5780636f21de4d146200025e578063715018a6146200028e5780637328fd7314620002a85780638129fc1c14620002d8576200012d565b8062d36f9214620001325780632b8f107d14620001765780633d48f98214620001ba57806360a138ed14620001ea575b600080fd5b3480156200013f57600080fd5b506200015e600480360381019062000158919062002e61565b62000516565b6040516200016d919062003676565b60405180910390f35b3480156200018357600080fd5b50620001a260048036038101906200019c919062002eb9565b620008d0565b604051620001b1919062003676565b60405180910390f35b348015620001c757600080fd5b50620001d2620010cb565b604051620001e1919062003676565b60405180910390f35b348015620001f757600080fd5b5062000216600480360381019062000210919062002e61565b620010d1565b60405162000225919062003465565b60405180910390f35b3480156200023b57600080fd5b5062000246620015fe565b60405162000255919062003676565b60405180910390f35b3480156200026b57600080fd5b506200027662001604565b60405162000285919062003676565b60405180910390f35b3480156200029b57600080fd5b50620002a66200160a565b005b348015620002b557600080fd5b50620002c06200169b565b604051620002cf91906200349f565b60405180910390f35b348015620002e557600080fd5b50620002f0620016c1565b005b6200031060048036038101906200030a919062002e61565b62001a33565b6040516200031f919062003465565b60405180910390f35b3480156200033557600080fd5b506200034062001e59565b6040516200034f919062003289565b60405180910390f35b3480156200036557600080fd5b506200038460048036038101906200037e919062002e61565b62001e82565b60405162000393919062003676565b60405180910390f35b348015620003a957600080fd5b50620003c86004803603810190620003c2919062002e61565b62001ffd565b604051620003d7919062003676565b60405180910390f35b348015620003ed57600080fd5b50620003f862002358565b60405162000407919062003676565b60405180910390f35b3480156200041d57600080fd5b506200043c600480360381019062000436919062002e61565b6200235e565b6040516200044b919062003676565b60405180910390f35b3480156200046157600080fd5b506200046c620027a8565b6040516200047b919062003289565b60405180910390f35b3480156200049157600080fd5b50620004b06004803603810190620004aa919062002ddb565b620027ce565b604051620004bf919062003676565b60405180910390f35b620004e66004803603810190620004e0919062002e61565b62002914565b005b348015620004f557600080fd5b506200051460048036038101906200050e919062002d83565b620029c3565b005b600081600073ffffffffffffffffffffffffffffffffffffffff16600160009054906101000a900473ffffffffffffffffffffffffffffffffffffffff1673ffffffffffffffffffffffffffffffffffffffff16633fa9f7f3836040518263ffffffff1660e01b81526004016200058e919062003676565b60206040518083038186803b158015620005a757600080fd5b505afa158015620005bc573d6000803e3d6000fd5b505050506040513d601f19601f82011682018060405250810190620005e2919062002daf565b73ffffffffffffffffffffffffffffffffffffffff1614156200063c576040517f08c379a00000000000000000000000000000000000000000000000000000000081526004016200063390620034de565b60405180910390fd5b600254600160009054906101000a900473ffffffffffffffffffffffffffffffffffffffff1673ffffffffffffffffffffffffffffffffffffffff1663e4b5b61a836040518263ffffffff1660e01b81526004016200069c919062003676565b60206040518083038186803b158015620006b557600080fd5b505afa158015620006ca573d6000803e3d6000fd5b505050506040513d601f19601f82011682018060405250810190620006f0919062002e8d565b1462000733576040517f08c379a00000000000000000000000000000000000000000000000000000000081526004016200072a9062003566565b60405180910390fd5b6000600160009054906101000a900473ffffffffffffffffffffffffffffffffffffffff1673ffffffffffffffffffffffffffffffffffffffff16633fa9f7f3856040518263ffffffff1660e01b815260040162000792919062003676565b60206040518083038186803b158015620007ab57600080fd5b505afa158015620007c0573d6000803e3d6000fd5b505050506040513d601f19601f82011682018060405250810190620007e6919062002daf565b90506000600160009054906101000a900473ffffffffffffffffffffffffffffffffffffffff1673ffffffffffffffffffffffffffffffffffffffff166379b8d938836004546040518363ffffffff1660e01b81526004016200084b9291906200336a565b60206040518083038186803b1580156200086457600080fd5b505afa15801562000879573d6000803e3d6000fd5b505050506040513d601f19601f820116820180604052508101906200089f919062002e8d565b90506000620008ae8662002ac7565b9050620008c5818362002b7c90919063ffffffff16565b945050505050919050565b600083600073ffffffffffffffffffffffffffffffffffffffff16600160009054906101000a900473ffffffffffffffffffffffffffffffffffffffff1673ffffffffffffffffffffffffffffffffffffffff16633fa9f7f3836040518263ffffffff1660e01b815260040162000948919062003676565b60206040518083038186803b1580156200096157600080fd5b505afa15801562000976573d6000803e3d6000fd5b505050506040513d601f19601f820116820180604052508101906200099c919062002daf565b73ffffffffffffffffffffffffffffffffffffffff161415620009f6576040517f08c379a0000000000000000000000000000000000000000000000000000000008152600401620009ed90620034de565b60405180910390fd5b600254600160009054906101000a900473ffffffffffffffffffffffffffffffffffffffff1673ffffffffffffffffffffffffffffffffffffffff1663e4b5b61a836040518263ffffffff1660e01b815260040162000a56919062003676565b60206040518083038186803b15801562000a6f57600080fd5b505afa15801562000a84573d6000803e3d6000fd5b505050506040513d601f19601f8201168201806040525081019062000aaa919062002e8d565b1462000aed576040517f08c379a000000000000000000000000000000000000000000000000000000000815260040162000ae49062003566565b60405180910390fd5b83600073ffffffffffffffffffffffffffffffffffffffff16600160009054906101000a900473ffffffffffffffffffffffffffffffffffffffff1673ffffffffffffffffffffffffffffffffffffffff16633fa9f7f3836040518263ffffffff1660e01b815260040162000b63919062003676565b60206040518083038186803b15801562000b7c57600080fd5b505afa15801562000b91573d6000803e3d6000fd5b505050506040513d601f19601f8201168201806040525081019062000bb7919062002daf565b73ffffffffffffffffffffffffffffffffffffffff16141562000c11576040517f08c379a000000000000000000000000000000000000000000000000000000000815260040162000c0890620035aa565b60405180910390fd5b600354600160009054906101000a900473ffffffffffffffffffffffffffffffffffffffff1673ffffffffffffffffffffffffffffffffffffffff1663e4b5b61a836040518263ffffffff1660e01b815260040162000c71919062003676565b60206040518083038186803b15801562000c8a57600080fd5b505afa15801562000c9f573d6000803e3d6000fd5b505050506040513d601f19601f8201168201806040525081019062000cc5919062002e8d565b1462000d08576040517f08c379a000000000000000000000000000000000000000000000000000000000815260040162000cff9062003522565b60405180910390fd5b6000600160009054906101000a900473ffffffffffffffffffffffffffffffffffffffff1673ffffffffffffffffffffffffffffffffffffffff16633fa9f7f3876040518263ffffffff1660e01b815260040162000d67919062003676565b60206040518083038186803b15801562000d8057600080fd5b505afa15801562000d95573d6000803e3d6000fd5b505050506040513d601f19601f8201168201806040525081019062000dbb919062002daf565b90503373ffffffffffffffffffffffffffffffffffffffff168173ffffffffffffffffffffffffffffffffffffffff161462000e2e576040517f08c379a000000000000000000000000000000000000000000000000000000000815260040162000e259062003544565b60405180910390fd5b670de0b6b3a764000085101562000e7c576040517f08c379a000000000000000000000000000000000000000000000000000000000815260040162000e7390620034bc565b60405180910390fd5b84600160009054906101000a900473ffffffffffffffffffffffffffffffffffffffff1673ffffffffffffffffffffffffffffffffffffffff1662fdd58e336004546040518363ffffffff1660e01b815260040162000edd9291906200336a565b60206040518083038186803b15801562000ef657600080fd5b505afa15801562000f0b573d6000803e3d6000fd5b505050506040513d601f19601f8201168201806040525081019062000f31919062002e8d565b101562000f75576040517f08c379a000000000000000000000000000000000000000000000000000000000815260040162000f6c90620035cc565b60405180910390fd5b6040518060a0016040528086815260200187815260200188815260200160144362000fa1919062003794565b8152602001600015158152506009600060065481526020019081526020016000206000820151816000015560208201518160010155604082015181600201556060820151816003015560808201518160040160006101000a81548160ff021916908315150217905550905050600160009054906101000a900473ffffffffffffffffffffffffffffffffffffffff1673ffffffffffffffffffffffffffffffffffffffff1663f242432a3330600454896040518563ffffffff1660e01b815260040162001072949392919062003308565b600060405180830381600087803b1580156200108d57600080fd5b505af1158015620010a2573d6000803e3d6000fd5b5050505060066000815480929190620010bb90620039f2565b9190505593505050509392505050565b60065481565b600080620010df8362001e82565b9050600060096000858152602001908152602001600020905060008160030154905080431162001146576040517f08c379a00000000000000000000000000000000000000000000000000000000081526004016200113d9062003654565b60405180910390fd5b60006200119a700100000000000000000000000000000000834060405160200162001172919062003482565b6040516020818303038152906040528051906020012060001c62002b9490919063ffffffff16565b905083811162001326576000600160009054906101000a900473ffffffffffffffffffffffffffffffffffffffff1673ffffffffffffffffffffffffffffffffffffffff16633fa9f7f385600201546040518263ffffffff1660e01b815260040162001207919062003676565b60206040518083038186803b1580156200122057600080fd5b505afa15801562001235573d6000803e3d6000fd5b505050506040513d601f19601f820116820180604052508101906200125b919062002daf565b9050600160009054906101000a900473ffffffffffffffffffffffffffffffffffffffff1673ffffffffffffffffffffffffffffffffffffffff1663f242432a308360045488600001546040518563ffffffff1660e01b8152600401620012c6949392919062003308565b600060405180830381600087803b158015620012e157600080fd5b505af1158015620012f6573d6000803e3d6000fd5b5050505060018460040160006101000a81548160ff021916908315150217905550600095505050505050620015f9565b6000600160009054906101000a900473ffffffffffffffffffffffffffffffffffffffff1673ffffffffffffffffffffffffffffffffffffffff16633fa9f7f385600201546040518263ffffffff1660e01b815260040162001389919062003676565b60206040518083038186803b158015620013a257600080fd5b505afa158015620013b7573d6000803e3d6000fd5b505050506040513d601f19601f82011682018060405250810190620013dd919062002daf565b90506000600160009054906101000a900473ffffffffffffffffffffffffffffffffffffffff1673ffffffffffffffffffffffffffffffffffffffff16633fa9f7f386600101546040518263ffffffff1660e01b815260040162001442919062003676565b60206040518083038186803b1580156200145b57600080fd5b505afa15801562001470573d6000803e3d6000fd5b505050506040513d601f19601f8201168201806040525081019062001496919062002daf565b9050600160009054906101000a900473ffffffffffffffffffffffffffffffffffffffff1673ffffffffffffffffffffffffffffffffffffffff1663f242432a308360045489600001546040518563ffffffff1660e01b815260040162001501949392919062003308565b600060405180830381600087803b1580156200151c57600080fd5b505af115801562001531573d6000803e3d6000fd5b50505050600160009054906101000a900473ffffffffffffffffffffffffffffffffffffffff1673ffffffffffffffffffffffffffffffffffffffff1663f242432a8383886002015460006040518563ffffffff1660e01b81526004016200159d9493929190620032a6565b600060405180830381600087803b158015620015b857600080fd5b505af1158015620015cd573d6000803e3d6000fd5b5050505060018560040160006101000a81548160ff021916908315150217905550600196505050505050505b919050565b60025481565b60045481565b6200161462002bac565b73ffffffffffffffffffffffffffffffffffffffff166200163462001e59565b73ffffffffffffffffffffffffffffffffffffffff16146200168d576040517f08c379a0000000000000000000000000000000000000000000000000000000008152600401620016849062003588565b60405180910390fd5b62001699600062002bb4565b565b600160009054906101000a900473ffffffffffffffffffffffffffffffffffffffff1681565b604051620016cf9062002c90565b604051809103906000f080158015620016ec573d6000803e3d6000fd5b50600160006101000a81548173ffffffffffffffffffffffffffffffffffffffff021916908373ffffffffffffffffffffffffffffffffffffffff160217905550600160009054906101000a900473ffffffffffffffffffffffffffffffffffffffff1673ffffffffffffffffffffffffffffffffffffffff166305caa0ff60006040518263ffffffff1660e01b81526004016200178b919062003465565b602060405180830381600087803b158015620017a657600080fd5b505af1158015620017bb573d6000803e3d6000fd5b505050506040513d601f19601f82011682018060405250810190620017e1919062002e8d565b600481905550600160009054906101000a900473ffffffffffffffffffffffffffffffffffffffff1673ffffffffffffffffffffffffffffffffffffffff166305caa0ff60016040518263ffffffff1660e01b815260040162001845919062003465565b602060405180830381600087803b1580156200186057600080fd5b505af115801562001875573d6000803e3d6000fd5b505050506040513d601f19601f820116820180604052508101906200189b919062002e8d565b600281905550600160009054906101000a900473ffffffffffffffffffffffffffffffffffffffff1673ffffffffffffffffffffffffffffffffffffffff166305caa0ff60016040518263ffffffff1660e01b8152600401620018ff919062003465565b602060405180830381600087803b1580156200191a57600080fd5b505af11580156200192f573d6000803e3d6000fd5b505050506040513d601f19601f8201168201806040525081019062001955919062002e8d565b6003819055507324a42fd28c976a61df5d00d0599c34c4f90748c873ffffffffffffffffffffffffffffffffffffffff16630261bf8b6040518163ffffffff1660e01b815260040160206040518083038186803b158015620019b657600080fd5b505afa158015620019cb573d6000803e3d6000fd5b505050506040513d601f19601f82011682018060405250810190620019f1919062002daf565b600560006101000a81548173ffffffffffffffffffffffffffffffffffffffff021916908373ffffffffffffffffffffffffffffffffffffffff160217905550565b600081600073ffffffffffffffffffffffffffffffffffffffff16600160009054906101000a900473ffffffffffffffffffffffffffffffffffffffff1673ffffffffffffffffffffffffffffffffffffffff16633fa9f7f3836040518263ffffffff1660e01b815260040162001aab919062003676565b60206040518083038186803b15801562001ac457600080fd5b505afa15801562001ad9573d6000803e3d6000fd5b505050506040513d601f19601f8201168201806040525081019062001aff919062002daf565b73ffffffffffffffffffffffffffffffffffffffff16141562001b59576040517f08c379a000000000000000000000000000000000000000000000000000000000815260040162001b5090620034de565b60405180910390fd5b600254600160009054906101000a900473ffffffffffffffffffffffffffffffffffffffff1673ffffffffffffffffffffffffffffffffffffffff1663e4b5b61a836040518263ffffffff1660e01b815260040162001bb9919062003676565b60206040518083038186803b15801562001bd257600080fd5b505afa15801562001be7573d6000803e3d6000fd5b505050506040513d601f19601f8201168201806040525081019062001c0d919062002e8d565b1462001c50576040517f08c379a000000000000000000000000000000000000000000000000000000000815260040162001c479062003566565b60405180910390fd5b6000341162001c96576040517f08c379a000000000000000000000000000000000000000000000000000000000815260040162001c8d90620035ee565b60405180910390fd5b6000600160009054906101000a900473ffffffffffffffffffffffffffffffffffffffff1673ffffffffffffffffffffffffffffffffffffffff16633fa9f7f3856040518263ffffffff1660e01b815260040162001cf5919062003676565b60206040518083038186803b15801562001d0e57600080fd5b505afa15801562001d23573d6000803e3d6000fd5b505050506040513d601f19601f8201168201806040525081019062001d49919062002daf565b9050600160009054906101000a900473ffffffffffffffffffffffffffffffffffffffff1673ffffffffffffffffffffffffffffffffffffffff1663a1eb70016004548362001d988862002ac7565b6040518463ffffffff1660e01b815260040162001db893929190620036c0565b600060405180830381600087803b15801562001dd357600080fd5b505af115801562001de8573d6000803e3d6000fd5b5050505062001e1434600760008781526020019081526020016000205462002b7c90919063ffffffff16565b600760008681526020019081526020016000208190555062001e363462002914565b426008600086815260200190815260200160002081905550600192505050919050565b60008060009054906101000a900473ffffffffffffffffffffffffffffffffffffffff16905090565b6000600654821062001ecb576040517f08c379a000000000000000000000000000000000000000000000000000000000815260040162001ec29062003610565b60405180910390fd5b60006009600084815260200190815260200160002090508060040160009054906101000a900460ff161562001f37576040517f08c379a000000000000000000000000000000000000000000000000000000000815260040162001f2e9062003632565b60405180910390fd5b600062001f85670de0b6b3a764000062001f76846000015460076000876002015481526020019081526020016000205462002b7c90919063ffffffff16565b62002b7c90919063ffffffff16565b905062001ff48162001fe570010000000000000000000000000000000062001fd6670de0b6b3a764000060076000896002015481526020019081526020016000205462002b7c90919063ffffffff16565b62002c7890919063ffffffff16565b62002b9490919063ffffffff16565b92505050919050565b600080600160009054906101000a900473ffffffffffffffffffffffffffffffffffffffff1673ffffffffffffffffffffffffffffffffffffffff16633fa9f7f3846040518263ffffffff1660e01b81526004016200205d919062003676565b60206040518083038186803b1580156200207657600080fd5b505afa1580156200208b573d6000803e3d6000fd5b505050506040513d601f19601f82011682018060405250810190620020b1919062002daf565b9050670de0b6b3a7640000600160009054906101000a900473ffffffffffffffffffffffffffffffffffffffff1673ffffffffffffffffffffffffffffffffffffffff1662fdd58e336004546040518363ffffffff1660e01b81526004016200211c9291906200336a565b60206040518083038186803b1580156200213557600080fd5b505afa1580156200214a573d6000803e3d6000fd5b505050506040513d601f19601f8201168201806040525081019062002170919062002e8d565b1015620021b4576040517f08c379a0000000000000000000000000000000000000000000000000000000008152600401620021ab90620035cc565b60405180910390fd5b600160009054906101000a900473ffffffffffffffffffffffffffffffffffffffff1673ffffffffffffffffffffffffffffffffffffffff1663717b7f3633600454670de0b6b3a76400006040518463ffffffff1660e01b81526004016200221f9392919062003428565b602060405180830381600087803b1580156200223a57600080fd5b505af11580156200224f573d6000803e3d6000fd5b505050506040513d601f19601f8201168201806040525081019062002275919062002e35565b50600160009054906101000a900473ffffffffffffffffffffffffffffffffffffffff1673ffffffffffffffffffffffffffffffffffffffff166398b4ad6f8260035486604051602001620022cb919062003252565b6040516020818303038152906040526040518463ffffffff1660e01b8152600401620022fa93929190620033e4565b602060405180830381600087803b1580156200231557600080fd5b505af11580156200232a573d6000803e3d6000fd5b505050506040513d601f19601f8201168201806040525081019062002350919062002e8d565b915050919050565b60035481565b600081600073ffffffffffffffffffffffffffffffffffffffff16600160009054906101000a900473ffffffffffffffffffffffffffffffffffffffff1673ffffffffffffffffffffffffffffffffffffffff16633fa9f7f3836040518263ffffffff1660e01b8152600401620023d6919062003676565b60206040518083038186803b158015620023ef57600080fd5b505afa15801562002404573d6000803e3d6000fd5b505050506040513d601f19601f820116820180604052508101906200242a919062002daf565b73ffffffffffffffffffffffffffffffffffffffff16141562002484576040517f08c379a00000000000000000000000000000000000000000000000000000000081526004016200247b90620034de565b60405180910390fd5b600254600160009054906101000a900473ffffffffffffffffffffffffffffffffffffffff1673ffffffffffffffffffffffffffffffffffffffff1663e4b5b61a836040518263ffffffff1660e01b8152600401620024e4919062003676565b60206040518083038186803b158015620024fd57600080fd5b505afa15801562002512573d6000803e3d6000fd5b505050506040513d601f19601f8201168201806040525081019062002538919062002e8d565b146200257b576040517f08c379a0000000000000000000000000000000000000000000000000000000008152600401620025729062003566565b60405180910390fd5b6000600160009054906101000a900473ffffffffffffffffffffffffffffffffffffffff1673ffffffffffffffffffffffffffffffffffffffff16633fa9f7f3856040518263ffffffff1660e01b8152600401620025da919062003676565b60206040518083038186803b158015620025f357600080fd5b505afa15801562002608573d6000803e3d6000fd5b505050506040513d601f19601f820116820180604052508101906200262e919062002daf565b9050600160009054906101000a900473ffffffffffffffffffffffffffffffffffffffff1673ffffffffffffffffffffffffffffffffffffffff1663a1eb7001600454836200267d8862002ac7565b6040518463ffffffff1660e01b81526004016200269d93929190620036c0565b600060405180830381600087803b158015620026b857600080fd5b505af1158015620026cd573d6000803e3d6000fd5b50505050426008600086815260200190815260200160002081905550600160009054906101000a900473ffffffffffffffffffffffffffffffffffffffff1673ffffffffffffffffffffffffffffffffffffffff1662ffc135600454836040518363ffffffff1660e01b81526004016200274992919062003693565b602060405180830381600087803b1580156200276457600080fd5b505af115801562002779573d6000803e3d6000fd5b505050506040513d601f19601f820116820180604052508101906200279f919062002e8d565b92505050919050565b600560009054906101000a900473ffffffffffffffffffffffffffffffffffffffff1681565b6000620027da62002bac565b73ffffffffffffffffffffffffffffffffffffffff16620027fa62001e59565b73ffffffffffffffffffffffffffffffffffffffff161462002853576040517f08c379a00000000000000000000000000000000000000000000000000000000081526004016200284a9062003588565b60405180910390fd5b600160009054906101000a900473ffffffffffffffffffffffffffffffffffffffff1673ffffffffffffffffffffffffffffffffffffffff166398b4ad6f84600254856040518463ffffffff1660e01b8152600401620028b693929190620033e4565b602060405180830381600087803b158015620028d157600080fd5b505af1158015620028e6573d6000803e3d6000fd5b505050506040513d601f19601f820116820180604052508101906200290c919062002e8d565b905092915050565b600560009054906101000a900473ffffffffffffffffffffffffffffffffffffffff1673ffffffffffffffffffffffffffffffffffffffff1663e8eda9df73eeeeeeeeeeeeeeeeeeeeeeeeeeeeeeeeeeeeeeee833060006040518563ffffffff1660e01b81526004016200298c949392919062003397565b600060405180830381600087803b158015620029a757600080fd5b505af1158015620029bc573d6000803e3d6000fd5b5050505050565b620029cd62002bac565b73ffffffffffffffffffffffffffffffffffffffff16620029ed62001e59565b73ffffffffffffffffffffffffffffffffffffffff161462002a46576040517f08c379a000000000000000000000000000000000000000000000000000000000815260040162002a3d9062003588565b60405180910390fd5b600073ffffffffffffffffffffffffffffffffffffffff168173ffffffffffffffffffffffffffffffffffffffff16141562002ab9576040517f08c379a000000000000000000000000000000000000000000000000000000000815260040162002ab09062003500565b60405180910390fd5b62002ac48162002bb4565b50565b60008060086000848152602001908152602001600020541462002b7757600060086000848152602001908152602001600020544262002b0791906200388a565b90506000600a62002b2360018462002b9490919063ffffffff16565b1162002b455762002b3f60018362002b9490919063ffffffff16565b62002b48565b600a5b905062002b7281600760008781526020019081526020016000205462002c7890919063ffffffff16565b925050505b919050565b6000818362002b8c919062003794565b905092915050565b6000818362002ba49190620037f1565b905092915050565b600033905090565b60008060009054906101000a900473ffffffffffffffffffffffffffffffffffffffff169050816000806101000a81548173ffffffffffffffffffffffffffffffffffffffff021916908373ffffffffffffffffffffffffffffffffffffffff1602179055508173ffffffffffffffffffffffffffffffffffffffff168173ffffffffffffffffffffffffffffffffffffffff167f8be0079c531659141344cd1fd0a4f28419497f9722a3daafe3b4186f6b6457e060405160405180910390a35050565b6000818362002c88919062003829565b905092915050565b6148fd8062003ded83390190565b600062002cb562002caf8462003726565b620036fd565b90508281526020810184848401111562002cce57600080fd5b62002cdb84828562003977565b509392505050565b60008135905062002cf48162003d9e565b92915050565b60008151905062002d0b8162003d9e565b92915050565b60008151905062002d228162003db8565b92915050565b600082601f83011262002d3a57600080fd5b813562002d4c84826020860162002c9e565b91505092915050565b60008135905062002d668162003dd2565b92915050565b60008151905062002d7d8162003dd2565b92915050565b60006020828403121562002d9657600080fd5b600062002da68482850162002ce3565b91505092915050565b60006020828403121562002dc257600080fd5b600062002dd28482850162002cfa565b91505092915050565b6000806040838503121562002def57600080fd5b600062002dff8582860162002ce3565b925050602083013567ffffffffffffffff81111562002e1d57600080fd5b62002e2b8582860162002d28565b9150509250929050565b60006020828403121562002e4857600080fd5b600062002e588482850162002d11565b91505092915050565b60006020828403121562002e7457600080fd5b600062002e848482850162002d55565b91505092915050565b60006020828403121562002ea057600080fd5b600062002eb08482850162002d6c565b91505092915050565b60008060006060848603121562002ecf57600080fd5b600062002edf8682870162002d55565b935050602062002ef28682870162002d55565b925050604062002f058682870162002d55565b9150509250925092565b62002f1a81620038c5565b82525050565b62002f2b81620038d9565b82525050565b62002f3c81620038e5565b82525050565b62002f4d8162003927565b82525050565b62002f5e816200394f565b82525050565b62002f6f8162003963565b82525050565b600062002f82826200375c565b62002f8e818562003778565b935062002fa081856020860162003986565b62002fab8162003ad7565b840191505092915050565b600062002fc560178362003778565b915062002fd28262003ae8565b602082019050919050565b600062002fec60158362003778565b915062002ff98262003b11565b602082019050919050565b60006200301360268362003778565b9150620030208262003b3a565b604082019050919050565b60006200303a60088362003789565b9150620030478262003b89565b600882019050919050565b60006200306160168362003778565b91506200306e8262003bb2565b602082019050919050565b60006200308860168362003778565b9150620030958262003bdb565b602082019050919050565b6000620030af60168362003778565b9150620030bc8262003c04565b602082019050919050565b6000620030d660018362003789565b9150620030e38262003c2d565b600182019050919050565b6000620030fd60208362003778565b91506200310a8262003c56565b602082019050919050565b60006200312460158362003778565b9150620031318262003c7f565b602082019050919050565b60006200314b60238362003778565b9150620031588262003ca8565b604082019050919050565b600062003172601e8362003778565b91506200317f8262003cf7565b602082019050919050565b60006200319960008362003767565b9150620031a68262003d20565b600082019050919050565b6000620031c0600e8362003778565b9150620031cd8262003d23565b602082019050919050565b6000620031e760208362003778565b9150620031f48262003d4c565b602082019050919050565b60006200320e601a8362003778565b91506200321b8262003d75565b602082019050919050565b62003231816200391d565b82525050565b6200324c62003246826200391d565b62003a40565b82525050565b60006200325f826200302b565b91506200326d828462003237565b6020820191506200327e82620030c7565b915081905092915050565b6000602082019050620032a0600083018462002f0f565b92915050565b600060a082019050620032bd600083018762002f0f565b620032cc602083018662002f0f565b620032db604083018562003226565b620032ea606083018462002f64565b8181036080830152620032fd816200318a565b905095945050505050565b600060a0820190506200331f600083018762002f0f565b6200332e602083018662002f0f565b6200333d604083018562003226565b6200334c606083018462003226565b81810360808301526200335f816200318a565b905095945050505050565b600060408201905062003381600083018562002f0f565b62003390602083018462003226565b9392505050565b6000608082019050620033ae600083018762002f0f565b620033bd602083018662003226565b620033cc604083018562002f0f565b620033db606083018462002f53565b95945050505050565b6000606082019050620033fb600083018662002f0f565b6200340a602083018562003226565b81810360408301526200341e818462002f75565b9050949350505050565b60006060820190506200343f600083018662002f0f565b6200344e602083018562003226565b6200345d604083018462003226565b949350505050565b60006020820190506200347c600083018462002f20565b92915050565b600060208201905062003499600083018462002f31565b92915050565b6000602082019050620034b6600083018462002f42565b92915050565b60006020820190508181036000830152620034d78162002fb6565b9050919050565b60006020820190508181036000830152620034f98162002fdd565b9050919050565b600060208201905081810360008301526200351b8162003004565b9050919050565b600060208201905081810360008301526200353d8162003052565b9050919050565b600060208201905081810360008301526200355f8162003079565b9050919050565b600060208201905081810360008301526200358181620030a0565b9050919050565b60006020820190508181036000830152620035a381620030ee565b9050919050565b60006020820190508181036000830152620035c58162003115565b9050919050565b60006020820190508181036000830152620035e7816200313c565b9050919050565b60006020820190508181036000830152620036098162003163565b9050919050565b600060208201905081810360008301526200362b81620031b1565b9050919050565b600060208201905081810360008301526200364d81620031d8565b9050919050565b600060208201905081810360008301526200366f81620031ff565b9050919050565b60006020820190506200368d600083018462003226565b92915050565b6000604082019050620036aa600083018562003226565b620036b9602083018462002f0f565b9392505050565b6000606082019050620036d7600083018662003226565b620036e6602083018562002f0f565b620036f5604083018462003226565b949350505050565b6000620037096200371c565b9050620037178282620039bc565b919050565b6000604051905090565b600067ffffffffffffffff82111562003744576200374362003aa8565b5b6200374f8262003ad7565b9050602081019050919050565b600081519050919050565b600082825260208201905092915050565b600082825260208201905092915050565b600081905092915050565b6000620037a1826200391d565b9150620037ae836200391d565b9250827fffffffffffffffffffffffffffffffffffffffffffffffffffffffffffffffff03821115620037e657620037e562003a4a565b5b828201905092915050565b6000620037fe826200391d565b91506200380b836200391d565b9250826200381e576200381d62003a79565b5b828204905092915050565b600062003836826200391d565b915062003843836200391d565b9250817fffffffffffffffffffffffffffffffffffffffffffffffffffffffffffffffff04831182151516156200387f576200387e62003a4a565b5b828202905092915050565b600062003897826200391d565b9150620038a4836200391d565b925082821015620038ba57620038b962003a4a565b5b828203905092915050565b6000620038d282620038fd565b9050919050565b60008115159050919050565b6000819050919050565b600061ffff82169050919050565b600073ffffffffffffffffffffffffffffffffffffffff82169050919050565b6000819050919050565b600062003934826200393b565b9050919050565b60006200394882620038fd565b9050919050565b60006200395c82620038ef565b9050919050565b600062003970826200391d565b9050919050565b82818337600083830152505050565b60005b83811015620039a657808201518184015260208101905062003989565b83811115620039b6576000848401525b50505050565b620039c78262003ad7565b810181811067ffffffffffffffff82111715620039e957620039e862003aa8565b5b80604052505050565b6000620039ff826200391d565b91507fffffffffffffffffffffffffffffffffffffffffffffffffffffffffffffffff82141562003a355762003a3462003a4a565b5b600182019050919050565b6000819050919050565b7f4e487b7100000000000000000000000000000000000000000000000000000000600052601160045260246000fd5b7f4e487b7100000000000000000000000000000000000000000000000000000000600052601260045260246000fd5b7f4e487b7100000000000000000000000000000000000000000000000000000000600052604160045260246000fd5b6000601f19601f8301169050919050565b7f4d697373696f6e20636f737420697320746f6f206c6f77000000000000000000600082015250565b7f506c616e657420646f6573206e6f742065786973740000000000000000000000600082015250565b7f4f776e61626c653a206e6577206f776e657220697320746865207a65726f206160008201527f6464726573730000000000000000000000000000000000000000000000000000602082015250565b7f7b706c616e65743a000000000000000000000000000000000000000000000000600082015250565b7f526f636b6574206973206e6f74206120726f636b657400000000000000000000600082015250565b7f41747461636b6572206973206e6f742073656e64657200000000000000000000600082015250565b7f506c616e6574206973206e6f74206120706c616e657400000000000000000000600082015250565b7f7d00000000000000000000000000000000000000000000000000000000000000600082015250565b7f4f776e61626c653a2063616c6c6572206973206e6f7420746865206f776e6572600082015250565b7f526f636b657420646f6573206e6f742065786973740000000000000000000000600082015250565b7f53656e64657220646f6573206e6f74206861766520656e6f7567682062616c6160008201527f6e63650000000000000000000000000000000000000000000000000000000000602082015250565b7f4e6f207374616b696e6720616d6f756e74206973206d656e74696f6e65640000600082015250565b50565b7f496e76616c6964206e756b654964000000000000000000000000000000000000600082015250565b7f41747461636b2068617320616c7265616479206265656e207265736f6c766564600082015250565b7f41747461636b206e6f742066696e616c697a61626c6520796574000000000000600082015250565b62003da981620038c5565b811462003db557600080fd5b50565b62003dc381620038d9565b811462003dcf57600080fd5b50565b62003ddd816200391d565b811462003de957600080fd5b5056fe60806040523480156200001157600080fd5b506040518060400160405280600b81526020017f47616c617879546f6b656e0000000000000000000000000000000000000000008152506200005981620000a160201b60201c565b5033600360006101000a81548173ffffffffffffffffffffffffffffffffffffffff021916908373ffffffffffffffffffffffffffffffffffffffff160217905550620001d2565b8060029080519060200190620000b9929190620000bd565b5050565b828054620000cb906200016d565b90600052602060002090601f016020900481019282620000ef57600085556200013b565b82601f106200010a57805160ff19168380011785556200013b565b828001600101855582156200013b579182015b828111156200013a5782518255916020019190600101906200011d565b5b5090506200014a91906200014e565b5090565b5b80821115620001695760008160009055506001016200014f565b5090565b600060028204905060018216806200018657607f821691505b602082108114156200019d576200019c620001a3565b5b50919050565b7f4e487b7100000000000000000000000000000000000000000000000000000000600052602260045260246000fd5b61471b80620001e26000396000f3fe608060405234801561001057600080fd5b506004361061018c5760003560e01c806379b8d938116100de578063adebf6f211610097578063e44591f011610071578063e44591f014610563578063e4b5b61a14610593578063e985e9c5146105c3578063f242432a146105f35761018c565b8063adebf6f2146104e5578063b4a99a4e14610515578063d533da2a146105335761018c565b806379b8d938146103ed5780637a0156271461041d57806398b4ad6f1461044d5780639cca1c641461047d578063a1eb7001146104ad578063a22cb465146104c95761018c565b80632eb2c2d61161014b5780633fa9f7f3116101255780633fa9f7f31461032d5780634e1273f41461035d5780635977e82a1461038d578063717b7f36146103bd5761018c565b80632eb2c2d6146102b15780633979aba7146102cd5780633b0e4d34146102fd5761018c565b8062fdd58e14610191578062ffc135146101c157806301ffc9a7146101f157806305caa0ff146102215780630e89341c146102515780630f7fa72f14610281575b600080fd5b6101ab60048036038101906101a691906131a3565b61060f565b6040516101b89190613c3b565b60405180910390f35b6101db60048036038101906101d69190613420565b6106d8565b6040516101e89190613c3b565b60405180910390f35b61020b600480360381019061020691906133a5565b6107ed565b604051610218919061399e565b60405180910390f35b61023b6004803603810190610236919061337c565b6108cf565b6040516102489190613c3b565b60405180910390f35b61026b600480360381019061026691906133f7565b6109ad565b60405161027891906139b9565b60405180910390f35b61029b600480360381019061029691906131a3565b610a41565b6040516102a8919061399e565b60405180910390f35b6102cb60048036038101906102c69190613019565b610ba2565b005b6102e760048036038101906102e291906131a3565b610c43565b6040516102f4919061399e565b60405180910390f35b61031760048036038101906103129190613420565b610da5565b604051610324919061399e565b60405180910390f35b610347600480360381019061034291906133f7565b610dd4565b6040516103549190613868565b60405180910390f35b61037760048036038101906103729190613310565b610e11565b6040516103849190613945565b60405180910390f35b6103a760048036038101906103a291906133f7565b610fc2565b6040516103b49190613c3b565b60405180910390f35b6103d760048036038101906103d29190613246565b610fda565b6040516103e4919061399e565b60405180910390f35b610407600480360381019061040291906131a3565b61120d565b6040516104149190613c3b565b60405180910390f35b610437600480360381019061043291906131a3565b611232565b6040516104449190613c3b565b60405180910390f35b610467600480360381019061046291906131df565b611257565b6040516104749190613c3b565b60405180910390f35b610497600480360381019061049291906133f7565b61134e565b6040516104a49190613c3b565b60405180910390f35b6104c760048036038101906104c2919061345c565b61136c565b005b6104e360048036038101906104de9190613167565b6114ff565b005b6104ff60048036038101906104fa91906133f7565b611680565b60405161050c919061399e565b60405180910390f35b61051d6116ae565b60405161052a9190613868565b60405180910390f35b61054d60048036038101906105489190613295565b6116d8565b60405161055a919061399e565b60405180910390f35b61057d600480360381019061057891906133f7565b61190d565b60405161058a919061399e565b60405180910390f35b6105ad60048036038101906105a891906133f7565b61193b565b6040516105ba9190613c3b565b60405180910390f35b6105dd60048036038101906105d89190612fdd565b61195d565b6040516105ea919061399e565b60405180910390f35b61060d600480360381019061060891906130d8565b6119f1565b005b60008073ffffffffffffffffffffffffffffffffffffffff168373ffffffffffffffffffffffffffffffffffffffff161415610680576040517f08c379a000000000000000000000000000000000000000000000000000000000815260040161067790613a3b565b60405180910390fd5b60008083815260200190815260200160002060008473ffffffffffffffffffffffffffffffffffffffff1673ffffffffffffffffffffffffffffffffffffffff16815260200190815260200160002054905092915050565b60006106e383611680565b610722576040517f08c379a000000000000000000000000000000000000000000000000000000000815260040161071990613a9b565b60405180910390fd5b600860008373ffffffffffffffffffffffffffffffffffffffff1673ffffffffffffffffffffffffffffffffffffffff1681526020019081526020016000206000848152602001908152602001600020549050610790828483604051806020016040528060008152506116d8565b506000600860008473ffffffffffffffffffffffffffffffffffffffff1673ffffffffffffffffffffffffffffffffffffffff16815260200190815260200160002060008581526020019081526020016000208190555092915050565b60007fd9b67a26000000000000000000000000000000000000000000000000000000007bffffffffffffffffffffffffffffffffffffffffffffffffffffffff1916827bffffffffffffffffffffffffffffffffffffffffffffffffffffffff191614806108b857507f0e89341c000000000000000000000000000000000000000000000000000000007bffffffffffffffffffffffffffffffffffffffffffffffffffffffff1916827bffffffffffffffffffffffffffffffffffffffffffffffffffffffff1916145b806108c857506108c782611c87565b5b9050919050565b60003373ffffffffffffffffffffffffffffffffffffffff16600360009054906101000a900473ffffffffffffffffffffffffffffffffffffffff1673ffffffffffffffffffffffffffffffffffffffff1614610961576040517f08c379a000000000000000000000000000000000000000000000000000000000815260040161095890613a1b565b60405180910390fd5b608060046000815461097290613f72565b919050819055901b905081156109a8577f8000000000000000000000000000000000000000000000000000000000000000811790505b919050565b6060600280546109bc90613f0f565b80601f01602080910402602001604051908101604052809291908181526020018280546109e890613f0f565b8015610a355780601f10610a0a57610100808354040283529160200191610a35565b820191906000526020600020905b815481529060010190602001808311610a1857829003601f168201915b50505050509050919050565b60003373ffffffffffffffffffffffffffffffffffffffff16600360009054906101000a900473ffffffffffffffffffffffffffffffffffffffff1673ffffffffffffffffffffffffffffffffffffffff1614610ad3576040517f08c379a0000000000000000000000000000000000000000000000000000000008152600401610aca90613a1b565b60405180910390fd5b60016006600084815260200190815260200160002060008573ffffffffffffffffffffffffffffffffffffffff1673ffffffffffffffffffffffffffffffffffffffff16815260200190815260200160002060006101000a81548160ff0219169083151502179055506006600083815260200190815260200160002060008473ffffffffffffffffffffffffffffffffffffffff1673ffffffffffffffffffffffffffffffffffffffff16815260200190815260200160002060009054906101000a900460ff16905092915050565b610baa611cf1565b73ffffffffffffffffffffffffffffffffffffffff168573ffffffffffffffffffffffffffffffffffffffff161480610bf05750610bef85610bea611cf1565b61195d565b5b610c2f576040517f08c379a0000000000000000000000000000000000000000000000000000000008152600401610c2690613afb565b60405180910390fd5b610c3c8585858585611cf9565b5050505050565b60003373ffffffffffffffffffffffffffffffffffffffff16600360009054906101000a900473ffffffffffffffffffffffffffffffffffffffff1673ffffffffffffffffffffffffffffffffffffffff1614610cd5576040517f08c379a0000000000000000000000000000000000000000000000000000000008152600401610ccc90613a1b565b60405180910390fd5b60006006600084815260200190815260200160002060008573ffffffffffffffffffffffffffffffffffffffff1673ffffffffffffffffffffffffffffffffffffffff16815260200190815260200160002060006101000a81548160ff0219169083151502179055506006600083815260200190815260200160002060008473ffffffffffffffffffffffffffffffffffffffff1673ffffffffffffffffffffffffffffffffffffffff16815260200190815260200160002060009054906101000a900460ff1615905092915050565b60066020528160005260406000206020528060005260406000206000915091509054906101000a900460ff1681565b60006005600083815260200190815260200160002060009054906101000a900473ffffffffffffffffffffffffffffffffffffffff169050919050565b60608151835114610e57576040517f08c379a0000000000000000000000000000000000000000000000000000000008152600401610e4e90613bdb565b60405180910390fd5b6000835167ffffffffffffffff811115610e9a577f4e487b7100000000000000000000000000000000000000000000000000000000600052604160045260246000fd5b604051908082528060200260200182016040528015610ec85781602001602082028036833780820191505090505b50905060005b8451811015610fb757610f61858281518110610f13577f4e487b7100000000000000000000000000000000000000000000000000000000600052603260045260246000fd5b6020026020010151858381518110610f54577f4e487b7100000000000000000000000000000000000000000000000000000000600052603260045260246000fd5b602002602001015161060f565b828281518110610f9a577f4e487b7100000000000000000000000000000000000000000000000000000000600052603260045260246000fd5b60200260200101818152505080610fb090613f72565b9050610ece565b508091505092915050565b600b6020528060005260406000206000915090505481565b6000826000610fe88261193b565b90503373ffffffffffffffffffffffffffffffffffffffff16600360009054906101000a900473ffffffffffffffffffffffffffffffffffffffff1673ffffffffffffffffffffffffffffffffffffffff1614806110a75750600115156006600083815260200190815260200160002060003373ffffffffffffffffffffffffffffffffffffffff1673ffffffffffffffffffffffffffffffffffffffff16815260200190815260200160002060009054906101000a900460ff161515145b806110dd57503373ffffffffffffffffffffffffffffffffffffffff163073ffffffffffffffffffffffffffffffffffffffff16145b61111c576040517f08c379a000000000000000000000000000000000000000000000000000000000815260040161111390613a1b565b60405180910390fd5b61112585611680565b611164576040517f08c379a000000000000000000000000000000000000000000000000000000000815260040161115b90613a9b565b60405180910390fd5b61116f868686612059565b83600b600087815260200190815260200160002060008282546111929190613e25565b9250508190555083600760008873ffffffffffffffffffffffffffffffffffffffff1673ffffffffffffffffffffffffffffffffffffffff168152602001908152602001600020600087815260200190815260200160002060008282546111f99190613e25565b925050819055506001925050509392505050565b6008602052816000526040600020602052806000526040600020600091509150505481565b6007602052816000526040600020602052806000526040600020600091509150505481565b60006112628361190d565b6112a1576040517f08c379a000000000000000000000000000000000000000000000000000000000815260040161129890613b7b565b60405180910390fd5b6000600b6000858152602001908152602001600020600081546112c390613f72565b919050819055905080841791506112da8286612276565b82600a60008481526020019081526020016000209080519060200190611301929190612cd5565b50818573ffffffffffffffffffffffffffffffffffffffff167fd2c38398cb1d153f906fd8dafa23f3c242c8503cfb2b362fd96f90b3763007ce60405160405180910390a3509392505050565b60006fffffffffffffffffffffffffffffffff801682169050919050565b3373ffffffffffffffffffffffffffffffffffffffff16600360009054906101000a900473ffffffffffffffffffffffffffffffffffffffff1673ffffffffffffffffffffffffffffffffffffffff16146113fc576040517f08c379a00000000000000000000000000000000000000000000000000000000081526004016113f390613a1b565b60405180910390fd5b61140583611680565b611444576040517f08c379a000000000000000000000000000000000000000000000000000000000815260040161143b90613abb565b60405180910390fd5b80600860008473ffffffffffffffffffffffffffffffffffffffff1673ffffffffffffffffffffffffffffffffffffffff168152602001908152602001600020600085815260200190815260200160002060008282546114a49190613dcf565b925050819055508173ffffffffffffffffffffffffffffffffffffffff16837f8aa1d0d8a065e76aa87e2a407f14dfb1c36840a8496ef169409f73a1fbac1766836040516114f29190613c3b565b60405180910390a3505050565b8173ffffffffffffffffffffffffffffffffffffffff1661151e611cf1565b73ffffffffffffffffffffffffffffffffffffffff161415611575576040517f08c379a000000000000000000000000000000000000000000000000000000000815260040161156c90613bbb565b60405180910390fd5b8060016000611582611cf1565b73ffffffffffffffffffffffffffffffffffffffff1673ffffffffffffffffffffffffffffffffffffffff16815260200190815260200160002060008473ffffffffffffffffffffffffffffffffffffffff1673ffffffffffffffffffffffffffffffffffffffff16815260200190815260200160002060006101000a81548160ff0219169083151502179055508173ffffffffffffffffffffffffffffffffffffffff1661162f611cf1565b73ffffffffffffffffffffffffffffffffffffffff167f17307eab39ab6107e8899845ad3d59bd9653f200f220920489ca2b5937696c3183604051611674919061399e565b60405180910390a35050565b6000807f80000000000000000000000000000000000000000000000000000000000000008316149050919050565b6000600360009054906101000a900473ffffffffffffffffffffffffffffffffffffffff16905090565b60008360006116e68261193b565b90503373ffffffffffffffffffffffffffffffffffffffff16600360009054906101000a900473ffffffffffffffffffffffffffffffffffffffff1673ffffffffffffffffffffffffffffffffffffffff1614806117a55750600115156006600083815260200190815260200160002060003373ffffffffffffffffffffffffffffffffffffffff1673ffffffffffffffffffffffffffffffffffffffff16815260200190815260200160002060009054906101000a900460ff161515145b806117db57503373ffffffffffffffffffffffffffffffffffffffff163073ffffffffffffffffffffffffffffffffffffffff16145b61181a576040517f08c379a000000000000000000000000000000000000000000000000000000000815260040161181190613a1b565b60405180910390fd5b61182386611680565b611862576040517f08c379a000000000000000000000000000000000000000000000000000000000815260040161185990613b7b565b60405180910390fd5b61186e8787878761240e565b84600b600088815260200190815260200160002060008282546118919190613dcf565b9250508190555084600760008973ffffffffffffffffffffffffffffffffffffffff1673ffffffffffffffffffffffffffffffffffffffff168152602001908152602001600020600088815260200190815260200160002060008282546118f89190613dcf565b92505081905550600192505050949350505050565b60007f8000000000000000000000000000000000000000000000000000000000000000808316149050919050565b600060806fffffffffffffffffffffffffffffffff8016901b82169050919050565b6000600160008473ffffffffffffffffffffffffffffffffffffffff1673ffffffffffffffffffffffffffffffffffffffff16815260200190815260200160002060008373ffffffffffffffffffffffffffffffffffffffff1673ffffffffffffffffffffffffffffffffffffffff16815260200190815260200160002060009054906101000a900460ff16905092915050565b6119f9611cf1565b73ffffffffffffffffffffffffffffffffffffffff168573ffffffffffffffffffffffffffffffffffffffff161480611a3f5750611a3e85611a39611cf1565b61195d565b5b611a7e576040517f08c379a0000000000000000000000000000000000000000000000000000000008152600401611a7590613a7b565b60405180910390fd5b611a8783611680565b15611bff5781600760008773ffffffffffffffffffffffffffffffffffffffff1673ffffffffffffffffffffffffffffffffffffffff1681526020019081526020016000206000858152602001908152602001600020541015611b1f576040517f08c379a0000000000000000000000000000000000000000000000000000000008152600401611b1690613b9b565b60405180910390fd5b611b2c85858585856125a4565b81600760008773ffffffffffffffffffffffffffffffffffffffff1673ffffffffffffffffffffffffffffffffffffffff16815260200190815260200160002060008581526020019081526020016000206000828254611b8c9190613e25565b9250508190555081600760008673ffffffffffffffffffffffffffffffffffffffff1673ffffffffffffffffffffffffffffffffffffffff16815260200190815260200160002060008581526020019081526020016000206000828254611bf39190613dcf565b92505081905550611c80565b8473ffffffffffffffffffffffffffffffffffffffff16611c1f84610dd4565b73ffffffffffffffffffffffffffffffffffffffff1614611c75576040517f08c379a0000000000000000000000000000000000000000000000000000000008152600401611c6c90613b5b565b60405180910390fd5b611c7f8385612276565b5b5050505050565b60007f01ffc9a7000000000000000000000000000000000000000000000000000000007bffffffffffffffffffffffffffffffffffffffffffffffffffffffff1916827bffffffffffffffffffffffffffffffffffffffffffffffffffffffff1916149050919050565b600033905090565b8151835114611d3d576040517f08c379a0000000000000000000000000000000000000000000000000000000008152600401611d3490613bfb565b60405180910390fd5b600073ffffffffffffffffffffffffffffffffffffffff168473ffffffffffffffffffffffffffffffffffffffff161415611dad576040517f08c379a0000000000000000000000000000000000000000000000000000000008152600401611da490613adb565b60405180910390fd5b6000611db7611cf1565b9050611dc7818787878787612826565b60005b8451811015611fc4576000858281518110611e0e577f4e487b7100000000000000000000000000000000000000000000000000000000600052603260045260246000fd5b602002602001015190506000858381518110611e53577f4e487b7100000000000000000000000000000000000000000000000000000000600052603260045260246000fd5b60200260200101519050600080600084815260200190815260200160002060008b73ffffffffffffffffffffffffffffffffffffffff1673ffffffffffffffffffffffffffffffffffffffff16815260200190815260200160002054905081811015611ef4576040517f08c379a0000000000000000000000000000000000000000000000000000000008152600401611eeb90613b3b565b60405180910390fd5b81810360008085815260200190815260200160002060008c73ffffffffffffffffffffffffffffffffffffffff1673ffffffffffffffffffffffffffffffffffffffff168152602001908152602001600020819055508160008085815260200190815260200160002060008b73ffffffffffffffffffffffffffffffffffffffff1673ffffffffffffffffffffffffffffffffffffffff1681526020019081526020016000206000828254611fa99190613dcf565b9250508190555050505080611fbd90613f72565b9050611dca565b508473ffffffffffffffffffffffffffffffffffffffff168673ffffffffffffffffffffffffffffffffffffffff168273ffffffffffffffffffffffffffffffffffffffff167f4a39dc06d4c0dbc64b70af90fd698a233a518aa5d07e595d983b8c0526c8f7fb878760405161203b929190613967565b60405180910390a461205181878787878761282e565b505050505050565b600073ffffffffffffffffffffffffffffffffffffffff168373ffffffffffffffffffffffffffffffffffffffff1614156120c9576040517f08c379a00000000000000000000000000000000000000000000000000000000081526004016120c090613b1b565b60405180910390fd5b60006120d3611cf1565b9050612103818560006120e587612a15565b6120ee87612a15565b60405180602001604052806000815250612826565b600080600085815260200190815260200160002060008673ffffffffffffffffffffffffffffffffffffffff1673ffffffffffffffffffffffffffffffffffffffff1681526020019081526020016000205490508281101561219a576040517f08c379a000000000000000000000000000000000000000000000000000000000815260040161219190613a5b565b60405180910390fd5b82810360008086815260200190815260200160002060008773ffffffffffffffffffffffffffffffffffffffff1673ffffffffffffffffffffffffffffffffffffffff16815260200190815260200160002081905550600073ffffffffffffffffffffffffffffffffffffffff168573ffffffffffffffffffffffffffffffffffffffff168373ffffffffffffffffffffffffffffffffffffffff167fc3d58168c5ae7397731d063d5bbf3d657854427343f4c083240f7aacaa2d0f628787604051612267929190613c56565b60405180910390a45050505050565b8160006122828261193b565b90503373ffffffffffffffffffffffffffffffffffffffff16600360009054906101000a900473ffffffffffffffffffffffffffffffffffffffff1673ffffffffffffffffffffffffffffffffffffffff1614806123415750600115156006600083815260200190815260200160002060003373ffffffffffffffffffffffffffffffffffffffff1673ffffffffffffffffffffffffffffffffffffffff16815260200190815260200160002060009054906101000a900460ff161515145b8061237757503373ffffffffffffffffffffffffffffffffffffffff163073ffffffffffffffffffffffffffffffffffffffff16145b6123b6576040517f08c379a00000000000000000000000000000000000000000000000000000000081526004016123ad90613a1b565b60405180910390fd5b826005600086815260200190815260200160002060006101000a81548173ffffffffffffffffffffffffffffffffffffffff021916908373ffffffffffffffffffffffffffffffffffffffff16021790555050505050565b600073ffffffffffffffffffffffffffffffffffffffff168473ffffffffffffffffffffffffffffffffffffffff16141561247e576040517f08c379a000000000000000000000000000000000000000000000000000000000815260040161247590613c1b565b60405180910390fd5b6000612488611cf1565b90506124a98160008761249a88612a15565b6124a388612a15565b87612826565b8260008086815260200190815260200160002060008773ffffffffffffffffffffffffffffffffffffffff1673ffffffffffffffffffffffffffffffffffffffff16815260200190815260200160002060008282546125089190613dcf565b925050819055508473ffffffffffffffffffffffffffffffffffffffff16600073ffffffffffffffffffffffffffffffffffffffff168273ffffffffffffffffffffffffffffffffffffffff167fc3d58168c5ae7397731d063d5bbf3d657854427343f4c083240f7aacaa2d0f628787604051612586929190613c56565b60405180910390a461259d81600087878787612adb565b5050505050565b600073ffffffffffffffffffffffffffffffffffffffff168473ffffffffffffffffffffffffffffffffffffffff161415612614576040517f08c379a000000000000000000000000000000000000000000000000000000000815260040161260b90613adb565b60405180910390fd5b600061261e611cf1565b905061263e81878761262f88612a15565b61263888612a15565b87612826565b600080600086815260200190815260200160002060008873ffffffffffffffffffffffffffffffffffffffff1673ffffffffffffffffffffffffffffffffffffffff168152602001908152602001600020549050838110156126d5576040517f08c379a00000000000000000000000000000000000000000000000000000000081526004016126cc90613b3b565b60405180910390fd5b83810360008087815260200190815260200160002060008973ffffffffffffffffffffffffffffffffffffffff1673ffffffffffffffffffffffffffffffffffffffff168152602001908152602001600020819055508360008087815260200190815260200160002060008873ffffffffffffffffffffffffffffffffffffffff1673ffffffffffffffffffffffffffffffffffffffff168152602001908152602001600020600082825461278a9190613dcf565b925050819055508573ffffffffffffffffffffffffffffffffffffffff168773ffffffffffffffffffffffffffffffffffffffff168373ffffffffffffffffffffffffffffffffffffffff167fc3d58168c5ae7397731d063d5bbf3d657854427343f4c083240f7aacaa2d0f628888604051612807929190613c56565b60405180910390a461281d828888888888612adb565b50505050505050565b505050505050565b61284d8473ffffffffffffffffffffffffffffffffffffffff16612cc2565b15612a0d578373ffffffffffffffffffffffffffffffffffffffff1663bc197c8187878686866040518663ffffffff1660e01b8152600401612893959493929190613883565b602060405180830381600087803b1580156128ad57600080fd5b505af19250505080156128de57506040513d601f19601f820116820180604052508101906128db91906133ce565b60015b612984576128ea614048565b806308c379a0141561294757506128ff6145f3565b8061290a5750612949565b806040517f08c379a000000000000000000000000000000000000000000000000000000000815260040161293e91906139b9565b60405180910390fd5b505b6040517f08c379a000000000000000000000000000000000000000000000000000000000815260040161297b906139db565b60405180910390fd5b63bc197c8160e01b7bffffffffffffffffffffffffffffffffffffffffffffffffffffffff1916817bffffffffffffffffffffffffffffffffffffffffffffffffffffffff191614612a0b576040517f08c379a0000000000000000000000000000000000000000000000000000000008152600401612a02906139fb565b60405180910390fd5b505b505050505050565b60606000600167ffffffffffffffff811115612a5a577f4e487b7100000000000000000000000000000000000000000000000000000000600052604160045260246000fd5b604051908082528060200260200182016040528015612a885781602001602082028036833780820191505090505b5090508281600081518110612ac6577f4e487b7100000000000000000000000000000000000000000000000000000000600052603260045260246000fd5b60200260200101818152505080915050919050565b612afa8473ffffffffffffffffffffffffffffffffffffffff16612cc2565b15612cba578373ffffffffffffffffffffffffffffffffffffffff1663f23a6e6187878686866040518663ffffffff1660e01b8152600401612b409594939291906138eb565b602060405180830381600087803b158015612b5a57600080fd5b505af1925050508015612b8b57506040513d601f19601f82011682018060405250810190612b8891906133ce565b60015b612c3157612b97614048565b806308c379a01415612bf45750612bac6145f3565b80612bb75750612bf6565b806040517f08c379a0000000000000000000000000000000000000000000000000000000008152600401612beb91906139b9565b60405180910390fd5b505b6040517f08c379a0000000000000000000000000000000000000000000000000000000008152600401612c28906139db565b60405180910390fd5b63f23a6e6160e01b7bffffffffffffffffffffffffffffffffffffffffffffffffffffffff1916817bffffffffffffffffffffffffffffffffffffffffffffffffffffffff191614612cb8576040517f08c379a0000000000000000000000000000000000000000000000000000000008152600401612caf906139fb565b60405180910390fd5b505b505050505050565b600080823b905060008111915050919050565b828054612ce190613f0f565b90600052602060002090601f016020900481019282612d035760008555612d4a565b82601f10612d1c57805160ff1916838001178555612d4a565b82800160010185558215612d4a579182015b82811115612d49578251825591602001919060010190612d2e565b5b509050612d579190612d5b565b5090565b5b80821115612d74576000816000905550600101612d5c565b5090565b6000612d8b612d8684613ca4565b613c7f565b90508083825260208201905082856020860282011115612daa57600080fd5b60005b85811015612dda5781612dc08882612ecc565b845260208401935060208301925050600181019050612dad565b5050509392505050565b6000612df7612df284613cd0565b613c7f565b90508083825260208201905082856020860282011115612e1657600080fd5b60005b85811015612e465781612e2c8882612fc8565b845260208401935060208301925050600181019050612e19565b5050509392505050565b6000612e63612e5e84613cfc565b613c7f565b905082815260208101848484011115612e7b57600080fd5b612e86848285613ecd565b509392505050565b6000612ea1612e9c84613d2d565b613c7f565b905082815260208101848484011115612eb957600080fd5b612ec4848285613ecd565b509392505050565b600081359050612edb81614689565b92915050565b600082601f830112612ef257600080fd5b8135612f02848260208601612d78565b91505092915050565b600082601f830112612f1c57600080fd5b8135612f2c848260208601612de4565b91505092915050565b600081359050612f44816146a0565b92915050565b600081359050612f59816146b7565b92915050565b600081519050612f6e816146b7565b92915050565b600082601f830112612f8557600080fd5b8135612f95848260208601612e50565b91505092915050565b600082601f830112612faf57600080fd5b8135612fbf848260208601612e8e565b91505092915050565b600081359050612fd7816146ce565b92915050565b60008060408385031215612ff057600080fd5b6000612ffe85828601612ecc565b925050602061300f85828601612ecc565b9150509250929050565b600080600080600060a0868803121561303157600080fd5b600061303f88828901612ecc565b955050602061305088828901612ecc565b945050604086013567ffffffffffffffff81111561306d57600080fd5b61307988828901612f0b565b935050606086013567ffffffffffffffff81111561309657600080fd5b6130a288828901612f0b565b925050608086013567ffffffffffffffff8111156130bf57600080fd5b6130cb88828901612f74565b9150509295509295909350565b600080600080600060a086880312156130f057600080fd5b60006130fe88828901612ecc565b955050602061310f88828901612ecc565b945050604061312088828901612fc8565b935050606061313188828901612fc8565b925050608086013567ffffffffffffffff81111561314e57600080fd5b61315a88828901612f74565b9150509295509295909350565b6000806040838503121561317a57600080fd5b600061318885828601612ecc565b925050602061319985828601612f35565b9150509250929050565b600080604083850312156131b657600080fd5b60006131c485828601612ecc565b92505060206131d585828601612fc8565b9150509250929050565b6000806000606084860312156131f457600080fd5b600061320286828701612ecc565b935050602061321386828701612fc8565b925050604084013567ffffffffffffffff81111561323057600080fd5b61323c86828701612f9e565b9150509250925092565b60008060006060848603121561325b57600080fd5b600061326986828701612ecc565b935050602061327a86828701612fc8565b925050604061328b86828701612fc8565b9150509250925092565b600080600080608085870312156132ab57600080fd5b60006132b987828801612ecc565b94505060206132ca87828801612fc8565b93505060406132db87828801612fc8565b925050606085013567ffffffffffffffff8111156132f857600080fd5b61330487828801612f74565b91505092959194509250565b6000806040838503121561332357600080fd5b600083013567ffffffffffffffff81111561333d57600080fd5b61334985828601612ee1565b925050602083013567ffffffffffffffff81111561336657600080fd5b61337285828601612f0b565b9150509250929050565b60006020828403121561338e57600080fd5b600061339c84828501612f35565b91505092915050565b6000602082840312156133b757600080fd5b60006133c584828501612f4a565b91505092915050565b6000602082840312156133e057600080fd5b60006133ee84828501612f5f565b91505092915050565b60006020828403121561340957600080fd5b600061341784828501612fc8565b91505092915050565b6000806040838503121561343357600080fd5b600061344185828601612fc8565b925050602061345285828601612ecc565b9150509250929050565b60008060006060848603121561347157600080fd5b600061347f86828701612fc8565b935050602061349086828701612ecc565b92505060406134a186828701612fc8565b9150509250925092565b60006134b7838361384a565b60208301905092915050565b6134cc81613e59565b82525050565b60006134dd82613d6e565b6134e78185613d9c565b93506134f283613d5e565b8060005b8381101561352357815161350a88826134ab565b975061351583613d8f565b9250506001810190506134f6565b5085935050505092915050565b61353981613e6b565b82525050565b600061354a82613d79565b6135548185613dad565b9350613564818560208601613edc565b61356d8161406a565b840191505092915050565b600061358382613d84565b61358d8185613dbe565b935061359d818560208601613edc565b6135a68161406a565b840191505092915050565b60006135be603483613dbe565b91506135c982614088565b604082019050919050565b60006135e1602883613dbe565b91506135ec826140d7565b604082019050919050565b6000613604601f83613dbe565b915061360f82614126565b602082019050919050565b6000613627602b83613dbe565b91506136328261414f565b604082019050919050565b600061364a602483613dbe565b91506136558261419e565b604082019050919050565b600061366d602983613dbe565b9150613678826141ed565b604082019050919050565b6000613690602d83613dbe565b915061369b8261423c565b604082019050919050565b60006136b3602e83613dbe565b91506136be8261428b565b604082019050919050565b60006136d6602583613dbe565b91506136e1826142da565b604082019050919050565b60006136f9603283613dbe565b915061370482614329565b604082019050919050565b600061371c602383613dbe565b915061372782614378565b604082019050919050565b600061373f602a83613dbe565b915061374a826143c7565b604082019050919050565b6000613762600f83613dbe565b915061376d82614416565b602082019050919050565b6000613785602d83613dbe565b91506137908261443f565b604082019050919050565b60006137a8601283613dbe565b91506137b38261448e565b602082019050919050565b60006137cb602983613dbe565b91506137d6826144b7565b604082019050919050565b60006137ee602983613dbe565b91506137f982614506565b604082019050919050565b6000613811602883613dbe565b915061381c82614555565b604082019050919050565b6000613834602183613dbe565b915061383f826145a4565b604082019050919050565b61385381613ec3565b82525050565b61386281613ec3565b82525050565b600060208201905061387d60008301846134c3565b92915050565b600060a08201905061389860008301886134c3565b6138a560208301876134c3565b81810360408301526138b781866134d2565b905081810360608301526138cb81856134d2565b905081810360808301526138df818461353f565b90509695505050505050565b600060a08201905061390060008301886134c3565b61390d60208301876134c3565b61391a6040830186613859565b6139276060830185613859565b8181036080830152613939818461353f565b90509695505050505050565b6000602082019050818103600083015261395f81846134d2565b905092915050565b6000604082019050818103600083015261398181856134d2565b9050818103602083015261399581846134d2565b90509392505050565b60006020820190506139b36000830184613530565b92915050565b600060208201905081810360008301526139d38184613578565b905092915050565b600060208201905081810360008301526139f4816135b1565b9050919050565b60006020820190508181036000830152613a14816135d4565b9050919050565b60006020820190508181036000830152613a34816135f7565b9050919050565b60006020820190508181036000830152613a548161361a565b9050919050565b60006020820190508181036000830152613a748161363d565b9050919050565b60006020820190508181036000830152613a9481613660565b9050919050565b60006020820190508181036000830152613ab481613683565b9050919050565b60006020820190508181036000830152613ad4816136a6565b9050919050565b60006020820190508181036000830152613af4816136c9565b9050919050565b60006020820190508181036000830152613b14816136ec565b9050919050565b60006020820190508181036000830152613b348161370f565b9050919050565b60006020820190508181036000830152613b5481613732565b9050919050565b60006020820190508181036000830152613b7481613755565b9050919050565b60006020820190508181036000830152613b9481613778565b9050919050565b60006020820190508181036000830152613bb48161379b565b9050919050565b60006020820190508181036000830152613bd4816137be565b9050919050565b60006020820190508181036000830152613bf4816137e1565b9050919050565b60006020820190508181036000830152613c1481613804565b9050919050565b60006020820190508181036000830152613c3481613827565b9050919050565b6000602082019050613c506000830184613859565b92915050565b6000604082019050613c6b6000830185613859565b613c786020830184613859565b9392505050565b6000613c89613c9a565b9050613c958282613f41565b919050565b6000604051905090565b600067ffffffffffffffff821115613cbf57613cbe614019565b5b602082029050602081019050919050565b600067ffffffffffffffff821115613ceb57613cea614019565b5b602082029050602081019050919050565b600067ffffffffffffffff821115613d1757613d16614019565b5b613d208261406a565b9050602081019050919050565b600067ffffffffffffffff821115613d4857613d47614019565b5b613d518261406a565b9050602081019050919050565b6000819050602082019050919050565b600081519050919050565b600081519050919050565b600081519050919050565b6000602082019050919050565b600082825260208201905092915050565b600082825260208201905092915050565b600082825260208201905092915050565b6000613dda82613ec3565b9150613de583613ec3565b9250827fffffffffffffffffffffffffffffffffffffffffffffffffffffffffffffffff03821115613e1a57613e19613fbb565b5b828201905092915050565b6000613e3082613ec3565b9150613e3b83613ec3565b925082821015613e4e57613e4d613fbb565b5b828203905092915050565b6000613e6482613ea3565b9050919050565b60008115159050919050565b60007fffffffff0000000000000000000000000000000000000000000000000000000082169050919050565b600073ffffffffffffffffffffffffffffffffffffffff82169050919050565b6000819050919050565b82818337600083830152505050565b60005b83811015613efa578082015181840152602081019050613edf565b83811115613f09576000848401525b50505050565b60006002820490506001821680613f2757607f821691505b60208210811415613f3b57613f3a613fea565b5b50919050565b613f4a8261406a565b810181811067ffffffffffffffff82111715613f6957613f68614019565b5b80604052505050565b6000613f7d82613ec3565b91507fffffffffffffffffffffffffffffffffffffffffffffffffffffffffffffffff821415613fb057613faf613fbb565b5b600182019050919050565b7f4e487b7100000000000000000000000000000000000000000000000000000000600052601160045260246000fd5b7f4e487b7100000000000000000000000000000000000000000000000000000000600052602260045260246000fd5b7f4e487b7100000000000000000000000000000000000000000000000000000000600052604160045260246000fd5b600060033d11156140675760046000803e61406460005161407b565b90505b90565b6000601f19601f8301169050919050565b60008160e01c9050919050565b7f455243313135353a207472616e7366657220746f206e6f6e204552433131353560008201527f526563656976657220696d706c656d656e746572000000000000000000000000602082015250565b7f455243313135353a204552433131353552656365697665722072656a6563746560008201527f6420746f6b656e73000000000000000000000000000000000000000000000000602082015250565b7f596f752063616e6e6f7420706572666f726d207468697320616374696f6e2e00600082015250565b7f455243313135353a2062616c616e636520717565727920666f7220746865207a60008201527f65726f2061646472657373000000000000000000000000000000000000000000602082015250565b7f455243313135353a206275726e20616d6f756e7420657863656564732062616c60008201527f616e636500000000000000000000000000000000000000000000000000000000602082015250565b7f455243313135353a2063616c6c6572206973206e6f74206f776e6572206e6f7260008201527f20617070726f7665640000000000000000000000000000000000000000000000602082015250565b7f54524945445f544f5f4255524e5f46554e4749424c455f464f525f4e4f4e5f4660008201527f554e4749424c455f544f4b454e00000000000000000000000000000000000000602082015250565b7f54524945445f544f5f5354414b455f46554e4749424c455f464f525f4e4f4e5f60008201527f46554e4749424c455f544f4b454e000000000000000000000000000000000000602082015250565b7f455243313135353a207472616e7366657220746f20746865207a65726f20616460008201527f6472657373000000000000000000000000000000000000000000000000000000602082015250565b7f455243313135353a207472616e736665722063616c6c6572206973206e6f742060008201527f6f776e6572206e6f7220617070726f7665640000000000000000000000000000602082015250565b7f455243313135353a206275726e2066726f6d20746865207a65726f206164647260008201527f6573730000000000000000000000000000000000000000000000000000000000602082015250565b7f455243313135353a20696e73756666696369656e742062616c616e636520666f60008201527f72207472616e7366657200000000000000000000000000000000000000000000602082015250565b7f57726f6e67204e4654206f776e65720000000000000000000000000000000000600082015250565b7f54524945445f544f5f4d494e545f46554e4749424c455f464f525f4e4f4e5f4660008201527f554e4749424c455f544f4b454e00000000000000000000000000000000000000602082015250565b7f696e73756666696369656e742066756e64730000000000000000000000000000600082015250565b7f455243313135353a2073657474696e6720617070726f76616c2073746174757360008201527f20666f722073656c660000000000000000000000000000000000000000000000602082015250565b7f455243313135353a206163636f756e747320616e6420696473206c656e67746860008201527f206d69736d617463680000000000000000000000000000000000000000000000602082015250565b7f455243313135353a2069647320616e6420616d6f756e7473206c656e6774682060008201527f6d69736d61746368000000000000000000000000000000000000000000000000602082015250565b7f455243313135353a206d696e7420746f20746865207a65726f2061646472657360008201527f7300000000000000000000000000000000000000000000000000000000000000602082015250565b600060443d101561460357614686565b61460b613c9a565b60043d036004823e80513d602482011167ffffffffffffffff82111715614633575050614686565b808201805167ffffffffffffffff8111156146515750505050614686565b80602083010160043d03850181111561466e575050505050614686565b61467d82602001850186613f41565b82955050505050505b90565b61469281613e59565b811461469d57600080fd5b50565b6146a981613e6b565b81146146b457600080fd5b50565b6146c081613e77565b81146146cb57600080fd5b50565b6146d781613ec3565b81146146e257600080fd5b5056fea2646970667358221220b5e93d7998ab0f31305090bce258a010ee2cd9ff5f12092afd68d00b791c348d64736f6c63430008040033a2646970667358221220d250060506170849bbdcf29f7cc14e9934ddea4b16931f3e75e909556e55a33964736f6c63430008040033",
  "linkReferences": {},
  "deployedLinkReferences": {}
}