{
  "_format": "hh-sol-artifact-1",
  "contractName": "SpaceMafia",
  "sourceName": "contracts/SpaceMafia.sol",
  "abi": [
    {
      "inputs": [],
      "stateMutability": "nonpayable",
      "type": "constructor"
    },
    {
      "anonymous": false,
      "inputs": [
        {
          "indexed": true,
          "internalType": "address",
          "name": "previousOwner",
          "type": "address"
        },
        {
          "indexed": true,
          "internalType": "address",
          "name": "newOwner",
          "type": "address"
        }
      ],
      "name": "OwnershipTransferred",
      "type": "event"
    },
    {
      "inputs": [
        {
          "internalType": "uint256",
          "name": "_tokenId",
          "type": "uint256"
        }
      ],
      "name": "claimDividends",
      "outputs": [
        {
          "internalType": "uint256",
          "name": "",
          "type": "uint256"
        }
      ],
      "stateMutability": "nonpayable",
      "type": "function"
    },
    {
      "inputs": [
        {
          "internalType": "uint256",
          "name": "_tokenId",
          "type": "uint256"
        }
      ],
      "name": "claimableDividends",
      "outputs": [
        {
          "internalType": "uint256",
          "name": "",
          "type": "uint256"
        }
      ],
      "stateMutability": "view",
      "type": "function"
    },
    {
      "inputs": [
        {
          "internalType": "uint256",
          "name": "_nukeId",
          "type": "uint256"
        }
      ],
      "name": "completeAttack",
      "outputs": [
        {
          "internalType": "bool",
          "name": "",
          "type": "bool"
        }
      ],
      "stateMutability": "nonpayable",
      "type": "function"
    },
    {
      "inputs": [
        {
          "internalType": "uint256",
          "name": "_nukeId",
          "type": "uint256"
        }
      ],
      "name": "defenseProbability",
      "outputs": [
        {
          "internalType": "uint256",
          "name": "",
          "type": "uint256"
        }
      ],
      "stateMutability": "view",
      "type": "function"
    },
    {
      "inputs": [
        {
          "internalType": "uint256",
          "name": "amount",
          "type": "uint256"
        }
      ],
      "name": "depositInAAVE",
      "outputs": [],
      "stateMutability": "payable",
      "type": "function"
    },
    {
      "inputs": [],
      "name": "galaxyToken",
      "outputs": [
        {
          "internalType": "contract GalaxyToken",
          "name": "",
          "type": "address"
        }
      ],
      "stateMutability": "view",
      "type": "function"
    },
    {
      "inputs": [
        {
          "internalType": "address",
          "name": "_galaxyToken",
          "type": "address"
        }
      ],
      "name": "initialize",
      "outputs": [],
      "stateMutability": "nonpayable",
      "type": "function"
    },
    {
      "inputs": [],
      "name": "lendingpool",
      "outputs": [
        {
          "internalType": "address",
          "name": "",
          "type": "address"
        }
      ],
      "stateMutability": "view",
      "type": "function"
    },
    {
      "inputs": [],
      "name": "mafiaToken",
      "outputs": [
        {
          "internalType": "uint256",
          "name": "",
          "type": "uint256"
        }
      ],
      "stateMutability": "view",
      "type": "function"
    },
    {
      "inputs": [
        {
          "internalType": "address",
          "name": "_account",
          "type": "address"
        },
        {
          "internalType": "string",
          "name": "_tokenURI",
          "type": "string"
        }
      ],
      "name": "mintPlanet",
      "outputs": [
        {
          "internalType": "uint256",
          "name": "_id",
          "type": "uint256"
        }
      ],
      "stateMutability": "nonpayable",
      "type": "function"
    },
    {
      "inputs": [
        {
          "internalType": "uint256",
          "name": "_planetId",
          "type": "uint256"
        }
      ],
      "name": "mintRocket",
      "outputs": [
        {
          "internalType": "uint256",
          "name": "_id",
          "type": "uint256"
        }
      ],
      "stateMutability": "nonpayable",
      "type": "function"
    },
    {
      "inputs": [
        {
          "internalType": "uint256",
          "name": "_planetId",
          "type": "uint256"
        },
        {
          "internalType": "uint256",
          "name": "_rocketId",
          "type": "uint256"
        },
        {
          "internalType": "uint256",
          "name": "_missionCost",
          "type": "uint256"
        }
      ],
      "name": "nuke",
      "outputs": [
        {
          "internalType": "uint256",
          "name": "",
          "type": "uint256"
        }
      ],
      "stateMutability": "nonpayable",
      "type": "function"
    },
    {
      "inputs": [],
      "name": "nukeCount",
      "outputs": [
        {
          "internalType": "uint256",
          "name": "",
          "type": "uint256"
        }
      ],
      "stateMutability": "view",
      "type": "function"
    },
    {
      "inputs": [],
      "name": "owner",
      "outputs": [
        {
          "internalType": "address",
          "name": "",
          "type": "address"
        }
      ],
      "stateMutability": "view",
      "type": "function"
    },
    {
      "inputs": [],
      "name": "planetType",
      "outputs": [
        {
          "internalType": "uint256",
          "name": "",
          "type": "uint256"
        }
      ],
      "stateMutability": "view",
      "type": "function"
    },
    {
      "inputs": [],
      "name": "renounceOwnership",
      "outputs": [],
      "stateMutability": "nonpayable",
      "type": "function"
    },
    {
      "inputs": [],
      "name": "rocketType",
      "outputs": [
        {
          "internalType": "uint256",
          "name": "",
          "type": "uint256"
        }
      ],
      "stateMutability": "view",
      "type": "function"
    },
    {
      "inputs": [
        {
          "internalType": "uint256",
          "name": "_tokenId",
          "type": "uint256"
        }
      ],
      "name": "stakeEthOnPlanet",
      "outputs": [
        {
          "internalType": "bool",
          "name": "",
          "type": "bool"
        }
      ],
      "stateMutability": "payable",
      "type": "function"
    },
    {
      "inputs": [
        {
          "internalType": "address",
          "name": "newOwner",
          "type": "address"
        }
      ],
      "name": "transferOwnership",
      "outputs": [],
      "stateMutability": "nonpayable",
      "type": "function"
    }
  ],
  "bytecode": "0x60806040523480156200001157600080fd5b5062000032620000266200003860201b60201c565b6200004060201b60201c565b62000104565b600033905090565b60008060009054906101000a900473ffffffffffffffffffffffffffffffffffffffff169050816000806101000a81548173ffffffffffffffffffffffffffffffffffffffff021916908373ffffffffffffffffffffffffffffffffffffffff1602179055508173ffffffffffffffffffffffffffffffffffffffff168173ffffffffffffffffffffffffffffffffffffffff167f8be0079c531659141344cd1fd0a4f28419497f9722a3daafe3b4186f6b6457e060405160405180910390a35050565b613c1080620001146000396000f3fe6080604052600436106101135760003560e01c80638da5cb5b116100a0578063c496d70811610064578063c496d708146103cf578063c4d66de8146103fa578063c9c9a9f214610423578063f1288a8d14610460578063f2fde38b1461047c57610113565b80638da5cb5b146102c25780639d5dc416146102ed578063b5bab0531461032a578063b8aa6f0214610367578063bd7047c41461039257610113565b806360c92db4116100e757806360c92db4146101fa5780636f21de4d14610225578063715018a6146102505780637328fd73146102675780638a0a866a1461029257610113565b8062d36f92146101185780632b8f107d146101555780633d48f9821461019257806360a138ed146101bd575b600080fd5b34801561012457600080fd5b5061013f600480360381019061013a9190612d32565b6104a5565b60405161014c91906134b5565b60405180910390f35b34801561016157600080fd5b5061017c60048036038101906101779190612d84565b61083d565b60405161018991906134b5565b60405180910390f35b34801561019e57600080fd5b506101a7610ff7565b6040516101b491906134b5565b60405180910390f35b3480156101c957600080fd5b506101e460048036038101906101df9190612d32565b610ffd565b6040516101f191906132c4565b60405180910390f35b34801561020657600080fd5b5061020f611501565b60405161021c91906134b5565b60405180910390f35b34801561023157600080fd5b5061023a611507565b60405161024791906134b5565b60405180910390f35b34801561025c57600080fd5b5061026561150d565b005b34801561027357600080fd5b5061027c611595565b60405161028991906132fa565b60405180910390f35b6102ac60048036038101906102a79190612d32565b6115bb565b6040516102b991906132c4565b60405180910390f35b3480156102ce57600080fd5b506102d76119bc565b6040516102e491906130ed565b60405180910390f35b3480156102f957600080fd5b50610314600480360381019061030f9190612d32565b6119e5565b60405161032191906134b5565b60405180910390f35b34801561033657600080fd5b50610351600480360381019061034c9190612d32565b611b50565b60405161035e91906134b5565b60405180910390f35b34801561037357600080fd5b5061037c611e8e565b60405161038991906134b5565b60405180910390f35b34801561039e57600080fd5b506103b960048036038101906103b49190612d32565b611e94565b6040516103c691906134b5565b60405180910390f35b3480156103db57600080fd5b506103e46122ba565b6040516103f191906130ed565b60405180910390f35b34801561040657600080fd5b50610421600480360381019061041c9190612c63565b6122e0565b005b34801561042f57600080fd5b5061044a60048036038101906104459190612cb5565b6126fe565b60405161045791906134b5565b60405180910390f35b61047a60048036038101906104759190612d32565b612837565b005b34801561048857600080fd5b506104a3600480360381019061049e9190612c63565b6128e2565b005b600081600073ffffffffffffffffffffffffffffffffffffffff16600160009054906101000a900473ffffffffffffffffffffffffffffffffffffffff1673ffffffffffffffffffffffffffffffffffffffff16633fa9f7f3836040518263ffffffff1660e01b815260040161051b91906134b5565b60206040518083038186803b15801561053357600080fd5b505afa158015610547573d6000803e3d6000fd5b505050506040513d601f19601f8201168201806040525081019061056b9190612c8c565b73ffffffffffffffffffffffffffffffffffffffff1614156105c2576040517f08c379a00000000000000000000000000000000000000000000000000000000081526004016105b990613335565b60405180910390fd5b600254600160009054906101000a900473ffffffffffffffffffffffffffffffffffffffff1673ffffffffffffffffffffffffffffffffffffffff1663e4b5b61a836040518263ffffffff1660e01b815260040161062091906134b5565b60206040518083038186803b15801561063857600080fd5b505afa15801561064c573d6000803e3d6000fd5b505050506040513d601f19601f820116820180604052508101906106709190612d5b565b146106b0576040517f08c379a00000000000000000000000000000000000000000000000000000000081526004016106a7906133b5565b60405180910390fd5b6000600160009054906101000a900473ffffffffffffffffffffffffffffffffffffffff1673ffffffffffffffffffffffffffffffffffffffff16633fa9f7f3856040518263ffffffff1660e01b815260040161070d91906134b5565b60206040518083038186803b15801561072557600080fd5b505afa158015610739573d6000803e3d6000fd5b505050506040513d601f19601f8201168201806040525081019061075d9190612c8c565b90506000600160009054906101000a900473ffffffffffffffffffffffffffffffffffffffff1673ffffffffffffffffffffffffffffffffffffffff166379b8d938836004546040518363ffffffff1660e01b81526004016107c09291906131e1565b60206040518083038186803b1580156107d857600080fd5b505afa1580156107ec573d6000803e3d6000fd5b505050506040513d601f19601f820116820180604052508101906108109190612d5b565b9050600061081d866129da565b90506108328183612a8490919063ffffffff16565b945050505050919050565b600083600073ffffffffffffffffffffffffffffffffffffffff16600160009054906101000a900473ffffffffffffffffffffffffffffffffffffffff1673ffffffffffffffffffffffffffffffffffffffff16633fa9f7f3836040518263ffffffff1660e01b81526004016108b391906134b5565b60206040518083038186803b1580156108cb57600080fd5b505afa1580156108df573d6000803e3d6000fd5b505050506040513d601f19601f820116820180604052508101906109039190612c8c565b73ffffffffffffffffffffffffffffffffffffffff16141561095a576040517f08c379a000000000000000000000000000000000000000000000000000000000815260040161095190613335565b60405180910390fd5b600254600160009054906101000a900473ffffffffffffffffffffffffffffffffffffffff1673ffffffffffffffffffffffffffffffffffffffff1663e4b5b61a836040518263ffffffff1660e01b81526004016109b891906134b5565b60206040518083038186803b1580156109d057600080fd5b505afa1580156109e4573d6000803e3d6000fd5b505050506040513d601f19601f82011682018060405250810190610a089190612d5b565b14610a48576040517f08c379a0000000000000000000000000000000000000000000000000000000008152600401610a3f906133b5565b60405180910390fd5b83600073ffffffffffffffffffffffffffffffffffffffff16600160009054906101000a900473ffffffffffffffffffffffffffffffffffffffff1673ffffffffffffffffffffffffffffffffffffffff16633fa9f7f3836040518263ffffffff1660e01b8152600401610abc91906134b5565b60206040518083038186803b158015610ad457600080fd5b505afa158015610ae8573d6000803e3d6000fd5b505050506040513d601f19601f82011682018060405250810190610b0c9190612c8c565b73ffffffffffffffffffffffffffffffffffffffff161415610b63576040517f08c379a0000000000000000000000000000000000000000000000000000000008152600401610b5a906133f5565b60405180910390fd5b600354600160009054906101000a900473ffffffffffffffffffffffffffffffffffffffff1673ffffffffffffffffffffffffffffffffffffffff1663e4b5b61a836040518263ffffffff1660e01b8152600401610bc191906134b5565b60206040518083038186803b158015610bd957600080fd5b505afa158015610bed573d6000803e3d6000fd5b505050506040513d601f19601f82011682018060405250810190610c119190612d5b565b14610c51576040517f08c379a0000000000000000000000000000000000000000000000000000000008152600401610c4890613375565b60405180910390fd5b6000600160009054906101000a900473ffffffffffffffffffffffffffffffffffffffff1673ffffffffffffffffffffffffffffffffffffffff16633fa9f7f3876040518263ffffffff1660e01b8152600401610cae91906134b5565b60206040518083038186803b158015610cc657600080fd5b505afa158015610cda573d6000803e3d6000fd5b505050506040513d601f19601f82011682018060405250810190610cfe9190612c8c565b90503373ffffffffffffffffffffffffffffffffffffffff168173ffffffffffffffffffffffffffffffffffffffff1614610d6e576040517f08c379a0000000000000000000000000000000000000000000000000000000008152600401610d6590613395565b60405180910390fd5b670de0b6b3a7640000851015610db9576040517f08c379a0000000000000000000000000000000000000000000000000000000008152600401610db090613315565b60405180910390fd5b84600160009054906101000a900473ffffffffffffffffffffffffffffffffffffffff1673ffffffffffffffffffffffffffffffffffffffff1662fdd58e336004546040518363ffffffff1660e01b8152600401610e189291906131e1565b60206040518083038186803b158015610e3057600080fd5b505afa158015610e44573d6000803e3d6000fd5b505050506040513d601f19601f82011682018060405250810190610e689190612d5b565b1015610ea9576040517f08c379a0000000000000000000000000000000000000000000000000000000008152600401610ea090613415565b60405180910390fd5b6040518060a00160405280868152602001878152602001888152602001601443610ed391906135be565b8152602001600015158152506009600060065481526020019081526020016000206000820151816000015560208201518160010155604082015181600201556060820151816003015560808201518160040160006101000a81548160ff021916908315150217905550905050600160009054906101000a900473ffffffffffffffffffffffffffffffffffffffff1673ffffffffffffffffffffffffffffffffffffffff1663f242432a3330600454896040518563ffffffff1660e01b8152600401610fa29493929190613160565b600060405180830381600087803b158015610fbc57600080fd5b505af1158015610fd0573d6000803e3d6000fd5b5050505060066000815480929190610fe7906137ee565b9190505593505050509392505050565b60065481565b600080611009836119e5565b9050600060096000858152602001908152602001600020905060008160030154905080431161106d576040517f08c379a000000000000000000000000000000000000000000000000000000000815260040161106490613495565b60405180910390fd5b60006110bd700100000000000000000000000000000000834060405160200161109691906132df565b6040516020818303038152906040528051906020012060001c612a9a90919063ffffffff16565b905083811161123d576000600160009054906101000a900473ffffffffffffffffffffffffffffffffffffffff1673ffffffffffffffffffffffffffffffffffffffff16633fa9f7f385600201546040518263ffffffff1660e01b815260040161112791906134b5565b60206040518083038186803b15801561113f57600080fd5b505afa158015611153573d6000803e3d6000fd5b505050506040513d601f19601f820116820180604052508101906111779190612c8c565b9050600160009054906101000a900473ffffffffffffffffffffffffffffffffffffffff1673ffffffffffffffffffffffffffffffffffffffff1663f242432a308360045488600001546040518563ffffffff1660e01b81526004016111e09493929190613160565b600060405180830381600087803b1580156111fa57600080fd5b505af115801561120e573d6000803e3d6000fd5b5050505060018460040160006101000a81548160ff0219169083151502179055506000955050505050506114fc565b6000600160009054906101000a900473ffffffffffffffffffffffffffffffffffffffff1673ffffffffffffffffffffffffffffffffffffffff16633fa9f7f385600201546040518263ffffffff1660e01b815260040161129e91906134b5565b60206040518083038186803b1580156112b657600080fd5b505afa1580156112ca573d6000803e3d6000fd5b505050506040513d601f19601f820116820180604052508101906112ee9190612c8c565b90506000600160009054906101000a900473ffffffffffffffffffffffffffffffffffffffff1673ffffffffffffffffffffffffffffffffffffffff16633fa9f7f386600101546040518263ffffffff1660e01b815260040161135191906134b5565b60206040518083038186803b15801561136957600080fd5b505afa15801561137d573d6000803e3d6000fd5b505050506040513d601f19601f820116820180604052508101906113a19190612c8c565b9050600160009054906101000a900473ffffffffffffffffffffffffffffffffffffffff1673ffffffffffffffffffffffffffffffffffffffff1663f242432a308360045489600001546040518563ffffffff1660e01b815260040161140a9493929190613160565b600060405180830381600087803b15801561142457600080fd5b505af1158015611438573d6000803e3d6000fd5b50505050600160009054906101000a900473ffffffffffffffffffffffffffffffffffffffff1673ffffffffffffffffffffffffffffffffffffffff1663f242432a8383886002015460006040518563ffffffff1660e01b81526004016114a29493929190613108565b600060405180830381600087803b1580156114bc57600080fd5b505af11580156114d0573d6000803e3d6000fd5b5050505060018560040160006101000a81548160ff021916908315150217905550600196505050505050505b919050565b60025481565b60045481565b611515612ab0565b73ffffffffffffffffffffffffffffffffffffffff166115336119bc565b73ffffffffffffffffffffffffffffffffffffffff1614611589576040517f08c379a0000000000000000000000000000000000000000000000000000000008152600401611580906133d5565b60405180910390fd5b6115936000612ab8565b565b600160009054906101000a900473ffffffffffffffffffffffffffffffffffffffff1681565b600081600073ffffffffffffffffffffffffffffffffffffffff16600160009054906101000a900473ffffffffffffffffffffffffffffffffffffffff1673ffffffffffffffffffffffffffffffffffffffff16633fa9f7f3836040518263ffffffff1660e01b815260040161163191906134b5565b60206040518083038186803b15801561164957600080fd5b505afa15801561165d573d6000803e3d6000fd5b505050506040513d601f19601f820116820180604052508101906116819190612c8c565b73ffffffffffffffffffffffffffffffffffffffff1614156116d8576040517f08c379a00000000000000000000000000000000000000000000000000000000081526004016116cf90613335565b60405180910390fd5b600254600160009054906101000a900473ffffffffffffffffffffffffffffffffffffffff1673ffffffffffffffffffffffffffffffffffffffff1663e4b5b61a836040518263ffffffff1660e01b815260040161173691906134b5565b60206040518083038186803b15801561174e57600080fd5b505afa158015611762573d6000803e3d6000fd5b505050506040513d601f19601f820116820180604052508101906117869190612d5b565b146117c6576040517f08c379a00000000000000000000000000000000000000000000000000000000081526004016117bd906133b5565b60405180910390fd5b60003411611809576040517f08c379a000000000000000000000000000000000000000000000000000000000815260040161180090613435565b60405180910390fd5b6000600160009054906101000a900473ffffffffffffffffffffffffffffffffffffffff1673ffffffffffffffffffffffffffffffffffffffff16633fa9f7f3856040518263ffffffff1660e01b815260040161186691906134b5565b60206040518083038186803b15801561187e57600080fd5b505afa158015611892573d6000803e3d6000fd5b505050506040513d601f19601f820116820180604052508101906118b69190612c8c565b9050600160009054906101000a900473ffffffffffffffffffffffffffffffffffffffff1673ffffffffffffffffffffffffffffffffffffffff1663a1eb700160045483611903886129da565b6040518463ffffffff1660e01b8152600401611921939291906134f9565b600060405180830381600087803b15801561193b57600080fd5b505af115801561194f573d6000803e3d6000fd5b50505050611979346007600087815260200190815260200160002054612a8490919063ffffffff16565b600760008681526020019081526020016000208190555061199934612837565b426008600086815260200190815260200160002081905550600192505050919050565b60008060009054906101000a900473ffffffffffffffffffffffffffffffffffffffff16905090565b60006006548210611a2b576040517f08c379a0000000000000000000000000000000000000000000000000000000008152600401611a2290613455565b60405180910390fd5b60006009600084815260200190815260200160002090508060040160009054906101000a900460ff1615611a94576040517f08c379a0000000000000000000000000000000000000000000000000000000008152600401611a8b90613475565b60405180910390fd5b6000611ade670de0b6b3a7640000611ad08460000154600760008760020154815260200190815260200160002054612a8490919063ffffffff16565b612a8490919063ffffffff16565b9050611b4781611b39700100000000000000000000000000000000611b2b670de0b6b3a7640000600760008960020154815260200190815260200160002054612a8490919063ffffffff16565b612b7c90919063ffffffff16565b612a9a90919063ffffffff16565b92505050919050565b600080600160009054906101000a900473ffffffffffffffffffffffffffffffffffffffff1673ffffffffffffffffffffffffffffffffffffffff16633fa9f7f3846040518263ffffffff1660e01b8152600401611bae91906134b5565b60206040518083038186803b158015611bc657600080fd5b505afa158015611bda573d6000803e3d6000fd5b505050506040513d601f19601f82011682018060405250810190611bfe9190612c8c565b9050670de0b6b3a7640000600160009054906101000a900473ffffffffffffffffffffffffffffffffffffffff1673ffffffffffffffffffffffffffffffffffffffff1662fdd58e336004546040518363ffffffff1660e01b8152600401611c679291906131e1565b60206040518083038186803b158015611c7f57600080fd5b505afa158015611c93573d6000803e3d6000fd5b505050506040513d601f19601f82011682018060405250810190611cb79190612d5b565b1015611cf8576040517f08c379a0000000000000000000000000000000000000000000000000000000008152600401611cef90613415565b60405180910390fd5b600160009054906101000a900473ffffffffffffffffffffffffffffffffffffffff1673ffffffffffffffffffffffffffffffffffffffff1663717b7f3633600454670de0b6b3a76400006040518463ffffffff1660e01b8152600401611d619392919061328d565b602060405180830381600087803b158015611d7b57600080fd5b505af1158015611d8f573d6000803e3d6000fd5b505050506040513d601f19601f82011682018060405250810190611db39190612d09565b50600160009054906101000a900473ffffffffffffffffffffffffffffffffffffffff1673ffffffffffffffffffffffffffffffffffffffff166398b4ad6f8260035486604051602001611e0791906130bc565b6040516020818303038152906040526040518463ffffffff1660e01b8152600401611e349392919061324f565b602060405180830381600087803b158015611e4e57600080fd5b505af1158015611e62573d6000803e3d6000fd5b505050506040513d601f19601f82011682018060405250810190611e869190612d5b565b915050919050565b60035481565b600081600073ffffffffffffffffffffffffffffffffffffffff16600160009054906101000a900473ffffffffffffffffffffffffffffffffffffffff1673ffffffffffffffffffffffffffffffffffffffff16633fa9f7f3836040518263ffffffff1660e01b8152600401611f0a91906134b5565b60206040518083038186803b158015611f2257600080fd5b505afa158015611f36573d6000803e3d6000fd5b505050506040513d601f19601f82011682018060405250810190611f5a9190612c8c565b73ffffffffffffffffffffffffffffffffffffffff161415611fb1576040517f08c379a0000000000000000000000000000000000000000000000000000000008152600401611fa890613335565b60405180910390fd5b600254600160009054906101000a900473ffffffffffffffffffffffffffffffffffffffff1673ffffffffffffffffffffffffffffffffffffffff1663e4b5b61a836040518263ffffffff1660e01b815260040161200f91906134b5565b60206040518083038186803b15801561202757600080fd5b505afa15801561203b573d6000803e3d6000fd5b505050506040513d601f19601f8201168201806040525081019061205f9190612d5b565b1461209f576040517f08c379a0000000000000000000000000000000000000000000000000000000008152600401612096906133b5565b60405180910390fd5b6000600160009054906101000a900473ffffffffffffffffffffffffffffffffffffffff1673ffffffffffffffffffffffffffffffffffffffff16633fa9f7f3856040518263ffffffff1660e01b81526004016120fc91906134b5565b60206040518083038186803b15801561211457600080fd5b505afa158015612128573d6000803e3d6000fd5b505050506040513d601f19601f8201168201806040525081019061214c9190612c8c565b9050600160009054906101000a900473ffffffffffffffffffffffffffffffffffffffff1673ffffffffffffffffffffffffffffffffffffffff1663a1eb700160045483612199886129da565b6040518463ffffffff1660e01b81526004016121b7939291906134f9565b600060405180830381600087803b1580156121d157600080fd5b505af11580156121e5573d6000803e3d6000fd5b50505050426008600086815260200190815260200160002081905550600160009054906101000a900473ffffffffffffffffffffffffffffffffffffffff1673ffffffffffffffffffffffffffffffffffffffff1662ffc135600454836040518363ffffffff1660e01b815260040161225f9291906134d0565b602060405180830381600087803b15801561227957600080fd5b505af115801561228d573d6000803e3d6000fd5b505050506040513d601f19601f820116820180604052508101906122b19190612d5b565b92505050919050565b600560009054906101000a900473ffffffffffffffffffffffffffffffffffffffff1681565b6122e8612ab0565b73ffffffffffffffffffffffffffffffffffffffff166123066119bc565b73ffffffffffffffffffffffffffffffffffffffff161461235c576040517f08c379a0000000000000000000000000000000000000000000000000000000008152600401612353906133d5565b60405180910390fd5b80600160006101000a81548173ffffffffffffffffffffffffffffffffffffffff021916908373ffffffffffffffffffffffffffffffffffffffff160217905550600160009054906101000a900473ffffffffffffffffffffffffffffffffffffffff1673ffffffffffffffffffffffffffffffffffffffff166305caa0ff60006040518263ffffffff1660e01b81526004016123f991906132c4565b602060405180830381600087803b15801561241357600080fd5b505af1158015612427573d6000803e3d6000fd5b505050506040513d601f19601f8201168201806040525081019061244b9190612d5b565b600481905550600160009054906101000a900473ffffffffffffffffffffffffffffffffffffffff1673ffffffffffffffffffffffffffffffffffffffff166305caa0ff60016040518263ffffffff1660e01b81526004016124ad91906132c4565b602060405180830381600087803b1580156124c757600080fd5b505af11580156124db573d6000803e3d6000fd5b505050506040513d601f19601f820116820180604052508101906124ff9190612d5b565b600281905550600160009054906101000a900473ffffffffffffffffffffffffffffffffffffffff1673ffffffffffffffffffffffffffffffffffffffff166305caa0ff60016040518263ffffffff1660e01b815260040161256191906132c4565b602060405180830381600087803b15801561257b57600080fd5b505af115801561258f573d6000803e3d6000fd5b505050506040513d601f19601f820116820180604052508101906125b39190612d5b565b600381905550600160009054906101000a900473ffffffffffffffffffffffffffffffffffffffff1673ffffffffffffffffffffffffffffffffffffffff1663a22cb4653360016040518363ffffffff1660e01b81526004016126179291906131b8565b600060405180830381600087803b15801561263157600080fd5b505af1158015612645573d6000803e3d6000fd5b50505050600160009054906101000a900473ffffffffffffffffffffffffffffffffffffffff1673ffffffffffffffffffffffffffffffffffffffff16630f7fa72f336002546040518363ffffffff1660e01b81526004016126a89291906131e1565b602060405180830381600087803b1580156126c257600080fd5b505af11580156126d6573d6000803e3d6000fd5b505050506040513d601f19601f820116820180604052508101906126fa9190612d09565b5050565b6000612708612ab0565b73ffffffffffffffffffffffffffffffffffffffff166127266119bc565b73ffffffffffffffffffffffffffffffffffffffff161461277c576040517f08c379a0000000000000000000000000000000000000000000000000000000008152600401612773906133d5565b60405180910390fd5b600160009054906101000a900473ffffffffffffffffffffffffffffffffffffffff1673ffffffffffffffffffffffffffffffffffffffff166398b4ad6f84600254856040518463ffffffff1660e01b81526004016127dd9392919061324f565b602060405180830381600087803b1580156127f757600080fd5b505af115801561280b573d6000803e3d6000fd5b505050506040513d601f19601f8201168201806040525081019061282f9190612d5b565b905092915050565b600560009054906101000a900473ffffffffffffffffffffffffffffffffffffffff1673ffffffffffffffffffffffffffffffffffffffff1663e8eda9df73eeeeeeeeeeeeeeeeeeeeeeeeeeeeeeeeeeeeeeee833060006040518563ffffffff1660e01b81526004016128ad949392919061320a565b600060405180830381600087803b1580156128c757600080fd5b505af11580156128db573d6000803e3d6000fd5b5050505050565b6128ea612ab0565b73ffffffffffffffffffffffffffffffffffffffff166129086119bc565b73ffffffffffffffffffffffffffffffffffffffff161461295e576040517f08c379a0000000000000000000000000000000000000000000000000000000008152600401612955906133d5565b60405180910390fd5b600073ffffffffffffffffffffffffffffffffffffffff168173ffffffffffffffffffffffffffffffffffffffff1614156129ce576040517f08c379a00000000000000000000000000000000000000000000000000000000081526004016129c590613355565b60405180910390fd5b6129d781612ab8565b50565b600080600860008481526020019081526020016000205414612a7f576000600860008481526020019081526020016000205442612a17919061369f565b90506000600a612a31600184612a9a90919063ffffffff16565b11612a4f57612a4a600183612a9a90919063ffffffff16565b612a52565b600a5b9050612a7a816007600087815260200190815260200160002054612b7c90919063ffffffff16565b925050505b919050565b60008183612a9291906135be565b905092915050565b60008183612aa89190613614565b905092915050565b600033905090565b60008060009054906101000a900473ffffffffffffffffffffffffffffffffffffffff169050816000806101000a81548173ffffffffffffffffffffffffffffffffffffffff021916908373ffffffffffffffffffffffffffffffffffffffff1602179055508173ffffffffffffffffffffffffffffffffffffffff168173ffffffffffffffffffffffffffffffffffffffff167f8be0079c531659141344cd1fd0a4f28419497f9722a3daafe3b4186f6b6457e060405160405180910390a35050565b60008183612b8a9190613645565b905092915050565b6000612ba5612ba084613555565b613530565b905082815260208101848484011115612bbd57600080fd5b612bc884828561377b565b509392505050565b600081359050612bdf81613b95565b92915050565b600081519050612bf481613b95565b92915050565b600081519050612c0981613bac565b92915050565b600082601f830112612c2057600080fd5b8135612c30848260208601612b92565b91505092915050565b600081359050612c4881613bc3565b92915050565b600081519050612c5d81613bc3565b92915050565b600060208284031215612c7557600080fd5b6000612c8384828501612bd0565b91505092915050565b600060208284031215612c9e57600080fd5b6000612cac84828501612be5565b91505092915050565b60008060408385031215612cc857600080fd5b6000612cd685828601612bd0565b925050602083013567ffffffffffffffff811115612cf357600080fd5b612cff85828601612c0f565b9150509250929050565b600060208284031215612d1b57600080fd5b6000612d2984828501612bfa565b91505092915050565b600060208284031215612d4457600080fd5b6000612d5284828501612c39565b91505092915050565b600060208284031215612d6d57600080fd5b6000612d7b84828501612c4e565b91505092915050565b600080600060608486031215612d9957600080fd5b6000612da786828701612c39565b9350506020612db886828701612c39565b9250506040612dc986828701612c39565b9150509250925092565b612ddc816136d3565b82525050565b612deb816136e5565b82525050565b612dfa816136f1565b82525050565b612e0981613733565b82525050565b612e1881613757565b82525050565b612e2781613769565b82525050565b6000612e3882613586565b612e4281856135a2565b9350612e5281856020860161378a565b612e5b816138ce565b840191505092915050565b6000612e736017836135a2565b9150612e7e826138df565b602082019050919050565b6000612e966015836135a2565b9150612ea182613908565b602082019050919050565b6000612eb96026836135a2565b9150612ec482613931565b604082019050919050565b6000612edc6008836135b3565b9150612ee782613980565b600882019050919050565b6000612eff6016836135a2565b9150612f0a826139a9565b602082019050919050565b6000612f226016836135a2565b9150612f2d826139d2565b602082019050919050565b6000612f456016836135a2565b9150612f50826139fb565b602082019050919050565b6000612f686001836135b3565b9150612f7382613a24565b600182019050919050565b6000612f8b6020836135a2565b9150612f9682613a4d565b602082019050919050565b6000612fae6015836135a2565b9150612fb982613a76565b602082019050919050565b6000612fd16023836135a2565b9150612fdc82613a9f565b604082019050919050565b6000612ff4601e836135a2565b9150612fff82613aee565b602082019050919050565b6000613017600083613591565b915061302282613b17565b600082019050919050565b600061303a600e836135a2565b915061304582613b1a565b602082019050919050565b600061305d6020836135a2565b915061306882613b43565b602082019050919050565b6000613080601a836135a2565b915061308b82613b6c565b602082019050919050565b61309f81613729565b82525050565b6130b66130b182613729565b613837565b82525050565b60006130c782612ecf565b91506130d382846130a5565b6020820191506130e282612f5b565b915081905092915050565b60006020820190506131026000830184612dd3565b92915050565b600060a08201905061311d6000830187612dd3565b61312a6020830186612dd3565b6131376040830185613096565b6131446060830184612e1e565b81810360808301526131558161300a565b905095945050505050565b600060a0820190506131756000830187612dd3565b6131826020830186612dd3565b61318f6040830185613096565b61319c6060830184613096565b81810360808301526131ad8161300a565b905095945050505050565b60006040820190506131cd6000830185612dd3565b6131da6020830184612de2565b9392505050565b60006040820190506131f66000830185612dd3565b6132036020830184613096565b9392505050565b600060808201905061321f6000830187612dd3565b61322c6020830186613096565b6132396040830185612dd3565b6132466060830184612e0f565b95945050505050565b60006060820190506132646000830186612dd3565b6132716020830185613096565b81810360408301526132838184612e2d565b9050949350505050565b60006060820190506132a26000830186612dd3565b6132af6020830185613096565b6132bc6040830184613096565b949350505050565b60006020820190506132d96000830184612de2565b92915050565b60006020820190506132f46000830184612df1565b92915050565b600060208201905061330f6000830184612e00565b92915050565b6000602082019050818103600083015261332e81612e66565b9050919050565b6000602082019050818103600083015261334e81612e89565b9050919050565b6000602082019050818103600083015261336e81612eac565b9050919050565b6000602082019050818103600083015261338e81612ef2565b9050919050565b600060208201905081810360008301526133ae81612f15565b9050919050565b600060208201905081810360008301526133ce81612f38565b9050919050565b600060208201905081810360008301526133ee81612f7e565b9050919050565b6000602082019050818103600083015261340e81612fa1565b9050919050565b6000602082019050818103600083015261342e81612fc4565b9050919050565b6000602082019050818103600083015261344e81612fe7565b9050919050565b6000602082019050818103600083015261346e8161302d565b9050919050565b6000602082019050818103600083015261348e81613050565b9050919050565b600060208201905081810360008301526134ae81613073565b9050919050565b60006020820190506134ca6000830184613096565b92915050565b60006040820190506134e56000830185613096565b6134f26020830184612dd3565b9392505050565b600060608201905061350e6000830186613096565b61351b6020830185612dd3565b6135286040830184613096565b949350505050565b600061353a61354b565b905061354682826137bd565b919050565b6000604051905090565b600067ffffffffffffffff8211156135705761356f61389f565b5b613579826138ce565b9050602081019050919050565b600081519050919050565b600082825260208201905092915050565b600082825260208201905092915050565b600081905092915050565b60006135c982613729565b91506135d483613729565b9250827fffffffffffffffffffffffffffffffffffffffffffffffffffffffffffffffff0382111561360957613608613841565b5b828201905092915050565b600061361f82613729565b915061362a83613729565b92508261363a57613639613870565b5b828204905092915050565b600061365082613729565b915061365b83613729565b9250817fffffffffffffffffffffffffffffffffffffffffffffffffffffffffffffffff048311821515161561369457613693613841565b5b828202905092915050565b60006136aa82613729565b91506136b583613729565b9250828210156136c8576136c7613841565b5b828203905092915050565b60006136de82613709565b9050919050565b60008115159050919050565b6000819050919050565b600061ffff82169050919050565b600073ffffffffffffffffffffffffffffffffffffffff82169050919050565b6000819050919050565b600061373e82613745565b9050919050565b600061375082613709565b9050919050565b6000613762826136fb565b9050919050565b600061377482613729565b9050919050565b82818337600083830152505050565b60005b838110156137a857808201518184015260208101905061378d565b838111156137b7576000848401525b50505050565b6137c6826138ce565b810181811067ffffffffffffffff821117156137e5576137e461389f565b5b80604052505050565b60006137f982613729565b91507fffffffffffffffffffffffffffffffffffffffffffffffffffffffffffffffff82141561382c5761382b613841565b5b600182019050919050565b6000819050919050565b7f4e487b7100000000000000000000000000000000000000000000000000000000600052601160045260246000fd5b7f4e487b7100000000000000000000000000000000000000000000000000000000600052601260045260246000fd5b7f4e487b7100000000000000000000000000000000000000000000000000000000600052604160045260246000fd5b6000601f19601f8301169050919050565b7f4d697373696f6e20636f737420697320746f6f206c6f77000000000000000000600082015250565b7f506c616e657420646f6573206e6f742065786973740000000000000000000000600082015250565b7f4f776e61626c653a206e6577206f776e657220697320746865207a65726f206160008201527f6464726573730000000000000000000000000000000000000000000000000000602082015250565b7f7b706c616e65743a000000000000000000000000000000000000000000000000600082015250565b7f526f636b6574206973206e6f74206120726f636b657400000000000000000000600082015250565b7f41747461636b6572206973206e6f742073656e64657200000000000000000000600082015250565b7f506c616e6574206973206e6f74206120706c616e657400000000000000000000600082015250565b7f7d00000000000000000000000000000000000000000000000000000000000000600082015250565b7f4f776e61626c653a2063616c6c6572206973206e6f7420746865206f776e6572600082015250565b7f526f636b657420646f6573206e6f742065786973740000000000000000000000600082015250565b7f53656e64657220646f6573206e6f74206861766520656e6f7567682062616c6160008201527f6e63650000000000000000000000000000000000000000000000000000000000602082015250565b7f4e6f207374616b696e6720616d6f756e74206973206d656e74696f6e65640000600082015250565b50565b7f496e76616c6964206e756b654964000000000000000000000000000000000000600082015250565b7f41747461636b2068617320616c7265616479206265656e207265736f6c766564600082015250565b7f41747461636b206e6f742066696e616c697a61626c6520796574000000000000600082015250565b613b9e816136d3565b8114613ba957600080fd5b50565b613bb5816136e5565b8114613bc057600080fd5b50565b613bcc81613729565b8114613bd757600080fd5b5056fea26469706673582212201695f81570943edd72a0f343830264c178ce1d93b801ef0e02eeb5599fae983d64736f6c63430008040033",
  "linkReferences": {},
  "deployedLinkReferences": {}
}