{
  "_format": "hh-sol-artifact-1",
  "contractName": "SpaceMafia",
  "sourceName": "contracts/SpaceMafia.sol",
  "abi": [
    {
      "inputs": [],
      "stateMutability": "nonpayable",
      "type": "constructor"
    },
    {
      "anonymous": false,
      "inputs": [
        {
          "indexed": true,
          "internalType": "address",
          "name": "previousOwner",
          "type": "address"
        },
        {
          "indexed": true,
          "internalType": "address",
          "name": "newOwner",
          "type": "address"
        }
      ],
      "name": "OwnershipTransferred",
      "type": "event"
    },
    {
      "inputs": [],
      "name": "ERC1155_BATCH_RECEIVED",
      "outputs": [
        {
          "internalType": "bytes4",
          "name": "",
          "type": "bytes4"
        }
      ],
      "stateMutability": "view",
      "type": "function"
    },
    {
      "inputs": [],
      "name": "ERC1155_RECEIVED",
      "outputs": [
        {
          "internalType": "bytes4",
          "name": "",
          "type": "bytes4"
        }
      ],
      "stateMutability": "view",
      "type": "function"
    },
    {
      "inputs": [
        {
          "internalType": "uint256",
          "name": "_random",
          "type": "uint256"
        },
        {
          "internalType": "uint256",
          "name": "_threshold",
          "type": "uint256"
        }
      ],
      "name": "checkRandom",
      "outputs": [
        {
          "internalType": "bool",
          "name": "",
          "type": "bool"
        }
      ],
      "stateMutability": "pure",
      "type": "function"
    },
    {
      "inputs": [
        {
          "internalType": "uint256",
          "name": "_tokenId",
          "type": "uint256"
        }
      ],
      "name": "claimDividends",
      "outputs": [
        {
          "internalType": "uint256",
          "name": "",
          "type": "uint256"
        }
      ],
      "stateMutability": "nonpayable",
      "type": "function"
    },
    {
      "inputs": [
        {
          "internalType": "uint256",
          "name": "_tokenId",
          "type": "uint256"
        }
      ],
      "name": "claimableDividends",
      "outputs": [
        {
          "internalType": "uint256",
          "name": "",
          "type": "uint256"
        }
      ],
      "stateMutability": "view",
      "type": "function"
    },
    {
      "inputs": [
        {
          "internalType": "uint256",
          "name": "_nukeId",
          "type": "uint256"
        }
      ],
      "name": "completeAttack",
      "outputs": [
        {
          "internalType": "bool",
          "name": "",
          "type": "bool"
        }
      ],
      "stateMutability": "nonpayable",
      "type": "function"
    },
    {
      "inputs": [
        {
          "internalType": "uint256",
          "name": "_nukeId",
          "type": "uint256"
        }
      ],
      "name": "defenseProbability",
      "outputs": [
        {
          "internalType": "uint256",
          "name": "",
          "type": "uint256"
        }
      ],
      "stateMutability": "view",
      "type": "function"
    },
    {
      "inputs": [
        {
          "internalType": "uint256",
          "name": "amount",
          "type": "uint256"
        }
      ],
      "name": "depositInAAVE",
      "outputs": [],
      "stateMutability": "payable",
      "type": "function"
    },
    {
      "inputs": [],
      "name": "galaxyToken",
      "outputs": [
        {
          "internalType": "contract GalaxyToken",
          "name": "",
          "type": "address"
        }
      ],
      "stateMutability": "view",
      "type": "function"
    },
    {
      "inputs": [
        {
          "internalType": "address",
          "name": "_account",
          "type": "address"
        }
      ],
      "name": "getMafiaBalanceOf",
      "outputs": [
        {
          "internalType": "uint256",
          "name": "",
          "type": "uint256"
        }
      ],
      "stateMutability": "view",
      "type": "function"
    },
    {
      "inputs": [],
      "name": "getMafiaTokenSupply",
      "outputs": [
        {
          "internalType": "uint256",
          "name": "",
          "type": "uint256"
        }
      ],
      "stateMutability": "view",
      "type": "function"
    },
    {
      "inputs": [
        {
          "internalType": "uint256",
          "name": "_id",
          "type": "uint256"
        }
      ],
      "name": "getPlanet",
      "outputs": [
        {
          "internalType": "address",
          "name": "",
          "type": "address"
        },
        {
          "internalType": "string",
          "name": "",
          "type": "string"
        }
      ],
      "stateMutability": "view",
      "type": "function"
    },
    {
      "inputs": [],
      "name": "getPlanetSupply",
      "outputs": [
        {
          "internalType": "uint256",
          "name": "",
          "type": "uint256"
        }
      ],
      "stateMutability": "view",
      "type": "function"
    },
    {
      "inputs": [
        {
          "internalType": "address",
          "name": "_account",
          "type": "address"
        }
      ],
      "name": "getPlanetsOf",
      "outputs": [
        {
          "internalType": "uint256[]",
          "name": "_out",
          "type": "uint256[]"
        }
      ],
      "stateMutability": "view",
      "type": "function"
    },
    {
      "inputs": [
        {
          "internalType": "bytes32",
          "name": "_entropy",
          "type": "bytes32"
        }
      ],
      "name": "getRandom",
      "outputs": [
        {
          "internalType": "uint256",
          "name": "",
          "type": "uint256"
        }
      ],
      "stateMutability": "pure",
      "type": "function"
    },
    {
      "inputs": [
        {
          "internalType": "uint256",
          "name": "_id",
          "type": "uint256"
        }
      ],
      "name": "getRocket",
      "outputs": [
        {
          "internalType": "address",
          "name": "",
          "type": "address"
        },
        {
          "internalType": "string",
          "name": "",
          "type": "string"
        }
      ],
      "stateMutability": "view",
      "type": "function"
    },
    {
      "inputs": [],
      "name": "getRocketSupply",
      "outputs": [
        {
          "internalType": "uint256",
          "name": "",
          "type": "uint256"
        }
      ],
      "stateMutability": "view",
      "type": "function"
    },
    {
      "inputs": [
        {
          "internalType": "uint256",
          "name": "_numerator",
          "type": "uint256"
        },
        {
          "internalType": "uint256",
          "name": "_denominator",
          "type": "uint256"
        }
      ],
      "name": "getThreshold",
      "outputs": [
        {
          "internalType": "uint256",
          "name": "",
          "type": "uint256"
        }
      ],
      "stateMutability": "pure",
      "type": "function"
    },
    {
      "inputs": [
        {
          "internalType": "uint256",
          "name": "_nukeId",
          "type": "uint256"
        },
        {
          "internalType": "uint256",
          "name": "_hijackCost",
          "type": "uint256"
        }
      ],
      "name": "hijack",
      "outputs": [
        {
          "internalType": "bool",
          "name": "",
          "type": "bool"
        }
      ],
      "stateMutability": "nonpayable",
      "type": "function"
    },
    {
      "inputs": [
        {
          "internalType": "address",
          "name": "_galaxyToken",
          "type": "address"
        }
      ],
      "name": "initialize",
      "outputs": [],
      "stateMutability": "nonpayable",
      "type": "function"
    },
    {
      "inputs": [
        {
          "internalType": "uint256",
          "name": "",
          "type": "uint256"
        }
      ],
      "name": "lastStakedTime",
      "outputs": [
        {
          "internalType": "uint256",
          "name": "",
          "type": "uint256"
        }
      ],
      "stateMutability": "view",
      "type": "function"
    },
    {
      "inputs": [],
      "name": "lendingpool",
      "outputs": [
        {
          "internalType": "address",
          "name": "",
          "type": "address"
        }
      ],
      "stateMutability": "view",
      "type": "function"
    },
    {
      "inputs": [],
      "name": "mafiaToken",
      "outputs": [
        {
          "internalType": "uint256",
          "name": "",
          "type": "uint256"
        }
      ],
      "stateMutability": "view",
      "type": "function"
    },
    {
      "inputs": [
        {
          "internalType": "address",
          "name": "_account",
          "type": "address"
        },
        {
          "internalType": "string",
          "name": "_tokenURI",
          "type": "string"
        }
      ],
      "name": "mintPlanet",
      "outputs": [
        {
          "internalType": "uint256",
          "name": "_id",
          "type": "uint256"
        }
      ],
      "stateMutability": "nonpayable",
      "type": "function"
    },
    {
      "inputs": [
        {
          "internalType": "uint256",
          "name": "_planetId",
          "type": "uint256"
        }
      ],
      "name": "mintRocket",
      "outputs": [
        {
          "internalType": "uint256",
          "name": "_id",
          "type": "uint256"
        }
      ],
      "stateMutability": "nonpayable",
      "type": "function"
    },
    {
      "inputs": [
        {
          "internalType": "uint256",
          "name": "_planetId",
          "type": "uint256"
        },
        {
          "internalType": "uint256",
          "name": "_rocketId",
          "type": "uint256"
        },
        {
          "internalType": "uint256",
          "name": "_missionCost",
          "type": "uint256"
        }
      ],
      "name": "nuke",
      "outputs": [
        {
          "internalType": "uint256",
          "name": "",
          "type": "uint256"
        }
      ],
      "stateMutability": "nonpayable",
      "type": "function"
    },
    {
      "inputs": [],
      "name": "nukeCount",
      "outputs": [
        {
          "internalType": "uint256",
          "name": "",
          "type": "uint256"
        }
      ],
      "stateMutability": "view",
      "type": "function"
    },
    {
      "inputs": [
        {
          "internalType": "uint256",
          "name": "",
          "type": "uint256"
        }
      ],
      "name": "nukes",
      "outputs": [
        {
          "internalType": "uint256",
          "name": "totalStake",
          "type": "uint256"
        },
        {
          "internalType": "uint256",
          "name": "rocketId",
          "type": "uint256"
        },
        {
          "internalType": "uint256",
          "name": "targetPlanet",
          "type": "uint256"
        },
        {
          "internalType": "uint256",
          "name": "finalityBlock",
          "type": "uint256"
        },
        {
          "internalType": "uint256",
          "name": "missionCost",
          "type": "uint256"
        },
        {
          "internalType": "bool",
          "name": "complete",
          "type": "bool"
        }
      ],
      "stateMutability": "view",
      "type": "function"
    },
    {
      "inputs": [
        {
          "internalType": "address",
          "name": "operator",
          "type": "address"
        },
        {
          "internalType": "address",
          "name": "from",
          "type": "address"
        },
        {
          "internalType": "uint256[]",
          "name": "ids",
          "type": "uint256[]"
        },
        {
          "internalType": "uint256[]",
          "name": "values",
          "type": "uint256[]"
        },
        {
          "internalType": "bytes",
          "name": "data",
          "type": "bytes"
        }
      ],
      "name": "onERC1155BatchReceived",
      "outputs": [
        {
          "internalType": "bytes4",
          "name": "",
          "type": "bytes4"
        }
      ],
      "stateMutability": "pure",
      "type": "function"
    },
    {
      "inputs": [
        {
          "internalType": "address",
          "name": "operator",
          "type": "address"
        },
        {
          "internalType": "address",
          "name": "from",
          "type": "address"
        },
        {
          "internalType": "uint256",
          "name": "id",
          "type": "uint256"
        },
        {
          "internalType": "uint256",
          "name": "value",
          "type": "uint256"
        },
        {
          "internalType": "bytes",
          "name": "data",
          "type": "bytes"
        }
      ],
      "name": "onERC1155Received",
      "outputs": [
        {
          "internalType": "bytes4",
          "name": "",
          "type": "bytes4"
        }
      ],
      "stateMutability": "pure",
      "type": "function"
    },
    {
      "inputs": [],
      "name": "owner",
      "outputs": [
        {
          "internalType": "address",
          "name": "",
          "type": "address"
        }
      ],
      "stateMutability": "view",
      "type": "function"
    },
    {
      "inputs": [],
      "name": "planetType",
      "outputs": [
        {
          "internalType": "uint256",
          "name": "",
          "type": "uint256"
        }
      ],
      "stateMutability": "view",
      "type": "function"
    },
    {
      "inputs": [],
      "name": "renounceOwnership",
      "outputs": [],
      "stateMutability": "nonpayable",
      "type": "function"
    },
    {
      "inputs": [],
      "name": "rocketType",
      "outputs": [
        {
          "internalType": "uint256",
          "name": "",
          "type": "uint256"
        }
      ],
      "stateMutability": "view",
      "type": "function"
    },
    {
      "inputs": [
        {
          "internalType": "uint256",
          "name": "_tokenId",
          "type": "uint256"
        }
      ],
      "name": "stakeEthOnPlanet",
      "outputs": [
        {
          "internalType": "bool",
          "name": "",
          "type": "bool"
        }
      ],
      "stateMutability": "payable",
      "type": "function"
    },
    {
      "inputs": [
        {
          "internalType": "uint256",
          "name": "",
          "type": "uint256"
        }
      ],
      "name": "stakedEth",
      "outputs": [
        {
          "internalType": "uint256",
          "name": "",
          "type": "uint256"
        }
      ],
      "stateMutability": "view",
      "type": "function"
    },
    {
      "inputs": [
        {
          "internalType": "address",
          "name": "_to",
          "type": "address"
        },
        {
          "internalType": "uint256",
          "name": "_amount",
          "type": "uint256"
        }
      ],
      "name": "transferMafiaToken",
      "outputs": [],
      "stateMutability": "nonpayable",
      "type": "function"
    },
    {
      "inputs": [
        {
          "internalType": "address",
          "name": "newOwner",
          "type": "address"
        }
      ],
      "name": "transferOwnership",
      "outputs": [],
      "stateMutability": "nonpayable",
      "type": "function"
    },
    {
      "inputs": [
        {
          "internalType": "address",
          "name": "_to",
          "type": "address"
        },
        {
          "internalType": "uint256",
          "name": "_id",
          "type": "uint256"
        }
      ],
      "name": "transferPlanet",
      "outputs": [],
      "stateMutability": "nonpayable",
      "type": "function"
    },
    {
      "inputs": [
        {
          "internalType": "address",
          "name": "_to",
          "type": "address"
        },
        {
          "internalType": "uint256",
          "name": "_id",
          "type": "uint256"
        }
      ],
      "name": "transferRocket",
      "outputs": [],
      "stateMutability": "nonpayable",
      "type": "function"
    }
  ],
  "bytecode": "0x608060405260008060146101000a81548160ff0219169083151502179055503480156200002b57600080fd5b506200004c620000406200005260201b60201c565b6200005a60201b60201c565b6200011e565b600033905090565b60008060009054906101000a900473ffffffffffffffffffffffffffffffffffffffff169050816000806101000a81548173ffffffffffffffffffffffffffffffffffffffff021916908373ffffffffffffffffffffffffffffffffffffffff1602179055508173ffffffffffffffffffffffffffffffffffffffff168173ffffffffffffffffffffffffffffffffffffffff167f8be0079c531659141344cd1fd0a4f28419497f9722a3daafe3b4186f6b6457e060405160405180910390a35050565b615af4806200012e6000396000f3fe60806040526004361061023a5760003560e01c8063971c53d41161012e578063c496d708116100ab578063f1288a8d1161006f578063f1288a8d14610968578063f23a6e6114610984578063f2fde38b146109c1578063fc67bf1c146109ea578063ffbec41914610a155761023a565b8063c496d7081461086f578063c4d66de81461089a578063c6414eee146108c3578063c9c9a9f214610900578063e0a5c9491461093d5761023a565b8063b5bab053116100f2578063b5bab05314610750578063b737ed1b1461078d578063b8aa6f02146107ca578063bc197c81146107f5578063bd7047c4146108325761023a565b8063971c53d4146106325780639c86d5301461065b5780639d5dc41614610698578063aed4f39c146106d5578063b1d8c7e3146107135761023a565b806353fad078116101bc578063715018a611610180578063715018a61461056a5780637328fd73146105815780638a0a866a146105ac5780638da5cb5b146105dc578063968b0167146106075761023a565b806353fad0781461046f57806356cdbdcb146104ac57806360a138ed146104d757806360c92db4146105145780636f21de4d1461053f5761023a565b8063311125f711610203578063311125f71461037557806331e6ace01461039e57806334efcb8e146103c95780633d48f982146104075780635374eec3146104325761023a565b8062d36f921461023f5780632479fb8f1461027c57806324b4b928146102be57806329fb518d146102fb5780632b8f107d14610338575b600080fd5b34801561024b57600080fd5b50610266600480360381019061026191906146f3565b610a3e565b6040516102739190615209565b60405180910390f35b34801561028857600080fd5b506102a3600480360381019061029e91906146f3565b610dd6565b6040516102b596959493929190615284565b60405180910390f35b3480156102ca57600080fd5b506102e560048036038101906102e09190614745565b610e1f565b6040516102f29190614f9d565b60405180910390f35b34801561030757600080fd5b50610322600480360381019061031d91906146f3565b610e2d565b60405161032f9190615209565b60405180910390f35b34801561034457600080fd5b5061035f600480360381019061035a9190614781565b610e45565b60405161036c9190615209565b60405180910390f35b34801561038157600080fd5b5061039c60048036038101906103979190614624565b61160f565b005b3480156103aa57600080fd5b506103b36116a7565b6040516103c09190615209565b60405180910390f35b3480156103d557600080fd5b506103f060048036038101906103eb91906146f3565b61175b565b6040516103fe929190614e68565b60405180910390f35b34801561041357600080fd5b5061041c6118c3565b6040516104299190615209565b60405180910390f35b34801561043e57600080fd5b5061045960048036038101906104549190614745565b6118c9565b6040516104669190614f9d565b60405180910390f35b34801561047b57600080fd5b50610496600480360381019061049191906146f3565b611e56565b6040516104a39190615209565b60405180910390f35b3480156104b857600080fd5b506104c1611e6e565b6040516104ce9190615209565b60405180910390f35b3480156104e357600080fd5b506104fe60048036038101906104f991906146f3565b611f22565b60405161050b9190614f9d565b60405180910390f35b34801561052057600080fd5b50610529612460565b6040516105369190615209565b60405180910390f35b34801561054b57600080fd5b50610554612466565b6040516105619190615209565b60405180910390f35b34801561057657600080fd5b5061057f61246c565b005b34801561058d57600080fd5b506105966124f4565b6040516105a39190614fee565b60405180910390f35b6105c660048036038101906105c191906146f3565b61251a565b6040516105d39190614f9d565b60405180910390f35b3480156105e857600080fd5b506105f1612912565b6040516105fe9190614c7b565b60405180910390f35b34801561061357600080fd5b5061061c61293b565b6040516106299190615209565b60405180910390f35b34801561063e57600080fd5b5061065960048036038101906106549190614624565b6129ef565b005b34801561066757600080fd5b50610682600480360381019061067d9190614420565b612a87565b60405161068f9190615209565b60405180910390f35b3480156106a457600080fd5b506106bf60048036038101906106ba91906146f3565b612b3e565b6040516106cc9190615209565b60405180910390f35b3480156106e157600080fd5b506106fc60048036038101906106f791906146f3565b612d2d565b60405161070a929190614e68565b60405180910390f35b34801561071f57600080fd5b5061073a60048036038101906107359190614420565b612e95565b6040516107479190614f7b565b60405180910390f35b34801561075c57600080fd5b50610777600480360381019061077291906146f3565b613129565b6040516107849190615209565b60405180910390f35b34801561079957600080fd5b506107b460048036038101906107af9190614689565b613467565b6040516107c19190615209565b60405180910390f35b3480156107d657600080fd5b506107df6134bd565b6040516107ec9190615209565b60405180910390f35b34801561080157600080fd5b5061081c60048036038101906108179190614472565b6134c3565b6040516108299190614fd3565b60405180910390f35b34801561083e57600080fd5b50610859600480360381019061085491906146f3565b61350a565b6040516108669190615209565b60405180910390f35b34801561087b57600080fd5b50610884613930565b6040516108919190614c7b565b60405180910390f35b3480156108a657600080fd5b506108c160048036038101906108bc9190614420565b613956565b005b3480156108cf57600080fd5b506108ea60048036038101906108e59190614745565b613ca3565b6040516108f79190615209565b60405180910390f35b34801561090c57600080fd5b50610927600480360381019061092291906145d0565b613ce3565b6040516109349190615209565b60405180910390f35b34801561094957600080fd5b50610952613e1c565b60405161095f9190614fd3565b60405180910390f35b610982600480360381019061097d91906146f3565b613e27565b005b34801561099057600080fd5b506109ab60048036038101906109a6919061453e565b613ed2565b6040516109b89190614fd3565b60405180910390f35b3480156109cd57600080fd5b506109e860048036038101906109e39190614420565b613f13565b005b3480156109f657600080fd5b506109ff61400b565b604051610a0c9190614fd3565b60405180910390f35b348015610a2157600080fd5b50610a3c6004803603810190610a379190614624565b614016565b005b600081600073ffffffffffffffffffffffffffffffffffffffff16600160009054906101000a900473ffffffffffffffffffffffffffffffffffffffff1673ffffffffffffffffffffffffffffffffffffffff16633fa9f7f3836040518263ffffffff1660e01b8152600401610ab49190615209565b60206040518083038186803b158015610acc57600080fd5b505afa158015610ae0573d6000803e3d6000fd5b505050506040513d601f19601f82011682018060405250810190610b049190614449565b73ffffffffffffffffffffffffffffffffffffffff161415610b5b576040517f08c379a0000000000000000000000000000000000000000000000000000000008152600401610b5290615049565b60405180910390fd5b600254600160009054906101000a900473ffffffffffffffffffffffffffffffffffffffff1673ffffffffffffffffffffffffffffffffffffffff1663e4b5b61a836040518263ffffffff1660e01b8152600401610bb99190615209565b60206040518083038186803b158015610bd157600080fd5b505afa158015610be5573d6000803e3d6000fd5b505050506040513d601f19601f82011682018060405250810190610c09919061471c565b14610c49576040517f08c379a0000000000000000000000000000000000000000000000000000000008152600401610c40906150c9565b60405180910390fd5b6000600160009054906101000a900473ffffffffffffffffffffffffffffffffffffffff1673ffffffffffffffffffffffffffffffffffffffff16633fa9f7f3856040518263ffffffff1660e01b8152600401610ca69190615209565b60206040518083038186803b158015610cbe57600080fd5b505afa158015610cd2573d6000803e3d6000fd5b505050506040513d601f19601f82011682018060405250810190610cf69190614449565b90506000600160009054906101000a900473ffffffffffffffffffffffffffffffffffffffff1673ffffffffffffffffffffffffffffffffffffffff166379b8d938836004546040518363ffffffff1660e01b8152600401610d59929190614e98565b60206040518083038186803b158015610d7157600080fd5b505afa158015610d85573d6000803e3d6000fd5b505050506040513d601f19601f82011682018060405250810190610da9919061471c565b90506000610db6866140af565b9050610dcb818361413090919063ffffffff16565b945050505050919050565b60096020528060005260406000206000915090508060000154908060010154908060020154908060030154908060040154908060050160009054906101000a900460ff16905086565b600081831115905092915050565b60086020528060005260406000206000915090505481565b600083600073ffffffffffffffffffffffffffffffffffffffff16600160009054906101000a900473ffffffffffffffffffffffffffffffffffffffff1673ffffffffffffffffffffffffffffffffffffffff16633fa9f7f3836040518263ffffffff1660e01b8152600401610ebb9190615209565b60206040518083038186803b158015610ed357600080fd5b505afa158015610ee7573d6000803e3d6000fd5b505050506040513d601f19601f82011682018060405250810190610f0b9190614449565b73ffffffffffffffffffffffffffffffffffffffff161415610f62576040517f08c379a0000000000000000000000000000000000000000000000000000000008152600401610f5990615049565b60405180910390fd5b600254600160009054906101000a900473ffffffffffffffffffffffffffffffffffffffff1673ffffffffffffffffffffffffffffffffffffffff1663e4b5b61a836040518263ffffffff1660e01b8152600401610fc09190615209565b60206040518083038186803b158015610fd857600080fd5b505afa158015610fec573d6000803e3d6000fd5b505050506040513d601f19601f82011682018060405250810190611010919061471c565b14611050576040517f08c379a0000000000000000000000000000000000000000000000000000000008152600401611047906150c9565b60405180910390fd5b83600073ffffffffffffffffffffffffffffffffffffffff16600160009054906101000a900473ffffffffffffffffffffffffffffffffffffffff1673ffffffffffffffffffffffffffffffffffffffff16633fa9f7f3836040518263ffffffff1660e01b81526004016110c49190615209565b60206040518083038186803b1580156110dc57600080fd5b505afa1580156110f0573d6000803e3d6000fd5b505050506040513d601f19601f820116820180604052508101906111149190614449565b73ffffffffffffffffffffffffffffffffffffffff16141561116b576040517f08c379a000000000000000000000000000000000000000000000000000000000815260040161116290615109565b60405180910390fd5b600354600160009054906101000a900473ffffffffffffffffffffffffffffffffffffffff1673ffffffffffffffffffffffffffffffffffffffff1663e4b5b61a836040518263ffffffff1660e01b81526004016111c99190615209565b60206040518083038186803b1580156111e157600080fd5b505afa1580156111f5573d6000803e3d6000fd5b505050506040513d601f19601f82011682018060405250810190611219919061471c565b14611259576040517f08c379a000000000000000000000000000000000000000000000000000000000815260040161125090615089565b60405180910390fd5b6000600160009054906101000a900473ffffffffffffffffffffffffffffffffffffffff1673ffffffffffffffffffffffffffffffffffffffff16633fa9f7f3876040518263ffffffff1660e01b81526004016112b69190615209565b60206040518083038186803b1580156112ce57600080fd5b505afa1580156112e2573d6000803e3d6000fd5b505050506040513d601f19601f820116820180604052508101906113069190614449565b90503373ffffffffffffffffffffffffffffffffffffffff168173ffffffffffffffffffffffffffffffffffffffff1614611376576040517f08c379a000000000000000000000000000000000000000000000000000000000815260040161136d906150a9565b60405180910390fd5b670de0b6b3a76400008510156113c1576040517f08c379a00000000000000000000000000000000000000000000000000000000081526004016113b890615009565b60405180910390fd5b84600160009054906101000a900473ffffffffffffffffffffffffffffffffffffffff1673ffffffffffffffffffffffffffffffffffffffff1662fdd58e336004546040518363ffffffff1660e01b8152600401611420929190614e98565b60206040518083038186803b15801561143857600080fd5b505afa15801561144c573d6000803e3d6000fd5b505050506040513d601f19601f82011682018060405250810190611470919061471c565b10156114b1576040517f08c379a00000000000000000000000000000000000000000000000000000000081526004016114a890615189565b60405180910390fd5b6040518060c001604052808681526020018781526020018881526020016014436114db91906153ac565b815260200186815260200160001515815250600960006006548152602001908152602001600020600082015181600001556020820151816001015560408201518160020155606082015181600301556080820151816004015560a08201518160050160006101000a81548160ff021916908315150217905550905050600160009054906101000a900473ffffffffffffffffffffffffffffffffffffffff1673ffffffffffffffffffffffffffffffffffffffff1663f242432a3330600454896040518563ffffffff1660e01b81526004016115ba9493929190614e10565b600060405180830381600087803b1580156115d457600080fd5b505af11580156115e8573d6000803e3d6000fd5b50505050600660008154809291906115ff9061561a565b9190505593505050509392505050565b600160009054906101000a900473ffffffffffffffffffffffffffffffffffffffff1673ffffffffffffffffffffffffffffffffffffffff1663f242432a33848460016040518563ffffffff1660e01b81526004016116719493929190614d5c565b600060405180830381600087803b15801561168b57600080fd5b505af115801561169f573d6000803e3d6000fd5b505050505050565b6000600160009054906101000a900473ffffffffffffffffffffffffffffffffffffffff1673ffffffffffffffffffffffffffffffffffffffff1663bd85b0396004546040518263ffffffff1660e01b81526004016117069190615209565b60206040518083038186803b15801561171e57600080fd5b505afa158015611732573d6000803e3d6000fd5b505050506040513d601f19601f82011682018060405250810190611756919061471c565b905090565b60006060600160009054906101000a900473ffffffffffffffffffffffffffffffffffffffff1673ffffffffffffffffffffffffffffffffffffffff16633fa9f7f3846040518263ffffffff1660e01b81526004016117ba9190615209565b60206040518083038186803b1580156117d257600080fd5b505afa1580156117e6573d6000803e3d6000fd5b505050506040513d601f19601f8201168201806040525081019061180a9190614449565b600160009054906101000a900473ffffffffffffffffffffffffffffffffffffffff1673ffffffffffffffffffffffffffffffffffffffff16636914db60856040518263ffffffff1660e01b81526004016118659190615209565b60006040518083038186803b15801561187d57600080fd5b505afa158015611891573d6000803e3d6000fd5b505050506040513d6000823e3d601f19601f820116820180604052508101906118ba91906146b2565b91509150915091565b60065481565b6000826006548110611910576040517f08c379a000000000000000000000000000000000000000000000000000000000815260040161190790615169565b60405180910390fd5b6009600082815260200190815260200160002060050160009054906101000a900460ff1615611974576040517f08c379a000000000000000000000000000000000000000000000000000000000815260040161196b906151c9565b60405180910390fd5b600033905060006009600087815260200190815260200160002090506000600160009054906101000a900473ffffffffffffffffffffffffffffffffffffffff1673ffffffffffffffffffffffffffffffffffffffff16633fa9f7f383600101546040518263ffffffff1660e01b81526004016119f19190615209565b60206040518083038186803b158015611a0957600080fd5b505afa158015611a1d573d6000803e3d6000fd5b505050506040513d601f19601f82011682018060405250810190611a419190614449565b9050670de0b6b3a7640000861015611a8e576040517f08c379a0000000000000000000000000000000000000000000000000000000008152600401611a8590615009565b60405180910390fd5b85600160009054906101000a900473ffffffffffffffffffffffffffffffffffffffff1673ffffffffffffffffffffffffffffffffffffffff1662fdd58e856004546040518363ffffffff1660e01b8152600401611aed929190614e98565b60206040518083038186803b158015611b0557600080fd5b505afa158015611b19573d6000803e3d6000fd5b505050506040513d601f19601f82011682018060405250810190611b3d919061471c565b1015611b7e576040517f08c379a0000000000000000000000000000000000000000000000000000000008152600401611b7590615189565b60405180910390fd5b600082600301549050804310611bc9576040517f08c379a0000000000000000000000000000000000000000000000000000000008152600401611bc090615029565b60405180910390fd5b60008790506000611be785600001548a61413090919063ffffffff16565b90506000611bf58383613ca3565b90506000611c0f600143611c09919061548d565b40613467565b9050600160009054906101000a900473ffffffffffffffffffffffffffffffffffffffff1673ffffffffffffffffffffffffffffffffffffffff1663f242432a89306004548f6040518563ffffffff1660e01b8152600401611c749493929190614e10565b600060405180830381600087803b158015611c8e57600080fd5b505af1158015611ca2573d6000803e3d6000fd5b505050508a8760000154611cb691906153ac565b8760000181905550611cc88183610e1f565b15611e2d57600160009054906101000a900473ffffffffffffffffffffffffffffffffffffffff1673ffffffffffffffffffffffffffffffffffffffff1663f242432a8760008a6001015460006040518563ffffffff1660e01b8152600401611d349493929190614d04565b600060405180830381600087803b158015611d4e57600080fd5b505af1158015611d62573d6000803e3d6000fd5b5050505060018760050160006101000a81548160ff021916908315150217905550600160009054906101000a900473ffffffffffffffffffffffffffffffffffffffff1673ffffffffffffffffffffffffffffffffffffffff1663f242432a308a6004548b600001546040518563ffffffff1660e01b8152600401611dea9493929190614e10565b600060405180830381600087803b158015611e0457600080fd5b505af1158015611e18573d6000803e3d6000fd5b50505050600199505050505050505050611e4f565b601443611e3a91906153ac565b87600301819055506000995050505050505050505b5092915050565b60076020528060005260406000206000915090505481565b6000600160009054906101000a900473ffffffffffffffffffffffffffffffffffffffff1673ffffffffffffffffffffffffffffffffffffffff1663bd85b0396002546040518263ffffffff1660e01b8152600401611ecd9190615209565b60206040518083038186803b158015611ee557600080fd5b505afa158015611ef9573d6000803e3d6000fd5b505050506040513d601f19601f82011682018060405250810190611f1d919061471c565b905090565b6000816006548110611f69576040517f08c379a0000000000000000000000000000000000000000000000000000000008152600401611f6090615169565b60405180910390fd5b6009600082815260200190815260200160002060050160009054906101000a900460ff1615611fcd576040517f08c379a0000000000000000000000000000000000000000000000000000000008152600401611fc4906151c9565b60405180910390fd5b6000611fd884612b3e565b905060006009600086815260200190815260200160002090506000816003015490508043101561203d576040517f08c379a0000000000000000000000000000000000000000000000000000000008152600401612034906151e9565b60405180910390fd5b60006120498240613467565b905060018360050160006101000a81548160ff0219169083151502179055506000600160009054906101000a900473ffffffffffffffffffffffffffffffffffffffff1673ffffffffffffffffffffffffffffffffffffffff16633fa9f7f385600201546040518263ffffffff1660e01b81526004016120c99190615209565b60206040518083038186803b1580156120e157600080fd5b505afa1580156120f5573d6000803e3d6000fd5b505050506040513d601f19601f820116820180604052508101906121199190614449565b90506000600160009054906101000a900473ffffffffffffffffffffffffffffffffffffffff1673ffffffffffffffffffffffffffffffffffffffff16633fa9f7f386600101546040518263ffffffff1660e01b815260040161217c9190615209565b60206040518083038186803b15801561219457600080fd5b505afa1580156121a8573d6000803e3d6000fd5b505050506040513d601f19601f820116820180604052508101906121cc9190614449565b9050600160009054906101000a900473ffffffffffffffffffffffffffffffffffffffff1673ffffffffffffffffffffffffffffffffffffffff1663f242432a826000886001015460006040518563ffffffff1660e01b81526004016122359493929190614d04565b600060405180830381600087803b15801561224f57600080fd5b505af1158015612263573d6000803e3d6000fd5b505050506122718387610e1f565b1561231e57600160009054906101000a900473ffffffffffffffffffffffffffffffffffffffff1673ffffffffffffffffffffffffffffffffffffffff1663f242432a308460045489600001546040518563ffffffff1660e01b81526004016122dd9493929190614e10565b600060405180830381600087803b1580156122f757600080fd5b505af115801561230b573d6000803e3d6000fd5b505050506000975050505050505061245a565b600160009054906101000a900473ffffffffffffffffffffffffffffffffffffffff1673ffffffffffffffffffffffffffffffffffffffff1663f242432a308360045489600001546040518563ffffffff1660e01b81526004016123859493929190614e10565b600060405180830381600087803b15801561239f57600080fd5b505af11580156123b3573d6000803e3d6000fd5b50505050600160009054906101000a900473ffffffffffffffffffffffffffffffffffffffff1673ffffffffffffffffffffffffffffffffffffffff1663f242432a8383886002015460006040518563ffffffff1660e01b815260040161241d9493929190614d04565b600060405180830381600087803b15801561243757600080fd5b505af115801561244b573d6000803e3d6000fd5b50505050600197505050505050505b50919050565b60025481565b60045481565b612474614146565b73ffffffffffffffffffffffffffffffffffffffff16612492612912565b73ffffffffffffffffffffffffffffffffffffffff16146124e8576040517f08c379a00000000000000000000000000000000000000000000000000000000081526004016124df906150e9565b60405180910390fd5b6124f2600061414e565b565b600160009054906101000a900473ffffffffffffffffffffffffffffffffffffffff1681565b600081600073ffffffffffffffffffffffffffffffffffffffff16600160009054906101000a900473ffffffffffffffffffffffffffffffffffffffff1673ffffffffffffffffffffffffffffffffffffffff16633fa9f7f3836040518263ffffffff1660e01b81526004016125909190615209565b60206040518083038186803b1580156125a857600080fd5b505afa1580156125bc573d6000803e3d6000fd5b505050506040513d601f19601f820116820180604052508101906125e09190614449565b73ffffffffffffffffffffffffffffffffffffffff161415612637576040517f08c379a000000000000000000000000000000000000000000000000000000000815260040161262e90615049565b60405180910390fd5b600254600160009054906101000a900473ffffffffffffffffffffffffffffffffffffffff1673ffffffffffffffffffffffffffffffffffffffff1663e4b5b61a836040518263ffffffff1660e01b81526004016126959190615209565b60206040518083038186803b1580156126ad57600080fd5b505afa1580156126c1573d6000803e3d6000fd5b505050506040513d601f19601f820116820180604052508101906126e5919061471c565b14612725576040517f08c379a000000000000000000000000000000000000000000000000000000000815260040161271c906150c9565b60405180910390fd5b60003411612768576040517f08c379a000000000000000000000000000000000000000000000000000000000815260040161275f90615149565b60405180910390fd5b6000600160009054906101000a900473ffffffffffffffffffffffffffffffffffffffff1673ffffffffffffffffffffffffffffffffffffffff16633fa9f7f3856040518263ffffffff1660e01b81526004016127c59190615209565b60206040518083038186803b1580156127dd57600080fd5b505afa1580156127f1573d6000803e3d6000fd5b505050506040513d601f19601f820116820180604052508101906128159190614449565b9050600160009054906101000a900473ffffffffffffffffffffffffffffffffffffffff1673ffffffffffffffffffffffffffffffffffffffff1663a1eb700160045483612862886140af565b6040518463ffffffff1660e01b81526004016128809392919061524d565b600060405180830381600087803b15801561289a57600080fd5b505af11580156128ae573d6000803e3d6000fd5b505050506128d834600760008781526020019081526020016000205461413090919063ffffffff16565b6007600086815260200190815260200160002081905550426008600086815260200190815260200160002081905550600192505050919050565b60008060009054906101000a900473ffffffffffffffffffffffffffffffffffffffff16905090565b6000600160009054906101000a900473ffffffffffffffffffffffffffffffffffffffff1673ffffffffffffffffffffffffffffffffffffffff1663bd85b0396003546040518263ffffffff1660e01b815260040161299a9190615209565b60206040518083038186803b1580156129b257600080fd5b505afa1580156129c6573d6000803e3d6000fd5b505050506040513d601f19601f820116820180604052508101906129ea919061471c565b905090565b600160009054906101000a900473ffffffffffffffffffffffffffffffffffffffff1673ffffffffffffffffffffffffffffffffffffffff1663f242432a33848460016040518563ffffffff1660e01b8152600401612a519493929190614d5c565b600060405180830381600087803b158015612a6b57600080fd5b505af1158015612a7f573d6000803e3d6000fd5b505050505050565b6000600160009054906101000a900473ffffffffffffffffffffffffffffffffffffffff1673ffffffffffffffffffffffffffffffffffffffff1662fdd58e836004546040518363ffffffff1660e01b8152600401612ae7929190614e98565b60206040518083038186803b158015612aff57600080fd5b505afa158015612b13573d6000803e3d6000fd5b505050506040513d601f19601f82011682018060405250810190612b37919061471c565b9050919050565b6000816006548110612b85576040517f08c379a0000000000000000000000000000000000000000000000000000000008152600401612b7c90615169565b60405180910390fd5b6009600082815260200190815260200160002060050160009054906101000a900460ff1615612be9576040517f08c379a0000000000000000000000000000000000000000000000000000000008152600401612be0906151c9565b60405180910390fd5b6006548310612c2d576040517f08c379a0000000000000000000000000000000000000000000000000000000008152600401612c2490615169565b60405180910390fd5b60006009600085815260200190815260200160002090508060050160009054906101000a900460ff1615612c96576040517f08c379a0000000000000000000000000000000000000000000000000000000008152600401612c8d906151c9565b60405180910390fd5b6000612cca670de0b6b3a764000060076000856002015481526020019081526020016000205461413090919063ffffffff16565b90506000612d16670de0b6b3a7640000612d08856000015460076000886002015481526020019081526020016000205461413090919063ffffffff16565b61413090919063ffffffff16565b9050612d228282613ca3565b945050505050919050565b60006060600160009054906101000a900473ffffffffffffffffffffffffffffffffffffffff1673ffffffffffffffffffffffffffffffffffffffff16633fa9f7f3846040518263ffffffff1660e01b8152600401612d8c9190615209565b60206040518083038186803b158015612da457600080fd5b505afa158015612db8573d6000803e3d6000fd5b505050506040513d601f19601f82011682018060405250810190612ddc9190614449565b600160009054906101000a900473ffffffffffffffffffffffffffffffffffffffff1673ffffffffffffffffffffffffffffffffffffffff16636914db60856040518263ffffffff1660e01b8152600401612e379190615209565b60006040518083038186803b158015612e4f57600080fd5b505afa158015612e63573d6000803e3d6000fd5b505050506040513d6000823e3d601f19601f82011682018060405250810190612e8c91906146b2565b91509150915091565b60606000600160009054906101000a900473ffffffffffffffffffffffffffffffffffffffff1673ffffffffffffffffffffffffffffffffffffffff1663bd85b0396002546040518263ffffffff1660e01b8152600401612ef69190615209565b60206040518083038186803b158015612f0e57600080fd5b505afa158015612f22573d6000803e3d6000fd5b505050506040513d601f19601f82011682018060405250810190612f46919061471c565b90508067ffffffffffffffff811115612f88577f4e487b7100000000000000000000000000000000000000000000000000000000600052604160045260246000fd5b604051908082528060200260200182016040528015612fb65781602001602082028036833780820191505090505b50915060005b81811015613122576000612fe7600183612fd691906153ac565b60025461413090919063ffffffff16565b90508473ffffffffffffffffffffffffffffffffffffffff16600160009054906101000a900473ffffffffffffffffffffffffffffffffffffffff1673ffffffffffffffffffffffffffffffffffffffff16633fa9f7f3836040518263ffffffff1660e01b815260040161305b9190615209565b60206040518083038186803b15801561307357600080fd5b505afa158015613087573d6000803e3d6000fd5b505050506040513d601f19601f820116820180604052508101906130ab9190614449565b73ffffffffffffffffffffffffffffffffffffffff16141561310e5780848381518110613101577f4e487b7100000000000000000000000000000000000000000000000000000000600052603260045260246000fd5b6020026020010181815250505b50808061311a9061561a565b915050612fbc565b5050919050565b600080600160009054906101000a900473ffffffffffffffffffffffffffffffffffffffff1673ffffffffffffffffffffffffffffffffffffffff16633fa9f7f3846040518263ffffffff1660e01b81526004016131879190615209565b60206040518083038186803b15801561319f57600080fd5b505afa1580156131b3573d6000803e3d6000fd5b505050506040513d601f19601f820116820180604052508101906131d79190614449565b9050670de0b6b3a7640000600160009054906101000a900473ffffffffffffffffffffffffffffffffffffffff1673ffffffffffffffffffffffffffffffffffffffff1662fdd58e336004546040518363ffffffff1660e01b8152600401613240929190614e98565b60206040518083038186803b15801561325857600080fd5b505afa15801561326c573d6000803e3d6000fd5b505050506040513d601f19601f82011682018060405250810190613290919061471c565b10156132d1576040517f08c379a00000000000000000000000000000000000000000000000000000000081526004016132c890615129565b60405180910390fd5b600160009054906101000a900473ffffffffffffffffffffffffffffffffffffffff1673ffffffffffffffffffffffffffffffffffffffff1663717b7f3633600454670de0b6b3a76400006040518463ffffffff1660e01b815260040161333a93929190614f44565b602060405180830381600087803b15801561335457600080fd5b505af1158015613368573d6000803e3d6000fd5b505050506040513d601f19601f8201168201806040525081019061338c9190614660565b50600160009054906101000a900473ffffffffffffffffffffffffffffffffffffffff1673ffffffffffffffffffffffffffffffffffffffff166398b4ad6f82600354866040516020016133e09190614c4a565b6040516020818303038152906040526040518463ffffffff1660e01b815260040161340d93929190614f06565b602060405180830381600087803b15801561342757600080fd5b505af115801561343b573d6000803e3d6000fd5b505050506040513d601f19601f8201168201806040525081019061345f919061471c565b915050919050565b60006134b67001000000000000000000000000000000008360405160200161348f9190614fb8565b6040516020818303038152906040528051906020012060001c61421290919063ffffffff16565b9050919050565b60035481565b600088888888888888886040516020016134e4989796959493929190614c96565b6040516020818303038152906040525063bc197c8160e01b905098975050505050505050565b600081600073ffffffffffffffffffffffffffffffffffffffff16600160009054906101000a900473ffffffffffffffffffffffffffffffffffffffff1673ffffffffffffffffffffffffffffffffffffffff16633fa9f7f3836040518263ffffffff1660e01b81526004016135809190615209565b60206040518083038186803b15801561359857600080fd5b505afa1580156135ac573d6000803e3d6000fd5b505050506040513d601f19601f820116820180604052508101906135d09190614449565b73ffffffffffffffffffffffffffffffffffffffff161415613627576040517f08c379a000000000000000000000000000000000000000000000000000000000815260040161361e90615049565b60405180910390fd5b600254600160009054906101000a900473ffffffffffffffffffffffffffffffffffffffff1673ffffffffffffffffffffffffffffffffffffffff1663e4b5b61a836040518263ffffffff1660e01b81526004016136859190615209565b60206040518083038186803b15801561369d57600080fd5b505afa1580156136b1573d6000803e3d6000fd5b505050506040513d601f19601f820116820180604052508101906136d5919061471c565b14613715576040517f08c379a000000000000000000000000000000000000000000000000000000000815260040161370c906150c9565b60405180910390fd5b6000600160009054906101000a900473ffffffffffffffffffffffffffffffffffffffff1673ffffffffffffffffffffffffffffffffffffffff16633fa9f7f3856040518263ffffffff1660e01b81526004016137729190615209565b60206040518083038186803b15801561378a57600080fd5b505afa15801561379e573d6000803e3d6000fd5b505050506040513d601f19601f820116820180604052508101906137c29190614449565b9050600160009054906101000a900473ffffffffffffffffffffffffffffffffffffffff1673ffffffffffffffffffffffffffffffffffffffff1663a1eb70016004548361380f886140af565b6040518463ffffffff1660e01b815260040161382d9392919061524d565b600060405180830381600087803b15801561384757600080fd5b505af115801561385b573d6000803e3d6000fd5b50505050426008600086815260200190815260200160002081905550600160009054906101000a900473ffffffffffffffffffffffffffffffffffffffff1673ffffffffffffffffffffffffffffffffffffffff1662ffc135600454836040518363ffffffff1660e01b81526004016138d5929190615224565b602060405180830381600087803b1580156138ef57600080fd5b505af1158015613903573d6000803e3d6000fd5b505050506040513d601f19601f82011682018060405250810190613927919061471c565b92505050919050565b600560009054906101000a900473ffffffffffffffffffffffffffffffffffffffff1681565b61395e614146565b73ffffffffffffffffffffffffffffffffffffffff1661397c612912565b73ffffffffffffffffffffffffffffffffffffffff16146139d2576040517f08c379a00000000000000000000000000000000000000000000000000000000081526004016139c9906150e9565b60405180910390fd5b60001515600060149054906101000a900460ff16151514613a28576040517f08c379a0000000000000000000000000000000000000000000000000000000008152600401613a1f906151a9565b60405180910390fd5b80600160006101000a81548173ffffffffffffffffffffffffffffffffffffffff021916908373ffffffffffffffffffffffffffffffffffffffff160217905550600160009054906101000a900473ffffffffffffffffffffffffffffffffffffffff1673ffffffffffffffffffffffffffffffffffffffff166305caa0ff60006040518263ffffffff1660e01b8152600401613ac59190614f9d565b602060405180830381600087803b158015613adf57600080fd5b505af1158015613af3573d6000803e3d6000fd5b505050506040513d601f19601f82011682018060405250810190613b17919061471c565b600481905550600160009054906101000a900473ffffffffffffffffffffffffffffffffffffffff1673ffffffffffffffffffffffffffffffffffffffff166305caa0ff60016040518263ffffffff1660e01b8152600401613b799190614f9d565b602060405180830381600087803b158015613b9357600080fd5b505af1158015613ba7573d6000803e3d6000fd5b505050506040513d601f19601f82011682018060405250810190613bcb919061471c565b600281905550600160009054906101000a900473ffffffffffffffffffffffffffffffffffffffff1673ffffffffffffffffffffffffffffffffffffffff166305caa0ff60016040518263ffffffff1660e01b8152600401613c2d9190614f9d565b602060405180830381600087803b158015613c4757600080fd5b505af1158015613c5b573d6000803e3d6000fd5b505050506040513d601f19601f82011682018060405250810190613c7f919061471c565b6003819055506001600060146101000a81548160ff02191690831515021790555050565b6000613cdb82613ccd7001000000000000000000000000000000008661422890919063ffffffff16565b61421290919063ffffffff16565b905092915050565b6000613ced614146565b73ffffffffffffffffffffffffffffffffffffffff16613d0b612912565b73ffffffffffffffffffffffffffffffffffffffff1614613d61576040517f08c379a0000000000000000000000000000000000000000000000000000000008152600401613d58906150e9565b60405180910390fd5b600160009054906101000a900473ffffffffffffffffffffffffffffffffffffffff1673ffffffffffffffffffffffffffffffffffffffff166398b4ad6f84600254856040518463ffffffff1660e01b8152600401613dc293929190614f06565b602060405180830381600087803b158015613ddc57600080fd5b505af1158015613df0573d6000803e3d6000fd5b505050506040513d601f19601f82011682018060405250810190613e14919061471c565b905092915050565b63f23a6e6160e01b81565b600560009054906101000a900473ffffffffffffffffffffffffffffffffffffffff1673ffffffffffffffffffffffffffffffffffffffff1663e8eda9df73eeeeeeeeeeeeeeeeeeeeeeeeeeeeeeeeeeeeeeee833060006040518563ffffffff1660e01b8152600401613e9d9493929190614ec1565b600060405180830381600087803b158015613eb757600080fd5b505af1158015613ecb573d6000803e3d6000fd5b5050505050565b6000868686868686604051602001613eef96959493929190614db4565b6040516020818303038152906040525063f23a6e6160e01b90509695505050505050565b613f1b614146565b73ffffffffffffffffffffffffffffffffffffffff16613f39612912565b73ffffffffffffffffffffffffffffffffffffffff1614613f8f576040517f08c379a0000000000000000000000000000000000000000000000000000000008152600401613f86906150e9565b60405180910390fd5b600073ffffffffffffffffffffffffffffffffffffffff168173ffffffffffffffffffffffffffffffffffffffff161415613fff576040517f08c379a0000000000000000000000000000000000000000000000000000000008152600401613ff690615069565b60405180910390fd5b6140088161414e565b50565b63bc197c8160e01b81565b600160009054906101000a900473ffffffffffffffffffffffffffffffffffffffff1673ffffffffffffffffffffffffffffffffffffffff1663f242432a3384600454856040518563ffffffff1660e01b81526004016140799493929190614e10565b600060405180830381600087803b15801561409357600080fd5b505af11580156140a7573d6000803e3d6000fd5b505050505050565b60008060086000848152602001908152602001600020541461412b5760006008600084815260200190815260200160002054426140ec919061548d565b9050614127600161411983600760008881526020019081526020016000205461422890919063ffffffff16565b61421290919063ffffffff16565b9150505b919050565b6000818361413e91906153ac565b905092915050565b600033905090565b60008060009054906101000a900473ffffffffffffffffffffffffffffffffffffffff169050816000806101000a81548173ffffffffffffffffffffffffffffffffffffffff021916908373ffffffffffffffffffffffffffffffffffffffff1602179055508173ffffffffffffffffffffffffffffffffffffffff168173ffffffffffffffffffffffffffffffffffffffff167f8be0079c531659141344cd1fd0a4f28419497f9722a3daafe3b4186f6b6457e060405160405180910390a35050565b600081836142209190615402565b905092915050565b600081836142369190615433565b905092915050565b600061425161424c8461530a565b6152e5565b90508281526020810184848401111561426957600080fd5b6142748482856155a7565b509392505050565b600061428f61428a8461530a565b6152e5565b9050828152602081018484840111156142a757600080fd5b6142b28482856155b6565b509392505050565b6000813590506142c981615a62565b92915050565b6000815190506142de81615a62565b92915050565b60008083601f8401126142f657600080fd5b8235905067ffffffffffffffff81111561430f57600080fd5b60208301915083602082028301111561432757600080fd5b9250929050565b60008151905061433d81615a79565b92915050565b60008135905061435281615a90565b92915050565b60008083601f84011261436a57600080fd5b8235905067ffffffffffffffff81111561438357600080fd5b60208301915083600182028301111561439b57600080fd5b9250929050565b600082601f8301126143b357600080fd5b81356143c384826020860161423e565b91505092915050565b600082601f8301126143dd57600080fd5b81516143ed84826020860161427c565b91505092915050565b60008135905061440581615aa7565b92915050565b60008151905061441a81615aa7565b92915050565b60006020828403121561443257600080fd5b6000614440848285016142ba565b91505092915050565b60006020828403121561445b57600080fd5b6000614469848285016142cf565b91505092915050565b60008060008060008060008060a0898b03121561448e57600080fd5b600061449c8b828c016142ba565b98505060206144ad8b828c016142ba565b975050604089013567ffffffffffffffff8111156144ca57600080fd5b6144d68b828c016142e4565b9650965050606089013567ffffffffffffffff8111156144f557600080fd5b6145018b828c016142e4565b9450945050608089013567ffffffffffffffff81111561452057600080fd5b61452c8b828c01614358565b92509250509295985092959890939650565b60008060008060008060a0878903121561455757600080fd5b600061456589828a016142ba565b965050602061457689828a016142ba565b955050604061458789828a016143f6565b945050606061459889828a016143f6565b935050608087013567ffffffffffffffff8111156145b557600080fd5b6145c189828a01614358565b92509250509295509295509295565b600080604083850312156145e357600080fd5b60006145f1858286016142ba565b925050602083013567ffffffffffffffff81111561460e57600080fd5b61461a858286016143a2565b9150509250929050565b6000806040838503121561463757600080fd5b6000614645858286016142ba565b9250506020614656858286016143f6565b9150509250929050565b60006020828403121561467257600080fd5b60006146808482850161432e565b91505092915050565b60006020828403121561469b57600080fd5b60006146a984828501614343565b91505092915050565b6000602082840312156146c457600080fd5b600082015167ffffffffffffffff8111156146de57600080fd5b6146ea848285016143cc565b91505092915050565b60006020828403121561470557600080fd5b6000614713848285016143f6565b91505092915050565b60006020828403121561472e57600080fd5b600061473c8482850161440b565b91505092915050565b6000806040838503121561475857600080fd5b6000614766858286016143f6565b9250506020614777858286016143f6565b9150509250929050565b60008060006060848603121561479657600080fd5b60006147a4868287016143f6565b93505060206147b5868287016143f6565b92505060406147c6868287016143f6565b9150509250925092565b60006147dc8383614c15565b60208301905092915050565b6147f1816154c1565b82525050565b6000614803838561536e565b93507f07ffffffffffffffffffffffffffffffffffffffffffffffffffffffffffffff83111561483257600080fd5b6020830292506148438385846155a7565b82840190509392505050565b600061485a8261534b565b614864818561536e565b935061486f8361533b565b8060005b838110156148a057815161488788826147d0565b975061489283615361565b925050600181019050614873565b5085935050505092915050565b6148b6816154d3565b82525050565b6148c5816154df565b82525050565b6148d4816154e9565b82525050565b60006148e6838561537f565b93506148f38385846155a7565b6148fc836156fa565b840190509392505050565b6149108161554d565b82525050565b61491f81615571565b82525050565b61492e81615583565b82525050565b61493d81615595565b82525050565b600061494e82615356565b6149588185615390565b93506149688185602086016155b6565b614971816156fa565b840191505092915050565b6000614989601783615390565b91506149948261570b565b602082019050919050565b60006149ac601a83615390565b91506149b782615734565b602082019050919050565b60006149cf601583615390565b91506149da8261575d565b602082019050919050565b60006149f2602683615390565b91506149fd82615786565b604082019050919050565b6000614a156008836153a1565b9150614a20826157d5565b600882019050919050565b6000614a38601683615390565b9150614a43826157fe565b602082019050919050565b6000614a5b601683615390565b9150614a6682615827565b602082019050919050565b6000614a7e601683615390565b9150614a8982615850565b602082019050919050565b6000614aa16001836153a1565b9150614aac82615879565b600182019050919050565b6000614ac4602083615390565b9150614acf826158a2565b602082019050919050565b6000614ae7601583615390565b9150614af2826158cb565b602082019050919050565b6000614b0a602383615390565b9150614b15826158f4565b604082019050919050565b6000614b2d601e83615390565b9150614b3882615943565b602082019050919050565b6000614b5060008361537f565b9150614b5b8261596c565b600082019050919050565b6000614b73600e83615390565b9150614b7e8261596f565b602082019050919050565b6000614b96602983615390565b9150614ba182615998565b604082019050919050565b6000614bb9601383615390565b9150614bc4826159e7565b602082019050919050565b6000614bdc602083615390565b9150614be782615a10565b602082019050919050565b6000614bff601a83615390565b9150614c0a82615a39565b602082019050919050565b614c1e81615543565b82525050565b614c2d81615543565b82525050565b614c44614c3f82615543565b615663565b82525050565b6000614c5582614a08565b9150614c618284614c33565b602082019150614c7082614a94565b915081905092915050565b6000602082019050614c9060008301846147e8565b92915050565b600060a082019050614cab600083018b6147e8565b614cb8602083018a6147e8565b8181036040830152614ccb81888a6147f7565b90508181036060830152614ce08186886147f7565b90508181036080830152614cf58184866148da565b90509998505050505050505050565b600060a082019050614d1960008301876147e8565b614d2660208301866147e8565b614d336040830185614c24565b614d406060830184614925565b8181036080830152614d5181614b43565b905095945050505050565b600060a082019050614d7160008301876147e8565b614d7e60208301866147e8565b614d8b6040830185614c24565b614d986060830184614934565b8181036080830152614da981614b43565b905095945050505050565b600060a082019050614dc960008301896147e8565b614dd660208301886147e8565b614de36040830187614c24565b614df06060830186614c24565b8181036080830152614e038184866148da565b9050979650505050505050565b600060a082019050614e2560008301876147e8565b614e3260208301866147e8565b614e3f6040830185614c24565b614e4c6060830184614c24565b8181036080830152614e5d81614b43565b905095945050505050565b6000604082019050614e7d60008301856147e8565b8181036020830152614e8f8184614943565b90509392505050565b6000604082019050614ead60008301856147e8565b614eba6020830184614c24565b9392505050565b6000608082019050614ed660008301876147e8565b614ee36020830186614c24565b614ef060408301856147e8565b614efd6060830184614916565b95945050505050565b6000606082019050614f1b60008301866147e8565b614f286020830185614c24565b8181036040830152614f3a8184614943565b9050949350505050565b6000606082019050614f5960008301866147e8565b614f666020830185614c24565b614f736040830184614c24565b949350505050565b60006020820190508181036000830152614f95818461484f565b905092915050565b6000602082019050614fb260008301846148ad565b92915050565b6000602082019050614fcd60008301846148bc565b92915050565b6000602082019050614fe860008301846148cb565b92915050565b60006020820190506150036000830184614907565b92915050565b600060208201905081810360008301526150228161497c565b9050919050565b600060208201905081810360008301526150428161499f565b9050919050565b60006020820190508181036000830152615062816149c2565b9050919050565b60006020820190508181036000830152615082816149e5565b9050919050565b600060208201905081810360008301526150a281614a2b565b9050919050565b600060208201905081810360008301526150c281614a4e565b9050919050565b600060208201905081810360008301526150e281614a71565b9050919050565b6000602082019050818103600083015261510281614ab7565b9050919050565b6000602082019050818103600083015261512281614ada565b9050919050565b6000602082019050818103600083015261514281614afd565b9050919050565b6000602082019050818103600083015261516281614b20565b9050919050565b6000602082019050818103600083015261518281614b66565b9050919050565b600060208201905081810360008301526151a281614b89565b9050919050565b600060208201905081810360008301526151c281614bac565b9050919050565b600060208201905081810360008301526151e281614bcf565b9050919050565b6000602082019050818103600083015261520281614bf2565b9050919050565b600060208201905061521e6000830184614c24565b92915050565b60006040820190506152396000830185614c24565b61524660208301846147e8565b9392505050565b60006060820190506152626000830186614c24565b61526f60208301856147e8565b61527c6040830184614c24565b949350505050565b600060c0820190506152996000830189614c24565b6152a66020830188614c24565b6152b36040830187614c24565b6152c06060830186614c24565b6152cd6080830185614c24565b6152da60a08301846148ad565b979650505050505050565b60006152ef615300565b90506152fb82826155e9565b919050565b6000604051905090565b600067ffffffffffffffff821115615325576153246156cb565b5b61532e826156fa565b9050602081019050919050565b6000819050602082019050919050565b600081519050919050565b600081519050919050565b6000602082019050919050565b600082825260208201905092915050565b600082825260208201905092915050565b600082825260208201905092915050565b600081905092915050565b60006153b782615543565b91506153c283615543565b9250827fffffffffffffffffffffffffffffffffffffffffffffffffffffffffffffffff038211156153f7576153f661566d565b5b828201905092915050565b600061540d82615543565b915061541883615543565b9250826154285761542761569c565b5b828204905092915050565b600061543e82615543565b915061544983615543565b9250817fffffffffffffffffffffffffffffffffffffffffffffffffffffffffffffffff04831182151516156154825761548161566d565b5b828202905092915050565b600061549882615543565b91506154a383615543565b9250828210156154b6576154b561566d565b5b828203905092915050565b60006154cc82615523565b9050919050565b60008115159050919050565b6000819050919050565b60007fffffffff0000000000000000000000000000000000000000000000000000000082169050919050565b600061ffff82169050919050565b600073ffffffffffffffffffffffffffffffffffffffff82169050919050565b6000819050919050565b60006155588261555f565b9050919050565b600061556a82615523565b9050919050565b600061557c82615515565b9050919050565b600061558e82615543565b9050919050565b60006155a082615543565b9050919050565b82818337600083830152505050565b60005b838110156155d45780820151818401526020810190506155b9565b838111156155e3576000848401525b50505050565b6155f2826156fa565b810181811067ffffffffffffffff82111715615611576156106156cb565b5b80604052505050565b600061562582615543565b91507fffffffffffffffffffffffffffffffffffffffffffffffffffffffffffffffff8214156156585761565761566d565b5b600182019050919050565b6000819050919050565b7f4e487b7100000000000000000000000000000000000000000000000000000000600052601160045260246000fd5b7f4e487b7100000000000000000000000000000000000000000000000000000000600052601260045260246000fd5b7f4e487b7100000000000000000000000000000000000000000000000000000000600052604160045260246000fd5b6000601f19601f8301169050919050565b7f4d697373696f6e20636f737420697320746f6f206c6f77000000000000000000600082015250565b7f41747461636b20697320616c726561647920636f6d706c657465000000000000600082015250565b7f506c616e657420646f6573206e6f742065786973740000000000000000000000600082015250565b7f4f776e61626c653a206e6577206f776e657220697320746865207a65726f206160008201527f6464726573730000000000000000000000000000000000000000000000000000602082015250565b7f7b706c616e65743a000000000000000000000000000000000000000000000000600082015250565b7f526f636b6574206973206e6f74206120726f636b657400000000000000000000600082015250565b7f41747461636b6572206973206e6f742073656e64657200000000000000000000600082015250565b7f506c616e6574206973206e6f74206120706c616e657400000000000000000000600082015250565b7f7d00000000000000000000000000000000000000000000000000000000000000600082015250565b7f4f776e61626c653a2063616c6c6572206973206e6f7420746865206f776e6572600082015250565b7f526f636b657420646f6573206e6f742065786973740000000000000000000000600082015250565b7f53656e64657220646f6573206e6f74206861766520656e6f7567682062616c6160008201527f6e63650000000000000000000000000000000000000000000000000000000000602082015250565b7f4e6f207374616b696e6720616d6f756e74206973206d656e74696f6e65640000600082015250565b50565b7f496e76616c6964206e756b654964000000000000000000000000000000000000600082015250565b7f53656e64657220646f6573206e6f74206861766520656e6f756768204d41464960008201527f412062616c616e63650000000000000000000000000000000000000000000000602082015250565b7f416c726561647920696e697469616c697a656400000000000000000000000000600082015250565b7f41747461636b2068617320616c7265616479206265656e207265736f6c766564600082015250565b7f41747461636b206e6f742066696e616c697a61626c6520796574000000000000600082015250565b615a6b816154c1565b8114615a7657600080fd5b50565b615a82816154d3565b8114615a8d57600080fd5b50565b615a99816154df565b8114615aa457600080fd5b50565b615ab081615543565b8114615abb57600080fd5b5056fea2646970667358221220e9201ae4ca48edf4818066ee3256fee7cfd34b76657ce8a76b511078d77ba0a964736f6c63430008040033",
  "linkReferences": {},
  "deployedLinkReferences": {}
}